:020000042000DA
:1000000000850020A1040020A9040020AB040020EA
:10001000AD040020AF040020B10400200000000067
:10002000FFFFFFFF0000000000000000B3040020FD
:10003000B504002000000000B7040020B90400202F
:10004000BB040020BF040020C3040020C70400201C
:10005000CB040020CF040020D3040020D7040020CC
:10006000DB040020DF040020E3040020E70400207C
:10007000EB040020EF040020F3040020F70400202C
:10008000FB040020FF0400200305002007050020DA
:100090000B0500200F050020130500201705002088
:1000A0001B0500201F050020230500202705002038
:1000B0002B0500202F0500203305002037050020E8
:1000C0003B0500203F050020430500204705002098
:1000D0004B0500204F050020530500205705002048
:1000E0005B0500205F0500206305002067050020F8
:1000F0006B0500206F0500207305002077050020A8
:100100007B0500207F050020830500208705002057
:100110008B0500208F050020930500209705002007
:040120009B0500201B
:020000042000DA
:1004000000F002F800F03CF80AA090E8000C8244EA
:100410008344AAF10107DA4501D100F031F8AFF2C7
:10042000090EBAE80F0013F0010F18BFFB1A43F0D2
:10043000010318474C2200006C220000103A24BF30
:1004400078C878C1FAD8520724BF30C830C144BF39
:1004500004680C607047000000230024002500267B
:10046000103A28BF78C1FBD8520728BF30C148BF17
:100470000B6070471FB501F081FF1FBD10B510BDA7
:10048000DFF80CD0FFF7F6FF01F0F4FE00F0FEF805
:100490000085002003B4FFF7F1FF03BC00F000F972
:1004A0003F4880473F480047FEE7FEE7FEE7FEE79C
:1004B000FEE7FEE7FEE7FEE7FEE73B4800473B4876
:1004C00000473B4800473B4800473B4800473B4804
:1004D00000473B4800473B4800473B4800473B48F4
:1004E00000473B4800473B4800473B4800473B48E4
:1004F00000473B4800473B4800473B4800473B48D4
:1005000000473B4800473B4800473B4800473B48C3
:1005100000473B4800473B4800473B4800473B48B3
:1005200000473B4800473B4800473B4800473B48A3
:1005300000473B4800473B4800473B4800473B4893
:1005400000473B4800473B4800473B4800473B4883
:1005500000473B4800473B4800473B4800473B4873
:1005600000473B4800473B4800473B4800473B4863
:1005700000473B4800473B4800473B4800473B4853
:1005800000473B4800473B4800473B4800473B4843
:1005900000473B4800473B4800473B480047FEE7D1
:1005A000591F0020010400209F0500209F05002006
:1005B0009F0500209F0500209F0500209F0500202B
:1005C0009F0500209F0500209F0500209F0500201B
:1005D0009F0500209F0500209F0500209F0500200B
:1005E00051140020A91400200115002059150020E5
:1005F000B11500200916002061160020B916002050
:100600009F0500209F0500209F0500209F050020DA
:100610009F0500209F0500209F0500209F050020CA
:100620009F0500209F0500209F0500209F050020BA
:100630009F0500209F0500209F0500209F050020AA
:100640009F0500209F05002011170020691700203A
:100650009F0500209F0500209F0500209F0500208A
:100660009F0500209F0500209F0500209F0500207A
:100670009F0500209F0500209F0500209F0500206A
:100680009F0500209F0500209F05002010B504460F
:10069000AFF300802046BDE81040FFF7FBBE00002E
:1006A00001491820ABBEFEE726000200704700009B
:1006B00010B5042001F0E4FA094800F01BFA0948DB
:1006C00001F0F2FA074800F027FE064800F072FE3B
:1006D000054800F00FFA03480449086010BD000007
:1006E00000111000006CDC020014100000650020F6
:1006F00010B50D20010A032905D201228240294BA1
:1007000043F8212005E001229307DA648240264B5A
:100710005A6100BF4FF4937317220021234801F060
:10072000DDF94FF4937318220021204801F0D6F927
:100730004FF49373192200211C4801F0CFF94FF4B4
:1007400093731A220021194801F0C8F94FF49373EA
:100750001B220021154801F0C1F94FF493731C22AC
:100760000021124801F0BAF940F201331D220021A4
:100770000E4801F0B3F940F201331E2200210B486C
:1007800001F0ACF940F2053311220221074801F0D3
:10079000A5F940F2013311220321044801F09EF92A
:1007A00010BD000020020040000004400010004086
:1007B00010B504460D49C86A01F0C2F800200C4982
:1007C00008600C49086009490869214601F0CEF922
:1007D00028B1092108A001F02DF9002010BD0C213D
:1007E00008A001F027F90120F8E700008C23002081
:1007F0001065002014650020494E49544552520DA1
:100800000A000000455341464C4153484F530D0ADE
:100810000000000070B54FF49671944801F0BAF8EA
:100820000546002D72D001F085F89149088000241A
:100830000AE19048006810B101280BD197E08B487D
:10084000005D3F2807D18C48006820B90C218BA09F
:1008500001F0F0F8F6E08548015D8748026800681D
:10086000401C854B18608948815418460068102840
:100870007CD18648007820B101283FD0022870D171
:100880004DE0824840788149897840EA01208049DA
:1008900008608048806A096848437D4908607B4851
:1008A000807900067949497940EA01407749097918
:1008B00040EA01207549C9780843774908607348C0
:1008C000807A00067149497A40EA01406F49097A05
:1008D00040EA01206D49C979084370490860012048
:1008E0006449086000206E4908606E4908606E49DE
:1008F00008606A4800686D49086036E001F00CF94C
:1009000028B107216AA001F095F804E0A0E00421D5
:1009100069A001F08FF800205749086025E05B4886
:10092000007900065949C97840EA01405749897859
:1009300040EA01205549497840EA0106304601F075
:10094000FBF820B107215AA001F074F803E004215C
:1009500059A001F06FF800204749086005E005E064
:10096000FFE700204449086000BF00BF6AE03F483D
:10097000005D4D49096808444B4908603B48015DEA
:10098000484802680068401C464B18604C48815437
:100990004048806A1946096888421FD1484A18466B
:1009A00001684248006801F027F970B9082145A0A4
:1009B00001F040F83D4800683A49096808443B495D
:1009C000086000203749086008E0092140A001F0D4
:1009D00031F800202749086027490860304800683E
:1009E000401C2F4908600846006829490968884268
:1009F00027D12D48006840422B490860084600680E
:100A000025490968884204D00A2134A001F012F86F
:100A100012E026480068411E234802681F4800680B
:100A200001F0DCFB20B908212FA001F003F803E05E
:100A3000042121A000F0FEFF00200E4908600E49AD
:100A4000086000BF00BF641CAC42FFF4F2AE0CE0D3
:100A50000749098801F57A7188B201F045F820B19B
:100A60000020044908600449086070BD84650020C6
:100A7000186500201065002014650020455341468C
:100A80004C4153484F530D0A00000000B06A00204B
:100A9000306500208C230020346500202C65002068
:100AA0001C650020206500202865002024650020AA
:100AB0004552524F520D0A004F4B0D0A00000000E4
:100AC000B066002050524F474F4B0D0A0000000007
:100AD00050524F474552520D0A00000043484543CB
:100AE0004B53554D0D0A00005645524946590D0AC3
:100AF00000000000F0B500240F4D002316E003EBCA
:100B00004306B600F040C1B270B1C0F30326761EB2
:100B1000F2B21F2905D10126B707FE64074E3262E3
:100B200003E045F8212000E001245B1C022B01D8E2
:100B3000002CE4D0F0BD0000800200400000044022
:100B4000010A032905D201228240054B43F82120E6
:100B500005E001229307DA648240024B5A61704734
:100B6000200200400000044000B51148006810B9A0
:100B700000F05CFA00BD0E480068012802D100F0C8
:100B8000BDFAF7E70A480068022802D100F07EFBB0
:100B9000F0E707480068032802D100F023F8E9E7EE
:100BA00003480068072801D10020E3E70020E1E7BF
:100BB000A402004010B500BF0849096A01F0030112
:100BC0000C4614B1012C05D102E000F04DF803E011
:100BD000034801E0002000BF00BF10BD000004403A
:100BE000001BB700014800687047000080650020C6
:100BF00000B51C48006810B900F036F800BD19486F
:100C00000068012802D100F06DF8F7E71548006888
:100C1000022802D100F040FBF0E7124800680328E8
:100C200002D100F003FAE9E70E480068042802D177
:100C300000F064FAE2E70B480068052802D100F0F2
:100C400025FBDBE707480068062802D1FFF7CAFF4B
:100C5000D4E704480068072802D100F04BFACDE73A
:100C60000020CBE78802004000B51D48006830B97D
:100C70001B48001F006810B900F0CAF900BD1848F1
:100C8000006838B91648001F0068012802D100F03A
:100C900029F8F3E71248006838B91148001F0068C6
:100CA000022802D100F0F8FAE8E70D48006838B9E8
:100CB0000B48001F0068032802D100F0B7F9DDE7F8
:100CC00007480068022802D100F018FAD6E7044865
:100CD0000068032802D100F00DFACFE70020CDE72D
:100CE0008402004000487047001BB70010B504465E
:100CF000144850F8240010B900F08AF910BD1148CA
:100D000050F82400012802D100F090F9F6E70D48D0
:100D100050F82400022802D100F0F0F9EEE709486B
:100D200050F82400032802D100F0A0F9E6E70548B6
:100D300050F82400042803D1152000F005F8DDE761
:100D40000020DBE7B002004070B50546232D70D2CD
:100D5000DFE805F012161F5B29333D476F51CFD9ED
:100D6000F2F0EFEE5F63676F6B7092CBEDECEBEA46
:100D7000E9E8E7E6E5E4E300FFF776FF044642E151
:100D8000FFF772FFA1490968C9B2491CB0FBF1F431
:100D900039E1FFF72DFF9D49091D0968C9B2491CBA
:100DA000B0FBF1F42FE100F003FA98491031096823
:100DB000C9B2491CB0FBF1F425E1FFF7D5FE934918
:100DC00014310968C9B2491CB0FBF1F41BE100F011
:100DD0001DFA8E4918310968C9B2491CB0FBF1F4FB
:100DE00011E100F033FA89491C310968C9B2491C84
:100DF000B0FBF1F407E100F05DF984492C3109689A
:100E0000C9B2491CB0FBF1F4FDE000F00FF9044653
:100E1000F9E000F0FDF80446F5E0FFF763FF044653
:100E2000F1E000F06BF90446EDE000F035FA04461D
:100E3000E9E0E6E075489838006810B9FFF714FF5C
:100E400018E0724898380068012802D100F056F97D
:100E500010E06E4898380068022802D100F0D8F8F7
:100E600008E06A4898380068032802D100F0DEF8EC
:100E700000E000200446C6E064489438006810B9D9
:100E800000F0C6F828E0614894380068012802D1D3
:100E900000F0CCF820E05D4894380068022802D1C8
:100EA00000F02CF918E0594894380068032802D162
:100EB00000F0DCF810E0554894380068042802D1AE
:100EC000FFF7D2FE08E0514894380068052802D1A7
:100ED00000F0E2F900E0002004464C4828300068A9
:100EE000C0B2401CB4FBF0F48DE0FFF763FE044693
:100EF00089E000F009F9454934310968C9B2491C53
:100F0000B0FBF1F47FE000F025F940493C3109687D
:100F1000C9B2491CB0FBF1F475E06DE067E061E037
:100F20005BE055E04FE049E043E03DE037E032E090
:100F300027E01CE011E0FFE7FFF796FE3349096860
:100F4000C9B2491CB0FBF1F14FF08040D0F8B803B2
:100F5000C0B2401CB1FBF0F455E000F089F82B4919
:100F600030310968C9B2491CB0FBF1F44BE0FFF71E
:100F70007BFE264978390968C9B2491CB0FBF1F4F7
:100F800041E0FFF771FE214974390968C9B2491C73
:100F9000B0FBF1F437E000F069F8044633E00020DC
:100FA000FFF7A4FE04462EE00120FFF79FFE044653
:100FB00029E00220FFF79AFE044624E00320FFF711
:100FC00095FE04461FE00420FFF790FE04461AE059
:100FD0000520FFF78BFE044615E00620FFF786FE8E
:100FE000044610E00720FFF781FE04460BE00820CE
:100FF000FFF77CFE044606E00920FFF777FE044673
:1010000001E0002400BF00BF204670BD8003004007
:101010000448006800F0100008B100207047024842
:10102000FCE7000010060040001BB7000B480068FA
:1010300000F0100008B1002070470948006800F077
:10104000804008B90020F7E70548006800F48040B8
:1010500008B10448F0E70448EEE70000100600403D
:101060000005004000D8B805006CDC020020704785
:1010700000B50E48006810B9FFF7F6FD00BD0B483B
:101080000068012802D100F013F8F7E7074800686C
:10109000022802D1FFF7CAFFF0E7044800680328DE
:1010A00001D10020EAE70020E8E70000F402004058
:1010B0000020704700B50E48006848B9FFF7B6FF3A
:1010C0000B49A8310968C9B2491CB0FBF1F000BD59
:1010D00007480068012802D1FFF784FDF7E70448BC
:1010E0000068072801D10020F1E70020EFE70000A9
:1010F000E00200404FF400407047000001480068E3
:10110000704700007865002000B51148006810B9EC
:10111000FFF7AAFD00BD0E480068012802D1FFF7C5
:10112000EDFFF7E70A480068022802D1FFF77EFFCB
:10113000F0E707480068032802D1FFF753FDE9E70D
:1011400003480068072801D10020E3E70020E1E719
:10115000F002004000B51548006810B9FFF784FDA3
:1011600000BD12480068012802D1FFF7C7FFF7E76A
:101170000E480068022802D100F088F8F0E70B481A
:101180000068032802D1FFF751FFE9E7074800682C
:10119000042802D1FFF726FDE2E70448006807288B
:1011A00001D10020DCE70020DAE70000F80200406F
:1011B00000B51548006810B9FFF756FD00BD12488C
:1011C0000068012802D1FFF799FFF7E70E48006891
:1011D000022802D100F05AF8F0E70B480068032813
:1011E00002D1FFF723FFE9E707480068042802D18E
:1011F000FFF7F8FCE2E704480068072801D1002067
:10120000DCE70020DAE70000A002004000B50E484D
:10121000006810B9FFF70AFF00BD0B4800680128FD
:1012200002D1FFF76BFFF7E707480068022802D1F9
:1012300000F02CF8F0E704480068072801D10020EE
:10124000EAE70020E8E70000A802004000B50E48E9
:10125000006810B9FFF7EAFE00BD0B4800680128DE
:1012600002D1FFF74BFFF7E707480068022802D1D9
:1012700000F00CF8F0E704480068072801D10020CE
:10128000EAE70020E8E70000AC02004001480068FF
:10129000704700007C6500200C48006800F4801056
:1012A00008B1002070470A48006800F01F00401C89
:1012B000410007480068C0F34410064B1A5C4CF22A
:1012C00050305043B0FBF1F0ECE700001006004056
:1012D00008050040E025002010B51346074A1BB161
:1012E0004FF0005442F8204021B94FF0804442F8BA
:1012F000204002E04C1E42F8204010BD0003004098
:10130000044A126822F4704141EA0032014B1A602B
:10131000704700000004004010B504461D48844298
:1013200003D80020FFF7ECFF33E01B48844203D8CA
:101330000120FFF7E5FF2CE01848844203D8022083
:10134000FFF7DEFF25E01648844203D80320FFF7AD
:10135000D7FF1EE01348844203D80420FFF7D0FFD4
:1013600017E01148844203D80520FFF7C9FF10E0B9
:101370000E48844203D80620FFF7C2FF09E00C485C
:10138000844203D80720FFF7BBFF02E00820FFF7E5
:10139000B7FF10BD001BB70000366E0100512502DB
:1013A0000087930300D8B805000E2707004495086E
:1013B000007A030A70B504462148844207D08000B1
:1013C000844204D04000844201D0012070BD04203A
:1013D00000F060FC1B480068C0F3006518488442B8
:1013E00025D9C000844211D1174800681749084028
:1013F00040F4804040F000404FF0807101EA056108
:10140000084340F080400F49086016E00E48001F76
:1014100000680E49084040F000404FF0807101EA3A
:101420000561084340F080400649086005E0054832
:10143000006820F08040034908600020C6E70000F3
:10144000001BB700000500404C040001FF3FFF00F7
:1014500010B50848006800B104E0A32206A10AA064
:1014600000F0D3FE0E4B19680E4B1868014B1A683A
:10147000904710BDC06A002066736C5F666C65782B
:10148000636F6D6D2E630000735F666C6578636FCC
:101490006D6D49727148616E646C65725B305D00A0
:1014A000E86A00204426002010B50848406800B1D2
:1014B00004E0AA2206A10AA000F0A7FE0E4B59687C
:1014C0000E4B5868014B5A68904710BDC06A002007
:1014D00066736C5F666C6578636F6D6D2E6300007C
:1014E000735F666C6578636F6D6D49727148616E8C
:1014F000646C65725B315D00E86A00204426002060
:1015000010B50848806800B104E0B22206A10AA024
:1015100000F07BFE0E4B99680E4B9868014B9A6861
:10152000904710BDC06A002066736C5F666C65787A
:10153000636F6D6D2E630000735F666C6578636F1B
:101540006D6D49727148616E646C65725B325D00ED
:10155000E86A00204426002010B50848C06800B1A1
:1015600004E0BA2206A10AA000F04FFE0E4BD96893
:101570000E4BD868014BDA68904710BDC06A002056
:1015800066736C5F666C6578636F6D6D2E630000CB
:10159000735F666C6578636F6D6D49727148616EDB
:1015A000646C65725B335D00E86A002044260020AD
:1015B00010B50848006900B104E0C22206A10AA0E3
:1015C00000F023FE0E4B19690E4B1869014B1A6986
:1015D000904710BDC06A002066736C5F666C6578CA
:1015E000636F6D6D2E630000735F666C6578636F6B
:1015F0006D6D49727148616E646C65725B345D003B
:10160000E86A00204426002010B50848406900B16F
:1016100004E0CB2206A10AA000F0F7FD0E4B5969A9
:101620000E4B5869014B5A69904710BDC06A0020A3
:1016300066736C5F666C6578636F6D6D2E6300001A
:10164000735F666C6578636F6D6D49727148616E2A
:10165000646C65725B355D00E86A002044260020FA
:1016600010B50848806900B104E0D32206A10AA0A1
:1016700000F0CBFD0E4B99690E4B9869014B9A69AE
:10168000904710BDC06A002066736C5F666C657819
:10169000636F6D6D2E630000735F666C6578636FBA
:1016A0006D6D49727148616E646C65725B365D0088
:1016B000E86A00204426002010B50848C06900B13F
:1016C00004E0DB2206A10AA000F09FFD0E4BD969C1
:1016D0000E4BD869014BDA69904710BDC06A0020F3
:1016E00066736C5F666C6578636F6D6D2E6300006A
:1016F000735F666C6578636F6D6D49727148616E7A
:10170000646C65725B375D00E86A00204426002047
:1017100010B50848006A00B104E0E32206A10AA05F
:1017200000F073FD0E4B196A0E4B186A014B1A6AD2
:10173000904710BDC06A002066736C5F666C657868
:10174000636F6D6D2E630000735F666C6578636F09
:101750006D6D49727148616E646C65725B385D00D5
:10176000E86A00204426002010B50848406A00B10D
:1017700004E0EB2206A10AA000F047FD0E4B596AD7
:101780000E4B586A014B5A6A904710BDC06A002040
:1017900066736C5F666C6578636F6D6D2E630000B9
:1017A000735F666C6578636F6D6D49727148616EC9
:1017B000646C65725B395D00E86A00204426002095
:1017C00070B50546002407E0074850F82400A842F9
:1017D00001D1204670BD641C0A2CF5DB612203A1F7
:1017E00006A000F012FD00004426002066736C5F26
:1017F000666C6578636F6D6D2E63000066616C7357
:101800006500000070B505460E462846FFF7D8FF74
:101810000446002C01DA042070BD0C4931F8140094
:10182000010A032905D201228240094B43F82120F5
:1018300005E001229307DA648240064B5A6100BF3B
:1018400000223146284600F024F8E5E76C26002007
:10185000200200400000044010B5024609B90120F2
:1018600010BD01290CDB04290ADCD2F8F80FCB1CCF
:1018700001249C40204008B10120F1E70020EFE75F
:10188000052904D1D2F8F80FC0F3C010E8E7002012
:10189000E6E770B504460D46164629462046FFF792
:1018A000DBFF08B9032070BDD4F8F80F00F0080082
:1018B00038B1D4F8F80F00F00700A84201D0012099
:1018C000F1E726B145F00800C4F8F80F01E0C4F8CC
:1018D000F85F0020E7E730B51C785CB900F50054EC
:1018E00054F8214001259540AC4300F5005545F8DA
:1018F000214019E000F5005454F82150012494408F
:101900002C4300F5005545F821405C7834B901249A
:10191000944000F50A5545F8214005E00124944023
:1019200000F5045545F8214030BD10B500EB4114D9
:10193000A35410BD01480088704700000C650020CA
:1019400010B50146104A926B104B1A600E4AD26BCA
:101950000F4B1A60002011E0002200EB001303EB94
:1019600043030A4C246844F8332000EB001303EBD4
:101970004303074C246844F83320401C024A126C8D
:101980008242E9D810BD00008C2300203865002079
:101990003C65002070B504460B462348006800EB08
:1019A000001000EB4000214D2D6855F83000012853
:1019B00038D11D48006800EB001000EB40001B4DC3
:1019C0002D6805EBC00042689A4200DD1A460021EE
:1019D0000DE01548006800EB001000EB4000134DCF
:1019E0002D6805EBC0000830405C6054491C9142F2
:1019F000EFDB00200C4D2D6805EB051505EB4505CB
:101A00000A4E366846F8350007480068401C064D07
:101A10002860074D2D6CA84202D10020024D28609D
:101A2000104670BD0020FCE74065002038650020AE
:101A30008C23002030B50246254B1B6803EB0313B3
:101A400003EB4303234C246854F8333053B1002391
:101A50001F4C246804EB041404EB44041D4D2D6852
:101A600045F8343000200DE0145C194B1B6803EB83
:101A7000031303EB4303174D2D6805EBC303083332
:101A80001C54401C8842EFDB114B1B6803EB031313
:101A900003EB43030F4C246804EBC3035960012498
:101AA0000B4B1B6803EB031303EB4303094D2D683A
:101AB00045F83340064B1B685B1C054C2360064C05
:101AC000246CA34202D10023014C236030BD0000EE
:101AD000446500203C6500208C23002010B500EBFD
:101AE000C11444F8223010BD01460A4802888A42D7
:101AF00007DB501AB0F5004F01DA012070470020D3
:101B0000FCE7881AB0F5004F01DB0120F6E7002062
:101B1000F4E700000C65002010B54FF0805404E09D
:101B2000204600F009F804F5803402488442F7D3D7
:101B3000002010BDFFFF7F1010B50446094800F0DB
:101B4000A7F90949074800F0ACF92146054800F01B
:101B5000DEF905490839034800F0A3F900F058FB05
:101B6000002010BD0000084068650020FEB5064654
:101B70000F46002000900190029040F21510FEF7F1
:101B8000B9FF4FF48470FEF7B5FFFFF711FB044671
:101B90001648B4FBF0F0451E002229462420FFF72A
:101BA0009BFB684600F0C4F86946114800F008F94C
:101BB00000F04AFB0F490E4800F0ABF90C4800F06A
:101BC00067F9272010F1800F00D10CE000BF00F072
:101BD0001F02012191404209920002F1E022C2F865
:101BE000001100BF00BF0020FEBD0000001BB700B9
:101BF00000000840486500202DE9F0470646894668
:101C00001746154800F044F91449134800F049F903
:101C10003146114800F07BF9104918390E4800F0A0
:101C200040F9002511E0002406E02819385CE100A5
:101C3000884040EA0808641C042CF6DB414606484C
:101C400000F088F94FF000082D1DFF2DEBDD00F0AE
:101C5000DFFA0020BDE8F08700000840686500203A
:101C600010B50446044800F013F90449024800F096
:101C700050F9207810BD00000000084048650020A1
:101C800001218140024A030A42F8231070470000F4
:101C90003006004001218140024A030A42F8231025
:101CA000704700003006004010B504461A488442D0
:101CB00018D20B21002000F031F80C21012000F097
:101CC0002DF80B21022000F029F80B21032000F051
:101CD00025F80B21042000F021F80B21052000F04D
:101CE0001DF817E00D21002000F018F80C2101204C
:101CF00000F014F80B21022000F010F80D21032051
:101D000000F00CF80B21042000F008F80B2105204E
:101D100000F004F810BD000000E1F50510B501F079
:101D20000F02024C44F8202010BD000000000240C9
:101D30004FF6FF7101800F2181700021C170017188
:101D40000121417100218171C17101727047000050
:101D500070B50546002406E0094850F82400A84262
:101D600000D102E0641C002CF6D000BF04B904E0EE
:101D70004D2204A108A000F048FA204670BD0000E2
:101D800030260020647269766572735C66736C5FDE
:101D900073706966692E6300696E7374616E636542
:101DA000203C2046534C5F464541545552455F53B5
:101DB0004F435F53504946495F434F554E540000CF
:101DC00070B505460C4604B104E0602226A12BA0A4
:101DD00000F01BFA2846FFF7BBFF2A4931F81060D4
:101DE000300A032805D20121B140274A42F82010C9
:101DF00005E001218A07D164B140244A516100BF46
:101E000000BF1020E86100BF00BFE86900F01000CB
:101E10000028FAD100BF2088A1784FF4702202EA8E
:101E200001410843E1784FF4001202EA41510843AE
:101E3000A179920002EAC15108432179120102EA14
:101E4000C1610843217A520002EA01710843E17935
:101E5000520002EA417108436179520002EA81713D
:101E60000843286070BD0000647269766572735C17
:101E700066736C5F73706966692E6300636F6E666C
:101E80006967000034260020200200400000044062
:101E90001021C16100BFC16901F010010029FAD110
:101EA000704710B500BF00BFC26902F00302002AEC
:101EB000F9D10A88C2F30D028B784FF4804404EA0A
:101EC00083331A43CB78640004EAC3331A430B7993
:101ED0004FF4E02404EA03431A434B794FF4C0144F
:101EE00004EAC3431A438B794FF4600404EA435372
:101EF0001A43CB794FF07F4404EA03631A434260EC
:101F000000BFC26902F00202002AFAD010BD81604F
:101F1000704710B500BF00BFC26902F00302002A7B
:101F2000F9D10A794FF4E02303EA02424B794FF4E6
:101F3000C01404EAC3431A438B794FF4600404EAE3
:101F400043531A43CB794FF07F4404EA03631A43A7
:101F5000826110BD416170470648006840F470001E
:101F6000044908600448034980390860382003495F
:101F70000860704788ED00E000000020200200406B
:101F800010B5044604B104E0D32209A10BA000F06F
:101F90003CF94FF4E1302060002020716071012095
:101FA000A0710020E07120726072A072E07210BD1A
:101FB00066736C5F75736172742E63004E554C4C82
:101FC00020213D20636F6E66696700002DE9F041B6
:101FD00004460D46174614B10DB107B104E0932233
:101FE00033A136A000F011F90CB105B117B90420E6
:101FF000BDE8F08101212046FFF704FC06460EB142
:102000003046F5E73A462046296800F075F806465E
:102010000EB13046ECE7687AB8B104F56064206828
:1020200040F001102060A06820F47060A060A068FB
:10203000A97A4FF4706202EA01210843A060A06807
:1020400040F00100A060A4F56064287AB8B104F5FE
:102050006064206840F002102060A06820F47020C6
:10206000A060A068E97A4FF4702202EA01410843B7
:10207000A060A06840F00200A060A4F56064287928
:10208000302101EA00106979402202EA81110843F7
:10209000A9790C2202EA81010843E9794FF4004250
:1020A00002EAC1310843401C20600020A0E7000084
:1020B00066736C5F75736172742E63002128284EFD
:1020C000554C4C203D3D206261736529207C7C206D
:1020D000284E554C4C203D3D20636F6E6669672944
:1020E000207C7C202830203D3D20737263436C6F40
:1020F000636B5F487A2929002DE9FC5F06460C4690
:1021000017464FF0FF3001904FF00F0A834616B18B
:102110000CB107B104E0E7221DA120A000F075F882
:102120000EB104B117B90420BDE8FC9F554621E06B
:10213000681C6043B7FBF0F0A0F10108B8F5803FE0
:1021400000D316E0681C08F101014843B7FBF0F921
:102150004C4502D2A9EB040001E0A4EB0900009079
:10216000DDE90001884203D200980190AA46C346E7
:1021700000BF6D1E042DDBD2BBF5803F02D341F2C0
:102180005160D1E7C6F828A0C6F820B00020CBE700
:1021900066736C5F75736172742E63002128284E1C
:1021A000554C4C203D3D206261736529207C7C208C
:1021B0002830203D3D2062617564726174655F4224
:1021C000707329207C7C202830203D3D2073726371
:1021D000436C6F636B5F487A292900002DE9F04159
:1021E00006460F4690460025344604E02046FFF799
:1021F00037FD0544641CBC42F8D96D42454502D008
:102200000020BDE8F0810120FBE700BF00BEFDE734
:1022100010B5002400BF0A490A48FFF742FE00BF7C
:102220000848C06900F020000028F9D000BF054828
:102230004069044604F001000028ECD110BD000004
:10224000586500200000084010B508490848FFF70D
:1022500028FE064908310648FFF723FE40210448BE
:10226000FFF778FEFFF7D4FF10BD0000686500207F
:10227000000008401FB53948006800900E20FEF7A6
:102280005FFC1020FEF75CFC1120FEF759FC4FF4B8
:102290008A70FEF72FFCFEF72BFAFEF709FA6B4661
:1022A000022211462E48FFF716FB01230222114697
:1022B0002B48FFF73AFB01A8FFF762FE4FF4E1302D
:1022C000019001208DF80D008DF80C002120FEF703
:1022D0003BFD0446224601A92248FFF777FE22482B
:1022E00000682249B0FBF1F42046FEF761FA08B914
:1022F00000BFFEE731E01E480068401C1C49086032
:10230000B0F5C47F07DD1B480088401C19490880D0
:1023100000201749086017480088642190FBF1F2FB
:1023200001FB1200B8B91448006830B10123022241
:1023300011460B48FFF7F9FA05E000230222114687
:102340000748FFF7F2FA0C48006808B9012000E0DE
:10235000002009490860FEF75DFACCE788230020D9
:1023600000C00840009009400065002040420F0076
:10237000086500200C650020046500204FF04070C7
:10238000E1EE100A70470000010000003D7F55AAF1
:102390000300000001000000020000000000001027
:1023A000FFFF7F1000000020FF8F002000000100D1
:1023B000FF0000000001000000000000020000001B
:1023C00000000000000001200010012010000000AB
:1023D0004C504335343630384A3531320000000035
:1023E00000000000000000000000000000000000ED
:1023F00000000000000000000000000000000000DD
:1024000000000000000000000000000000000000CC
:102410004C50437870726573736F353436303800C2
:1024200000000000000000000000000000000000AC
:10243000000000000000000000000000000000009C
:10244000000000000000000000000000000000008C
:10245000535049464920466C6173680000000000F3
:10246000000000000000000000000000000000006C
:10247000000000000000000000000000000000005C
:10248000000000000000000000000000000000004C
:10249000000000000000000000000000000000003C
:1024A000000000000000000000000000000000002C
:1024B000000000000000000000000000000000001C
:1024C000000000000000000000000000000000000C
:1024D0004D616B65204446554C696E6B206A756D85
:1024E0007065722C20636F6E6E65637420746F204C
:1024F0004A3500000000000000000000000000005D
:1025000000000000000000000000000000000000CB
:1025100000000000000000000000000000000000BB
:1025200000000000000000000000000000000000AB
:10253000000000000000000000000000000000009B
:10254000000000000000000000000000000000008B
:10255000000000000000000000000000000000007B
:10256000000000000000000000000000000000006B
:10257000000000000000000000000000000000005B
:10258000000000000000000000000000000000004B
:10259000000000000000000000000000000000003B
:1025A000000000000000000000000000000000002B
:1025B000000000000000000000000000000000001B
:1025C000000000000000000000000000000000000B
:1025D000AA557F3D00000000001BB700000000006E
:1025E00000080C0F1214181A1C1E20222426282959
:1025F0002A2C2D2E30313234353638393A3B3C3D99
:102600003F01030000000000001BB7003F01030072
:1026100000000000001BB7003F01030000000000A5
:10262000001BB7003F01030000000000001BB700C3
:10263000000008400A0000000E0F101112131415BC
:102640002829000000600840007008400080084011
:102650000090084000A00840006009400070094058
:10266000008009400090094000A009400B010C01C6
:102670000D010E010F011001110112010E020F02D6
:10268000A026002000650020840000003C040020FB
:1026900024270020846500208C05000058040020B9
:1026A000001BB70000000000000000000000000058
:1026B000000000000000000000000000000000001A
:1026C000000000000000000000000000000000000A
:1026D00000000000000000000000000000000000FA
:1026E0000000000000000000000100000101046B78
:1026F0000001000100020438040000000000010590
:1027000000000001000004D80000000100000106E4
:1027100004000001000001010000000000000000B2
:0427200000000000B5
:0400000520000401D2
:00000001FF
