:020000041000EA
:1005000048550010F9050010010600100306001000
:100510000506001007060010090600109EF3FFEF05
:100520000000000000000000000000000B060010AA
:100530000D060010000000000F060010951F0010AF
:100540001306001013060010130600101306001007
:1005500013060010130600101306001013060010F7
:1005600013060010130600101306001013060010E7
:100570001306001000000000130600101306001000
:1005800013060010130600101306001013060010C7
:1005900013060010130600101306001013060010B7
:1005A00013060010130600101306001013060010A7
:1005B0001306001013060010130600101306001097
:1005C0001306001013060010130600101306001087
:1005D0001306001013060010130600101306001077
:1005E00013060010DFF80CD003F026FF0048004788
:1005F000CD1F0010485500100648804706480047A8
:10060000FEE7FEE7FEE7FEE7FEE7FEE7FEE7FEE7C2
:10061000FEE7FEE713090010E505001030B5F548C8
:10062000006800F48070002872D1F2480830006839
:1006300000F0010070BBEF48006800F01F0008B92F
:10064000002006E0EB48006800F01F00EA49B1FB1B
:10065000F0F0EA490860E748A430006800F01F00A5
:1006600008B9002007E0E348A430006800F01F004C
:10067000E149B1FBF0F0E2490860DE48001F006884
:1006800000F00100401CDD490968B1FBF0F0DD49D4
:100690000860BEE0D7489C30006800F0400038B9E0
:1006A0000020D6490860D6490860D6490860B0E005
:1006B000D048006800F01F0008B9002006E0CD48CF
:1006C000006800F01F00CC49B1FBF0F0CB49086096
:1006D000C848A430006800F01F0008B9002007E0F7
:1006E000C448A430006800F01F00C349B1FBF0F01B
:1006F000C3490860BF48001F006800F00100401CAB
:10070000BE490968B1FBF0F0BE49086081E0FFE72F
:10071000B8487C38006800F4807038B90020B749C8
:100720000860B7490860B749086072E0B14808300E
:10073000006800F0010070BBAE4C7C3C246804F003
:100740001F04601CB04CD4F8044104F01F01A94CF4
:10075000A434246804F01F02AB4CD4F8004104F028
:100760000104631C09B9002403E0A34C4443B4FB17
:10077000F1F4A24D2C600AB9002403E09E4C4443DE
:10078000B4FBF2F49E4D2C609C4C2468B4FBF3F453
:100790009C4D2C603DE0FFE796489C30006800F0DF
:1007A000400038B90020954908609549086095498E
:1007B00008602EE08F4C7C3C246804F01F04601C11
:1007C000914CD4F8044104F01F018A4CA4342468ED
:1007D00004F01F028C4CD4F8004104F00104631CA7
:1007E00009B9002403E0844C4443B4FBF1F4834D85
:1007F0002C600AB9002403E07F4C4443B4FBF2F4BC
:100800007F4D2C607D4C2468B4FBF3F47D4D2C604F
:1008100000BF7848001D006800F4807098B37548E8
:10082000001D006800F01F0020B1042806D0062833
:1008300024D104E000207549086023E000BF6D4A20
:100840007C3A126802F01F02501C6F4AD2F808214D
:1008500002F01F01674A0832126802F0010232B149
:10086000654A4243B2FBF1F2684B1A6005E0624A06
:100870004243B2FBF1F2654B1A6003E0002063498A
:10088000086000BF25E0FFE75A48001D006800F43B
:100890000070D8B157480830006800F0010050B12E
:1008A00054485C38006800F01F00401C524948431F
:1008B000564908600DE04F487C38006800F01F0082
:1008C000401C4D4948435149086002E000204F490F
:1008D000086030BD3EB54E484E4B191D00221C68C5
:1008E00001940C6800944C4D019CAC4205D14B4DD9
:1008F000009CAC4201D1012400E0002422463AB120
:1009000004680294029C44F470040294029C046003
:100910003EBD00B5FFF7DEFF202036499C31086060
:1009200000BF34489C30006800F040000028F8D038
:10093000012030490831086009203349C1F884009A
:100940000120314980310860AA202A49783908609D
:100950005520086000BF27487C38006800F480609C
:100960000028F8D023202349603908600120264957
:10097000C1F8A000AA201F49583908605520224913
:10098000C1F8AC0000BF1B485C38006800F4806010
:100990000028F8D040F201101649086040F201200A
:1009A0001949C1F8080101201249091F08600220F5
:1009B0001049B03108600F49A431086018480D494A
:1009C0004039086088151049C1F8C8010846D0F8B8
:1009D000B00140F003000749AC31086045F23A002D
:1009E000094908604FF08050094980390860FFF7D5
:1009F00015FE00BD04C10F40001BB700004C0010E5
:100A0000044C0010084C001000C00F400C4C0010AB
:100A100088ED00E040EF00E021001110110000110E
:100A2000DE87280470B52DED028B0446002000F00F
:100A3000E3F805464FF47A70B5FBF0F04FF08071A3
:100A4000B1FBF0F000EE100AB8EE400AB0EE408ABA
:100A500000EE104AB8EE400AB4EEC80AF1EE10FA01
:100A600001DD00BFFEE74FF0E020006940F0040028
:100A70004FF0E02108614FF47A70B5FBF0F060436D
:100A8000401E4861BDEC028B70BD4FF47A72B0FB22
:100A9000F2F24FF08073B3FBF2F200EE902AF8EE20
:100AA000600AB0EE600A00EE901AF8EE600AF4EE0A
:100AB000C00AF1EE10FA01DD00BFFEE74FF0E022C0
:100AC000126922F004024FF0E0231A614FF47A72A7
:100AD000B0FBF2F24A43521E00EE902AF8EE600A92
:100AE000B0EE600A4FF47A72B0FBF2F24A43521E43
:100AF0005A617047012808D14FF0E021096941F09F
:100B000001014FF0E022116107E04FF0E021096997
:100B100021F001014FF0E02211617047012808D156
:100B20004FF0E021096941F002014FF0E02211612C
:100B300007E04FF0E021096921F002014FF0E022C7
:100B4000116170474FF0E020806970474FF0E0205E
:100B5000006920F480304FF0E02108617047000008
:100B600070B506460D4636B1012E11D0022E1DD0AD
:100B7000032E3DD128E04648006820F01F0405F010
:100B80001F0004434348C0F80441FFF747FD31E02C
:100B90003F48A430006820F01F0405F01F00044304
:100BA0003C48C0F8A841FFF739FD23E03848001F52
:100BB000006820F0010405F0010004433548C0F846
:100BC0000041FFF72BFD15E03148001D006820F0C3
:100BD0001F0405F01F0004432E48D0F8080105F05B
:100BE0001F0108432A49091D0860FFF717FD01E0AE
:100BF00000BFFEE700BF70BD014631B1012907D03B
:100C0000022908D003290CD108E023480068704766
:100C100022480068FBE722480068F8E7214800689E
:100C2000F5E700BFFEE7012907D1194A403A1268EB
:100C30000243184BC3F8C42007E031B9144A403AC4
:100C400012688243134BC3F8C42070470020104938
:100C50004439086030BF7047042013490860002001
:100C60000B494439086030BF704704200E490860C2
:100C7000012007494439086030BF704704200A4901
:100C80000860032002494439086030BF7047000003
:100C900004C10F4000C00F40004C0010044C001075
:100CA000084C00100C4C001010ED00E010B502468E
:100CB000002001EB4213F74C04EB830010BD024609
:100CC0000520062A4AD2DFE802F0032F393A3B3DDD
:100CD000062907DD0A2901DB0B2903DD0E2903DBC9
:100CE000162901DC00201EE00C2905D00D2903D0B7
:100CF000172903DB1A2901DC012014E01D2903D088
:100D00001E2901D01F2901D102200CE01B2901D08E
:100D10001C2901D1032006E0072903D0082901D0AE
:100D2000092900D104201AE01D2901DC002004E07B
:100D30001E2901D01F2900D1012010E000BF00BFF3
:100D400000200CE0012901DD042901D1002004E08C
:100D5000022901D0032900D1032000E000BF00BF19
:100D600070472DE9F04106460F46154600243946E6
:100D70003046FFF7A4FF8046B8F1050F02D1C64800
:100D8000BDE8F08139463046FFF790FF0446206801
:100D900020F00700206005F007012068084320606C
:100DA0000020EDE72DE9F04107468846164600246D
:100DB00041463846FFF783FF0546052D02D1B64868
:100DC000BDE8F08135B1012D04D0042D02D0B24828
:100DD000401CF5E741463846FFF768FF04462068A7
:100DE00020F018002060182101EAC601206808439D
:100DF00020600020E4E72DE9F041074688461646CA
:100E0000002441463846FFF75AFF0546052D02D11A
:100E1000A148BDE8F08125B1042D02D09E48401CB8
:100E2000F7E741463846FFF741FF044626B92068F8
:100E300020F02000206003E0206840F020002060C7
:100E40000020E6E72DE9F0410746884615460024D4
:100E500041463846FFF733FF0646052E02D18E483D
:100E6000BDE8F081022E02D18B48401CF8E74146D4
:100E70003846FFF71BFF044625B9206820F04000E4
:100E8000206003E0206840F0400020600020E7E799
:100E90002DE9F0410746884616460024414638466B
:100EA000FFF70DFF0546052D02D17B48BDE8F08117
:100EB00025B1042D02D07848401CF7E7414638465A
:100EC000FFF7F4FE044626B9206820F40070206085
:100ED00003E0206840F4007020600020E6E72DE980
:100EE000F041074688461546002441463846FFF73C
:100EF000E6FE0646052E02D16748BDE8F081032EC6
:100F000002D06548401CF8E741463846FFF7CEFE60
:100F1000044625B1206820F48070206003E020683A
:100F200040F4807020600020E7E72DE9F04107469B
:100F300088461546002441463846FFF7C0FE06465F
:100F4000052E02D15448BDE8F081032E02D052484C
:100F5000401CF8E741463846FFF7A8FE044625B195
:100F6000012D0CD0022D1ED113E00122414638463E
:100F7000FFF7B5FF206820F40070206016E0002223
:100F800041463846FFF7ABFF206820F40070206030
:100F90000CE0012241463846FFF7A1FF206840F4EB
:100FA0000070206002E04FF0FF30CCE700BF00206F
:100FB000C9E72DE9F0410746884616460024414618
:100FC0003846FFF77CFE0546052D02D13248BDE8C4
:100FD000F08135B1012D04D0042D02D02E48401CE3
:100FE000F5E741463846FFF761FE044626B920681A
:100FF00020F48060206003E0206840F4806020607E
:101000000020E4E72DE9F041074688461546002414
:1010100041463846FFF753FE0646052E02D11E48CC
:10102000BDE8F081012E02D01B48401CF8E7414684
:101030003846FFF73BFE044625B1206820F08000CB
:10104000206003E0206840F0800020600020E7E797
:101050002DE9F04105460E46174600243146284644
:10106000FFF72DFE8046B8F1050F02D10A48BDE812
:10107000F0810DB91A2E02D00748401CF7E731461F
:101080002846FFF713FE044647B1206840F480303D
:10109000206007E000C0024001000010206820F43A
:1010A000803020600020E2E72DE9F04107468846C5
:1010B0001646002441463846FFF701FE0546052D39
:1010C00002D10D48BDE8F081012D04D0042D02D0DD
:1010D0000948401CF6E741463846FFF7E7FD04465D
:1010E00026B1206820F48070206003E0206840F47E
:1010F000807020600020E5E701000010014600201C
:1011000021B1022904D0032906D103E0F74804E005
:10111000F74802E0F74800E000BF00BF70472DE944
:10112000F34F8BB08846002009900120FFF764FD43
:1011300008904FF0FF300390002006908246002177
:101140000C460D46012648E0002007903DE0079838
:10115000304400FB08F700210907089841EA101104
:1011600002070023A2FB060C01FB06C102FB0311D0
:101170003A46CDE9000103F0EBF8CDE90401DDF8D2
:1011800010B0DDF81490BBF1004F03D9CBF1000B88
:1011900009F10109B9F1000F02D0B9F5803F00D97A
:1011A00010E0039883450CD2CDF80CB000254C46D6
:1011B00007980690B246DDF80CB0BBF1000F00D1E5
:1011C00006E000BF0798401C07900798B042BED3C6
:1011D00000BF039800B902E0761C0F2EB4D900BFFF
:1011E000002184EA01006940084302D10DB0BDE846
:1011F000F08F0898000900FB0AF706985044002178
:10120000A0FB042301FB043100FB05100346CDE9DC
:1012100000203846002103F09BF802900298804598
:1012200004D90298A8EB0000039003E00298A0EB19
:1012300008000390642103984843B0FBF8F0039042
:101240000398032858D20B98012819D1AA48007B8B
:1012500040F08000A8490873200A40EA0560087140
:101260000C700846007B00F07F000873F02000EA55
:101270000A10069901F00F0108439F49886239E07E
:101280000B9804281BD19D48C06840F080009B4902
:10129000C860200A40EA0560C0B24860E0B2086059
:1012A0000846C06800F07F00C860F02000EA0A101D
:1012B000069901F00F010843904988621AE00B98E3
:1012C000FFF71CFF0746387B40F080003873200A88
:1012D00040EA056038713C70387B00F07F0038735D
:1012E000F02000EA0A10069901F00F01084387F880
:1012F000280000BF01200990099877E72DE9F04107
:1013000006460F46052E3ED2DFE806F0033E0405F2
:10131000720000BF00BF3046FFF7F0FE054626B959
:1013200001210820FFF77FFC0CE0022E04D10121EF
:101330000806FFF778FC05E0032E03D101214806DB
:10134000FFF771FC072028720020287200E02C783B
:10135000287D00F001000028F9D1802085F83000B8
:1013600000BF287D00F020000028FAD0002085F87A
:10137000300068602873286285F84C0085F85400B6
:1013800085F850002C7D5DE001211020FFF74BFC1B
:101390000720594908720020087201E05648047875
:1013A0005548007D00F001000028F7D18020524907
:1013B0003031087000BF5048007D00F02000002848
:1013C000F9D000204C49303108704B49486008730F
:1013D000086281F84C00484954310870464981F848
:1013E00050000846047D002008740846047E29E069
:1013F00001210802FFF717FC072040498860002000
:10140000886001E03D4804683C48406900F0010004
:101410000028F7D101203949C86500BF3748406925
:1014200000F020000028F9D000203449C865486049
:10143000C8600862C86448650865084644690020B9
:10144000486200BF00BF30463968FFF768FE012ED2
:1014500004D12948007B00F0C0040EE0042E04D122
:101460002648C06800F0C00407E03046FFF746FE9B
:101470000546287B00F0C00400BF787930B1012810
:1014800006D0022807D0032808D108E000BF09E0F1
:1014900044F0010406E044F0020403E000BF44F01D
:1014A000030400BF00BF3879C0B144F008043879A4
:1014B000012806D0022806D0032807D004280BD123
:1014C00007E000BF09E044F0100406E044F0200407
:1014D00003E044F0300400E000BF00BFB87980B101
:1014E00001280DD144F004040CE0000000C00040CD
:1014F0000080094000C009400000014000400A404F
:1015000000BF00BF00BF012E02D1FB490C730BE0EE
:10151000042E03D1E0B2F949C86005E03046FFF778
:10152000EDFD05462C7300BFBDE8F08170B50446A3
:101530000D46012D1ED1012C08D1EF483030007826
:1015400040F08000EC4981F830002FE0042C06D1F7
:10155000EA48C06D40F00100E849C86526E0204631
:10156000FFF7CCFD064696F8300040F0800086F884
:1015700030001BE0012C07D1DF483030007800201C
:10158000DD4981F8300011E0042C05D1DB48C06D45
:101590000020DA49C86509E02046FFF7AFFD06469E
:1015A00096F83000002086F8300000BF70BD10B5FE
:1015B000044600212046FFF7B9FF24B90021082086
:1015C000FFF731FB1BE0012C04D100211020FFF7B5
:1015D0002AFB14E0022C04D10021E005FFF723FBD5
:1015E0000DE0032C05D100214FF00070FFF71BFB2D
:1015F00005E0042C03D10021A001FFF714FB10BD6E
:101600004FF4E131016003214171002101718171C9
:101610007047052814D2DFE800F00306090C0F001C
:10162000B74B19700CE0B44B197009E0B54B197049
:1016300006E0B54B197003E0CAB2B04B1A6000BFA8
:1016400000BF70470146052914D2DFE801F0030608
:10165000090C0F00AA4800787047A7480078FBE7FC
:10166000A8480078F8E7A8480078F5E7A34800689C
:10167000C0B2F1E70020EFE72DE9FF4F81B08046CF
:101680008A469346574600200090B8F1050F18D2BD
:10169000DFE808F003070B0F13009948143000909F
:1016A0000FE09548143000900BE0964814300090FD
:1016B00007E095481430009003E090481430009003
:1016C00000BF00BF5C460498012825D1002520E01A
:1016D0004FF0FF3905E0B9F1000F00D107E0A9F1A3
:1016E00001090098006800F020000028F3D000BF36
:1016F000B9F1000F00D10EE0102607E017F8011B2A
:101700004046FFF786FF761E641E6D1C0EB1002C4E
:10171000F4D1002CDCD119E0002514E004B914E068
:101720000098006800F0200000B90EE0102607E0E5
:1017300017F8011B4046FFF76CFF641E761E6D1CF8
:101740000EB1002CF4D1002CE8D100BF284605B022
:10175000BDE8F08F2DE9F04705460F4690469946C3
:101760003C464FF0000A052D1DD2DFE805F00308C6
:101770000D121700DFF888A10AF1140A13E0DFF850
:1017800078A10AF1140A0EE0DFF878A10AF1140A30
:1017900009E0DFF874A10AF1140A04E0DFF85CA1A3
:1017A0000AF1140A00BF00BF4246B9F1010F1AD175
:1017B000002315E04FF0FF3602E006B906E0761E82
:1017C000DAF8000000F001000028F6D000BF06B9EA
:1017D00008E02846FFF736FF04F8010B521E5B1C99
:1017E000002AE7D111E000230CE0DAF8000000F055
:1017F000010000B908E02846FFF724FF04F8010BB8
:101800005B1C521E002AF0D100BF1846BDE8F087CD
:10181000052827D2DFE800F0030A11181F00384915
:10182000097B41F04001364A11731BE03249097BC4
:1018300041F04001304A117314E03249097B41F014
:101840004001304A11730DE02F49097B41F04001FE
:101850002D4A117306E02949C96841F04001274A21
:10186000D16000BF00BF7047F0B504460B460021B1
:101870000025052C1DD2DFE804F003080D12170027
:101880001F49091D40F2073513E01B49091D40F2AD
:101890008F350EE01B49091D40F2073509E01A4952
:1018A000091D40F2073504E01449091D40F20735CF
:1018B00000BF00BF072B15D2DFE803F00406080ABB
:1018C0000C0E110001200DE002200BE0042009E0C5
:1018D000082007E0802005E04FF4807002E04FF41C
:1018E000007000BF00BF012A10D10E6800EA050792
:1018F0003E430E600FE000000000014000400A403F
:1019000000C000400080094000C009400E6825EA80
:1019100000073E400E60F0BD0146052914D2DFE805
:1019200001F00306090C0F00FE48007D7047FE48D9
:10193000007DFBE7FD48007DF8E7FD48007DF5E709
:10194000FC484069C0B2F1E70020EFE701460529F5
:1019500022D2DFE801F003090F151B00F14880686F
:1019600040F2CF3210407047EF48806840F2CF32EB
:101970001040F8E7ED48806840F2CF321040F2E7BF
:10198000EB48806840F2CF321040ECE7E9488068CD
:1019900040F2CF321040E6E70020E4E701460022A3
:1019A00005291DD2DFE801F003080D121700DD48FC
:1019B000007D00F0400213E0DB48007D00F04002B3
:1019C0000EE0DA48007D00F0400209E0D848007DD2
:1019D00000F0400204E0D748406900F0400200BF38
:1019E00000BF02F0400008B1002070470120FCE772
:1019F00010B50246002040F00100CB7833B1012B36
:101A000006D0022B07D0032B08D108E000BF09E065
:101A100040F0400006E040F0800003E000BF40F0EE
:101A2000C00000BF00BF4B78012B01D140F0040083
:101A30000B78012B01D140F002008B78012B01D1F2
:101A400040F00800052A1DD2DFE802F003080D125D
:101A5000170000F0CF03B34C237213E000F0CF0364
:101A6000B14C23720EE000F0CF03B04C237209E0BA
:101A700000F0CF03AE4C237204E000F0CF03AD4C76
:101A8000A36000BF00BF10BD00218170C1700121A3
:101A90000170417070472DE9F041074688461546B0
:101AA0000026012D0BD198F80000012801D146F045
:101AB000020698F80100012801D146F00406012F22
:101AC00019D1012D13D19848007B40F08000964930
:101AD00008730020087008710846007B20F0800021
:101AE00008731020886246F0010008623AE0002086
:101AF0008D49086236E0042F19D1012D13D18D488C
:101B0000C06840F080008B49C860002008604860D1
:101B10000846C06820F08000C8601020886246F047
:101B2000010008621EE00020824908621AE038467F
:101B3000FFF7E4FA0446012D11D1207B40F080002C
:101B40002073002020702071207B20F08000207303
:101B5000102084F8280046F00100206201E00020F7
:101B6000206200BFBDE8F08170B505460C46012D2E
:101B700005D16D48006A20436B4908620FE0042DCF
:101B800005D16C48006A20436A49086207E028468C
:101B9000FFF7B4FA0646306A2043306200BF70BDDA
:101BA000042800D07047012906D1624A526A42F0E7
:101BB0000202604B5A6206E029B95E4A526A02F09C
:101BC0003D025C4B5A6200BFECE7042800D070472E
:101BD000012906D1574A526A42F00102554B5A6216
:101BE00005E0544A526A02F03E02524B5A6200BF6C
:101BF000EDE730B5042800D030BD4C07A30E4D4CA6
:101C0000646A24F0380243F00404224302F03F04E3
:101C1000484D6C6200BFEFE730B50023012800D0CB
:101C200030BD11B1012904D101E0012302E00223FA
:101C300000E000BF00BF012A05D13B4C247C1C43BF
:101C4000394D2C7406E0384C247CF3259D432C4000
:101C5000354D2C7400BFE3E730B50346012B00D0AF
:101C600030BD21B1012904D0022906D103E01020A2
:101C700004E0402002E0802000E000BF00BF012A15
:101C800005D1294C247C0443274D2C7406E0264CB6
:101C9000247CF32585432C40234D2C7400BFDFE7C3
:101CA0000146012901D0002070471F48007EFBE754
:101CB0002DE9F05F07460C460025012F0AD1DFF819
:101CC000688008F15408A8F10409174E0C36A9F1F0
:101CD000040A19E0042F0AD1DFF8588008F15408EB
:101CE000A8F10409134E0C36A9F1040A0CE0384699
:101CF000FFF704FA83460BF154080BF150090BF17E
:101D00000C060BF14C0A00BFE07801281BD145F00E
:101D100010056079012801D145F0200520790128BE
:101D20000ED109E000C000400000014000800940E1
:101D300000C0094000400A40012F01D145F00805CC
:101D4000E079C8F800002078012801D145F00105AC
:101D5000A078012804D145F00405A079C9F8000055
:101D6000607808B945F0020505F03F00CAF80000A8
:101D7000306840F038003060BDE8F09F2DE9F04158
:101D800005460E46012D01D13A4C0AE0042D01D141
:101D9000394C06E02846FFF7B1F9074607F154042D
:101DA00000BF012E04D1206820F00200206003E073
:101DB000206840F002002060BDE8F0812DE9FF4F6F
:101DC00081B006468B469846012E04D1294C483CEA
:101DD000284D403D0FE0042E04D1274C483C264DB1
:101DE000403D08E03046FFF789F982460AF10C04CD
:101DF0000AF1140500BFB8F1000F15D02068C7B272
:101E0000B94629F01009C4F800900123594630461C
:101E1000039AFFF731FC009000BF286800F04000F3
:101E20000028FAD027600CE0012359463046039A77
:101E3000FFF722FC009000BF286800F04000002857
:101E4000FAD0009805B0BDE8F08F13B50446012321
:101E50001A4601A92046FFF7B1FF1CBD70B5044624
:101E60000D4616460023324629462046FFF7A6FFB8
:101E700070BD00005400014054400A403EB5044685
:101E80000020FFF794FB019400208DF80800032048
:101E90008DF8090000208DF80A0001A9FFF72EFA3D
:101EA000012202210020FEF75CFF01220321002015
:101EB000FEF757FF01210020FFF738FB6846FFF7C8
:101EC000E3FD69460020FFF793FD3EBD70B5044673
:101ED0000D4601232A4621460020FFF7CDFB70BDA9
:101EE000704770B504460D4600232A462146184621
:101EF000FFF730FC70BD00004FF0FF31204A116049
:101F000001221F498039C1F8842049174FF0E0228F
:101F1000C2F8801201221B490A60002004E000225E
:101F200019490A54411CC8B22028F8DB70474FF009
:101F30002061164A11600021121D11601449121D02
:101F400011600021121D1160121D1160002005E0BA
:101F500000220E4914310A54411CC8B22028F7DB74
:101F600000210A4A20321160491E121D1160121D03
:101F70001160121D116070470449091D0860704707
:101F800080E100E084E200E000E400E004ED00E035
:101F90000000FA050E480088401C0D490880704773
:101FA0000C48FFF7E9FF0120FEF73CFD0120FEF79A
:101FB000A1FD0120FEF7B2FD782000F00DF808B970
:101FC00000BFFEE701E000F053F8FCE7FFF7E8FF91
:101FD000104C00100005001010B50446C149C86A35
:101FE000FFF74CFF0020C0490860C0490860BD49A8
:101FF0000869214600F0C2F928B10921BCA0FFF709
:1020000065FF002010BD0C21BCA0FFF75FFF012081
:10201000F8E70146BD4802888A4207DB501AB0F54E
:10202000004F01DA012070470020FCE7881AB0F564
:10203000004F01DB0120F6E70020F4E72DE9F04135
:1020400006460F4690460025344604E0204600F040
:1020500042FA0544641CBC42F8D96D42454502D0A1
:102060000020BDE8F0810120FBE7A8480088704708
:10207000F0B5C1B04FF4807101A8FFF732FF0746F9
:10208000002F03DD394601A8FFF720FF6421A04897
:10209000FFF727FF0546002D72D0FFF7E6FF9D49A9
:1020A000088000240AE19048006810B101280BD193
:1020B00097E09748005D3F2807D18C48006820B919
:1020C0000C218EA0FFF702FFF6E09148015D8748E2
:1020D00002680068401C854B18608F488154184680
:1020E000006810287CD18C48007820B101283FD0AE
:1020F000022870D14DE0884840788749897840EAC5
:102100000120864908607748806A09684843834906
:1021100008608148807900067F49497940EA01409A
:102120007D49097940EA01207B49C97808437C4907
:1021300008607948807A00067749497A40EA014088
:102140007549097A40EA01207349C97908437549FC
:1021500008600120644908600020734908607349E1
:102160000860734908606F4800687249086036E08B
:1021700000F05CF928B107216FA0FFF7A7FE04E08B
:10218000A0E004216EA0FFF7A1FE002057490860DF
:1021900025E06148007900065F49C97840EA0140BE
:1021A0005D49897840EA01205B49497840EA0106A7
:1021B000304600F05EF920B107215FA0FFF786FEF0
:1021C00003E004215EA0FFF781FE0020474908607C
:1021D00005E005E0FFE700204449086000BF00BFBC
:1021E0006AE04B48005D524909680844504908605C
:1021F0004748015D4D4802680068401C4B4B186021
:10220000514881543748806A1946096888421FD16D
:102210004D4A184601684748006800F047F970B910
:1022200008214AA0FFF752FE424800683F4909686A
:1022300008444049086000203C49086008E0092142
:1022400045A0FFF743FE00202749086027490860A2
:1022500035480068401C34490860084600682F492A
:102260000968884227D132480068404230490860F6
:10227000084600682A490968884204D00A2139A022
:10228000FFF724FE12E02B480068411E2848026830
:1022900024480068FFF7D2FE20B9082134A0FFF7D8
:1022A00015FE03E0042126A0FFF710FE00200E49D2
:1022B00008600E49086000BF00BF641CAC42FFF418
:1022C000F2AE0CE01349098801F57A7188B2FFF784
:1022D000A0FE20B10020044908600449086041B014
:1022E000F0BD00007C440010144C0010184C00108D
:1022F000494E49544552520D0A000000455341468B
:102300004C4153484F530D0A00000000104C001080
:10231000404C00101C4C0010A4500010344C001015
:10232000384C0010304C0010204C0010244C001091
:102330002C4C0010284C00104552524F520D0A00F0
:102340004F4B0D0A00000000A44C001050524F47A4
:102350004F4B0D0A0000000050524F474552520D9E
:102360000A000000434845434B53554D0D0A0000F9
:102370005645524946590D0A0000000070B5054601
:102380000E465648006840F480305449C439C1F8BC
:10239000C4005348D0F81C0120F007005049C1F890
:1023A0001C010846D0F81C0140F00500C1F81C01D2
:1023B0000846806D20F0070088650846806D40F073
:1023C000050088650846C06B20F00700C863084612
:1023D000C06B40F00500C8630846006C20F00700A1
:1023E00008640846006C40F0050008640846406C2C
:1023F00020F0070048640846406C40F0050048643F
:102400000846806C20F0070088640846806C40F025
:1024100005008864334834490860084600683C2356
:10242000C022042104683148A04770BD10B50024C3
:1024300018E02E4800680059401C90B12B480068F5
:102440002B4908602948C068486000208860202027
:1024500008612548006882682448904708B1012037
:1024600010BD241D2148C068B4EB900FE1D30020BB
:10247000F6E710B504461E4804601C488068B0F5B5
:10248000802F04D2194880681949486003E04FF44E
:102490008020174948600020154988602020086185
:1024A0001148006882681148904710BD70B5044615
:1024B0000D4616460E480460456000200C498860B1
:1024C000C86008200861084800680A463146436829
:1024D0000648984770BD014608787047C4C00F4051
:1024E00000C00240C44600103C4C0010B450001024
:1024F00034510010FA4948608004800C06D001284D
:1025000008D0022808D0032808D04869CA69920771
:10251000FCD47047087DF9E7888AF7E7888A0A7D46
:1025200040EA0240F2E710B54FF4001404EB4151C9
:1025300041EA006040EA0240184310BD806A40034F
:1025400002D54FF4C01070470020704710B5044604
:102550001346084600221146FFF7E5FF01462046D4
:10256000FFF7ECFFBDE810400843C3E7DC4B00B5C4
:102570009A60FFF7E3FF08435DF804EBBAE730B574
:10258000D74C054608461146A36000231A46FFF7BC
:10259000CAFF01462846FFF7D1FF01436160E069A9
:1025A0008007FCD430BD00220621CFE7F0B50D46F0
:1025B00016461F460446FFF7F6FF3B4632462946BD
:1025C0002046BDE8F040DAE7F0B50D4616461C4659
:1025D0000746FFF7E8FFC2498E603846FFF7AEFFB7
:1025E000284340F400404860A804800C07D001282C
:1025F0000BD0A2B202280AD0032804D04C61C869CB
:102600008007FCD4F0BD8A82240C0C75F7E78A821F
:10261000F5E7B349CB6913F0060F19D01022CA6150
:10262000CA6912F0160FFBD15A0711D5C26902F41C
:102630006002B2F5400F0BD3FF220A73C0696FF33B
:102640000F0000F101004860087DC8698007FCD4D4
:1026500070472DE9F041054600248C46EA7C0121B3
:1026600001FA02F19E4F2046CEB2F9698907FCD4E7
:1026700044F62068641C444507D2012205212846FF
:10268000FFF764FFC0B23042F4D03042954E287557
:102690000CD0BCF1000F0ED0BCF1010F0DD0BCF17D
:1026A000020F06D0BCF1030F0BD108E03046BDE8A5
:1026B000F0818D4C05E08D4C03E08D4C01E04FF036
:1026C000FF342846FFF73AFF8A490843E97C08436C
:1026D0007860F869800702D5641EFAD11EE0ECB17B
:1026E000387D2875BCF1000F1ED0E86AE0B1C1B298
:1026F000052917D001222846FFF728FFC0B26875C8
:10270000E96A10EA112F0FD0C1F3074119B1002275
:102710002846FFF71BFF7348801CC8E72846FFF7D1
:1027200078FFC3E7287DEBE70020C0E730B515460A
:1027300004460B46002211460120FFF7F4FE014635
:102740002B4600222046FFF73FFFA06A800401D5F8
:10275000002030BD2046BDE83040002179E7F0B5CB
:102760000546C469806AA62681050BD504F42001BC
:10277000B1F5000F06D144F40014EC61296A41F46C
:1027800000112962810618D5400501D5022700E015
:1027900001273F1D012285212846FFF7D7FE00F0C3
:1027A0000703E869C7F1100100F4E020C8400343C3
:1027B000012281212846FFF7F9FEA86AC00707D049
:1027C00000230322A3212846FFF7D9FE761EFDD160
:1027D000C4F342514248062904D3A521017324F4CD
:1027E000400401E0FF2101738461F0BD10B504468F
:1027F000806A000611D501222B212046FFF7A6FE94
:102800006075A16A000621F4703102D54FF4803062
:1028100001E04FF480400143A16210BD30B50023B8
:10282000816383840723C38410E0838CCC88234492
:1028300083840B79C48CCD88DB0701D0022300E0B0
:10284000012305FB03430831C384083A082AECD26C
:10285000C3F3CC01C18430BD826B22B109B1828C3B
:102860000A80C08C704711B18268120C0A8080689F
:10287000C00C704710B5044600F13C030021FFF77F
:10288000EBFF01001FD0A06A40F48070A0622046D8
:10289000FFF754FE40EA0102174802431048426025
:1028A00002E0027D03F8012B0A00A1F1010189B2C7
:1028B000F7D100218034A34202D203F8011BFAE7CA
:1028C000C1698907FCD410BD491C01228A404FF020
:1028D000807182608A4200D90A46C2607047000057
:1028E000004009200300020070820300E09C4100C8
:1028F0000083400A00402005000020722DE9F041CD
:1029000004460D46C069F8491646984688426ED07E
:102910002046A562FFF76AFFA068B0F1807F19D951
:10292000A06A40F40070A062207C012806D0202814
:102930000BD0C22809D04FF00210B8E68023012244
:1029400017212046FFF71BFE04E00022B721204696
:10295000FFF7FCFD680504D5E448016841F08051AB
:102960000160E34F680724D5012235212046FFF797
:10297000EDFDC0B26075810755D4C00735D1012285
:1029800005212046FFF7E2FD617D41F0020140EAAA
:10299000012082B202212046FFF7C8FE0028CCD1D8
:1029A000012235212046FFF7D1FD60754FEA807086
:1029B00019E0E8041CD5012205212046FFF7C6FDD9
:1029C000C0B2207541062ED440F0400201212046BD
:1029D000FFF7ACFE0028B0D1012205212046FFF709
:1029E000B5FD2075400600281DDB38465FE64EE049
:1029F000280718D501223F212046FFF7A7FDC0B2C6
:102A0000607501060FD440F0800301223E2120466C
:102A1000FFF7CCFD01223F212046FFF797FD6075AF
:102A20004FEA0060DFE7A80705D5002238212046DD
:102A3000FFF78CFD17E0E80615D5680501D540279E
:102A400000E08027012265212046FFF77FFDC0B20C
:102A50006075384207D040F0C803BB4301226121B2
:102A60002046FFF7A3FDC6F3C1400328A06A10D09B
:102A700020F48020A062280507D5C6F302435B1E20
:102A80000122C0212046FFF77AFDC4E90768002033
:102A90000DE640F48020EDE72DE9F041934E044629
:102AA0000F46B0691546984610F4400F4DD00146C8
:102AB000C0F3C140E16103284AD00020A062204653
:102AC000FFF7A7FD0022FF212046FFF73FFD002270
:102AD000012311466520FFF726FD40F4C010FFF7E3
:102AE00009FDA0F14001802908D2810606D440F0FA
:102AF000C003012261212046FFF758FD80212046B6
:102B000001F070FC05F0C100C12824D04FF4702101
:102B100001EA074141EAC0504FF6FF7108443060B6
:102B200003229F212046FFF711FD4FF02051206125
:102B3000C4E9001630B16FF07F41884202D06D4980
:102B400088420BD16A48401DB1E540F44001AFE72F
:102B50004FF48020B2E76648401EA8E54FF480405D
:102B6000A0621C2060839C2020835F4EA80701D5B3
:102B7000304600E0604844F81C0F60486060202048
:102B800020760C202075D820A0761020A07514F88F
:102B90000C0CA4F11C047F2824D00CDC1F281BD0B3
:102BA00004DC012814D01C282ED113E0202815D0D5
:102BB000372829D114E0C2281AD004DC8C2813D07D
:102BC000BF2821D112E0C82814D0EF281CD113E06F
:102BD0004B4B12E04B4B10E04B4B0EE04B4B0CE0E1
:102BE0004B4B0AE04B4B08E04B4B06E04B4B04E0F1
:102BF0004B4B02E04B4B00E04B4B2BB1424629467E
:102C000020469847074601E0394F3F1D07B300258E
:102C1000E661284601F085FB0321012300220846D6
:102C2000FFF781FC014600222046FFF79FFC01468A
:102C30000DB1FF2000E00020814202D16D1C022D69
:102C4000E7DB022D0AD1A06A40F40070A06205E023
:102C5000A06A000402D52046FFF70CFE2046FFF7CD
:102C60007EFD384623E52DE9FF4F89B081460020DF
:102C700000900A98C6684846FFF7CBFC4846FFF725
:102C8000B5FDD9F82870780477D5B9F8180007F0A1
:102C9000040100F47F40084300D001208046012257
:102CA00005214846FFF752FC89F814005FEA080046
:102CB00004D0012235214846FFF748FC89F8150069
:102CC000B9F81440701C31D06EB1B9F8180024EA7C
:102CD00000023040024308F10100C1B24846FFF74C
:102CE00025FD009068E02CE0FF3F800300400920B4
:102CF00005000200CCCCCC00FF3F810B008080029D
:102D00007B3F0010013A001011380010EF3D001019
:102D10007137001025390010BD3A00102540001011
:102D2000293C0010793B0010FB4000100B98007804
:102D300018B30C980288B9F81A0002408443224361
:102D4000C9E7B9F81A00204238D00B9901200025B4
:102D500008700C98048008F1010000F0FF0AB9F82F
:102D60001A00514624EA00024846FFF7DFFC0090B3
:102D700020B16D1C032DF2DB82E11FE0A620401E76
:102D8000FDD1012205214846FFF7E0FB89F8140038
:102D90005FEA080004D0012235214846FFF7D6FB40
:102DA00089F81500B9F81400B9F81A10084202D0D1
:102DB000FE48009064E100980028DDD117F4603FE0
:102DC000DAD04FF0000B0120D9F838505C4606905D
:102DD0000EB1FF2000E0002007904FF480300590F6
:102DE0000A984FF0000AD0E900100844089009F151
:102DF0003C0080460290D9F81C0004A9C0F3405062
:102E0000C01C03904846FFF727FD01900DB9BDF89F
:102E100010B0380404D5F80502D44846FFF72AFD5F
:102E2000701C01D0AEB100E10B98007850B13804AD
:102E3000F9D5DDE901200C9901F0BBFA0020ADF8CD
:102E40001000F2E04846FFF78AFC00200DB0BDE814
:102E5000F08F0B99002008703804E4D5DDE90121DA
:102E60000C9801F0A6FAE0E0BBF1000F3FD195F914
:102E70000500B5F806B0D5F800A0002800DA4042F9
:102E80000121814005912879C00721D0B00140EA95
:102E9000061040EA86003043C0B207900220069038
:102EA000402C0CD0102C0AD0042C08D0012C06D0B9
:102EB000202C0AD0082C08D0022C06D017E0484657
:102EC000FFF74DFC4FF00210C0E744EA54040EE057
:102ED0000EB1FF2000E00020079001200690302C6A
:102EE00003D00C2C01D0032C01D104EA440434B9E2
:102EF00025B12879C00701D0C02400E080240A98B9
:102F0000059902680AEB0100824274D20898514682
:102F1000504570D917F4403F5FD0701C0AD0002E86
:102F20001ADDF8030BD50B4636214846039AFFF706
:102F30003DFB4BE098F800002042F2D146E001232F
:102F40000022E5200399FFF7EEFA014601235246DD
:102F50004846FFF739FB39E038D1F80301D53C206A
:102F600000E0E820012300220399FFF7DCFA014684
:102F700052464846FFF7FAFAC0B2B90302D5C14338
:102F800089070AD0C00724D0F8030BD5534639214E
:102F90004846039AFFF70AFB10E04846FFF7DFFBBD
:102FA000824853E701230022E5200399FFF7BBFA8B
:102FB0000146002352464846FFF706FB0B990120C5
:102FC000087098F80000204388F800000098E0BBE3
:102FD00011E098F80000A043F6E798F80010079A6F
:102FE00021EA040022401043814204D088F8000006
:102FF0000B99012008700698C44001D108F101081E
:103000003DB195F90500002803DA0598C0F10000EC
:1030100000E005988244ABF101001FFA80FBBBF190
:10302000000F02D10DB105F10805BDF81000A0F1A7
:103030000101ADF8101000287FF416AF0B9800784E
:1030400018B138041CD5484600E019E0FFF7ABFA88
:1030500048460299FFF772FA019A1043544A104306
:10306000544A506002E011F8010B10750198A0F16C
:1030700001039BB201930028F5D1D0698007FCD4ED
:103080004846FFF76CFB0098E0E670B50A68836875
:10309000CBB10468944206D8C5684E6825441644EE
:1030A000B54200D3121B934210D94C6814449C4281
:1030B0000CD80B6913F0300F02D0C068844205D8D9
:1030C00000200A6070BD3948801C70BD3748401E22
:1030D00070BD70B50C4616460546FFF79AFA2846AD
:1030E000FFF761FA33498E602846FFF727FA2A6A0C
:1030F00002F4600242EA046210434860C72C07D021
:10310000602C05D001212846BDE87040FFF7A1BA28
:103110000321F8E770B50C4616460546FFF743FA5B
:1031200024498C60286A3043486070BD2DE9F0471F
:1031300082460E46174698461C68DFF87890556818
:1031400068E03A693868C1B2C1F5807412B1A5422D
:1031500000D22C46214602E0761C6D1E641EB30789
:1031600009D03378FF2B11D1BDB1002CF4D114E07C
:10317000361D2D1F241F33685B1C07D1042D05D37A
:10318000042CF5D203E0761C6D1E641E2DB124B113
:10319000042C02D23378FF2BF5D0091B0844386089
:1031A00085B3002CCED00146224605E00500020082
:1031B00000802042004009205046FFF7ABFF3868EE
:1031C0002044386001E0002CBBD04846B1070BD04A
:1031D000CDB14CB116F8011B01756D1E641EF5E7EB
:1031E00002CE41612D1F241F042D07D3042CF7D2DA
:1031F00005E016F8011B01756D1E641E1DB1002C43
:10320000F7D101E008E02CB902215046FFF721FA7E
:10321000002804D1002DD6D10020C8F80040BDE818
:10322000F0870068084404E00168491C04D1001DCF
:10323000121F002AF8D10020704713680068184454
:1032400010604840800701D000207047012070477F
:103250003FB50C461D4602AAFFF7EFFF35B348B94C
:1032600022E0029814F8011B027891421FD1401C01
:103270006D1E0290A0070BD0002DF2D116E002982F
:1032800021680268914212D1001D241D2D1F029059
:10329000042DF4D208E0029814F8011B0278914240
:1032A00005D1401C6D1E0290002DF4D1002004B009
:1032B00030BDF8B50C46116800911F465568FE43B5
:1032C0006A462146FFF7B9FF85B3F9B2F0B1F2B211
:1032D000A00719D055B3DDF800C014F8010B1CF895
:1032E000013B484053401842CDF800C01AD16D1E32
:1032F000EEE70098226803687A4073401A4211D1C1
:10330000001D241D2D1F0090042DF2D2F3B26DB1CB
:10331000009814F8012B10F8016B4A405E403242CD
:10332000009001D00120F8BD6D1EF0E7FFE70020FE
:10333000F8BD2DE9F74F17469CB08A46142239464E
:10334000684601F036F800258DF8645069467C68BF
:103350001C98FFF79AFE060037D100981A90204477
:103360001790284603903869800507D405AB19AA41
:1033700069461C98FFF777FC060026D1AFE01C9841
:103380004FF0010990F8301009FA01F00099421E3F
:1033900021EA020B00EB0B08A8EB0105AC4200D2BE
:1033A000254601953869400706D400236A465146F0
:1033B0001C98FFF77EFF00B10120009918910028AA
:1033C0007ED03869000702D5E8481FB03FE5B868ED
:1033D00000B3009A1799A2EB0B094246414503D26C
:1033E0001146179A891A00E0002188465FEA090110
:1033F00005D00A46594600F0DCFFCDF800B0B8F120
:10340000000F0AD0B968424601EB0900179900F095
:10341000D0FF02E04FF00008C1461C985A4690F8D1
:103420003410FFF756FE060003D01C98FFF797F9FB
:1034300066E03869800610D51C98FFF790F91C9853
:103440000122594690F8300082401C98FFF7E9FEAF
:103450000028BAD11C98FFF7DCF8002016900490E1
:10346000CDF8049016AB6A46B9681C98FFF75EFE6B
:1034700006460195B8F1000F03D00020049016B164
:1034800008E00120FAE716AB6A4651461C98FFF7A0
:103490004DFE06460120CDF80480049066B9B96857
:1034A00016AB49446A461C98FFF740FE060003D15C
:1034B000169808B14FF002161C98FFF750F900E07B
:1034C00054E0EEB93869C00607D52B465146189A24
:1034D0001C98FFF7BDFE060012D1AA44641B002C05
:1034E0007FF44DAFF86858B103901A98009078684F
:1034F000019005AB19AA69461C98FFF7B4FB064674
:10350000304662E741F0FF00451A6D1CAC4200D224
:1035100025464FF0FF336A46514601951C98FFF748
:10352000C8FEF0B11C98FFF774F80020169016AB97
:103530006A465146CDF810901C98FFF7F7FD0646F5
:103540001C98FFF70CF9002EDAD13869C0060BD5AC
:103550002B465146189A1C98FFF77AFE0600CFD1E9
:1035600002E0009828440090AA44641B002CB9D0C3
:1035700000994145BFF403AFC4E72DE9F34F9DB077
:103580000C461422684600F014FF00261D988DF8A2
:103590006860D4F804A090F8301001208840199099
:1035A000694617961D98FFF770FD05007ED10396BA
:1035B0002069800507D405AB1AAA69461D98FFF754
:1035C00052FB050072D100991B9101EB0A00169085
:1035D00000296CD11D988168514568D81D98806A72
:1035E000400664D41D98FFF714F800231A46C7213B
:1035F0001D98FEF7DBFF03211D98FFF72AF805460B
:103600001D98FFF7ACF89EE003271D9838441C90E6
:1036100090F8300000287CD0012101FA00F80098D1
:10362000A8F1010120EA010BA0EB0B060BEB08004F
:1036300016991890814201D2401A00E0002081467C
:103640001998864278D21999894575D2A06868B1CF
:103650001EB13246594600F0ACFEB9F1000F05D05C
:10366000A0684A463044169900F0A3FE1D985A46B9
:10367000384490F834101D98FFF72BFD05461D982F
:10368000FFF76DF8002D6ED1206980060AD51C98D1
:103690000122594690F8300082401D98FFF7C1FD85
:1036A000050003D1A068A8B3012001E05CE046E07A
:1036B0000490FEB11D98FEF7ACFFCDE900B617AB44
:1036C0006A46A1681D98FFF731FD05461D98FFF772
:1036D00046F825B9179810B14FF0021543E020695C
:1036E000C00606D533465A46A1681D98FFF7B0FDBF
:1036F0000546C5BBB9F1000F17D01D98FEF789FF2D
:103700001698CDE90009A06817AB81196A461D9883
:1037100001E011E009E0FFF709FD05461D98FFF7FC
:103720001EF805BB17980028D6D118980090C245FE
:103730000AD9AAEB080A02E07F1E7FF566AFBAF14C
:10374000000F7FF461AF75B9E06860B11B9800901D
:1037500060680190E068039005AB1AAA69461D985D
:10376000FFF781FA054628462FE600000B0002000D
:103770002DE9F041467C847C05460F46302E04D06E
:10378000402E07D01C48BDE8F081A4F110000728A6
:1037900011D209E0A4F1150002280CD244F21C4019
:1037A000688344F2FC502883611E2846FFF78CF89A
:1037B000402E05D102E01048401EE4E7F80508D588
:1037C0000E484FF48841162C01D30D4B05E02B6AAF
:1037D00003E00C480C4B44F20401162C01D30622E2
:1037E00000E0042240EA4252084802432846BDE86D
:1037F000F041FFF783B8000008000200000001BBA1
:10380000008088A2000003EB00808832FF3F100098
:103810002DE9F0410546407C0F464FF48046A97CD7
:10382000A0F14303394CB2004FF00008052B23D818
:103830004B093ED1A0F132041646442806D0452853
:103840000AD046283BD344F4807438E02022304923
:103850002846FEF7E3FF32E0012930D12C4920222F
:1038600020312846FEF7DAFF04229F212846FEF782
:103870006DFE000EE7D122E0652809D0662807D04A
:10388000862814D0872812D02048401CBDE8F0813B
:10389000A0F15604652808D06C20688340F08000B1
:1038A0002883002085F8320009E00420F5E7490963
:1038B00001D02046EAE7723840F4407416465220A0
:1038C00085F835000F2085F8310042F20500E862E6
:1038D00004F01F012846FEF7F7FF14F4407F12D0D2
:1038E000B4F5407F01D3F80504D546F48061094A58
:1038F000094B03E0094A0A4B46F008012846BDE897
:10390000F041FEF7FBBF4046AE62BFE70700020092
:1039100014470010FF3F893B008088A2FF3F896B5E
:103920000080883270B50546407CAC7C0E469D28F0
:1039300001D02D4870BDA4F11300012818D90C380E
:10394000032803D8113C44F4807411E02F2C07D0D5
:10395000A4F14400022806D8313C44F4407407E046
:103960004FF4877404E0A4F17C00022820D86C3C5A
:1039700004F01F01102902D80F2085F83200B4F599
:10398000457F03D33C206883BC2028832846FEF76C
:103990009BFF14F44070CDD04FF44072944201D399
:1039A000F0050DD54FF48841944204D90F4803E047
:1039B0000D48401E70BD0E480E4B18432B6A03E0A5
:1039C0000D480E4B4FF4A041944201D9062200E06D
:1039D000042240EA425243F6FF7002432846BDE803
:1039E0007040FEF78BBF000008000200000010BB13
:1039F0000000083BFF3F0100FF3F13EB00808832CF
:103A00002DE9F041457C867C04460F46202D08D0E8
:103A100005F0BE00302804D0382D02D02448BDE87F
:103A2000F081A6F11000092802D32148401EF6E7D4
:103A3000112E03D80F2084F832000CE0202D0AD17B
:103A4000172E08D1102004F8300FD8202071002044
:103A5000A070A4F13004711E2046FEF735FF162E2B
:103A600006D0302D02D0702D02D005E0162E03D3E3
:103A70003C206083BC20208305F0BF00302801D0AB
:103A80000020CCE7608B236A40F0C0002083F8055B
:103A900003D54FF48841074A04E0074A44F2020183
:103AA00043F4C0132046BDE8F041FEF727BF0000F5
:103AB00008000200FF3F91BBFF3FDBEB2DE9F04127
:103AC000447C857C06460F46202C0AD0212C08D049
:103AD000302C06D0402C04D0412C02D02048BDE828
:103AE000F081A5F11300052802D31D48401EF6E71A
:103AF000302C01D0412C05D1BC203083412C01D188
:103B00003C207083691E3046FEF7DEFE600601D55C
:103B1000F8050AD54FF48841600601D5114A00E046
:103B2000114A1248336A024307E0162D09D04FF4B8
:103B300080500F4A0F4B40F4804114F09F0F02D089
:103B400005E00420F5E7162D01D141F4005160068F
:103B500001D542F480023046BDE8F041FEF7CEBE0A
:103B600008000200000010BB0000083BFF3F81007E
:103B7000FF3F93EB008088322DE9F0410446066A4E
:103B8000407CA57C0F46402802D02248BDE8F08149
:103B9000A5F1100007283AD8522084F835000F20EC
:103BA00084F83100102D0BD0142D05D3D22084F8C9
:103BB0003700112084F83300162D05D21C2005E0B3
:103BC000002084F83200F9E744F21C006083162DCF
:103BD00002D24FF4FE7001E044F2FC502083691ED3
:103BE0002046FEF771FEF80503D544F201410A4A6A
:103BF00005E00A4A44F20501162D00D3084E094893
:103C0000334602432046BDE8F041FEF777BE014847
:103C1000401EBBE708000200000011BB000013EBD0
:103C200000808832FF3FC0002DE9F05F457C847C36
:103C300006468B464FF0000A4FF48049202D08D0ED
:103C4000242D06D0252D04D05E2D02D05648BDE887
:103C5000F09F04F01F08A8F1100009286FD8A8F100
:103C600001013046FEF730FE504904F00F00102CE1
:103C7000085C708340F08000308302D1002086F819
:103C80003200012205213046FEF760FCC0B23075DB
:103C900010F0400719D140F0400080F004020121EB
:103CA0003046FEF743FD5FEA000AD0D1012205212C
:103CB0003046FEF74BFC80F00400C2B2327502F0D1
:103CC000400701213046FEF731FD202D02D0252D81
:103CD00004D00FE0162C12D337B910E0A4F1330052
:103CE000062801D9532C0ED3522086F835000F2018
:103CF00086F83100202D02D0252D04D01AE0172C93
:103D000018D317B92EE0342C14D3A8F114000628C8
:103D10000ED2DFE800F0030715191D2123491022F8
:103D2000783902E02149102268393046FEF776FDE5
:103D30004FF08009A7B11BF4807F15D127E02FE059
:103D40001A4910225839F0E7184918224839ECE787
:103D5000164918223039E8E7144918221839E4E7DF
:103D6000202D1BD1152C19D337B1202D01D1182CA2
:103D700002D9BB20022101E03B200121000640EADC
:103D8000C1420B4849F480610243336A02E0094BA7
:103D9000094A49463046FEF7B1FD8246504656E78D
:103DA0000148401E53E7000008000200CC47001005
:103DB000FF3F810000809038FF3FD3EB0CB50246F7
:103DC00053A0D0E90030CDE90030C80505D54B2A15
:103DD00001D801200CBD02200CBD002069460B5CFF
:103DE000934202D2401C0528F9D3401C0CBD2DE99A
:103DF000F047044610468A46657CA67CFFF7DEFF46
:103E0000C7B24FF480484FF00C09202D0ED0BA2DC8
:103E10000CD0BB2D0AD0DB200821802D1AD0402DDC
:103E200024D0712D28D03C48BDE8F087D82084F8F4
:103E30003400112E01D80F2006E0202D03D1182EBA
:103E400001D3122000E0102084F83000002084F814
:103E5000320011E004F13004207121704FF0200095
:103E6000607184F80190A4F1300405E084F8340016
:103E700084F830104FF04008A6F110000A2802D351
:103E80002548401ED0E7711E2046FEF71DFD132E6B
:103E900002D2A4F81A9006E0BA2D04D3172E04D348
:103EA0005C20608301E0712D11D0BA2D0FD0BB2DA5
:103EB0000DD00020618B40F0800008432083712DDD
:103EC00022D306D14FF41131144A154B17E02020AC
:103ED000F0E71448E0625FEACA5006D5124844F29F
:103EE000304140EA0742114B05E01148114B44F2C2
:103EF000300140EA0742182E01D341F40031204638
:103F0000BDE8F047FEF7FABC0020C4F828808BE734
:103F1000273B4E5F6C00000008000200FF3F893B1A
:103F2000008088A270305000FF3FD8BB008098D23C
:103F3000FF3FD8EB0080981210B5044605229F2160
:103F4000FEF704FB000E032801D03049E16230493E
:103F5000097D19B1012905D02E4810BD122084F821
:103F6000300003E0032801D13C206083A17C20467F
:103F7000491EFEF7A9FC002010BD70B504460D4691
:103F8000407CA17CD82284F83420102284F8302090
:103F9000002284F832201F4A521C022803D0202815
:103FA00013D0501C70BDA1F11200022803D8204686
:103FB000FEF78AFC13E0A1F11500012802D813488E
:103FC000E062F4E7192904D001E0182901D0104675
:103FD00070BD2046FFF7B0FF10F0FF00F8D1E06A97
:103FE0000028F5D0608B40F436502083E80504D5D6
:103FF0004FF48841084A236A03E0084A084B44F218
:1040000004012046BDE87040FEF778BC0560300032
:104010000040092006000200FF3FD1BBFF3FD3EB69
:104020000080883270B50446417C807C254A262970
:1040300003D025292AD0501C70BD00F0DF010329D0
:1040400026D80721E174002100F0070584F832101A
:1040500005F113012046FEF737FC012D04D0022D97
:1040600005D0032D09D10DE02822174902E0164999
:10407000282228312046FEF7D1FB144B144A48F27F
:10408000020119E0104928225031F3E74B2801D0F2
:10409000104670BD16212046FEF716FC3C206083BA
:1040A000BC202083522084F835000F20094B0A4A97
:1040B00084F831004FF4C8412046BDE87040FEF757
:1040C0001DBC000007000200D847001000809802C5
:1040D000FF3F990B008088A2FF3F91BB08B50146C6
:1040E00038A06A46006800900020135C8B4202D220
:1040F000401C0328F9D3401C08BD2DE9F04190462F
:10410000477C0446867C304A4FF480454FF4884013
:10411000302F03D017F08F0F09D029E0A6F110013E
:1041200004290AD2218B41F02001218310E0702F55
:104130001ED0A6F11203082B02D31046BDE8F08171
:1041400044F21C02628344F2FC122283C90500D5AA
:104150000546711E2046FEF7B7FB522084F8350055
:104160000F2084F83100680505D5184A236A11E04C
:104170001548401CE2E7602F0FD00321022244F2D1
:1041800004050120090441EAC24211490A431149C8
:1041900041EAC043402F09D00EE044F604054046F2
:1041A000FFF79CFFC1B203200246EBE7142E03D3B6
:1041B000162E01D845F0010529462046BDE8F041FC
:1041C000FEF79CBB1E32500007000200FF3FD1BB30
:1041D000FF3FC0EB00808032584904220A604A60E9
:1041E000574948434FF41621B0FBF1F1554880225E
:1041F00002730170090A01710721017347210172DD
:104200007047F0B5504C0346D4F8A001800606D4A0
:104210002020C4F8A001D4F8A0014006FBD5002757
:10422000C4F8B471D4F884200920AA2555264FF08B
:10423000010C824234D004F19004626F22F4807247
:104240006267E26F42F00102E26754F8082CA4F1C1
:104250009004D20505D544F8807FE560E660A4F1BE
:10426000800444F8840F44F804CCA560A660A4F14F
:104270008404D4F888205205FBD5226822F47042C9
:1042800042F4A0422260C4F8A8C140F20112C4F86E
:104290000421401C00EB400080000860FFF79CFFF9
:1042A000D4F8A800C00505D544F8A07FE560E66015
:1042B000A4F1A004A02B01D9A02302E00A2B00D274
:1042C0000A23A020B0FBF3F043430C21B3FBF1F22F
:1042D000A2F1010144F8A41F44F804CCA560A66033
:1042E000A4F1A404D4F8A8104905FBD500F5007189
:1042F000C4F8B41102EB42018900B1FBF0F0F0BD4B
:104300000E4940F205208865052048648864C1F89C
:104310001C010864C8630D48016841F480310160E4
:104320007047012806D038B10020044940F005004C
:10433000486470471020F8E70820F6E700C0024004
:1043400040420F0000C0004000C00F40C4C00F40FA
:104350002DE9F05F0546002092469B4688460646BA
:10436000814640241BE0284641464746224600F04D
:1043700053F853465A46C01A914110D31146184675
:10438000224600F03AF82D1A67EB01084F46224604
:104390000120002100F031F817EB00094E41201EEA
:1043A000A4F10104DFDC484631462A464346BDE815
:1043B000F09F40EA01039B0703D009E008C9121FE0
:1043C00008C0042AFAD203E011F8013B00F8013BCF
:1043D000521EF9D27047D2B201E000F8012B491EFB
:1043E000FBD270470022F6E710B513460A46044692
:1043F0001946FFF7F0FF204610BD202A04DB203AC3
:1044000000FA02F1002070479140C2F1200320FA27
:1044100003F3194390407047202A04DB203A21FA25
:1044200002F00021704721FA02F3D040C2F12002CD
:104430009140084319467047064C074D06E0E06876
:1044400040F0010394E8070098471034AC42F6D3DB
:10445000FCF7CCF8504800107048001002E008C883
:10446000121F08C1002AFAD170477047002001E0EE
:1044700001C1121F002AFBD1704700003D7F55AAE1
:1044800003000000010000000100000000000028FF
:10449000FFFF3F2800050010FFFF00100000040090
:1044A000FF0000000001000000C201000100000048
:1044B00000E100000000000000000000000000001B
:1044C0004C50433430383800000000000000000039
:1044D00000000000000000000000000000000000DC
:1044E00000000000000000000000000000000000CC
:1044F00000000000000000000000000000000000BC
:1045000047656E6572696320535049204C504334AF
:104510003038382045410000000000000000000055
:10452000000000000000000000000000000000008B
:10453000000000000000000000000000000000007B
:104540004E5850205350494649206C69627261723E
:1045500079206F6E204541206576616C20626F6125
:104560007264000000000000000000000000000075
:10457000000000000000000000000000000000003B
:10458000000000000000000000000000000000002B
:10459000000000000000000000000000000000001B
:1045A000000000000000000000000000000000000B
:1045B00000000000000000000000000000000000FB
:1045C00053686F756C6420776F726B2077697468BD
:1045D00020616E79205350494649206465766963AD
:1045E0006520636F6D70617469626C6520776974B2
:1045F0006820746865204E58502053504946492021
:104600006C6962726172793B3B466F7220746865B7
:10461000204541204C50433430383820626F61725D
:10462000643A3B3B2D20456E73757265204A5032CB
:104630003020697320636F6E6E65637465643B2D13
:104640002053657420543120616E642054322074EC
:104650006F3430306D733B2D20436F6E6E65637425
:1046600020466C617368204D6167696320746F2018
:104670004A323520666F7220495350000000000016
:10468000000000000000000000000000000000002A
:10469000000000000000000000000000000000001A
:1046A000000000000000000000000000000000000A
:1046B00000000000000000000000000000000000FA
:1046C000AA557F3D992A0010333300107B35001026
:1046D000132600105F2700108B300010672C00108D
:1046E000B3320010D3300010233200102D310010EF
:1046F00051320010C9280010FD2800102725001095
:104700006D2500107F250010C92500102D270010F1
:1047100053260010000000000010070000000700F2
:10472000000F010000800700000D020000C007001C
:10473000000E01000000000000100F0000000F003C
:10474000000E010000400F00000D020000800F006D
:10475000000F010000000000000C1000000001002C
:1047600000100F0000000000000C1000000001000D
:1047700000101F0000000000000C100000000100ED
:1047800000103F0000000000000C100000000100BD
:1047900000107E0000F00700000C10000000000078
:1047A000000C1000000001000010FE0000F00F00DF
:1047B000000C100000000000000C100000000100C0
:1047C0000010FE0100F01F00000C10000C0C7C3CDF
:1047D0003C3C3C3C3C3C000000E01F0001F304007A
:1047E0000060000001F3040000001F0000F1010060
:1047F0000080000000F1010000001E0000F01E001B
:1048000000E03F0001F304000060000001F3040039
:1048100000003F0000F101000080000000F10100F5
:1048200000003E0000F03E0000E07F0001F30400C5
:104830000060000001F3040000007F0000F10100AF
:104840000080000000F1010000007E0000F07E000A
:1048500070480010004C0010400000005C44001044
:10486000B0480010404C0010080900006C440010D3
:10487000000E27070087930300879303006CDC0278
:104880000000000000000000000000000000000028
:104890000000000000000000000000000000000018
:1048A0000000000000000000000000000000000008
:04000005100005E5FD
:00000001FF
