:020000041000EA
:10000000880D0810D1000010D9000010DB0000108E
:10001000DD000010DF000010E10000105A5A5A5AAB
:10002000000000000000000000000000E3000010DD
:10003000E500001000000000E70000100923001098
:10004000EB000010EB000010EB000010EB000010C4
:10005000EB000010EB000010EB000010EB000010B4
:10006000EB000010EB000010EB000010EB000010A4
:10007000EB000010EB000010EB000010EB00001094
:10008000EB000010EB000010EB000010EB00001084
:10009000EB000010EB000010EB000010EB00001074
:1000A000EB000010EB000010EB000010EB00001064
:1000B000EB000010EB000010EB000010DFF80CD09C
:1000C00004F0CAFD0048004783230010880D081083
:1000D0000648804706480047FEE7FEE7FEE7FEE7E2
:1000E000FEE7FEE7FEE7FEE7FEE7FEE7BF090010DA
:1000F000BD0000107046704730B51F24FD4D2C60C8
:10010000FD4CFE4DEC660024AC612C46646C44F062
:1001100001046C64FA4C6C6400BFF84C246C04F06D
:100120000104002CF9D0F74CF44DEC664FF47A71D1
:1001300000E0491E0029FCD1F34CF04D6C6400BF77
:10014000EE4C246C04F00104002CF9D0ED4CEB4D86
:10015000EC662C46246A44F001042C624FF4804083
:10016000142424B1012C05D0022C07D104E04FF057
:10017000FF3012E0E54810E0E5480EE0142108E009
:1001800080EA500404F00104C0F34D0545EA8430D0
:10019000491CB1F5004FF3D900BF00BF0B22182353
:1001A000540444EA83540443D44D6C6280200124F7
:1001B00024B1012C05D0022C09D105E04FF0FF300D
:1001C00018E040F2023015E040F2022012E0012176
:1001D0000CE080EA900484EAD00484EA101404F06D
:1001E0000104C0F3460545EAC410491CB1F5807FFF
:1001F000EFD900BF00BF0403C04DAC621020012442
:1002000024B1012C05D0022C07D104E04FF0FF30BF
:1002100012E0622010E042200EE0012108E080EAB6
:10022000900404F00104C0F3430545EA0410491C9E
:10023000B1F5007FF3D900BF00BFB04CA46A0443FE
:10024000AE4DAC62B34C2C6200BFAC4CE46904F020
:100250000104002CF9D0AB4C0834A84DAC64AE4C72
:10026000EC64A54C2C656C65A64C8434AC6530BD43
:100270002DE9F04704464FF47A70A8490968A0FBBD
:1002800001700146A64A0023384604F023FA0022F2
:10029000A0FB045701FB047100FB021104220023A0
:1002A000284604F017FA814600BFB9F10000A9F111
:1002B0000109FAD1BDE8F0872DE9F04385B00720A8
:1002C0009849086000BF9748001D006800F00100D1
:1002D0000028F8D0914800689349884203D2002052
:1002E0009249086003E047F2777090490860F22075
:1002F0008F4908608E498039C1F884008C490831E3
:100300000860F320091D0860091D0860091D0860C8
:10031000091D0860091D0860091D0860091D0860A5
:10032000091D0860091D0860091D0860091D086095
:10033000091D0860F2207E4980310860091D0860AF
:10034000091D08607A4998310860F320091D08608A
:10035000091D0860091D0860091D0860091D086065
:10036000091D0860091D0860F22072490860091D16
:100370000860091D0860091D0860091D0860091D45
:100380000860091D0860091D0860F1206949843171
:100390000860091D0860F320091D0860091D086038
:1003A000091D0860F120091D0860091D0860091D6C
:1003B0000860F320091D0860091D0860091D086018
:1003C000091D08605C490860F2205C490860091D4D
:1003D0000860091D0860091D0860091D0860091DE5
:1003E0000860091D0860091D0860091D0860091DD5
:1003F0000860091D0860091D0860091D0860091DC5
:100400000860091D0860091D0860091D0860F320C7
:100410004A4980310860091D0860091D0860091DEE
:100420000860091D0860091D0860091D0860091D94
:100430000860091D0860091D0860091D0860091D84
:100440000860091D0860091D0860091D0860091D74
:10045000086001203A4908600020886000242F4885
:100460000068384988422ED901244FF0000910E075
:100470004FEA890000F1805000684DF829003248A9
:1004800050F829104FEA890000F18050016009F10D
:100490000109B9F1050FEBD3BFF36F8F2722214973
:1004A00048312A482A4B98474FF0000908E05DF888
:1004B00029104FEA890000F18050016009F101091B
:1004C000B9F1050FF3D3F02022490860091D086037
:1004D000091D0860091D0860822006490C39086062
:1004E00000201749C1F808025A210C480268601C14
:1004F00032E000000C5200400008000100000540FE
:10050000802027060008000980080E0603800100ED
:10051000030001001C080006040800030000081086
:1005200000CA9A3B3014054000B4C404006D084072
:10053000806008408062084010650840806608407E
:1005400000500040000E2707E24C00102C31044000
:1005500001000010006C0840B2FBF0F0A1FB00505D
:100560000146F94A0023284604F0B4F8F749C1F8D7
:100570000C020846D0F8000240F40020F44908605C
:100580004FF48A40F349086040F20330091D0860C7
:100590000120EE4988621421EF480268601CB2FB1A
:1005A000F0F0A1FB00500146E74A0023284604F082
:1005B00091F8E64908632A21E7480268601CB2FB0B
:1005C000F0F0A1FB00500146DF4A0023284604F06A
:1005D00081F8DE4948633F21DF480268601CB2FBB6
:1005E000F0F0A1FB00500146D74A0023284604F052
:1005F00071F8D64988634621D7480268601CB2FB6F
:10060000F0F0A1FB00500146CF4A0023284604F039
:1006100061F8CE49C8634621CF480268601CB2FB2E
:10062000F0F0A1FB0051C84A0023284604F052F81C
:10063000C64908641E21C8480268601CB2FBF0F07D
:10064000A1FB00500146C04A0023284604F042F8AE
:10065000BE4948643F21C0480268601CB2FBF0F00C
:10066000A1FB0051B84A0023284604F033F8B749EB
:1006700088643F21B8480268601CB2FBF0F0A1FB1F
:1006800000500146B04A0023284604F023F8AF4941
:10069000C8643F21B0480268601CB2FBF0F0A1FBC7
:1006A00000500146A84A0023284604F013F8A74941
:1006B00008650E21A8480268601CB2FBF0F0A1FB9F
:1006C0000051A14A0023284604F004F89F494865D8
:1006D0001E21A1480268601CB2FBF0F0A1FB005093
:1006E0000146994A0023284603F0F4FF974988659C
:1006F0006420FFF7BDFD40F28310944908620A2090
:10070000FFF7B6FD40F20310904908620120FFF7A1
:10071000AFFD40F283108D4908620120FFF7A8FD6C
:10072000C8218D480268601CB2FBF0F0A1FB00708C
:100730000146854A0023384603F0CCFF05461022C7
:10074000002303F0C7FF401C804948624FF00A00B5
:10075000FFF78EFD43F609517F480268601CB2FB2B
:10076000F0F0A1FB00500146774A0023284603F031
:10077000B1FF07461022002303F0ACFF401C734971
:1007800048624FF00A00FFF773FD83206F4908624B
:10079000724800680A20FFF76BFD02206B4908626F
:1007A0000846D0F8000140F400206A49086005B00E
:1007B000BDE8F08330B502466948406920F4000086
:1007C000674D686140F2FF1000EB026068612846E7
:1007D000406940F4000068610BE061484069C0F383
:1007E0004D215F484069C0F3080311B90BB90020DF
:1007F00030BD5B48406900F400000028EDD1584846
:100800004069C0F34D2145F6BB3001FB00F42046A2
:10081000EEE702464FF0FF33112A44D2DFE802F040
:100820000E090A0B0C4319232629434334373A3D5A
:10083000400000BF00BF00BF1046704749484068F5
:1008400000F00A00022802D04FF0FF30F5E7002048
:10085000F3E74348806900F0010010B14FF0FF302A
:10086000EBE70620E9E73E48016A1EE03C48016BE1
:100870001BE03B48006C00F0010010B13848406CB0
:1008800000E00020014610E03548816C0DE034485E
:10089000C16C0AE03248016D07E03148416D04E067
:1008A0002F48816D01E01846C7E700BF01F0010045
:1008B00008B9C1F304631846BFE72DE9F047804645
:1008C0004FF0010901240026474600BF112F5BD2DB
:1008D000DFE807F0090C0E10125A144E4F505A5A06
:1008E000161D242B32004FF4004650E01E4E4EE001
:1008F0001E4E4CE01D4E4AE01B4E48E01A4E46E0AC
:100900001748806CC0F38100401C44433FE014480A
:10091000C06CC0F38100401C444338E01048006DB7
:10092000C0F38100401C444331E00D48406DC0F3EA
:100930008100401C44432AE00948806DC0F38100D7
:10094000401C444323E0000000CA9A3B0050004092
:100950000052004000510040000008100020032811
:100960000000054000300440001BB70080F0FA0290
:100970000DE00CE004F082F90546E8B209FB00F94D
:10098000C5F30720444302E00020BDE8F08700BF24
:100990001EB93846FFF73DFF0746002E96D006FBEE
:1009A00009F0B0FBF4F0F0E710B51048C06EC0F3EA
:1009B00004642046FFF781FF0D49086010BD10B5A3
:1009C0004FF0E020006920F003004FF0E0210861C3
:1009D000FFF790FB6FF3130006490860FFF78CFBED
:1009E000FFF7E2FFFFF768FC10BD000000000540C4
:1009F0000000081008ED00E02DE9F04F8BB0044630
:100A0000884600200990F948844203D1202001F053
:100A100008FB8146F648844203D1212001F001FB06
:100A20008146F448844203D1222001F0FAFA81463B
:100A3000F148844203D1232001F0F3FA81464FF0BC
:100A4000FF3B00200790069000252E4601274CE032
:100A50000020089040E00898384400FB08FC002083
:100A6000010741EA19114FEA09700022A0FB073E75
:100A700001FB07E100FB02106246CDE900300023D4
:100A8000DDE9000103F026FECDE90401049803909E
:100A9000DDF814A00398B0F1004F04D90398404248
:100AA00003900AF1010ABAF1000F02D0BAF5803FB3
:100AB00000D90EE0039858450AD2DDF80CB00026A4
:100AC0005546089807900697BBF1000F00D106E045
:100AD00000BF0898401C08900898B842BBD300BFDC
:100AE000BBF1000F00D102E07F1C0F2FB0D900BF77
:100AF000002185EA01007140084302D10BB0BDE836
:100B0000F08F4FEA1910069900FB01FC084607997F
:100B100008440021A0FB052301FB053100FB061062
:100B20000346CDE900206046002103F0D3FD02908A
:100B30000298804503D90298A8EB000B02E00298C6
:100B4000A0EB080B64200BFB00F0B0FBF8FBBBF143
:100B5000030F35D2A648844218D1E06840F08000E7
:100B6000E060280A40EA0660C0B26060E8B2206037
:100B7000E06800F07F00E060F021069801EA0010D4
:100B8000079901F00F010843A06217E0E06840F008
:100B90008000E060280A40EA0660C0B26060E8B207
:100BA0002060E06800F07F00E060F021069801EA34
:100BB0000010079901F00F010843A062012009907D
:100BC00009989BE770B504460E468848844203D1D5
:100BD0002121062000F011FF8548844203D1222103
:100BE000092000F00AFF8348844203D12321062014
:100BF00000F003FF8048844203D12421062000F046
:100C0000FCFE7B4884421ED10720A0600020A0602B
:100C100000E02568606900F001000028F9D180201B
:100C2000206300BF606900F020000028FAD0002097
:100C300020636060E06020622061E06460652065A0
:100C4000A56965691EE00720A0600020A06000E0A3
:100C50002568606900F001000028F9D10120E065F5
:100C600000BF606900F020000028FAD00020E06595
:100C70006060E06020622064A064A065E06460655C
:100C8000206565695C48844201D10020606220468D
:100C90003168FFF7B1FE5648844203D1E06800F0A6
:100CA000C00502E0E06800F0C005707930B10128AD
:100CB00006D0022807D0032808D108E000BF09E0C9
:100CC00045F0010506E045F0020503E000BF45F0F0
:100CD000030500BF00BF3079C0B145F00805307989
:100CE000012806D0022806D0032807D004280BD1FB
:100CF00007E000BF09E045F0100506E045F02005DB
:100D000003E045F0300500E000BF00BFB07928B136
:100D1000012802D145F0040501E000BF00BF00BF7B
:100D20003348844202D1E8B2E06001E0E8B2E0601A
:100D300070BD01290CD12E4A904204D1026B42F0C1
:100D4000800202630EE0C26D42F00102C26509E05A
:100D5000274A904203D1026B0022026302E0C26D77
:100D60000022C265704700B5034600211846FFF710
:100D7000E0FF00BD4FF416510160032141710021D5
:100D80000171817170471A4A904202D1CAB2026061
:100D900001E0CAB20260704701461548814202D1A3
:100DA0000868C0B270470868C0B2FBE72DE9F04F91
:100DB0000746894692469B464E465346BBF1010F75
:100DC0002CD1002427E04FF0FF3805E0B8F1000FE8
:100DD00000D106E0A8F10108786900F020000028A1
:100DE000F4D000BFB8F1000F08D116E000100840A1
:100DF0000020084000100C4000200C40102507E0A7
:100E000016F8011B3846FFF7BEFF6D1E5B1E641C03
:100E10000DB1002BF4D1002BD5D116E0002411E048
:100E2000786900F0200000B90EE0102507E016F800
:100E3000011B3846FFF7A7FF5B1E6D1E641C0DB13A
:100E4000002BF4D1002BEBD100BF2046BDE8F08F82
:100E50002DE9F04305460F46904699463C464346E9
:100E6000B9F1010F19D1002214E04FF0FF3602E072
:100E700006B905E0761E686900F001000028F7D089
:100E800000BF06B908E02846FFF786FF04F8010B0B
:100E90005B1E521C002BE8D110E000220BE06869B9
:100EA00000F0010000B908E02846FFF775FF04F8DC
:100EB000010B521C5B1E002BF1D100BF1046BDE898
:100EC000F083F849884204D1C16841F04001C16013
:100ED00003E0C16841F04001C160704730B50B4686
:100EE000072B15D2DFE803F00406080A0C0E1100E8
:100EF00001210DE002210BE0042109E0082107E0B7
:100F0000802105E04FF4807102E04FF4007100BFD2
:100F100000BF012A0AD1E34CA04203D144680C432C
:100F2000446013E044680C4344600FE0DD4CA04291
:100F300006D1446840F28F358D432C40446005E073
:100F4000446840F207358D432C40446030BD014673
:100F5000D448814202D14069C0B270474869C0B2EA
:100F6000FBE70146486900F0400008B100207047E7
:100F70000120FCE70246002040F00100CB7833B1AD
:100F8000012B06D0022B07D0032B08D108E000BFAD
:100F900009E040F0400006E040F0800003E000BFC0
:100FA00040F0C00000BF00BF4B78012B01D140F0E2
:100FB00004000B78012B01D140F002008B78012B4B
:100FC00001D140F00800B74B9A4203D100F0CF03A3
:100FD000936002E000F0CF039360704700218170BE
:100FE000C170012101704170704710B50B4600219E
:100FF000012A09D11C78012C01D141F002015C7851
:10100000012C01D141F00401A64CA04215D1012AC6
:1010100010D1C46844F08004C460002404604460BB
:10102000C46824F08004C4601024846241F0010488
:10103000046217E00024046214E0012A10D1C4689D
:1010400044F08004C460002404604460C46824F058
:101050008004C4601024846241F00104046201E051
:101060000024046210BD012904D1426A42F0020248
:10107000426204E019B9426A02F03D0242627047DE
:10108000012904D1426A42F00102426203E0426A4D
:1010900002F03E024262704710B54C07A30E446A4C
:1010A00024F0380243F00404224302F03F04446277
:1010B00010BD30B5002311B1012904D101E0012395
:1010C00002E0022300E000BF00BF012A03D104694F
:1010D0001C43046104E00469F3259D432C40046132
:1010E00030BD30B50B4623B1012B04D0022B06D105
:1010F00003E0102104E0402102E0802100E000BF75
:1011000000BF012A03D104690C43046104E00469AF
:10111000F3258D432C40046130BD01468869C0B27F
:1011200070470022CB78012B13D142F010024B798B
:10113000012B01D142F020020B79012B01D142F0A9
:101140000802584B984202D1CB79436501E0CB7934
:1011500043650B78012B01D142F001028B78012B02
:1011600009D142F004024F4B984202D18B790365BA
:1011700001E08B7903654B780BB942F00202494BD1
:10118000984203D102F03F03C36402E002F03F0340
:10119000C364444B984204D1C36843F03803C3602E
:1011A00003E0C36843F03803C36070473D4A904290
:1011B0000BD1012904D1C26C22F00202C2640FE0FB
:1011C000C26C42F00202C2640AE0012904D1C26C7E
:1011D00022F00202C26403E0C26C42F00202C26466
:1011E00070472DE9F04704468946924698462D48B7
:1011F000844225D1B8F1000F14D0E068C5B22F4663
:1012000027F01007E7600123524649462046FFF7C2
:10121000CDFD064600BF606900F040000028FAD00E
:10122000E56032E00123524649462046FFF7BEFD05
:10123000064600BF606900F040000028FAD024E0B4
:10124000B8F1000F14D0E068C5B22F4627F01007A0
:10125000E7600123524649462046FFF7A7FD0646B0
:1012600000BF606900F040000028FAD0E5600CE0A3
:101270000123524649462046FFF798FD064600BF27
:10128000606900F040000028FAD03046BDE8F087E1
:1012900013B5044601231A4601A92046FFF7A1FF12
:1012A0001CBD00000020084070B504460D461646DF
:1012B0000023324629462046FFF793FF70BD000009
:1012C0003EB50446019400208DF8080003208DF8F7
:1012D000090000208DF80A0001A91848FFF772FCE8
:1012E000022318220321184600F02AF80223D022F4
:1012F0000421184600F024F801211048FFF719FDD9
:101300006846FFF76BFE69460C48FFF733FE3EBDAB
:1013100070B504460D4601232A4621460748FFF7CB
:1013200045FD70BD704770B504460D4600232A4642
:1013300021460248FFF78CFD70BD000000200C40E4
:10134000F0B5074DD618C7014FF0040C0CFB017423
:10135000E71704EB9777BF1045F82760F0BD000052
:101360000060084010B50146102221B1012905D0C6
:10137000022907D104E04FF0FF3010BD6220FCE7E6
:101380004220FAE70B4608E082EA920000F00100F2
:10139000C2F3430444EA00125B1C202BF4D910462C
:1013A000EBE710B50246802122B1012A05D0022ABE
:1013B00009D105E04FF0FF3010BD40F20230FBE7ED
:1013C00040F20220F8E713460CE081EA910080EA3F
:1013D000D10080EA111000F00100C1F3460444EA94
:1013E000C0115B1CB3F5807FEFD90846E4E710B568
:1013F00001464FF4804221B1012905D0022907D1CD
:1014000004E04FF0FF3010BDFE48FCE7FE48FAE76D
:101410000B4608E082EA520000F00100C2F34D04DE
:1014200044EA80325B1CB3F5004FF3D91046EAE77B
:101430000146B1F5804F01D901207047B1F5005F39
:1014400001D90220F9E7B1F5006F01D90420F4E7D2
:10145000B1F5FA7F01D90820EFE73C2907D301F164
:1014600009004FF48062B2FBF0F08000E5E701F084
:101470003C00001DE1E701463C2902D24808401C1F
:1014800070471F20FCE72DE9FF4F9DB00F462A9CB7
:101490001D9803F0EAFACDE91A01384603F0E5FA9F
:1014A000CDE9180100201390401E0F9000200E90EF
:1014B0000D900C9000210A910B911F9803F0FBFAFC
:1014C0000022D24BCDE9060103F008FB09D31F9897
:1014D00003F0F1FA0022CE4BCDE9060103F016FB32
:1014E00003D2012021B0BDE8F08F209803F0E3FA89
:1014F0000022C74BCDE9060103F0F0FA09D320988A
:1015000003F0D9FA0022C34BCDE9060103F0FEFA3D
:1015100001D20220E6E7C0491D98884201D203208B
:10152000E0E7BE491D98B1EB102F01D20420D9E7A6
:10153000BB48874201D20520D4E7BA48874201D987
:101540000620CFE7B848874201D901200CE04FF0D0
:101550004040B649DDE9182303F018FACDE9060149
:1015600003F090FA20F0010008900898402801D973
:10157000402008904FF04040AD49DDE9182303F0CA
:1015800005FAAC4AA24BDB1ECDE9040103F0E5F8F5
:10159000CDE9060103F076FA0990099808B901200F
:1015A0000990DDF82080E7E00022A34BDDE91A0175
:1015B00003F0ECF99F4A964BDB1ECDE9040103F0E2
:1015C000CCF8CDE9060103F05DFA1390BBE0139867
:1015D00003F04BFA02460B46CDE90601DDE91A019C
:1015E00003F0D4F9CDE9160100204FF08041DDE988
:1015F000162303F059F9CDE90401404603F035FA0A
:10160000CDE90001DDE9182303F04EF9CDE902012F
:10161000DDE9042303F0BAF9CDE9060103F032FA5B
:101620004000129086E0129803F01FFACDE90601FF
:10163000DDE9162303F038F905460E464FF0404227
:101640007A4B2846314603F061FA00D277E0B8F1D0
:10165000010F02D1284631460AE0404603F005FA60
:1016600002460B46CDE906012846314603F08EF9C5
:1016700081468A4648465146DDE9182303F086F93B
:10168000CDE914011F9803F016FACDE90601DDE952
:10169000142303F023FA42D8209803F00CFACDE982
:1016A0000601DDE9142303F031FA38D80022574B44
:1016B0004846514603F051F8CDE9060103F0E2F93E
:1016C00011901198874202D21198C01B01E0119825
:1016D000381A1090DDE90F10884212D3DDE90F109F
:1016E00088421CD10E99139888420AD30E991398F8
:1016F000884214D128463146DDE90A2303F0EEF989
:101700000DD210980F9013980E9012980D90CDF85E
:101710003080CDE90A561198B84200D136E04846EB
:101720005146DDE9182303F0F1F900D207E01298E1
:10173000801C12901298B0F5803F7FF674AF00BF06
:101740001398401C139034491D98B0FBF1F0FF280A
:1017500003D81D98B0FBF1F001E04FF480701399AD
:101760008842BFF434AFB8F1020F01D9012000E084
:101770000020401CA8EB000809988045BFF414AF76
:101780000F98401C08B90720ACE600BF0E9803F084
:101790006CF902460B46CDE90601DDE91A0103F0BA
:1017A000F5F8CDE916010D9803F05FF9CDE90601D2
:1017B000DDE9162303F078F805460E460C9803F091
:1017C00054F902460B46CDE906012846314603F09E
:1017D000DDF881468A460D994808FFF729FE820503
:1017E0000D994808FFF747FE42EA404B0D9948081B
:1017F000FFF7FDFD4BEA000BC4F808B00C98012878
:101800001FD11BE003800100030001000000E03F46
:101810000000F03F0000F83FA086010080D1F008F2
:10182000AB9041008055C820C02A64102A64C04192
:101830002A64B041E90B21E7A3E1A1414FF0000B7D
:1018400004E00C994808FFF78DFD83460E980128A7
:1018500001D1002002E00E98FFF7A3FD4BEA003013
:10186000E0600C98012801D1082000E000200E99CA
:10187000012901D1042100E00021084346F21001B2
:10188000084420600D984108B4F8110061F30E007F
:1018900004F11001A4F811000E9820740C9801288E
:1018A00000D101E00C984008618A60F3CB1161829D
:1018B0000022F74B2846314602F04FFFCDE90601E2
:1018C00003F0E0F860610022F14B4846514602F017
:1018D00044FFCDE9060103F0D5F8A061A069C01B63
:1018E000E06148465146DDE91A2303F04FF8C4E9A8
:1018F00008010020F6E570B5E64D6D6805F00205BB
:101900005DB1E44D6D6805F0080585F0080525B169
:101910004FF40045E04E356002E00025DE4E3560B4
:10192000DE4D2D6A05F0020585F002054DB1DB4D57
:10193000ED6905F0010525B1D94D2D68D64EF5614B
:1019400002E00025D44EF561D44D2D6B05F0020563
:1019500085F002054DB1D14DED6A05F0010525B1C7
:10196000D04D2D68CC4E356202E00025CA4E35625E
:10197000CA4D6D6C05F0020585F00205A5B1C74D95
:101980002D6C05F001057DB1C44D6D6CC5F303628E
:10199000C14D55F82250C14E766CC6F30746761CF1
:1019A0007543BD4E756202E00025BB4E75620C208A
:1019B00020E0BD4D35F91010B84D4C5904F002052A
:1019C00085F002058DB1B54D4D59C5F30362B34D98
:1019D0004D5BC5F387035B1CAF4D55F82250B5FB3B
:1019E000F3F5AD4E46F8205003E00025AA4E46F828
:1019F0002050401C1028DCD970BD30B50346102B98
:101A000001DD032030BD07292FDB25292DDCC3EBA9
:101A1000031000EB4000A54D2844405C18B3A248D9
:101A200030F91320501C58B1102909DC072907DBB5
:101A30009A481058C0F30360884201D10120E1E7C1
:101A4000994830F91120501C08B90220DAE7934870
:101A5000145824F07064C01440EA036004438F48B3
:101A600014500020CEE70320CCE70220CAE72DE97E
:101A7000F04104460F46F4B95FB18648406820F053
:101A80000C00844948600846406840F00300486004
:101A90000AE08048406820F003007E49486008461C
:101AA000406840F008004860002600E0761C80484E
:101AB0008642FBDB64E0022C06D1032310220021C6
:101AC0000C20FFF73DFC5BE0032C06D10023102225
:101AD00013210120FFF734FC52E0042C50D0052CD8
:101AE0004ED0062C14D137B96C48806940F0010003
:101AF0006A49886105E06948806920F0010067490A
:101B00008861002600E0761C69488642FBDB37E0EE
:101B1000654830F91450681C10B90220BDE8F08106
:101B200037B95E48285840F001005C49685027E00A
:101B30005A48285820F0010058496850072C06D10F
:101B400000BF5648C06900F001000028F9D0082CF9
:101B500006D100BF5148C06A00F001000028F9D04A
:101B6000092C0DD100BF4D48006C00F00100002889
:101B7000F9D04A48006C00F0010008B900BFFEE748
:101B80000020CBE7F0B50246002400250023012603
:101B90004248406CC0F303673F4850F82710514358
:101BA000541E3E48406CDFF80CC100EA0C00DFF820
:101BB000ECC0CCF84400404881421AD201E05B1CE2
:101BC000760070004843DFF8F0C06045F7D320048A
:101BD00040EA053040EA032040F04000DFF8BCC096
:101BE000DCF844C040EA0C00DFF8B0C0CCF8440098
:101BF00016E03248814211D2200440EA053040EA22
:101C0000032040F0C000DFF894C0DCF844C040EA94
:101C10000C00DFF888C0CCF8440001E00420F0BDDF
:101C20000020FCE701462648814206D21B48806915
:101C300020F00400194A90610BE02248814206D24C
:101C40001648806940F00400144A906101E00520C4
:101C50007047114881610020FAE710B51A48FFF774
:101C6000E1FF01210620FFF702FF09210620FFF70F
:101C7000C4FE0620FFF786FF01210920FFF7F7FECB
:101C800015210920FFF7B9FEFFF735FE002010BD32
:101C90000000E03F00300440040008100000054050
:101CA000480008104C000810F84C0010524D00106D
:101CB00040420F003DCC00FF005F4C0900D01213E2
:101CC000C0E1E40040787D01001BB7000146A1F1AE
:101CD000110014284DD2DFE800F04B1E4C231914DC
:101CE0004C4C4C0F0A4C4C46413C37322D28FE4898
:101CF000406800F001007047FB484068C0F34000B6
:101D0000F9E7F9484068C0F38000F4E7F648406816
:101D1000C0F3C000EFE7F4484068C0F3C010EAE742
:101D2000F1484068C0F30020E5E7F0484068C0F3A0
:101D30004000E0E7ED484068C0F38000DBE7EB4897
:101D40004068C0F3C000D6E7E8484068C0F3001020
:101D5000D1E7E6484068C0F34010CCE7E34840686C
:101D6000C0F38010C7E7E1484068C0F3C010C2E785
:101D700000E000BF00BF0020BDE770B504460D467F
:101D8000262C03DB002C01DC042070BD002D7DD14E
:101D900004EB8400D64901EB4000408850B304EBCB
:101DA000840001EB40004088D2490844007900F0EB
:101DB0000100F8B104EB8400CD4901EB40004088FC
:101DC000CC49405820F0010004EB8401C84A02EBE2
:101DD00041014988C74A885000BF04EB8400C449C8
:101DE00001EB40004088C3490844007900F001003D
:101DF0000028F2D104EB8400BD4911F810002D2811
:101E00000FD004EB8401BA4A12F81100FFF75EFF0D
:101E100038B904EB8401B64A12F811000021FFF72B
:101E200026FE04EB8400B24901EB4000C08850B3A9
:101E300004EB840001EB4000C088AE4908440079FF
:101E400000F00100F8B104EB8400A94901EB400067
:101E5000C088A849405820F0010004EB8401A44A3E
:101E600002EB4101C988A34A885000BF04EB8400FB
:101E70009F4901EB4000C0889E490844007900F06A
:101E800001000028F2D104EB840000E019E0984939
:101E900001EB400000792D2812D004EB8401944A14
:101EA00002EB41010879FFF711FF002808D104EB8C
:101EB00084018F4A02EB410108790021FFF7D7FD29
:101EC0009CE004EB84008A4911F810002D2813D0FF
:101ED00004EB840011F81000874931F9100085499E
:101EE000405C00F0010038B104EB8401804A12F834
:101EF00011000121FFF7BBFD04EB84007C4901EBDD
:101F00004000408850B304EB840001EB400040885F
:101F100078490844007900F00100F8B904EB840026
:101F2000734901EB400040887249405840F001007D
:101F300004EB84016E4A02EB410149886D4A8850E6
:101F400000BF04EB84006A4901EB40004088694906
:101F50000844007900F001000028F2D004EB84006E
:101F6000634901EB400000792D2815D004EB840073
:101F700001EB40000079604931F910005D49405C97
:101F800000F0010040B104EB8401594A02EB410129
:101F900008790121FFF76BFD04EB8400544901EB44
:101FA0004000C08850B304EB840001EB4000C088BF
:101FB00050490844007900F00100F8B904EB8400AE
:101FC0004B4901EB4000C0884A49405840F00100AD
:101FD00004EB8401464A02EB4101C988454A885016
:101FE00000BF04EB8400424901EB4000C088414936
:101FF0000844007900F001000028F2D004EB8400CE
:102000003B4901EB4000007A48B104EB8401384AB7
:1020100002EB4101087A2946FFF7AFFEB5E6002042
:10202000B3E610B50146262903DB002901DC0420B4
:1020300010BD01EB81002E4C04EB400000792D28EF
:1020400030D001EB810004EB400000792A4C34F9D8
:102050001000284C0059C0F3036301EB8100244CAD
:1020600004EB40000079244C34F91000214C005D51
:1020700000F0010008B10020DAE701EB81001C4C00
:1020800004EB4000C0881B4C2044426801EB8100F7
:10209000174C04EB4000C08880B302F0010068BB1D
:1020A0000020C5E701EB8100114C14F81000124C20
:1020B00034F910000F4C005D00F0010008B1002061
:1020C000B6E701EB81000A4C14F810000A4C34F911
:1020D0001000084C0059C0F3036301EB8100044C6D
:1020E00004EB400040880AE0001005400020054055
:1020F0005050001000000540F84C00100EE07C4CE1
:102100002044426801EB81007A4C04EB4000408897
:1021100020B102F0010008B9002089E7764850F8A4
:10212000230085E710B502460C460C2A14DB102A62
:1021300012DC724830F91210481C08B9022010BD98
:102140006B480B5823F47F73601EC0B243EA8003D0
:1021500067480B500020F2E70220F0E72DE9F0413C
:102160008CB006460D461746984600206449086024
:1021700002A843463A46294600903046FFF783F9C5
:1021800004462CB1072C03D204200CB0BDE8F0812A
:10219000072C01D10620F8E75948056054490498F6
:1021A000486205988862029808620020EDE72DE9F0
:1021B000F0418CB006460D4617469846002051491E
:1021C000086002A843463A46294600903046FFF789
:1021D0005AF904462CB1072C03D204200CB0BDE8F8
:1021E000F081072C01D10620F8E7464805604049F8
:1021F0000498486305988863029840F40050086387
:102200000020EBE7F0B504460D46164640F2FF11FC
:102210004FF4000040EA04600843DFF8D4C0CCF873
:10222000140000BF3248406900F400000028F9D1D2
:10223000002300E05B1C42F210708342FADB2C4862
:102240004069C0F34D2212B94FF0FF30F0BDB2F536
:10225000007F08D326484069C0F3080040F2FF1C05
:10226000ACEB00011FE000BF491E4FF4000040EA44
:1022700004600843DFF878C0CCF8140000BF1C48A5
:10228000406900F400000028F9D1002300E05B1C45
:1022900042F210708342FADB15484069C0F34D27C3
:1022A0009742E1D0491C2A6031600020CEE7FFB59B
:1022B00005460C4616461F46102D01DC102C02DD8B
:1022C000042004B0F0BD01AA03A92846FFF79AFF35
:1022D0006A4602A92046FFF795FF009903984843F4
:1022E0003060DDE90101484338600020E9E7000083
:1022F000000005405050001004000810F84C001079
:10230000480008104C0008101F480088401C1E4957
:1023100008807047FEF753FBFFF79FFC1120FFF783
:1023200080FE4FF47A71B0FBF1F4B4F1807F00D3FA
:102330001DE024F07F40401E4FF0E0214861481727
:102340000721002807DA4A07150E104A00F00F038C
:102350001B1FD55403E04A07130E0D4A135400BF48
:1023600000204FF0E02188610720086100BF602055
:1023700000F010F808B900BFFEE701E000F056F8E1
:10238000FCE7FFF7C7FF00005000081018ED00E061
:1023900000E400E010B50446BA49C86AFEF790FFB1
:1023A0000020B9490860B9490860B6490869214662
:1023B00000F0B4F928B10921B5A0FEF7A9FF00206B
:1023C00010BD0C21B5A0FEF7A3FF0120F8E70146E0
:1023D000B64802888A4207DB501AB0F5004F01DA8E
:1023E000012070470020FCE7881AB0F5004F01DBA0
:1023F0000120F6E70020F4E72DE9F04106460F46FC
:1024000090460025344604E0204600F0EFF90544EC
:10241000641CBC42F8D96D42454502D00020BDE89D
:10242000F0810120FBE7A1480088704770B5642166
:102430009F48FEF778FF0546002D72D0FFF7F3FFA7
:102440009C49088000240AE18F48006810B10128E7
:102450000BD197E09648005D3F2807D18B48006874
:1024600020B90C218DA0FEF753FFF6E09048015DE6
:10247000864802680068401C844B18608E4881546E
:102480001846006810287CD18B48007820B10128BC
:102490003FD0022870D14DE087484078864989783E
:1024A00040EA0120854908607648806A0968484307
:1024B000824908608048807900067F49497940EA6E
:1024C00001407D49097940EA01207B49C9780843E8
:1024D0007B4908607848807A00067749497A40EA63
:1024E00001407549097A40EA01207349C9790843D6
:1024F000744908600120644908600020724908603E
:1025000072490860724908606E4800687149086045
:1025100036E000F027F928B107216FA0FEF7F8FE9A
:1025200004E0A0E004216EA0FEF7F2FE002057496F
:10253000086025E06048007900065F49C97840EAF4
:1025400001405D49897840EA01205B49497840EAC9
:102550000106304600F018F920B107215EA0FEF711
:10256000D7FE03E004215EA0FEF7D2FE002047491B
:10257000086005E005E0FFE700204449086000BF6F
:1025800000BF6AE04A48005D514909680844504963
:1025900008604748015D4D4802680068401C4B4B8D
:1025A0001860514881543748806A19460968884242
:1025B0001FD14D4A184601684648006800F001F9ED
:1025C00070B9082149A0FEF7A3FE424800683F49C0
:1025D000096808443F49086000203C49086008E059
:1025E000092145A0FEF794FE0020274908602749ED
:1025F000086035480068401C334908600846006898
:102600002E490968884227D1314800684042304944
:102610000860084600682A490968884204D00A21EF
:1026200038A0FEF775FE12E02A480068411E2848CF
:10263000026824480068FFF7DFFE20B9082134A0B3
:10264000FEF766FE03E0042125A0FEF761FE0020F0
:102650000D4908600D49086000BF00BF641CAC4212
:10266000FFF4F2AE0CE01349098801F57A7188B2E3
:10267000FFF7ADFE20B10020034908600349086060
:1026800070BD0000F05100105400081058000810F0
:10269000494E49544552520D0A00000045534146E7
:1026A0004C4153484F530D0A0000000050000810E1
:1026B000800008105C000810E40408107400081082
:1026C00078000810700008106000081064000810FE
:1026D0006C000810680008104552524F520D0A0055
:1026E0004F4B0D0A00000000E400081050524F4705
:1026F0004F4B0D0A0000000050524F474552520DFB
:102700000A000000434845434B53554D0D0A000055
:102710005645524946590D0A0000000070B505465D
:102720000E4616210120FFF768F9F32031490860B1
:10273000D3203149C1F890012E4908310860091DA4
:102740000860091D08601320091D08602B482C49EA
:102750000860084600680C23C02203210468294849
:10276000A04770BD10B52748006827490860254874
:10277000C068486000208860202008612048006808
:1027800082682048904710BD10B504461E4804607A
:102790001C488068B0F5802F04D21A4880681A4916
:1027A000486003E04FF48020174948600020164934
:1027B00088602020086112480068826811489047AC
:1027C00010BD70B504460D4616460F4804604560BE
:1027D00000200D498860C86008200861084800682A
:1027E0000A46314643680748984770BD0146087855
:1027F000704700008C6108400060084038540010A9
:102800007C000810F40408107405081010B540EAA4
:1028100001040346A40703D00AE010C9121F10C325
:10282000042AFAD804E011F8014B03F8014B521EB8
:10283000002AF8D110BD0346C9B202E003F8011B1B
:10284000521E002AFAD17047FA4948608004800C71
:1028500006D0012808D0022808D0032808D04869EB
:10286000CA699207FCD47047087DF9E7888AF7E7C0
:10287000888A0A7D40EA0240F2E710B54FF400145E
:1028800004EB415141EA006040EA0240184310BDA8
:10289000806A400302D54FF4C01070470020704793
:1028A00010B504461346084600221146FFF7E5FF1F
:1028B00001462046FFF7ECFFBDE810400843C3E7A0
:1028C000DC4B00B59A60FFF7E3FF08435DF804EBCB
:1028D000BAE730B5D74C054608461146A360002339
:1028E0001A46FFF7CAFF01462846FFF7D1FF01430A
:1028F0006160E0698007FCD430BD00220621CFE78B
:10290000F0B50D4616461F460446FFF7F6FF3B4658
:10291000324629462046BDE8F040DAE7F0B50D46DC
:1029200016461C460746FFF7E8FFC2498E60384648
:10293000FFF7AEFF284340F400404860A804800C35
:1029400007D001280BD0A2B202280AD0032804D055
:102950004C61C8698007FCD4F0BD8A82240C0C75D8
:10296000F7E78A82F5E7B349CB6913F0060F19D070
:102970001022CA61CA6912F0160FFBD15A0711D58D
:10298000C26902F46002B2F5400F0BD3FF220A7352
:10299000C0696FF30F0000F101004860087DC8694D
:1029A0008007FCD470472DE9F041054600248C4691
:1029B000EA7C012101FA02F19E4F2046CEB2F9696C
:1029C0008907FCD444F62068641C444507D20122E0
:1029D00005212846FFF764FFC0B23042F4D03042F0
:1029E000954E28750CD0BCF1000F0ED0BCF1010F34
:1029F0000DD0BCF1020F06D0BCF1030F0BD108E0E3
:102A00003046BDE8F0818D4C05E08D4C03E08D4CE7
:102A100001E04FF0FF342846FFF73AFF8A490843A8
:102A2000E97C08437860F869800702D5641EFAD112
:102A30001EE0ECB1387D2875BCF1000F1ED0E86AAD
:102A4000E0B1C1B2052917D001222846FFF728FFBF
:102A5000C0B26875E96A10EA112F0FD0C1F30741BF
:102A600019B100222846FFF71BFF7348801CC8E7F6
:102A70002846FFF778FFC3E7287DEBE70020C0E793
:102A800030B5154604460B46002211460120FFF7DB
:102A9000F4FE01462B4600222046FFF73FFFA06AC6
:102AA000800401D5002030BD2046BDE83040002123
:102AB00079E7F0B50546C469806AA62681050BD57D
:102AC00004F42001B1F5000F06D144F40014EC61C8
:102AD000296A41F400112962810618D5400501D503
:102AE000022700E001273F1D012285212846FFF72C
:102AF000D7FE00F00703E869C7F1100100F4E020F9
:102B0000C8400343012281212846FFF7F9FEA86A45
:102B1000C00707D000230322A3212846FFF7D9FED0
:102B2000761EFDD1C4F342514248062904D3A521A3
:102B3000C16024F4400401E0FF21C1608461F0BD64
:102B400010B50446806A000611D501222B212046CB
:102B5000FFF7A6FE6075A16A000621F4703102D568
:102B60004FF4803001E04FF480400143A16210BD7A
:102B700030B50023816383840723C38410E0838CF2
:102B8000CC88234483840B79C48CCD88DB0701D0A7
:102B9000022300E0012305FB03430831C384083A04
:102BA000082AECD2C3F3CC01C18430BD826B22B1C0
:102BB00009B1828C0A80C08C704711B18268120CF6
:102BC0000A808068C00C704710B5044600F13C03D1
:102BD0000021FFF7EBFF01001FD0A06A40F48070D6
:102BE000A0622046FFF754FE40EA01021748024364
:102BF0001048426002E0027D03F8012B0A00A1F1B7
:102C0000010189B2F7D100218034A34202D203F836
:102C1000011BFAE7C1698907FCD410BD491C0122D8
:102C20008A404FF0006182608A4200D90A46C26041
:102C30007047000000300040030002007082030073
:102C4000E09C41000083400A004020050000207203
:102C50002DE9F04104460D46C069FB4916469846E9
:102C6000884271D02046A562FFF76AFFA068B0F1E4
:102C7000807F1CD9A06A40F40070A062207C0128EB
:102C800006D020280BD0C2280CD04FF00210B8E696
:102C90008023012217212046FFF71BFE07E0204674
:102CA000FFF72BFE0022B7212046FFF7F9FD68054C
:102CB00004D5E648016841F080510160E44F68079F
:102CC00024D5012235212046FFF7EAFDC0B2607508
:102CD000810755D4C00735D1012205212046FFF7D1
:102CE000DFFD617D41F0020140EA012082B2022154
:102CF0002046FFF7C5FE0028C9D101223521204614
:102D0000FFF7CEFD60754FEA807019E0E8041CD52E
:102D1000012205212046FFF7C3FDC0B22075410600
:102D20002ED440F0400201212046FFF7A9FE0028E2
:102D3000ADD1012205212046FFF7B2FD20754006E6
:102D400000281DDB38465CE64EE0280718D5012236
:102D50003F212046FFF7A4FDC0B2607501060FD4E5
:102D600040F0800301223E212046FFF7C9FD0122E9
:102D70003F212046FFF794FD60754FEA0060DFE7D2
:102D8000A80705D5002238212046FFF789FD17E066
:102D9000E80615D5680501D5402700E08027012207
:102DA00065212046FFF77CFDC0B26075384207D030
:102DB00040F0C803BB43012261212046FFF7A0FD7C
:102DC000C6F3C1400328A06A10D020F48020A0627E
:102DD000280507D5C6F302435B1E0122C021204609
:102DE000FFF777FDC4E9076800200AE640F4802079
:102DF000EDE72DE9F041954E04460F46B0691546C2
:102E00009C4610F4400F4FD00146C0F3C140E16131
:102E100003284CD00020A0622046FFF7A4FD00222A
:102E2000FF212046FFF73CFD0022012311466520CB
:102E3000FFF723FD40F4C010FFF706FD55280CD026
:102E400040280AD3C02808D2810606D440F0C00327
:102E5000012261212046FFF753FD802200212046F8
:102E6000FFF7E9FC05F0C100C12823D04FF4702121
:102E700001EA074141EAC050764908433060032225
:102E80009F212046FFF70CFD4FF000412061C4E96F
:102E9000001630B16FF07F41884202D06E498842FF
:102EA0000BD16B48401DACE540F44001ADE74FF459
:102EB0008020B0E76648401EA3E54FF48040A06242
:102EC0001C2060839C2020835F4EA80701D53046DC
:102ED00000E0624844F81C0F6148606020202076C2
:102EE0000C202075D820A0761020A07514F80C0CAA
:102EF000A4F11C047F2824D00CDC1F281BD004DC88
:102F0000012814D01C282ED113E0202815D03728F2
:102F100029D114E0C2281AD004DC8C2813D0BF2891
:102F200021D112E0C82814D0EF281CD113E04D4B5A
:102F300012E04D4B10E04D4B0EE04D4B0CE04D4B75
:102F40000AE04D4B08E04D4B06E04D4B04E04D4B85
:102F500002E04D4B00E04D4B2BB162462946204626
:102F60009847074601E03A4F3F1D07B30025E66149
:102F7000284601F016FB0321012300220846FFF733
:102F80007CFC014600222046FFF79AFC01460DB169
:102F9000FF2000E00020814202D16D1C022DE7DB02
:102FA000022D0AD1A06A40F40070A06205E0A06A78
:102FB000000402D52046FFF707FE2046FFF779FD03
:102FC00038461EE52DE9FF4F89B08046002000906D
:102FD0000A989346C6684046FFF7C5FC4046FFF78F
:102FE000AFFDD8F82870780479D5B8F8180007F044
:102FF000040100F47F40084300D0012081460122F3
:1030000005214046FFF74CFC88F814005FEA0900F0
:1030100004D0012235214046FFF742FC88F8150014
:10302000B8F81440701C33D06EB1B8F8180024EA18
:1030300000023040024309F10100C1B24046FFF7EF
:103040001FFD00906AE02EE0FF3F8003003000404B
:1030500005000200FFFF0008CCCCCC00FF3F810B35
:1030600000808002FF420010813D0010913B001063
:103070006F410010F13A0010A53C00103D3E0010D9
:10308000A9430010A93F0010F93E00107F44001032
:103090009BF8000018B30C980288B8F81A00024098
:1030A00084432243C7E7B8F81A00204238D00120F1
:1030B0008BF800000C980025048009F1010000F055
:1030C000FF0AB8F81A00514624EA00024046FFF70A
:1030D000D7FC009020B16D1C032DF2DB82E11FE0D4
:1030E000A620401EFDD1012205214046FFF7D8FB56
:1030F00088F814005FEA090004D001223521404617
:10310000FFF7CEFB88F81500B8F81400B8F81A10CD
:10311000084202D0FE48009064E100980028DDD10A
:1031200017F4603FDAD04FF0000A0120D8F8385089
:10313000544606900EB1FF2000E0002007904FF4A7
:10314000803005900A9808F13C0C4FF00009D0E956
:1031500000100844CDF808C00890D8F81C0004A955
:10316000C0F34050C01C03904046FFF71FFD019084
:103170000DB9BDF810A0380404D5F80502D44046B6
:10318000FFF722FD701C01D0AEB100E19BF80000FA
:1031900050B13804F9D5DDE901200C99FFF736FB71
:1031A0000020ADF81000F2E04046FFF782FC00205E
:1031B0000DB0BDE8F08F00208BF800003804E4D596
:1031C000DDE901210C98FFF721FBE0E0BAF1000FE7
:1031D0003FD195F90500B5F806A0D5F80090002874
:1031E00000DA40420121814005912879C00721D0B1
:1031F000B00140EA061040EA86003043C0B20790B2
:1032000002200690402C0CD0102C0AD0042C08D0A0
:10321000012C06D0202C0AD0082C08D0022C06D075
:1032200017E04046FFF745FC4FF00210C0E744EAC4
:1032300054040EE00EB1FF2000E0002007900120B2
:103240000690302C03D00C2C01D0032C01D104EAC1
:10325000440434B925B12879C00701D0C02400E066
:1032600080240A980599026809EB0100824274D211
:1032700008984946484570D917F4403F5FD0701C04
:103280000AD0002E1ADDF8030BD50B463621404636
:10329000039AFFF735FB4BE09CF800002042F2D187
:1032A00046E001230022E5200399FFF7E6FA0146F4
:1032B00001234A464046FFF731FB39E038D1F80395
:1032C00001D53C2000E0E820012300220399FFF70C
:1032D000D4FA01464A464046FFF7F2FAC0B2B903B3
:1032E00002D5C14389070AD0C00724D0F8030BD503
:1032F0004B4639214046039AFFF702FB10E0404657
:10330000FFF7D7FB824853E701230022E52003990A
:10331000FFF7B3FA014600234A464046FFF7FEFA9C
:1033200001208BF800009CF8000020438CF800007E
:103330000098E0BB11E09CF80000A043F6E79CF881
:103340000010079A21EA040022401043814204D071
:103350008CF8000001208BF800000698C44001D1D1
:103360000CF1010C3DB195F90500002803DA059830
:10337000C0F1000000E005988144AAF101001FFAA5
:1033800080FABAF1000F02D10DB105F10805BDF8C0
:103390001000A0F10101ADF8101000287FF416AF65
:1033A0009BF8000018B138041CD5404600E019E035
:1033B000FFF7A3FA40460299FFF76AFA019A104311
:1033C000544A1043544A506002E011F8010B107542
:1033D0000198A0F101039BB201930028F5D1D069B7
:1033E0008007FCD44046FFF764FB0098E0E670B528
:1033F0000A688368CBB10468944206D8C5684E68F1
:1034000025441644B54200D3121B934210D94C6890
:1034100014449C420CD80B6913F0300F02D0C068E2
:10342000844205D800200A6070BD3948801C70BDF8
:103430003748401E70BD70B50C4616460546FFF76E
:1034400092FA2846FFF759FA33498E602846FFF76B
:103450001FFA2A6A02F4600242EA046210434860DA
:10346000C72C07D0602C05D001212846BDE870404C
:10347000FFF799BA0321F8E770B50C4616460546E2
:10348000FFF73BFA24498C60286A3043486070BDDE
:103490002DE9F04782460E46174698461C68DFF82D
:1034A0007890556868E03A693868C1B2C1F58074AF
:1034B00012B1A54200D22C46214602E0761C6D1EB8
:1034C000641EB30709D03378FF2B11D1BDB1002C96
:1034D000F4D114E0361D2D1F241F33685B1C07D167
:1034E000042D05D3042CF5D203E0761C6D1E641E5A
:1034F0002DB124B1042C02D23378FF2BF5D0091B57
:103500000844386085B3002CCED00146224605E041
:103510000500020000802042003000405046FFF7C6
:10352000ABFF38682044386001E0002CBBD048462F
:10353000B1070BD0CDB14CB116F8011B01756D1E52
:10354000641EF5E702CE41612D1F241F042D07D311
:10355000042CF7D205E016F8011B01756D1E641EE0
:103560001DB1002CF7D101E008E02CB90221504632
:10357000FFF719FA002805D1002DD6D14FF0000031
:10358000C8F80040BDE8F0870068084404E001681E
:10359000491C04D1001D121F002AF8D100207047D9
:1035A00013680068184410604840800701D000206C
:1035B0007047012070473FB50C461D4602AAFFF731
:1035C000EFFF35B348B922E0029814F8011B0278E6
:1035D00091421FD1401C6D1E0290A0070BD0002D00
:1035E000F2D116E0029821680268914212D1001DC2
:1035F000241D2D1F0290042DF4D208E0029814F827
:10360000011B0278914205D1401C6D1E0290002DD5
:10361000F4D1002004B030BDF8B50C46116800911B
:103620001F465568FE436A462146FFF7B9FF75B34A
:10363000F9B2F0B1F2B2A00719D045B3DDF800C07D
:1036400014F8010B1CF8013B484053401842CDF8D8
:1036500000C01AD16D1EEEE70098226803687A4018
:1036600073401A4211D1001D241D2D1F0090042DFE
:10367000F2D2F3B25DB1009814F8012B10F8016B8F
:103680004A405E403242009002D00120F8BD01E085
:103690006D1EEFE70020F9E72DE9F74F17469CB0C4
:1036A0008B4614223946684601F045F800258DF80E
:1036B000645069467C681C98FFF799FE060037D174
:1036C00000981A9020441790284603903869800586
:1036D00007D405AB19AA69461C98FFF773FC0600CE
:1036E00026D1B4E01C984FF0010990F8301009FA87
:1036F00001F00099421E21EA020A00EB0A08A8EB39
:103700000105AC4200D2254601953869400706D430
:1037100000236A4659461C98FFF77EFF00B101203E
:103720000099189100287DD03869000702D5EF482C
:103730001FB03EE5B86828B3009A1799A2EB0A09B2
:10374000414503D2179AA8EB020100E00021884608
:10375000B9F1000F08D01C994A46096841EA0A01EC
:10376000FFF754F8CDF800A0B8F1000F0DD01C9869
:10377000BA6801681798014302EB09004246FFF757
:1037800045F802E04FF00008C1461C98524690F8F8
:103790003410FFF750FE060003D01C98FFF789F99C
:1037A00066E03869800610D51C98FFF782F91C98EE
:1037B0000122514690F8300082401C98FFF7E4FE49
:1037C0000028B5D11C98FFF7CEF800201690049081
:1037D000CDF8049016AB6A46B9681C98FFF758FEFE
:1037E00006460195B8F1000F03D00020049016B1F1
:1037F00008E00120FAE716AB6A4659461C98FFF725
:1038000047FE06460120CDF80480049076B9B968D9
:1038100016AB49446A461C98FFF73AFE060005D1EC
:10382000169800E05AE008B14FF002161C98FFF716
:1038300040F9EEB93869C00607D52B465946189AA3
:103840001C98FFF7B8FE060012D1AB44641B002C95
:103850007FF448AFF86858B103901A9800907868E0
:10386000019005AB19AA69461C98FFF7ABFB064609
:1038700030465DE741F0FF00451A6D1CAC4200D2B6
:1038800025464FF0FF336A46594601951C98FFF7CD
:10389000C3FEF0B11C98FFF766F80020169016AB37
:1038A0006A465946CDF810901C98FFF7F1FD064680
:1038B0001C98FFF7FEF8002EDAD13869C0060BD548
:1038C0002B465946189A1C98FFF775FE0600CFD173
:1038D00002E0009828440090AB44641B002CB9D04F
:1038E00000994145BFF4FEAEC4E72DE9F04F9FB00B
:1038F00082460C46142202A800F01DFF00268DF817
:103900006C60606801909AF83010012088401A902D
:1039100002A918965046FFF76AFD05007ED105966C
:103920002069800507D407AB1BAA02A95046FFF700
:1039300049FB050072D1DDE9010108441C910090AA
:1039400000296CD1DAF808100198814267D8DAF8BA
:103950002800400663D45046FFF705F800231A46B6
:10396000C7215046FEF7CCFF03215046FFF71BF856
:1039700005465046FFF79DF8A6E003270AEB07002F
:103980001D9090F8300000287ED0012101FA00F847
:103990000298A8F1010120EA0109A0EB090609EB50
:1039A000080019900099814201D2401A00E00020DD
:1039B00083461A98864267D21A998B457DD2A068B1
:1039C00098B136B1DAF80010324641EA0901FEF743
:1039D0001DFFBBF1000F08D0DAF8001000985A461E
:1039E0000143A0683044FEF711FF0AEB07004A4686
:1039F00090F834105046FFF71EFD05465046FFF77D
:103A000058F8002D70D1206980060DD51D9801222F
:103A1000494690F830008240504601E065E04FE0B2
:103A2000FFF7B2FD050060D1A06870B301200690D9
:103A3000FEB15046FEF797FFCDE9029618AB02AAF9
:103A40005046A168FFF724FD05465046FFF731F8C0
:103A500025B9189810B14FF0021545E02069C0064D
:103A600006D533464A465046A168FFF7A4FD0546F1
:103A7000D5BBBBF1000F17D05046FEF774FF00987E
:103A8000CDE9020BA06801E017E00DE0811918AB49
:103A900002AA5046FFF7FCFC05465046FFF709F81E
:103AA00015BB18980028D6D1199802900198404566
:103AB0000BD9A0EB0800019002E07F1E7FF55EAFFE
:103AC000019800287FF459AF75B9E06860B11C987F
:103AD000029060680390E068059007AB1BAA02A9FA
:103AE0005046FFF76FFA0546284621E60B00020014
:103AF0002DE9F041467C847C05460F46302E04D0EB
:103B0000402E07D01C48BDE8F081A4F11000072822
:103B100011D209E0A4F1150002280CD244F21C4095
:103B2000688344F2FC502883611E2846FFF776F82C
:103B3000402E05D102E01048401EE4E7F80508D504
:103B40000E484FF48841162C01D30D4B05E02B6A2B
:103B500003E00C480C4B44F20401162C01D306225E
:103B600000E0042240EA4252084802432846BDE8E9
:103B7000F041FFF76DB8000008000200000001BB33
:103B8000008088A2000003EB00808832FF3F100015
:103B90002DE9F0410546407C0F464FF48046A97C54
:103BA000A0F14303394CB2004FF00008052B23D895
:103BB0004B093ED1A0F132041646442806D04528D0
:103BC0000AD046283BD344F4807438E020223049A0
:103BD0002846FEF7CDFF32E0012930D12C492022C2
:103BE00020312846FEF7C4FF04229F212846FEF715
:103BF00057FE000EE7D122E0652809D0662807D0DD
:103C0000862814D0872812D02048401CBDE8F081B7
:103C1000A0F15604652808D06C20688340F080002D
:103C20002883002085F8320009E00420F5E74909DF
:103C300001D02046EAE7723840F44074164652201C
:103C400085F835000F2085F8310042F20500E86262
:103C500004F01F012846FEF7E1FF14F4407F12D064
:103C6000B4F5407F01D3F80504D546F48061094AD4
:103C7000094B03E0094A0A4B46F008012846BDE813
:103C8000F041FEF7E5BF4046AE62BFE70700020025
:103C900088540010FF3F893B008088A2FF3F896B5A
:103CA0000080883270B50546407CAC7C0E469D286D
:103CB00001D02D4870BDA4F11300012818D90C388B
:103CC000032803D8113C44F4807411E02F2C07D052
:103CD000A4F14400022806D8313C44F4407407E0C3
:103CE0004FF4877404E0A4F17C00022820D86C3CD7
:103CF00004F01F01102902D80F2085F83200B4F516
:103D0000457F03D33C206883BC2028832846FEF7E8
:103D100085FF14F44070CDD04FF44072944201D32B
:103D2000F0050DD54FF48841944204D90F4803E0C3
:103D30000D48401E70BD0E480E4B18432B6A03E021
:103D40000D480E4B4FF4A041944201D9062200E0E9
:103D5000042240EA425243F6FF7002432846BDE87F
:103D60007040FEF775BF000008000200000010BBA5
:103D70000000083BFF3F0100FF3F13EB008088324B
:103D80002DE9F041457C867C04460F46202D08D065
:103D900005F0BE00302804D0382D02D02448BDE8FC
:103DA000F081A6F11000092802D32148401EF6E751
:103DB000112E03D80F2084F832000CE0202D0AD1F8
:103DC000172E08D1102004F8300FD82020710020C1
:103DD000A070A4F13004A6F101012046FEF71EFFF9
:103DE000162E06D0302D02D0702D02D005E0162EF2
:103DF00003D33C206083BC20208305F0BF00302823
:103E000001D00020CBE7608B236A40F0C000208304
:103E1000F80503D54FF48841064A04E0064A44F207
:103E2000020143F4C0132046BDE8F041FEF710BF85
:103E300008000200FF3F91BBFF3FDBEB2DE9F041A3
:103E4000447C857C06460F46202C0AD0212C08D0C5
:103E5000302C06D0402C04D0412C02D02048BDE8A4
:103E6000F081A5F11300052802D31D48401EF6E796
:103E7000302C01D0412C05D1BC203083412C01D104
:103E80003C207083691E3046FEF7C8FE600601D5EF
:103E9000F8050AD54FF48841600601D5114A00E0C3
:103EA000114A1248336A024307E0162D09D04FF435
:103EB00080500F4A0F4B40F4804114F09F0F02D006
:103EC00005E00420F5E7162D01D141F4005160060C
:103ED00001D542F480023046BDE8F041FEF7B8BE9D
:103EE00008000200000010BB0000083BFF3F8100FB
:103EF000FF3F93EB008088322DE9F0410446066ACB
:103F0000407CA57C0F46402802D02248BDE8F081C5
:103F1000A5F1100007283AD8522084F835000F2068
:103F200084F83100102D0BD0142D05D3D22084F845
:103F30003700112084F83300162D05D21C2005E02F
:103F4000002084F83200F9E744F21C006083162D4B
:103F500002D24FF4FE7001E044F2FC502083691E4F
:103F60002046FEF75BFEF80503D544F201410A4AFC
:103F700005E00A4A44F20501162D00D3084E09480F
:103F8000334602432046BDE8F041FEF761BE0148DA
:103F9000401EBBE708000200000011BB000013EB4D
:103FA00000808832FF3FC0002DE9F05F457C847CB3
:103FB00006468B464FF0000A4FF48049202D08D06A
:103FC000242D06D0252D04D05E2D02D05648BDE804
:103FD000F09F04F01F08A8F1100009286FD8A8F17D
:103FE00001013046FEF71AFE504904F00F00102C74
:103FF000085C708340F08000308302D1002086F896
:104000003200012205213046FEF74AFCC0B230756D
:1040100010F0400719D140F0400080F00402012167
:104020003046FEF72DFD5FEA000AD0D101220521BE
:104030003046FEF735FC80F00400C2B2327502F063
:10404000400701213046FEF71BFD202D02D0252D13
:1040500004D00FE0162C12D337B910E0A4F13300CE
:10406000062801D9532C0ED3522086F835000F2094
:1040700086F83100202D02D0252D04D01AE0172C0F
:1040800018D317B92EE0342C14D3A8F11400062845
:104090000ED2DFE800F0030715191D212349102275
:1040A000783902E02149102268393046FEF760FD78
:1040B0004FF08009A7B11BF4807F15D127E02FE0D6
:1040C0001A4910225839F0E7184918224839ECE704
:1040D000164918223039E8E7144918221839E4E75C
:1040E000202D1BD1152C19D337B1202D01D1182C1F
:1040F00002D9BB20022101E03B200121000640EA59
:10410000C1420B4849F480610243336A02E0094B23
:10411000094A49463046FEF79BFD8246504656E71F
:104120000148401E53E700000800020040550010FF
:10413000FF3F810000809038FF3FD3EB0CB5024673
:1041400054A0D0E90030CDE90030C80505D54B2A90
:1041500001D801200CBD02200CBD002069460B5C7B
:10416000934202D2401C0528F9D3401C0CBD2DE916
:10417000F047044610468A46657CA67CFFF7DEFFC2
:10418000C7B24FF480484FF00C09202D0ED0BA2D45
:104190000CD0BB2D0AD0DB200821802D1AD0402D59
:1041A00024D0712D28D03D48BDE8F087D82084F870
:1041B0003400112E01D80F2006E0202D03D1182E37
:1041C00001D3122000E0102084F83000002084F891
:1041D000320011E004F13004207121704FF0200012
:1041E000607184F80190A4F1300405E084F8340093
:1041F00084F830104FF04008A6F110000A2802D3CE
:104200002648401ED0E7711E2046FEF707FD132EFC
:1042100002D2A4F81A9006E0BA2D04D3172E04D3C4
:104220005C20608301E0712D11D0BA2D0FD0BB2D21
:104230000DD00020618B40F0800008432083712D59
:1042400023D307D14FF41131154A164B18E04FF024
:104250002000EFE71448E0625FEACA5006D5134831
:1042600044F2304140EA0742114B05E01148124B3D
:1042700044F2300140EA0742182E01D341F40031E4
:104280002046BDE8F047FEF7E3BC0020C4F82880D4
:104290008AE70000273B4E5F6C0000000800020028
:1042A000FF3F893B008088A270305000FF3FD8BBA1
:1042B000008098D2FF3FD8EB0080981210B50446DA
:1042C00005229F21FEF7ECFA000E032801D03049A9
:1042D000E1623049097D19B1012905D02E4810BD90
:1042E000122084F8300003E0032801D13C206083D1
:1042F000A17C2046491EFEF791FC002010BD70B540
:1043000004460D46407CA17CD82284F8342010223B
:1043100084F83020002284F832201F4A521C0228E0
:1043200003D0202813D0501C70BDA1F11200022828
:1043300003D82046FEF772FC13E0A1F11500012816
:1043400002D81348E062F4E7192904D001E01829E3
:1043500001D0104670BD2046FFF7B0FF10F0FF00FF
:10436000F8D1E06A0028F5D0608B40F43650208305
:10437000E80504D54FF48841084A236A03E0084A57
:10438000084B44F204012046BDE87040FEF760BCD3
:10439000056030000030004006000200FF3FD1BB46
:1043A000FF3FD3EB0080883270B50446417C807CAF
:1043B000254A262903D025292AD0501C70BD00F09B
:1043C000DF01032926D80721E174002100F0070549
:1043D00084F8321005F113012046FEF71FFC012D71
:1043E00004D0022D05D0032D09D10DE02822174954
:1043F00002E01649282228312046FEF7B9FB144B6B
:10440000144A48F2020119E0104928225031F3E71A
:104410004B2801D0104670BD16212046FEF7FEFB4A
:104420003C206083BC202083522084F835000F207C
:10443000094B0A4A84F831004FF4C8412046BDE8D0
:104440007040FEF705BC0000070002004C5500104C
:1044500000809802FF3F990B008088A2FF3F91BB2C
:1044600008B5014638A06A46006800900020135C39
:104470008B4202D2401C0328F9D3401C08BD2DE911
:10448000F0419046477C0446867C304A4FF4804594
:104490004FF48840302F03D017F08F0F09D029E058
:1044A000A6F1100104290AD2218B41F020012183B9
:1044B00010E0702F1ED0A6F11203082B02D3104675
:1044C000BDE8F08144F21C02628344F2FC122283B4
:1044D000C90500D50546711E2046FEF79FFB5220F8
:1044E00084F835000F2084F83100680505D5184A96
:1044F000236A11E01548401CE2E7602F0FD003212A
:10450000022244F204050120090441EAC242114991
:104510000A43114941EAC043402F09D00EE044F656
:1045200004054046FFF79CFFC1B203200246EBE7BB
:10453000142E03D3162E01D845F001052946204636
:10454000BDE8F041FEF784BB1E32500007000200B8
:10455000FF3FD1BBFF3FC0EB00808032524A514940
:104560001160524A4FF01201116002F104024FF043
:10457000420111604E494FF0800200FB01F04FF400
:10458000E111B0FBF1F14B48C260CAB202604FEAE0
:10459000112141604FF00701C1604FF04701816078
:1045A000704728B1012805D0D320434908607047DF
:1045B000DB20FAE7C320F8E74049F32008604FF01A
:1045C000D3000861C860886048604FF013004861FC
:1045D000704770B50C46344B0021A03B9961384DB3
:1045E00005E05D615A691102FCD4C2F34D217839AE
:1045F0002929F6D2A02801D9A02002E00A2800D259
:104600000A204FF4A071B1FBF0F568430C21B0FB18
:10461000F1F12C4A481E42EA0042586C2A4E0640EC
:10462000964213D0DE6EC6F304660C2E01D1274EDF
:10463000DE66C60706D140F0010058640020401C29
:10464000FF28FCD95A64186CC007FCD001EB41006C
:104650004FF49672B2EB800F01D2032006E096224F
:10466000B2EB800F01D2022000E001208200121F75
:1046700042F010629A64AA00121F42F010629A651A
:10468000084ADA66124A1A6701EB41018B00B3FB54
:10469000F0F00646FFF762FF04B12660B3FBF5F0C9
:1046A00070BD00000008000CA00005403466084002
:1046B00040420F0000200840986108408C6108408B
:1046C0007800800680000006C333FF0F0008000159
:1046D000000800102DE9F05F0546002092469B4639
:1046E00088460646814640241BE028464146474608
:1046F000224600F032FA53465A46C01A914110D36E
:1047000011461846224600F019FA2D1A67EB0108E7
:104710004F4622460120002100F010FA17EB000955
:104720004E41201EA4F10104DFDC484631462A46F2
:104730004346BDE8F09F40EA01039B0703D009E030
:1047400008C9121F08C0042AFAD203E011F8013B7D
:1047500000F8013B521EF9D270472DE9FE4F80460A
:1047600081EA0300C00F0C46009021F0004123F0C5
:104770000045B8EB0200A94105D2404621469046CB
:104780001C460B46024623F00040104347D0270D3D
:10479000C7F30A00C3F30A510290401A019040285F
:1047A0006BDAC3F3130040F4801B0098924620B1EB
:1047B0000023D2EB030A63EB0B0B01985946C0F1BF
:1047C0004002504600F0BAF906460D46504659469A
:1047D000019A00F0D2F910EB08006141002487EA49
:1047E000115284EAE7731A4340D0009A62B3019AE7
:1047F000012A4FEA075215DC001B61EB02014FF062
:10480000004202EA0752CDE90042001C41F5801146
:1048100032462B4600F0D2F903B0BDE8F08F404697
:104820002146F9E7001B61EB0201001C41F58013F2
:1048300000185B412018A2F5001747EB030140EA7E
:10484000D570B6196D4111E06D084FEA360645EA9C
:10485000C0754FEA0752001B61EB0201001C41F5D5
:10486000801149084FEA30000019514132462B4669
:1048700003B0BDE8F04F00F092B90098012240006B
:104880000023D0EB020263EBE073009821464FEA6D
:10489000E074B8EB000061EB0401E9E783F000434A
:1048A0005BE781F0004158E72DE9FE4F81EA030400
:1048B00004F0004421F0004100944FF0000B23F07D
:1048C000004350EA01045ED052EA03045BD0C3F314
:1048D0000A54C1F30A552C44A4F2F3340194A0FB0A
:1048E0000254C1F3130141F48011C3F3130343F4E1
:1048F000801301FB024400FB034E840A970A44EA3A
:10490000815447EA8357A4FB076802958D0A05FB8B
:1049100007854FEA932C04FB0C542705029D4FEAB0
:10492000065847EA1637B5EB08056EEB070C870EFD
:10493000920E47EA811742EA8312A7FB0201B6EB07
:104940000B0164EB00042B0D43EA0C335E1844EBBF
:104950001C50DA465146E7FB0201C5F313044FEA47
:104960000B3343EA14534FEA0432019C43EA060333
:10497000A4F10C040294009CCDE900B400F01EF9EF
:1049800003B0BDE8F08F00200146F9E72DE9F04DB6
:1049900081EA030404F0004B21F0004514464FF077
:1049A000000A23F0004150EA050220D054EA010237
:1049B0001DD0C5F30A570246C5F31303C1F3130014
:1049C000C1F30A5640F4801543F48013A7EB0608A0
:1049D000101BD64608F2FD3873EB050002D308F130
:1049E000010801E092185B41B8F1000F03DA0020E2
:1049F0000146BDE8F08D00204FF480110646844644
:104A00000EE0171B73EB050705D3121B63EB0503C1
:104A100006434CEA010C49084FEA300092185B410A
:104A200050EA0107EDD152EA030012D082EA0400F5
:104A300083EA0501084305D0101BAB4106D20122D1
:104A4000002306E000224FF0004302E06FF0010275
:104A500053101AEB06004CEB085110EB0A0041EB27
:104A60000B01BDE8F04D00F09AB80EB540F23341AD
:104A700002910021CDE900110A460B4600F09EF894
:104A800003B000BDC1F30A5210B5C1F3130140F2E7
:104A9000FF3341F480119A4201DA002010BD40F248
:104AA00033439A42A2F2334203DC524200F055F8FB
:104AB00010BD904010BD00F0004230F000400AD020
:104AC000C10D01F56071C0F3160042EA0151C20840
:104AD00040071143704700200146704730B5041E5F
:104AE00071F1000404DB4FF00044404264EB01012B
:104AF000141E73F1000405DB1C464FF000435242C4
:104B000063EB04038B4208BF824230BD30B5041E04
:104B100071F1000404DB4FF00044404264EB0101FA
:104B2000141E73F1000405DB1C464FF00043524293
:104B300063EB0403994208BF904230BD202A04DB96
:104B4000203A00FA02F1002070479140C2F12003A0
:104B500020FA03F3194390407047202A04DB203ADF
:104B600021FA02F00021704721FA02F3D040C2F18D
:104B700020029140084319467047202A06DBCB17D4
:104B8000203A41FA02F043EAE07306E041FA02F308
:104B9000D040C2F12002914008431946704710B539
:104BA000141E73F1000408DA401C41F10001921850
:104BB0005B411A4301D120F0010010BD2DE9F04DF9
:104BC00092469B4611B1B1FA81F202E0B0FA80F24E
:104BD00020329046FFF7B2FF04460F4640EA0A0033
:104BE00041EA0B0153465A46084313D0114653EA93
:104BF000010019D0C8F140025046FFF7AEFF05464C
:104C00000E46504659464246FFF798FF084305D0E6
:104C1000012004E020463946BDE8F08D0020054320
:104C200046EAE0762C4337430A986305E40AA0EB92
:104C300008000022FD0A44EA47540A3002D5002049
:104C40000146E9E7010510196941DDE90845001948
:104C50006941BDE8F04DA2E7064C074D06E0E0686B
:104C600040F0010394E8070098471034AC42F6D3B3
:104C7000FBF728FAC4550010E455001030B5104871
:104C8000416CC1F30130421CC1F30740441CC1F325
:104C90000125012000FA05F301F0020028B101F01E
:104CA000800050B15800424307E001F0800020B975
:104CB00001F0400008B95800424344EA022030BDE8
:104CC0000000054002E008C8121F08C1002AFAD1FE
:104CD00070477047002001E001C1121F002AFBD17C
:104CE0007047036843F4803303600A604B68DB0756
:104CF000FCD0704700000000FFFFFFFFFFFFFFFF39
:104D0000FFFFFFFF1800200030004400FFFFFFFFFF
:104D100048004C005000540058005C006000FFFF49
:104D200068006C007000FFFF78007C008000840049
:104D300088008C009000940098009C00A000A400C3
:104D4000A800AC00FFFFFFFFFFFFFFFFC000C40093
:104D5000C800000000000000000101010000010186
:104D60000101010000000101010001010101010137
:104D70000101010101010101000000000101010028
:104D8000000000000000010101000001010101011B
:104D90000100000101010001010101010101010106
:104DA00001010101010000000001010100000000FB
:104DB00000000001010100000101010101000000EB
:104DC00001010100010101010101010101010101D4
:104DD00001010000000001010100000000000000CE
:104DE00001010100000101010101000000010101B8
:104DF00000010101010101010101010101010100A5
:104E0000000000010101000000000000000101019C
:104E10000000010101010100000001010100010188
:104E20000101010101010101010101010000000076
:104E3000010101000000000000000000000000006F
:104E40000000000000000000000000000000000062
:104E50000000000000000000010000000000000051
:104E6000000000000000000101010000010101013B
:104E70000100000001010100010101010101010126
:104E80000101010101010000000001010100000019
:104E9000000000000000010000010000000000010F
:104EA0000001000000000000000000000000000001
:104EB00000000100000000000101000000000000EF
:104EC00000000001000001010101010000000101DA
:104ED00001000101010101010101010101010101C3
:104EE00000000000010101000000000000000101BD
:104EF00000000001010101010000000101010001A9
:104F00000101010101010101010101010100000094
:104F1000000101010000000000000000000000008E
:104F20000000000000000000000000000000000081
:104F30000000000000000000000000000000000071
:104F40000000000000000000000000000000000061
:104F50000000000000000000000000000000000051
:104F60000000000000000000000000000000000041
:104F7000000000000001010100000001010101002A
:104F80000000010101000101010101010101010114
:104F9000010101010000000001010100000000000A
:104FA00000000101010000000000000000000001FD
:104FB00001010001010101010101010101010101E2
:104FC00001000000000101010000000000000001DC
:104FD00001010000000000000000000001010100CC
:104FE00001010101010101010101010101010000B3
:104FF00000000101010000000000000001010100AB
:10500000000000000000000000010101000101019A
:105010000101010101010101010101000000000184
:10502000010100000000000000010101000000007B
:105030000000000000000101010001010101010167
:105040000101010101010101000000000101010055
:105050001B0018112D00000000001B0020112D0066
:1050600000000000150060142D00000000001A0070
:1050700000122D00000000001B0000112D00000098
:1050800000001B0028112D0000000000150038153D
:105090002D00000000001B0010112D00000000007A
:1050A000150040142D0000000000150030141500FC
:1050B0007814000015002014180000000B002D00CB
:1050C0000000190000000000150010142D00000061
:1050D00000001A0010122D00000000001B00081133
:1050E0002D00000000001A0018122D000000000022
:1050F000150018141C0000000000150048142D00B5
:1051000000000000150000142D00000000001A002F
:1051100008122D0000000000150030162D000000C0
:105120000000150000162D00000000001500681496
:105130002D0000000000150030152D0000000000BB
:10514000150038141E000028000015000814160071
:1051500000130000150018151F000027000015009F
:105160002816200000260000150020152D00000044
:105170000000150028152D0000000000150018166D
:105180002D0000000000150020162D00000000007A
:10519000150008152100002500001500101522003B
:1051A000002400001500081623000023000015004D
:1051B0001016240000220000150028141200001808
:1051C00000001500701414000019000015000015EF
:1051D000110000000000000000000000A3E1A14158
:1051E000000000C02A64C041000000C02A64B04131
:1051F0003D7F55AA030000000100000002000000EE
:1052000000000080FFFFFF8700000010FFFF00107C
:1052100000000400FF0000000001000000C20100C7
:105220000000000000C201000000000000000000BB
:10523000000000004C5043313835300000000000C1
:10524000000000000000000000000000000000005E
:10525000000000000000000000000000000000004E
:10526000000000000000000000000000000000003E
:1052700000000000533235464C31323950204C503A
:1052800043313835302F4C50433433353020486962
:1052900074657800000000000000000000000000BD
:1052A00000000000000000000000000000000000FE
:1052B000000000005350494649206F6E2048697431
:1052C0006578206576616C20626F61726400000011
:1052D00000000000000000000000000000000000CE
:1052E00000000000000000000000000000000000BE
:1052F00000000000000000000000000000000000AE
:10530000000000000000000000000000000000009D
:10531000000000000000000000000000000000008D
:10532000000000000000000000000000000000007D
:1053300000000000436F6E6E656374205356352085
:1053400070696E203220746F205356312070696E60
:10535000203520616E64205356352070696E2038E8
:1053600020746F205356312070696E20373B526590
:105370006D6F766520616C6C206F74686572205368
:10538000563120616E6420535635206A756D706504
:1053900072733B436F6E6E65637420466C61736815
:1053A000204D6167696320746F2058313B436F6EF5
:1053B0006E65637420424F4F54312070696E7320C4
:1053C000322D332C20424F4F54322070696E73209F
:1053D000322D332C20424F4F54332070696E73208E
:1053E000322D332C20424F4F54342070696E73207D
:1053F000312D32000000000000000000000000001D
:10540000000000000000000000000000000000009C
:10541000000000000000000000000000000000008C
:10542000000000000000000000000000000000007C
:1054300000000000AA557F3DF32D001099360010A2
:10544000EB38001067290010B32A0010EF3300106A
:10545000C52F0010193600103734001089350010A0
:1054600091340010B73500101D2C0010512C001085
:105470007B280010C1280010D32800101D2900101F
:10548000812A0010A729001000000000001007006A
:1054900000000700000F010000800700000D02005F
:1054A00000C00700000E01000000000000100F0007
:1054B00000000F00000E010000400F00000D020070
:1054C00000800F00000F010000000000000C100021
:1054D0000000010000100F0000000000000C100090
:1054E0000000010000101F0000000000000C100070
:1054F0000000010000103F0000000000000C100040
:105500000000010000107E0000F00700000C1000F9
:1055100000000000000C1000000001000010FE0060
:1055200000F00F00000C100000000000000C100044
:10553000000001000010FE0100F01F00000C100030
:105540000C0C7C3C3C3C3C3C3C3C000000E01F0024
:1055500001F304000060000001F3040000001F00DC
:1055600000F101000080000000F1010000001E00B9
:1055700000F01E0000E03F0001F3040000600000A6
:1055800001F3040000003F0000F101000080000072
:1055900000F1010000003E0000F03E0000E07F004E
:1055A00001F304000060000001F3040000007F002C
:1055B00000F101000080000000F1010000007E0009
:1055C00000F07E00E455001000000810800000008C
:1055D000C44C00106456001080000810080D000034
:1055E000D44C0010001BB70000000000001BB700E7
:1055F00000000000000000000000000000000000AB
:10560000000000000000000000000000000000009A
:10561000000000000000000000000000000000008A
:10562000000000000000000000000000000000007A
:10563000000000000000000000000000000000006A
:10564000000000000000000000000000000000005A
:10565000000000000000000000000000000000004A
:045660000000000046
:04000005100000BD2A
:00000001FF
