:020000041000EA
:10000000000D0810D1000010D9000010DB00001016
:10001000DD000010DF000010E10000105A5A5A5AAB
:10002000000000000000000000000000E3000010DD
:10003000E500001000000000E70000100923001098
:10004000EB000010EB000010EB000010EB000010C4
:10005000EB000010EB000010EB000010EB000010B4
:10006000EB000010EB000010EB000010EB000010A4
:10007000EB000010EB000010EB000010EB00001094
:10008000EB000010EB000010EB000010EB00001084
:10009000EB000010EB000010EB000010EB00001074
:1000A000EB000010EB000010EB000010EB00001064
:1000B000EB000010EB000010EB000010DFF80CD09C
:1000C00003F0BEF90048004783230010000D08101C
:1000D0000648804706480047FEE7FEE7FEE7FEE7E2
:1000E000FEE7FEE7FEE7FEE7FEE7FEE7BF090010DA
:1000F000BD0000107046704730B51F24FD4D2C60C8
:10010000FD4CFE4DEC660024AC612C46646C44F062
:1001100001046C64FA4C6C6400BFF84C246C04F06D
:100120000104002CF9D0F74CF44DEC664FF47A71D1
:1001300000E0491E0029FCD1F34CF04D6C6400BF77
:10014000EE4C246C04F00104002CF9D0ED4CEB4D86
:10015000EC662C46246A44F001042C624FF4804083
:10016000142424B1012C05D0022C07D104E04FF057
:10017000FF3012E0E54810E0E5480EE0142108E009
:1001800080EA500404F00104C0F34D0545EA8430D0
:10019000491CB1F5004FF3D900BF00BF0B22182353
:1001A000540444EA83540443D44D6C6280200124F7
:1001B00024B1012C05D0022C09D105E04FF0FF300D
:1001C00018E040F2023015E040F2022012E0012176
:1001D0000CE080EA900484EAD00484EA101404F06D
:1001E0000104C0F3460545EAC410491CB1F5807FFF
:1001F000EFD900BF00BF0403C04DAC621020012442
:1002000024B1012C05D0022C07D104E04FF0FF30BF
:1002100012E0622010E042200EE0012108E080EAB6
:10022000900404F00104C0F3430545EA0410491C9E
:10023000B1F5007FF3D900BF00BFB04CA46A0443FE
:10024000AE4DAC62B34C2C6200BFAC4CE46904F020
:100250000104002CF9D0AB4C0834A84DAC64AE4C72
:10026000EC64A54C2C656C65A64C8434AC6530BD43
:100270002DE9F04704464FF47A70A8490968A0FBBD
:1002800001700146A64A0023384602F029FE0022EA
:10029000A0FB045701FB047100FB021104220023A0
:1002A000284602F01DFE814600BFB9F10000A9F109
:1002B0000109FAD1BDE8F0872DE9F04385B00720A8
:1002C0009849086000BF9748001D006800F00100D1
:1002D0000028F8D0914800689349884203D2002052
:1002E0009249086003E047F2777090490860F22075
:1002F0008F4908608E498039C1F884008C490831E3
:100300000860F320091D0860091D0860091D0860C8
:10031000091D0860091D0860091D0860091D0860A5
:10032000091D0860091D0860091D0860091D086095
:10033000091D0860F2207E4980310860091D0860AF
:10034000091D08607A4998310860F320091D08608A
:10035000091D0860091D0860091D0860091D086065
:10036000091D0860091D0860F22072490860091D16
:100370000860091D0860091D0860091D0860091D45
:100380000860091D0860091D0860F1206949843171
:100390000860091D0860F320091D0860091D086038
:1003A000091D0860F120091D0860091D0860091D6C
:1003B0000860F320091D0860091D0860091D086018
:1003C000091D08605C490860F2205C490860091D4D
:1003D0000860091D0860091D0860091D0860091DE5
:1003E0000860091D0860091D0860091D0860091DD5
:1003F0000860091D0860091D0860091D0860091DC5
:100400000860091D0860091D0860091D0860F320C7
:100410004A4980310860091D0860091D0860091DEE
:100420000860091D0860091D0860091D0860091D94
:100430000860091D0860091D0860091D0860091D84
:100440000860091D0860091D0860091D0860091D74
:10045000086001203A4908600020886000242F4885
:100460000068384988422ED901244FF0000910E075
:100470004FEA890000F1805000684DF829003248A9
:1004800050F829104FEA890000F18050016009F10D
:100490000109B9F1050FEBD3BFF36F8F2722214973
:1004A00048312A482A4B98474FF0000908E05DF888
:1004B00029104FEA890000F18050016009F101091B
:1004C000B9F1050FF3D3F02022490860091D086037
:1004D000091D0860091D0860822006490C39086062
:1004E00000201749C1F808025A210C480268601C14
:1004F00032E000000C5200400008000100000540FE
:10050000802027060008000980080E0603800100ED
:10051000030001001C080006040800030000081086
:1005200000CA9A3B3014054000B4C404006D084072
:10053000806008408062084010650840806608407E
:1005400000500040000E2707CA3400102C31044030
:1005500001000010006C0840B2FBF0F0A1FB00505D
:100560000146F94A0023284602F0BAFCF749C1F8CF
:100570000C020846D0F8000240F40020F44908605C
:100580004FF48A40F349086040F20330091D0860C7
:100590000120EE4988621421EF480268601CB2FB1A
:1005A000F0F0A1FB00500146E74A0023284602F084
:1005B00097FCE64908632A21E7480268601CB2FB01
:1005C000F0F0A1FB00500146DF4A0023284602F06C
:1005D00087FCDE4948633F21DF480268601CB2FBAC
:1005E000F0F0A1FB00500146D74A0023284602F054
:1005F00077FCD64988634621D7480268601CB2FB65
:10060000F0F0A1FB00500146CF4A0023284602F03B
:1006100067FCCE49C8634621CF480268601CB2FB24
:10062000F0F0A1FB0051C84A0023284602F058FC14
:10063000C64908641E21C8480268601CB2FBF0F07D
:10064000A1FB00500146C04A0023284602F048FCA6
:10065000BE4948643F21C0480268601CB2FBF0F00C
:10066000A1FB0051B84A0023284602F039FCB749E3
:1006700088643F21B8480268601CB2FBF0F0A1FB1F
:1006800000500146B04A0023284602F029FCAF4939
:10069000C8643F21B0480268601CB2FBF0F0A1FBC7
:1006A00000500146A84A0023284602F019FCA74939
:1006B00008650E21A8480268601CB2FBF0F0A1FB9F
:1006C0000051A14A0023284602F00AFC9F494865D0
:1006D0001E21A1480268601CB2FBF0F0A1FB005093
:1006E0000146994A0023284602F0FAFB974988659B
:1006F0006420FFF7BDFD40F28310944908620A2090
:10070000FFF7B6FD40F20310904908620120FFF7A1
:10071000AFFD40F283108D4908620120FFF7A8FD6C
:10072000C8218D480268601CB2FBF0F0A1FB00708C
:100730000146854A0023384602F0D2FB05461022C6
:10074000002302F0CDFB401C804948624FF00A00B4
:10075000FFF78EFD43F609517F480268601CB2FB2B
:10076000F0F0A1FB00500146774A0023284602F032
:10077000B7FB07461022002302F0B2FB401C73496E
:1007800048624FF00A00FFF773FD83206F4908624B
:10079000724800680A20FFF76BFD02206B4908626F
:1007A0000846D0F8000140F400206A49086005B00E
:1007B000BDE8F08330B502466948406920F4000086
:1007C000674D686140F2FF1000EB026068612846E7
:1007D000406940F4000068610BE061484069C0F383
:1007E0004D215F484069C0F3080311B90BB90020DF
:1007F00030BD5B48406900F400000028EDD1584846
:100800004069C0F34D2145F6BB3001FB00F42046A2
:10081000EEE702464FF0FF33112A44D2DFE802F040
:100820000E090A0B0C4319232629434334373A3D5A
:10083000400000BF00BF00BF1046704749484068F5
:1008400000F00A00022802D04FF0FF30F5E7002048
:10085000F3E74348806900F0010010B14FF0FF302A
:10086000EBE70620E9E73E48016A1EE03C48016BE1
:100870001BE03B48006C00F0010010B13848406CB0
:1008800000E00020014610E03548816C0DE034485E
:10089000C16C0AE03248016D07E03148416D04E067
:1008A0002F48816D01E01846C7E700BF01F0010045
:1008B00008B9C1F304631846BFE72DE9F047804645
:1008C0004FF0010901240026474600BF112F5BD2DB
:1008D000DFE807F0090C0E10125A144E4F505A5A06
:1008E000161D242B32004FF4004650E01E4E4EE001
:1008F0001E4E4CE01D4E4AE01B4E48E01A4E46E0AC
:100900001748806CC0F38100401C44433FE014480A
:10091000C06CC0F38100401C444338E01048006DB7
:10092000C0F38100401C444331E00D48406DC0F3EA
:100930008100401C44432AE00948806DC0F38100D7
:10094000401C444323E0000000CA9A3B0050004092
:100950000052004000510040000008100020032811
:100960000000054000300440001BB70080F0FA0290
:100970000DE00CE002F076FD0546E8B209FB00F957
:10098000C5F30720444302E00020BDE8F08700BF24
:100990001EB93846FFF73DFF0746002E96D006FBEE
:1009A00009F0B0FBF4F0F0E710B51048C06EC0F3EA
:1009B00004642046FFF781FF0D49086010BD10B5A3
:1009C0004FF0E020006920F003004FF0E0210861C3
:1009D000FFF790FB6FF3130006490860FFF78CFBED
:1009E000FFF7E2FFFFF768FC10BD000000000540C4
:1009F0000000081008ED00E010B50146102221B1FA
:100A0000012905D0022907D104E04FF0FF3010BDC5
:100A10006220FCE74220FAE70B4608E082EA9200F7
:100A200000F00100C2F3430444EA00125B1C202BD7
:100A3000F4D91046EBE710B50246802122B1012A15
:100A400005D0022A09D105E04FF0FF3010BD40F279
:100A50000230FBE740F20220F8E713460CE081EA9F
:100A6000910080EAD10080EA111000F00100C1F38A
:100A7000460444EAC0115B1CB3F5807FEFD90846F9
:100A8000E4E710B501464FF4804221B1012905D0B9
:100A9000022907D104E04FF0FF3010BDFE48FCE70B
:100AA000FE48FAE70B4608E082EA520000F0010037
:100AB000C2F34D0444EA80325B1CB3F5004FF3D916
:100AC0001046EAE70146B1F5804F01D90120704791
:100AD000B1F5005F01D90220F9E7B1F5006F01D946
:100AE0000420F4E7B1F5FA7F01D90820EFE73C29AB
:100AF00007D301F109004FF48062B2FBF0F08000EF
:100B0000E5E701F03C00001DE1E701463C2902D287
:100B10004808401C70471F20FCE72DE9FF4F9DB09F
:100B20000F462A9C1D9802F094FBCDE91A01384625
:100B300002F08FFBCDE9180100201390401E0F90AA
:100B400000200E900D900C9000210A910B911F989F
:100B500002F0A5FB0022D24BCDE9060102F0B2FB68
:100B600009D31F9802F09BFB0022CE4BCDE9060172
:100B700002F0C0FB03D2012021B0BDE8F08F209825
:100B800002F08DFB0022C74BCDE9060102F09AFB73
:100B900009D3209802F083FB0022C34BCDE9060164
:100BA00002F0A8FB01D20220E6E7C0491D98884266
:100BB00001D20320E0E7BE491D98B1EB102F01D20E
:100BC0000420D9E7BB48874201D20520D4E7BA48C0
:100BD000874201D90620CFE7B848874201D90120D2
:100BE0000CE04FF04040B649DDE9182302F0C2FAAC
:100BF000CDE9060102F03AFB20F0010008900898C8
:100C0000402801D9402008904FF04040AD49DDE92F
:100C1000182302F0AFFAAC4AA24BDB1ECDE9040167
:100C200002F08FF9CDE9060102F020FB0990099846
:100C300008B901200990DDF82080E7E00022A34BED
:100C4000DDE91A0102F096FA9F4A964BDB1ECDE9C8
:100C5000040102F076F9CDE9060102F007FB1390DA
:100C6000BBE0139802F0F5FA02460B46CDE9060107
:100C7000DDE91A0102F07EFACDE9160100204FF0FD
:100C80008041DDE9162302F003FACDE90401404674
:100C900002F0DFFACDE90001DDE9182302F0F8F9EE
:100CA000CDE90201DDE9042302F064FACDE9060191
:100CB00002F0DCFA4000129086E0129802F0C9FAC5
:100CC000CDE90601DDE9162302F0E2F905460E46FC
:100CD0004FF040427A4B2846314602F00BFB00D2DF
:100CE00077E0B8F1010F02D1284631460AE04046CC
:100CF00002F0AFFA02460B46CDE90601284631461E
:100D000002F038FA81468A4648465146DDE9182302
:100D100002F030FACDE914011F9802F0C0FACDE9D3
:100D20000601DDE9142302F0CDFA42D8209802F042
:100D3000B6FACDE90601DDE9142302F0DBFA38D872
:100D40000022574B4846514602F0FBF8CDE9060118
:100D500002F08CFA11901198874202D21198C01BB0
:100D600001E01198381A1090DDE90F10884212D373
:100D7000DDE90F1088421CD10E99139888420AD3DE
:100D80000E991398884214D128463146DDE90A238A
:100D900002F098FA0DD210980F9013980E901298B6
:100DA0000D90CDF83080CDE90A561198B84200D1A7
:100DB00036E048465146DDE9182302F09BFA00D29E
:100DC00007E01298801C12901298B0F5803F7FF6D1
:100DD00074AF00BF1398401C139034491D98B0FBAA
:100DE000F1F0FF2803D81D98B0FBF1F001E04FF4BB
:100DF000807013998842BFF434AFB8F1020F01D963
:100E0000012000E00020401CA8EB00080998804564
:100E1000BFF414AF0F98401C08B90720ACE600BF20
:100E20000E9802F016FA02460B46CDE90601DDE9FE
:100E30001A0102F09FF9CDE916010D9802F009FAA6
:100E4000CDE90601DDE9162302F022F905460E463A
:100E50000C9802F0FEF902460B46CDE90601284641
:100E6000314602F087F981468A460D994808FFF716
:100E700029FE82050D994808FFF747FE42EA404BDC
:100E80000D994808FFF7FDFD4BEA000BC4F808B0C8
:100E90000C9801281FD11BE0038001000300010012
:100EA0000000E03F0000F03F0000F83FA086010096
:100EB00080D1F008AB9041008055C820C02A641052
:100EC0002A64C0412A64B041E90B21E7A3E1A141B2
:100ED0004FF0000B04E00C994808FFF78DFD8346A6
:100EE0000E98012801D1002002E00E98FFF7A3FD23
:100EF0004BEA0030E0600C98012801D1082000E0A6
:100F000000200E99012901D1042100E000210843AD
:100F100046F21001084420600D984108B4F8110011
:100F200061F30E0004F11001A4F811000E98207472
:100F30000C98012800D101E00C984008618A60F308
:100F4000CB1161820022F74B2846314601F0F9FFB0
:100F5000CDE9060102F08AF960610022F14B4846B2
:100F6000514601F0EEFFCDE9060102F07FF9A061E4
:100F7000A069C01BE06148465146DDE91A2302F032
:100F8000F9F8C4E908010020F6E570B5E64D6D6892
:100F900005F002055DB1E44D6D6805F0080585F0CA
:100FA000080525B14FF40045E04E356002E000250C
:100FB000DE4E3560DE4D2D6A05F0020585F0020536
:100FC0004DB1DB4DED6905F0010525B1D94D2D6819
:100FD000D64EF56102E00025D44EF561D44D2D6B5F
:100FE00005F0020585F002054DB1D14DED6A05F021
:100FF000010525B1D04D2D68CC4E356202E00025AB
:10100000CA4E3562CA4D6D6C05F0020585F00205C9
:10101000A5B1C74D2D6C05F001057DB1C44D6D6CBA
:10102000C5F30362C14D55F82250C14E766CC6F32C
:101030000746761C7543BD4E756202E00025BB4E27
:1010400075620C2020E0BD4D35F91010B84D4C599B
:1010500004F0020585F002058DB1B54D4D59C5F37B
:101060000362B34D4D5BC5F387035B1CAF4D55F871
:101070002250B5FBF3F5AD4E46F8205003E00025B5
:10108000AA4E46F82050401C1028DCD970BD30B55F
:101090000346102B01DD032030BD07292FDB252956
:1010A0002DDCC3EB031000EB4000A54D2844405C51
:1010B00018B3A24830F91320501C58B1102909DC8C
:1010C000072907DB9A481058C0F30360884201D112
:1010D0000120E1E7994830F91120501C08B902209D
:1010E000DAE79348145824F07064C01440EA0360AF
:1010F00004438F4814500020CEE70320CCE70220A1
:10110000CAE72DE9F04104460F46F4B95FB18648BD
:10111000406820F00C00844948600846406840F070
:10112000030048600AE08048406820F003007E49E0
:1011300048600846406840F008004860002600E02B
:10114000761C80488642FBDB64E0022C06D1032338
:10115000102200210C2000F021FC5BE0032C06D1C2
:10116000002310221321012000F018FC52E0042C6F
:1011700050D0052C4ED0062C14D137B96C4880695C
:1011800040F001006A49886105E06948806920F003
:10119000010067498861002600E0761C69488642A4
:1011A000FBDB37E0654830F91450681C10B90220A9
:1011B000BDE8F08137B95E48285840F001005C492D
:1011C000685027E05A48285820F0010058496850D4
:1011D000072C06D100BF5648C06900F00100002866
:1011E000F9D0082C06D100BF5148C06A00F00100B8
:1011F0000028F9D0092C0DD100BF4D48006C00F03B
:1012000001000028F9D04A48006C00F0010008B93C
:1012100000BFFEE70020CBE7F0B502460024002522
:10122000002301264248406CC0F303673F4850F852
:1012300027105143541E3E48406CDFF80CC100EAB1
:101240000C00DFF8ECC0CCF84400404881421AD2D0
:1012500001E05B1C760070004843DFF8F0C0604599
:10126000F7D3200440EA053040EA032040F0400074
:10127000DFF8BCC0DCF844C040EA0C00DFF8B0C0C6
:10128000CCF8440016E03248814211D2200440EAF2
:10129000053040EA032040F0C000DFF894C0DCF8DD
:1012A00044C040EA0C00DFF888C0CCF8440001E0FC
:1012B0000420F0BD0020FCE701462648814206D20A
:1012C0001B48806920F00400194A90610BE0224815
:1012D000814206D21648806940F00400144A9061A9
:1012E00001E005207047114881610020FAE710B540
:1012F0001A48FFF7E1FF01210620FFF702FF09214D
:101300000620FFF7C4FE0620FFF786FF0121092013
:10131000FFF7F7FE15210920FFF7B9FEFFF735FEAD
:10132000002010BD0000E03F003004400400081021
:1013300000000540480008104C000810E034001080
:101340003A35001040420F003DCC00FF005F4C09D1
:1013500000D01213C0E1E40040787D01001BB7000B
:101360000146A1F1110014284DD2DFE800F04B1E18
:101370004C2319144C4C4C0F0A4C4C46413C373210
:101380002D28FE48406800F001007047FB48406887
:10139000C0F34000F9E7F9484068C0F38000F4E783
:1013A000F6484068C0F3C000EFE7F4484068C0F377
:1013B000C010EAE7F1484068C0F30020E5E7F048D4
:1013C0004068C0F34000E0E7ED484068C0F38000AB
:1013D000DBE7EB484068C0F3C000D6E7E848406868
:1013E000C0F30010D1E7E6484068C0F34010CCE7F6
:1013F000E3484068C0F38010C7E7E1484068C0F3A5
:10140000C010C2E700E000BF00BF0020BDE770B51C
:1014100004460D46262C03DB002C01DC042070BDA5
:10142000002D7DD104EB8400D64901EB40004088BB
:1014300050B304EB840001EB40004088D2490844DB
:10144000007900F00100F8B104EB8400CD4901EB14
:1014500040004088CC49405820F0010004EB840152
:10146000C84A02EB41014988C74A885000BF04EBD3
:101470008400C44901EB40004088C3490844007916
:1014800000F001000028F2D104EB8400BD4911F8FE
:1014900010002D280FD004EB8401BA4A12F8110075
:1014A000FFF75EFF38B904EB8401B64A12F8110069
:1014B0000021FFF726FE04EB8400B24901EB400057
:1014C000C08850B304EB840001EB4000C088AE49F3
:1014D0000844007900F00100F8B104EB8400A94948
:1014E00001EB4000C088A849405820F0010004EBFF
:1014F0008401A44A02EB4101C988A34A885000BF75
:1015000004EB84009F4901EB4000C0889E490844D9
:10151000007900F001000028F2D104EB840000E023
:1015200019E0984901EB400000792D2812D004EB16
:101530008401944A02EB41010879FFF711FF00286A
:1015400008D104EB84018F4A02EB410108790021A4
:10155000FFF7D7FD9CE004EB84008A4911F81000E6
:101560002D2813D004EB840011F81000874931F9BD
:1015700010008549405C00F0010038B104EB8401A3
:10158000804A12F811000121FFF7BBFD04EB840033
:101590007C4901EB4000408850B304EB840001EB30
:1015A0004000408878490844007900F00100F8B90B
:1015B00004EB8400734901EB4000408872494058B5
:1015C00040F0010004EB84016E4A02EB41014988BE
:1015D0006D4A885000BF04EB84006A4901EB40006B
:1015E000408869490844007900F001000028F2D0E1
:1015F00004EB8400634901EB400000792D2815D0ED
:1016000004EB840001EB40000079604931F91000DF
:101610005D49405C00F0010040B104EB8401594A8F
:1016200002EB410108790121FFF76BFD04EB840017
:10163000544901EB4000C08850B304EB840001EB37
:101640004000C08850490844007900F00100F8B912
:1016500004EB84004B4901EB4000C0884A494058E4
:1016600040F0010004EB8401464A02EB4101C988C5
:10167000454A885000BF04EB8400424901EB40001A
:10168000C08841490844007900F001000028F2D0E8
:1016900004EB84003B4901EB4000007A48B104EBC5
:1016A0008401384A02EB4101087A2946FFF7AFFE70
:1016B000B5E60020B3E610B50146262903DB002974
:1016C00001DC042010BD01EB81002E4C04EB400036
:1016D00000792D2830D001EB810004EB4000007927
:1016E0002A4C34F91000284C0059C0F3036301EB75
:1016F0008100244C04EB40000079244C34F91000A4
:10170000214C005D00F0010008B10020DAE701EB98
:1017100081001C4C04EB4000C0881B4C20444268F4
:1017200001EB8100174C04EB4000C08880B302F04D
:10173000010068BB0020C5E701EB8100114C14F8E3
:101740001000124C34F910000F4C005D00F0010045
:1017500008B10020B6E701EB81000A4C14F8100034
:101760000A4C34F91000084C0059C0F3036301EB34
:101770008100044C04EB400040880AE00010054062
:10178000002005403838001000000540E03400100B
:101790000EE07C4C2044426801EB81007A4C04EB63
:1017A0004000408820B102F0010008B9002089E71C
:1017B000764850F8230085E710B502460C460C2AFF
:1017C00014DB102A12DC724830F91210481C08B9D8
:1017D000022010BD6B480B5823F47F73601EC0B20B
:1017E00043EA800367480B500020F2E70220F0E74D
:1017F0002DE9F0418CB006460D461746984600206C
:101800006449086002A843463A462946009030469B
:10181000FFF783F904462CB1072C03D204200CB047
:10182000BDE8F081072C01D10620F8E75948056092
:10183000544904984862059888620298086200201A
:10184000EDE72DE9F0418CB006460D461746984667
:1018500000205149086002A843463A4629460090B4
:101860003046FFF75AF904462CB1072C03D2042066
:101870000CB0BDE8F081072C01D10620F8E74648FE
:10188000056040490498486305988863029840F4CD
:10189000005008630020EBE7F0B504460D461646FD
:1018A00040F2FF114FF4000040EA04600843DFF803
:1018B000D4C0CCF8140000BF3248406900F40000E6
:1018C0000028F9D1002300E05B1C42F21070834233
:1018D000FADB2C484069C0F34D2212B94FF0FF30BB
:1018E000F0BDB2F5007F08D326484069C0F3080078
:1018F00040F2FF1CACEB00011FE000BF491E4FF49B
:10190000000040EA04600843DFF878C0CCF8140017
:1019100000BF1C48406900F400000028F9D10023F2
:1019200000E05B1C42F210708342FADB154840690C
:10193000C0F34D279742E1D0491C2A603160002056
:10194000CEE7FFB505460C4616461F46102D01DCB6
:10195000102C02DD042004B0F0BD01AA03A9284622
:10196000FFF79AFF6A4602A92046FFF795FF009904
:10197000039848433060DDE90101484338600020A6
:10198000E9E70000000005403838001004000810A6
:10199000E0340010480008104C000810F0B5074D66
:1019A000D618C7014FF0040C0CFB0174E71704EBC9
:1019B0009777BF1045F82760F0BD00000060084031
:1019C0002DE9F04F8BB00446884600200990F94875
:1019D000844203D12020FFF76EFE8146F648844200
:1019E00003D12120FFF767FE8146F448844203D1EA
:1019F0002220FFF760FE8146F148844203D1232074
:101A0000FFF759FE81464FF0FF3B002007900690FC
:101A100000252E4601274CE00020089040E0089861
:101A2000384400FB08FC0020010741EA19114FEA85
:101A300009700022A0FB073E01FB07E100FB02103A
:101A40006246CDE900300023DDE9000101F048FAEB
:101A5000CDE9040104980390DDF814A00398B0F1D7
:101A6000004F04D90398404203900AF1010ABAF1E9
:101A7000000F02D0BAF5803F00D90EE00398584518
:101A80000AD2DDF80CB00026554608980790069754
:101A9000BBF1000F00D106E000BF0898401C089081
:101AA0000898B842BBD300BFBBF1000F00D102E0E1
:101AB0007F1C0F2FB0D900BF002185EA01007140C3
:101AC000084302D10BB0BDE8F08F4FEA1910069918
:101AD00000FB01FC0846079908440021A0FB0523F0
:101AE00001FB053100FB06100346CDE900206046EE
:101AF000002101F0F5F902900298804503D902987F
:101B0000A8EB000B02E00298A0EB080B64200BFB93
:101B100000F0B0FBF8FBBBF1030F35D2A6488442BE
:101B200018D1E06840F08000E060280A40EA0660D2
:101B3000C0B26060E8B22060E06800F07F00E06062
:101B4000F021069801EA0010079901F00F010843FF
:101B5000A06217E0E06840F08000E060280A40EAF8
:101B60000660C0B26060E8B22060E06800F07F000C
:101B7000E060F021069801EA0010079901F00F01DA
:101B80000843A0620120099009989BE770B50446BC
:101B90000E468848844203D121210620FFF777FAB8
:101BA0008548844203D122210920FFF770FA834837
:101BB000844203D123210620FFF769FA804884423A
:101BC00003D124210620FFF762FA7B4884421ED10C
:101BD0000720A0600020A06000E02568606900F098
:101BE00001000028F9D18020206300BF606900F067
:101BF00020000028FAD0002020636060E0602062AE
:101C00002061E06460652065A56965691EE00720C4
:101C1000A0600020A06000E02568606900F001007D
:101C20000028F9D10120E06500BF606900F02000C4
:101C30000028FAD00020E0656060E0602062206447
:101C4000A064A065E0646065206565695C488442C5
:101C500001D10020606220463168FFF7B1FE56488E
:101C6000844203D1E06800F0C00502E0E06800F0C3
:101C7000C005707930B1012806D0022807D00328AA
:101C800008D108E000BF09E045F0010506E045F095
:101C9000020503E000BF45F0030500BF00BF307937
:101CA000C0B145F008053079012806D0022806D0D9
:101CB000032807D004280BD107E000BF09E045F056
:101CC000100506E045F0200503E045F0300500E092
:101CD00000BF00BFB07928B1012802D145F004054A
:101CE00001E000BF00BF00BF3348844202D1E8B228
:101CF000E06001E0E8B2E06070BD01290CD12E4A3D
:101D0000904204D1026B42F0800202630EE0C26D89
:101D100042F00102C26509E0274A904203D1026BFA
:101D20000022026302E0C26D0022C265704700B566
:101D3000034600211846FFF7E0FF00BD4FF416519F
:101D400001600321417100210171817170471A4ABC
:101D5000904202D1CAB2026001E0CAB2026070478A
:101D600001461548814202D10868C0B27047086830
:101D7000C0B2FBE72DE9F04F0746894692469B46E5
:101D80004E465346BBF1010F2CD1002427E04FF003
:101D9000FF3805E0B8F1000F00D106E0A8F1010816
:101DA000786900F020000028F4D000BFB8F1000FDF
:101DB00008D116E0001008400020084000100C4038
:101DC00000200C40102507E016F8011B3846FFF7ED
:101DD000BEFF6D1E5B1E641C0DB1002BF4D1002BE9
:101DE000D5D116E0002411E0786900F0200000B998
:101DF0000EE0102507E016F8011B3846FFF7A7FF95
:101E00005B1E6D1E641C0DB1002BF4D1002BEBD1B9
:101E100000BF2046BDE8F08F2DE9F04305460F4690
:101E2000904699463C464346B9F1010F19D100222C
:101E300014E04FF0FF3602E006B905E0761E68694F
:101E400000F001000028F7D000BF06B908E02846DE
:101E5000FFF786FF04F8010B5B1E521C002BE8D134
:101E600010E000220BE0686900F0010000B908E012
:101E70002846FFF775FF04F8010B521C5B1E002B70
:101E8000F1D100BF1046BDE8F083F849884204D183
:101E9000C16841F04001C16003E0C16841F0400108
:101EA000C160704730B50B46072B15D2DFE803F051
:101EB0000406080A0C0E110001210DE002210BE0BE
:101EC000042109E0082107E0802105E04FF480713A
:101ED00002E04FF4007100BF00BF012A0AD1E34CB9
:101EE000A04203D144680C43446013E044680C43AF
:101EF00044600FE0DD4CA04206D1446840F28F35CB
:101F00008D432C40446005E0446840F207358D4322
:101F10002C40446030BD0146D448814202D1406922
:101F2000C0B270474869C0B2FBE70146486900F09B
:101F3000400008B1002070470120FCE70246002065
:101F400040F00100CB7833B1012B06D0022B07D033
:101F5000032B08D108E000BF09E040F0400006E094
:101F600040F0800003E000BF40F0C00000BF00BFB1
:101F70004B78012B01D140F004000B78012B01D1EB
:101F800040F002008B78012B01D140F00800B74BE4
:101F90009A4203D100F0CF03936002E000F0CF0338
:101FA0009360704700218170C17001210170417000
:101FB000704710B50B460021012A09D11C78012C6D
:101FC00001D141F002015C78012C01D141F0040102
:101FD000A64CA04215D1012A10D1C46844F0800457
:101FE000C460002404604460C46824F08004C460B9
:101FF0001024846241F00104046217E000240462AA
:1020000014E0012A10D1C46844F08004C4600024A4
:1020100004604460C46824F08004C46010248462B6
:1020200041F00104046201E00024046210BD0129B2
:1020300004D1426A42F00202426204E019B9426AE3
:1020400002F03D0242627047012904D1426A42F027
:102050000102426203E0426A02F03E0242627047BD
:1020600010B54C07A30E446A24F0380243F0040470
:10207000224302F03F04446210BD30B5002311B189
:10208000012904D101E0012302E0022300E000BFA6
:1020900000BF012A03D104691C43046104E0046900
:1020A000F3259D432C40046130BD30B50B4623B170
:1020B000012B04D0022B06D103E0102104E04021C3
:1020C00002E0802100E000BF00BF012A03D10469C3
:1020D0000C43046104E00469F3258D432C40046142
:1020E00030BD01468869C0B270470022CB78012B11
:1020F00013D142F010024B79012B01D142F02002A2
:102100000B79012B01D142F00802584B984202D1C1
:10211000CB79436501E0CB7943650B78012B01D185
:1021200042F001028B78012B09D142F004024F4B9F
:10213000984202D18B79036501E08B7903654B7876
:102140000BB942F00202494B984203D102F03F031F
:10215000C36402E002F03F03C364444B984204D1DD
:10216000C36843F03803C36003E0C36843F0380337
:10217000C36070473D4A90420BD1012904D1C26C23
:1021800022F00202C2640FE0C26C42F00202C2649A
:102190000AE0012904D1C26C22F00202C26403E009
:1021A000C26C42F00202C26470472DE9F047044657
:1021B0008946924698462D48844225D1B8F1000FB1
:1021C00014D0E068C5B22F4627F01007E76001235E
:1021D000524649462046FFF7CDFD064600BF6069DE
:1021E00000F040000028FAD0E56032E001235246BA
:1021F00049462046FFF7BEFD064600BF606900F075
:1022000040000028FAD024E0B8F1000F14D0E068B4
:10221000C5B22F4627F01007E76001235246494612
:102220002046FFF7A7FD064600BF606900F04000AA
:102230000028FAD0E5600CE00123524649462046CA
:10224000FFF798FD064600BF606900F040000028D7
:10225000FAD03046BDE8F08713B5044601231A468C
:1022600001A92046FFF7A1FF1CBD00000020084087
:1022700070B504460D4616460023324629462046D0
:10228000FFF793FF70BD00003EB5044601940020A7
:102290008DF8080003208DF8090000208DF80A0051
:1022A00001A91848FFF772FC0223182203211846DF
:1022B000FFF774FB0223D02204211846FFF76EFBC0
:1022C00001211048FFF719FD6846FFF76BFE6946CC
:1022D0000C48FFF733FE3EBD70B504460D460123A2
:1022E0002A4621460748FFF745FD70BD704770B587
:1022F00004460D4600232A4621460248FFF78CFD7E
:1023000070BD000000200C401F480088401C1E4982
:1023100008807047FEF753FBFEF7E9FF1120FFF737
:10232000CAF94FF47A71B0FBF1F4B4F1807F00D3B5
:102330001DE024F07F40401E4FF0E0214861481727
:102340000721002807DA4A07150E104A00F00F038C
:102350001B1FD55403E04A07130E0D4A135400BF48
:1023600000204FF0E02188610720086100BF602055
:1023700000F010F808B900BFFEE701E000F056F8E1
:10238000FCE7FFF7C7FF00005000081018ED00E061
:1023900000E400E010B50446BA49C86AFFF774FFCC
:1023A0000020B9490860B9490860B6490869214662
:1023B00000F0C7F928B10921B5A0FFF78DFF002073
:1023C00010BD0C21B5A0FFF787FF0120F8E70146FB
:1023D000B64802888A4207DB501AB0F5004F01DA8E
:1023E000012070470020FCE7881AB0F5004F01DBA0
:1023F0000120F6E70020F4E72DE9F04106460F46FC
:1024000090460025344604E0204600F061FD054476
:10241000641CBC42F8D96D42454502D00020BDE89D
:10242000F0810120FBE7A1480088704770B5642166
:102430009F48FFF75CFF0546002D72D0FFF7F3FFC2
:102440009C49088000240AE18F48006810B10128E7
:102450000BD197E09648005D3F2807D18B48006874
:1024600020B90C218DA0FFF737FFF6E09048015D01
:10247000864802680068401C844B18608E4881546E
:102480001846006810287CD18B48007820B10128BC
:102490003FD0022870D14DE087484078864989783E
:1024A00040EA0120854908607648806A0968484307
:1024B000824908608048807900067F49497940EA6E
:1024C00001407D49097940EA01207B49C9780843E8
:1024D0007B4908607848807A00067749497A40EA63
:1024E00001407549097A40EA01207349C9790843D6
:1024F000744908600120644908600020724908603E
:1025000072490860724908606E4800687149086045
:1025100036E000F0BCFA28B107216FA0FFF7DCFE1F
:1025200004E0A0E004216EA0FFF7D6FE002057498A
:10253000086025E06048007900065F49C97840EAF4
:1025400001405D49897840EA01205B49497840EAC9
:102550000106304600F066FB20B107215EA0FFF7C0
:10256000BBFE03E004215EA0FFF7B6FE0020474952
:10257000086005E005E0FFE700204449086000BF6F
:1025800000BF6AE04A48005D514909680844504963
:1025900008604748015D4D4802680068401C4B4B8D
:1025A0001860514881543748806A19460968884242
:1025B0001FD14D4A184601684648006800F0E9FB03
:1025C00070B9082149A0FFF787FE424800683F49DB
:1025D000096808443F49086000203C49086008E059
:1025E000092145A0FFF778FE002027490860274908
:1025F000086035480068401C334908600846006898
:102600002E490968884227D1314800684042304944
:102610000860084600682A490968884204D00A21EF
:1026200038A0FFF759FE12E02A480068411E2848EA
:10263000026824480068FFF7DFFE20B9082134A0B3
:10264000FFF74AFE03E0042125A0FFF745FE002026
:102650000D4908600D49086000BF00BF641CAC4212
:10266000FFF4F2AE0CE01349098801F57A7188B2E3
:10267000FFF7ADFE20B10020034908600349086060
:1026800070BD0000D8390010540008105800081020
:10269000494E49544552520D0A00000045534146E7
:1026A0004C4153484F530D0A0000000050000810E1
:1026B000880008105C000810EC0408107400081072
:1026C00078000810700008106000081064000810FE
:1026D0006C000810680008104552524F520D0A0055
:1026E0004F4B0D0A00000000EC00081050524F47FD
:1026F0004F4B0D0A0000000050524F474552520DFB
:102700000A000000434845434B53554D0D0A000055
:102710005645524946590D0A00000000014600BFC7
:102720000878FD4B186018460078C0F380120878CE
:10273000186018460078C0F380109042F0D1002055
:102740007047F8B506460F46F44806600020F44985
:1027500008600323F02207210120FFF71FF903235C
:10276000F02208210120FFF719F90323F0220921A3
:102770000120FFF713F90323F0220A210120FFF7BC
:102780000DF90323F0220B210120FFF707F90323A2
:10279000F0220C210120FFF701F90323F0220D2183
:1027A0000120FFF7FBF80323F0220E210120FFF7A1
:1027B000F5F80223F02204210520FFF7EFF80223A9
:1027C000F02205210846FFF7E9F80223F02206214E
:1027D0000520FFF7E3F80223F02207210520FFF789
:1027E000DDF80223F02200210520FFF7D7F80223AD
:1027F000F02201210520FFF7D1F80223F02219462B
:102800000520FFF7CBF80223F02203210520FFF774
:10281000C5F80323F02209210220FFF7BFF80323A4
:10282000F0220A210220FFF7B9F80323F0220B213E
:102830000220FFF7B3F80323F0220C210220FFF758
:10284000ADF80323F0220D210220FFF7A7F80223A1
:10285000F02200210120FFF7A1F80223F02201213C
:102860000846FFF79BF80223F02219460120FFF7E4
:1028700095F80323F02208210220FFF78FF80323A5
:10288000F02207210220FFF789F80223F022062117
:102890001846FFF783F80223F02219461846FFF77F
:1028A0007DF80223F02201211846FFF777F8022372
:1028B000F02200211846FFF771F80123F0220821C9
:1028C0000620FFF76BF80123F02207210620FFF70F
:1028D00065F80223F02210210D20FFF75FF8022394
:1028E000F0220F210D20FFF759F80323F0220021D9
:1028F0000E20FFF753F80323F02201210E20FFF7EB
:102900004DF80323F02202210E20FFF747F803239E
:10291000F02219460E20FFF741F80323F02206218A
:102920000120FFF73BF80323F02219460120FFF7AF
:1029300035F80323F02205210120FFF72FF80620A8
:10294000784908600120764908608120C1F80002BA
:1029500001207449091F0860032073490860091D9C
:102960000860091D0860091D0860091D0860091D2F
:102970000860091D0860091D0860AA2167480068F1
:1029800000F52040A0F8AA1A0020009002E000986C
:10299000401C009000980A28F9DB55215F48006828
:1029A00000F5A040A0F854150020009002E0009827
:1029B000401C009000980A28F9DB902157480068D5
:1029C00000F52040A0F8AA1A0020009002E000982C
:1029D000401C009000980A28F9DB504800680588E0
:1029E000BF2D0FD14D480068448842F25B308442CD
:1029F00008D100204D490880F02048490968088026
:102A00000020F8BDAA2045490968A1F8AA0A0020BB
:102A1000009002E00098401C009000980A28F9DB22
:102A200055203E490968A1F854050020009002E0B5
:102A30000098401C009000980A28F9DB9020374944
:102A40000968A1F8AA0A0020009002E00098401C42
:102A5000009000980A28F9DB304800680588BF2DEF
:102A60000FD12E480068448842F25D30844208D17C
:102A700001202E490880F02028490968088000209C
:102A8000BFE7F0202549096808800120B9E708B5AB
:102A900026480088012860D1AA2020490968A1F8A9
:102AA000AA0A0020009002E00098401C00900098C4
:102AB0000A28F9DB552019490968A1F854050020B6
:102AC000009002E00098401C009000980A28F9DB72
:102AD000802012490968A1F8AA0A0020009002E0AB
:102AE0000098401C009000980A28F9DBAA200B49A6
:102AF0000968A1F8AA0A0020009002E00098401C92
:102B0000009000980A28F9DB552004490968A1F8CB
:102B10005405002000900EE07C0008108000081092
:102B2000005000400C52004000640840840008102F
:102B30000098401C009000980A28F9DB1020E64914
:102B40000968A1F8AA0A0020009002E00098401C41
:102B5000009000980A28F9DB5FE0AA21DE480068AF
:102B600000F52040A0F8AA1A0020009002E000988A
:102B7000401C009000980A28F9DB5521D6480068CF
:102B800000F5A040A0F854150020009002E0009845
:102B9000401C009000980A28F9DB8021CE4800688C
:102BA00000F52040A0F8AA1A0020009002E000984A
:102BB000401C009000980A28F9DBAA21C64800684A
:102BC00000F52040A0F8AA1A0020009002E000982A
:102BD000401C009000980A28F9DB5521BE48006887
:102BE00000F5A040A0F854150020009002E00098E5
:102BF000401C009000980A28F9DB1021B6480068B4
:102C000000F52040A0F8AA1A0020009002E00098E9
:102C1000401C009000980A28F9DBAF480068FFF7D5
:102C20007DFD08BD18B50446AC480088012851D187
:102C3000AA20A9490968A1F8AA0A0020009002E088
:102C40000098401C009000980A28F9DB5520A24902
:102C50000968A1F854050020009002E00098401C8B
:102C6000009000980A28F9DB80209B490968A1F8A8
:102C7000AA0A0020009002E00098401C00900098F2
:102C80000A28F9DBAA2094490968A1F8AA0A0020B9
:102C9000009002E00098401C009000980A28F9DBA0
:102CA00055208D490968A1F854050020009002E0E4
:102CB0000098401C009000980A28F9DB50202080E2
:102CC0000020009002E00098401C009000980A2824
:102CD000F9DB5AE0AA218048006800F52040A0F8FE
:102CE000AA1A0020009002E00098401C0090009872
:102CF0000A28F9DB55217848006800F5A040A0F8C3
:102D000054150020009002E00098401C00900098AC
:102D10000A28F9DB80217048006800F52040A0F8FF
:102D2000AA1A0020009002E00098401C0090009831
:102D30000A28F9DBAA216848006800F52040A0F8BD
:102D4000AA1A0020009002E00098401C0090009811
:102D50000A28F9DB55216048006800F5A040A0F87A
:102D600054150020009002E00098401C009000984C
:102D70000A28F9DB502020800020009002E0009813
:102D8000401C009000980A28F9DB2046FFF7C6FC9B
:102D900018BDF8B504460F4615465048008801286E
:102DA0004AD1002643E0AA204B490968A1F8AA0AA3
:102DB0000020009002E00098401C009000980A2833
:102DC000F9DB552044490968A1F85405002000901A
:102DD00002E00098401C009000980A28F9DBA0202F
:102DE0003D490968A1F8AA0A0020009002E0009875
:102DF000401C009000980A28F9DB288820800020D9
:102E0000009002E00098401C009000980A28F9DB2E
:102E10002046FFF783FC08B10120F8BD20882988EF
:102E2000884201D00120F8E7AD1CA41C761C781C58
:102E3000B6EB500FB7D349E0002643E0AA2126485D
:102E4000006800F52040A0F8AA1A0020009002E0D7
:102E50000098401C009000980A28F9DB55211E4874
:102E6000006800F5A040A0F854150020009002E092
:102E70000098401C009000980A28F9DBA021164811
:102E8000006800F52040A0F8AA1A0020009002E097
:102E90000098401C009000980A28F9DB28882080C0
:102EA0000020009002E00098401C009000980A2842
:102EB000F9DB2046FFF732FC08B10120ADE7AD1C7D
:102EC000A41C761C781CB6EB500FB7D30020A4E7E7
:102ED0000146087870470000800008108400081040
:102EE0002DE9F05F0546002092469B46884606463F
:102EF000814640241BE0284641464746224600F0D2
:102F000020FA53465A46C01A914110D3114618462A
:102F1000224600F007FA2D1A67EB01084F462246B9
:102F20000120002100F0FEF917EB00094E41201EA0
:102F3000A4F10104DFDC484631462A464346BDE899
:102F4000F09F2DE9FE4F804681EA0300C00F0C463A
:102F5000009021F0004123F00045B8EB0200A941A8
:102F600005D24046214690461C460B46024623F0B9
:102F70000040104347D0270DC7F30A00C3F30A519E
:102F80000290401A019040286BDAC3F3130040F41A
:102F9000801B0098924620B10023D2EB030A63EB1A
:102FA0000B0B01985946C0F14002504600F0BAF9A7
:102FB00006460D4650465946019A00F0D2F910EBEC
:102FC00008006141002487EA115284EAE7731A433A
:102FD00040D0009A62B3019A012A4FEA075215DCE9
:102FE000001B61EB02014FF0004202EA0752CDE9FB
:102FF0000042001C41F5801132462B4600F0D2F908
:1030000003B0BDE8F08F40462146F9E7001B61EBB5
:103010000201001C41F5801300185B412018A2F545
:10302000001747EB030140EAD570B6196D4111E076
:103030006D084FEA360645EAC0754FEA0752001B95
:1030400061EB0201001C41F5801149084FEA300094
:103050000019514132462B4603B0BDE8F04F00F055
:1030600092B90098012240000023D0EB020263EBEA
:10307000E073009821464FEAE074B8EB000061EB82
:103080000401E9E783F000435BE781F0004158E782
:103090002DE9FE4F81EA030404F0004421F00041D1
:1030A00000944FF0000B23F0004350EA01045ED07F
:1030B00052EA03045BD0C3F30A54C1F30A552C440B
:1030C000A4F2F3340194A0FB0254C1F3130141F4C0
:1030D0008011C3F3130343F4801301FB024400FB8C
:1030E000034E840A970A44EA815447EA8357A4FBB3
:1030F000076802958D0A05FB07854FEA932C04FBB0
:103100000C542705029D4FEA065847EA1637B5EBDF
:1031100008056EEB070C870E920E47EA811742EA0C
:103120008312A7FB0201B6EB0B0164EB00042B0D2D
:1031300043EA0C335E1844EB1C50DA465146E7FB79
:103140000201C5F313044FEA0B3343EA14534FEA69
:103150000432019C43EA0603A4F10C040294009C8F
:10316000CDE900B400F01EF903B0BDE8F08F0020F7
:103170000146F9E72DE9F04D81EA030404F0004B24
:1031800021F0004514464FF0000A23F0004150EAB8
:10319000050220D054EA01021DD0C5F30A570246A9
:1031A000C5F31303C1F31300C1F30A5640F48015AD
:1031B00043F48013A7EB0608101BD64608F2FD382F
:1031C00073EB050002D308F1010801E092185B419E
:1031D000B8F1000F03DA00200146BDE8F08D0020B1
:1031E0004FF48011064684460EE0171B73EB05076B
:1031F00005D3121B63EB050306434CEA010C490897
:103200004FEA300092185B4150EA0107EDD152EAD3
:10321000030012D082EA040083EA0501084305D0C6
:10322000101BAB4106D20122002306E000224FF022
:10323000004302E06FF0010253101AEB06004CEB62
:10324000085110EB0A0041EB0B01BDE8F04D00F016
:103250009AB80EB540F2334102910021CDE9001138
:103260000A460B4600F09EF803B000BDC1F30A52B7
:1032700010B5C1F3130140F2FF3341F480119A42BB
:1032800001DA002010BD40F233439A42A2F23342E9
:1032900003DC524200F055F810BD904010BD00F024
:1032A000004230F000400AD0C10D01F56071C0F35A
:1032B000160042EA0151C20840071143704700203E
:1032C0000146704730B5041E71F1000404DB4FF075
:1032D0000044404264EB0101141E73F1000405DB5D
:1032E0001C464FF00043524263EB04038B4208BF7D
:1032F000824230BD30B5041E71F1000404DB4FF092
:103300000044404264EB0101141E73F1000405DB2C
:103310001C464FF00043524263EB0403994208BF3E
:10332000904230BD202A04DB203A00FA02F100204E
:1033300070479140C2F1200320FA03F319439040F3
:103340007047202A04DB203A21FA02F0002170475E
:1033500021FA02F3D040C2F12002914008431946FD
:103360007047202A06DBCB17203A41FA02F043EAE5
:10337000E07306E041FA02F3D040C2F1200291402E
:1033800008431946704710B5141E73F1000408DA9B
:10339000401C41F1000192185B411A4301D120F019
:1033A000010010BD2DE9F04D92469B4611B1B1FAD6
:1033B00081F202E0B0FA80F220329046FFF7B2FFCD
:1033C00004460F4640EA0A0041EA0B0153465A46BA
:1033D000084313D0114653EA010019D0C8F1400246
:1033E0005046FFF7AEFF05460E4650465946424648
:1033F000FFF798FF084305D0012004E02046394636
:10340000BDE8F08D0020054346EAE0762C433743C3
:103410000A986305E40AA0EB08000022FD0A44EACA
:1034200047540A3002D500200146E9E7010510198A
:103430006941DDE9084500196941BDE8F04DA2E7A1
:10344000064C074D06E0E06840F0010394E80700F1
:1034500098471034AC42F6D3FCF734FE203C001001
:10346000403C001030B51048416CC1F30130421CA3
:10347000C1F30740441CC1F30125012000FA05F304
:1034800001F0020028B101F0800050B15800424321
:1034900007E001F0800020B901F0400008B95800B1
:1034A000424344EA022030BD0000054002E008C863
:1034B000121F08C1002AFAD170477047002001E0AE
:1034C00001C1121F002AFBD17047036843F4803307
:1034D00003600A604B68DB07FCD070470000000007
:1034E000FFFFFFFFFFFFFFFFFFFFFFFF18002000B0
:1034F00030004400FFFFFFFF48004C005000540024
:1035000058005C006000FFFF68006C007000FFFF67
:1035100078007C008000840088008C00900094007B
:1035200098009C00A000A400A800AC00FFFFFFFFD3
:10353000FFFFFFFFC000C400C80000000000000043
:103540000001010100000101010101000000010171
:10355000010001010101010101010101010101015C
:103560000000000001010100000000000000010156
:103570000100000101010101010000010101000140
:10358000010101010101010101010101010000002E
:103590000001010100000000000000010101000025
:1035A000010101010100000001010100010101010F
:1035B00001010101010101010101000000000101FF
:1035C00001000000000000000101010000010101F4
:1035D00001010000000101010001010101010101DF
:1035E00001010101010101000000000101010000D1
:1035F00000000000000101010000010101010100C3
:1036000000000101010001010101010101010101AD
:1036100001010101000000000101010000000000A3
:10362000000000000000000000000000000000009A
:10363000000000000000000000000000000000008A
:103640000100000000000000000000000000000178
:103650000101000001010101010000000101010060
:10366000010101010101010101010101010100004C
:103670000000010101000000000000000000010046
:103680000001000000000001000100000000000037
:103690000000000000000000000001000000000029
:1036A0000101000000000000000000010000010115
:1036B00001010100000001010100010101010101FE
:1036C00001010101010101010000000001010100EF
:1036D00000000000000001010000000101010101E3
:1036E00000000001010100010101010101010101CE
:1036F00001010101010000000001010100000000C2
:1037000000000000000000000000000000000000B9
:1037100000000000000000000000000000000000A9
:103720000000000000000000000000000000000099
:103730000000000000000000000000000000000089
:103740000000000000000000000000000000000079
:103750000000000000000000000000000001010166
:103760000000000101010100000001010100010150
:10377000010101010101010101010101000000003D
:103780000101010000000000000001010100000033
:103790000000000000000001010100010101010121
:1037A000010101010101010101000000000101010D
:1037B0000000000000000001010100000000000006
:1037C00000000000010101000101010101010101EE
:1037D00001010101010100000000010101000000E0
:1037E00000000000010101000000000000000000D6
:1037F00000010101000101010101010101010101BB
:1038000001010100000000010101000000000000B2
:1038100000010101000000000000000000000101A3
:103820000100010101010101010101010101010189
:1038300000000000010101001B0018112D00000014
:1038400000001B0020112D00000000001500601476
:103850002D00000000001A0000122D0000000000E2
:103860001B0000112D00000000001B0028112D007E
:1038700000000000150038152D00000000001B009E
:1038800010112D0000000000150040142D00000054
:1038900000001500301415007814000015002014E5
:1038A000180000000B002D000000190000000000AF
:1038B000150010142D00000000001A0010122D0039
:1038C000000000001B0008112D00000000001A007D
:1038D00018122D0000000000150018141C00000034
:1038E0000000150048142D00000000001500001411
:1038F0002D00000000001A0008122D00000000003A
:10390000150030162D0000000000150000162D00D7
:1039100000000000150068142D00000000001500D4
:1039200030152D0000000000150038141E0000287E
:1039300000001500081416000013000015001815EB
:103940001F00002700001500281620000026000098
:10395000150020152D0000000000150028152D0071
:1039600000000000150018162D00000000001500D2
:1039700020162D000000000015000815210000256C
:103980000000150010152200002400001500081684
:103990002300002300001500101624000022000060
:1039A00015002814120000180000150070141400EF
:1039B00000190000150000151100000000000000B3
:1039C00000000000A3E1A141000000C02A64C04142
:1039D000000000C02A64B0413D7F55AA03000000EA
:1039E00001000000020000000000001CFFFFFF1C9F
:1039F00000000010FFFF001000000100FF000000A9
:103A00000004000000C201000000000000C201002C
:103A10000000000000000000000000004C50433196
:103A200038353000000000000000000000000000F9
:103A30000000000000000000000000000000000086
:103A40000000000000000000000000000000000076
:103A50000000000000000000000000005353543339
:103A60003956463332303178204C50433138353076
:103A70002048697465780000000000000000000024
:103A80000000000000000000000000000000000036
:103A900000000000000000000000000031362D6230
:103AA00069742065787465726E616C20627573202C
:103AB0006F6E204869746578206576616C20626F4E
:103AC00061726400000000000000000000000000BF
:103AD00000000000000000000000000000000000E6
:103AE00000000000000000000000000000000000D6
:103AF00000000000000000000000000000000000C6
:103B000000000000000000000000000000000000B5
:103B1000000000000000000000000000436F6E6E17
:103B2000656374205356352070696E203220746F9F
:103B3000205356312070696E203520616E64205309
:103B400056352070696E203820746F20535631200E
:103B500070696E20373B52656D6F766520616C6CC5
:103B6000206F746865722053563120616E64205353
:103B70005635206A756D706572733B436F6E6E6566
:103B8000637420466C617368204D616769632074BB
:103B90006F2058313B436F6E6E65637420424F4F08
:103BA00054312070696E7320322D332C20424F4FD8
:103BB00054322070696E7320322D332C20424F4FC7
:103BC00054332070696E7320322D332C20424F4FB6
:103BD00054342070696E7320312D320000000000D3
:103BE00000000000000000000000000000000000D5
:103BF00000000000000000000000000000000000C5
:103C000000000000000000000000000000000000B4
:103C1000000000000000000000000000AA557F3DE9
:103C2000403C00100000081088000000AC34001078
:103C3000C83C001088000810780C0000BC3400104C
:103C4000001BB70000000000001BB70000000000D0
:103C50000000000000000000000000000000000064
:103C60000000000000000000000000000000000054
:103C70000000000000000000000000000000000044
:103C80000000000000000000000000000000000034
:103C90000000000000000000000000000000000024
:103CA0000000000000000000000000000000000014
:103CB0000000000000000000000000000000000004
:083CC0000000000000000000FC
:04000005100000BD2A
:00000001FF
