:10086000E4FDFCE4FBFAD3EB9FEE6480F8EA6480DD
:100870009850070BBB00010A80EC0DBD00010CBCB9
:0508800003E1BDE9DE0B
:010885002250
:10080000E4F508F509E4F50AF50B9000007FE87EB1
:1008100003120860E508450924FF92B0E50A450B7C
:1008200024FF92B1E583458224FF92B6120860A3AB
:10083000E5826402458370D5050BE50B7002050A5D
:10084000D39401E50A6480948040BF0509E50970EE
:10085000020508D39401E5086480948040A780A035
:030000000208866D
:0C088600787FE4F6D8FD75810B020800B5
:00000001FF
