:10089B00E4FDFCE4FBFAD3EB9FEA9E50070BBB0095
:0F08AB00010A80F20DBD00010CBC03E7BDE9E4BA
:0108BA00221B
:10080000E4F5B020B20B30B308750A00750B028016
:100810002120B30B30B208750A00750B0480132039
:10082000B20B20B308750A00750B088005E4F50AC1
:10083000F50BE4F50CF50DC3E50D950BE50C950AEC
:1008400050C1E4F50EF50FAE0CE50DA80F088005BC
:10085000CEC313CE13D8F9F5098E08E50F450E70F7
:1008600007E5091392B08014E50F6401450E700787
:10087000E5091392B18005E5091392B6050FE50F5E
:100880007002050E6403450E70BD7FDC7E05120804
:0B0890009B050DE50D70A0050C809C81
:030000000208BB38
:0C08BB00787FE4F6D8FD75810F0208007C
:00000001FF
