:1008FB00E4FDFCE4FBFAD3EB9FEA9E50070BBB0035
:0F090B00010A80F20DBD00010CBC03E7BDE9E459
:01091A0022BA
:10080000C2B7C2B6C2B1C2B0D2B5D2B4D2B3D2B2FC
:1008100020B20E30B30B30B408750A00750B10808F
:100820003930B20E20B30B30B408750A00750B04D2
:10083000802830B20E30B30B20B408750A00750B57
:1008400002801730B20E20B30B20B408750A007571
:100850000B088006750A00750B01E4F50CF50DC355
:10086000E50D950BE50C950A50A6E4F50EF50F7E07
:10087000007401A80F088005C333CE33CED8F9F534
:10088000098E08E50F450E7011E508550CFEE509C7
:10089000550D4E24FFB392B08041E50F6401450E23
:1008A0007011E508550CFEE509550D4E24FFB39275
:1008B000B18028E50F6402450E7011E508550CFE65
:1008C000E509550D4E24FFB392B6800FE508550C8F
:1008D000FEE509550D4E24FFB392B7050FE50F70E5
:1008E00002050E6404450E70867FDC7E051208FB4F
:0B08F000050DE50D7002050C02085F0D
:0300000002091BD7
:0C091B00787FE4F6D8FD75810F0208001B
:00000001FF
