:10095F00E4FDFCE4FBFAD3EB9FEA9E50070BBB00D0
:0F096F00010A80F20DBD00010CBC03E7BDE9E4F5
:01097E002256
:0C097F00C2837FE87E0312095FD283224E
:10080000D2B7D2B6D2B1D2B0D2B5D2B4D2B3D2B2BC
:10081000E4F50AF50B20B20B7408250BF50BE43553
:100820000AF50A20B30B7404250BF50BE4350AF521
:100830000A20B40B7402250BF50BE4350AF50A20E7
:10084000B508050BE50B7002050AD283750C00751F
:100850000D02C3E50D950BE50C950A50B3AC0CAD3C
:100860000DAE0AAF0B12090AED4C60030208FFF54A
:100870000EF50F7E007401A80F088005C333CE3338
:10088000CED8F9F5098E08E50F450E7011E508552B
:100890000CFEE509550D4E24FFB392B08041E50FE3
:1008A0006401450E7011E508550CFEE509550D4E25
:1008B00024FFB392B18028E50F6402450E7011E564
:1008C00008550CFEE509550D4E24FFB392B6800F76
:1008D000E508550CFEE509550D4E24FFB392B7050A
:1008E0000FE50F7002050E6404450E70867FC47E0E
:1008F0000912095F12097FD2B7D2B6D2B1D2B005C0
:0A0900000DE50D7002050C0208520F
:0300000002098B67
:0C098B00787FE4F6D8FD758111020800A9
:10090A00BC000BBE0029EF8DF084FFADF022E4CCD1
:10091A00F875F008EF2FFFEE33FEEC33FCEE9DEC9A
:10092A00984005FCEE9DFE0FD5F0E9E4CEFD22EDE0
:10093A00F8F5F0EE8420D21CFEADF075F008EF2F2A
:10094A00FFED33FD4007985006D5F0F222C398FD1B
:05095A000FD5F0EA22B8
:00000001FF
