:020000040000FA
:10000000503400106101000065010000670100002C
:10001000690100006B0100006D010000000000009C
:100020000000000000000000000000006F01000060
:100030007101000000000000730100007501000064
:1000400077010000770100007701000077010000D0
:1000500077010000770100007701000077010000C0
:1000600077010000770100007701000077010000B0
:1000700077010000770100007701000077010000A0
:100080007701000077010000770100007701000090
:100090007701000077010000770100007701000080
:1000A0007701000077010000770100007701000070
:1000B0007701000077010000770100007701000060
:1000C0007701000000F002F800F03AF80AA090E88A
:1000D000000C82448344AAF10107DA4501D100F003
:1000E0002FF8AFF2090EBAE80F0013F0010F18BF96
:1000F000FB1A43F001031847E81700000818000036
:10010000103A24BF78C878C1FAD8520724BF30C843
:1001100030C144BF04680C60704700000023002415
:1001200000250026103A28BF78C1FBD8520728BF07
:1001300030C148BF0B6070471FB51FBD10B510BD63
:1001400001F08DFB1146FFF7F7FF00F074F800F0A7
:10015000CAF803B4FFF7F2FF03BC01F0A5FB0000EF
:1001600008480047FEE7FEE7FEE7FEE7FEE7FEE79A
:10017000FEE7FEE7FEE7FEE703480449024A044BB8
:100180007047000037020000503200105034001059
:1001900050320010214810B5016821F002010160C1
:1001A000AA22C2605521C16000230360C260C16001
:1001B0002023C0F820318038D0F8A0319B09DB071C
:1001C000FAD001238030C0F88C30154C4460C260F6
:1001D000C1600360C260C1600323C0F8843080380E
:1001E000D0F88840A40EE407FAD040F8803FC260FF
:1001F000C1608038D0F88810490EC907FAD010BD08
:1002000070477047704710B5FFF7C4FF00F026F83D
:10021000BDE81040642000F055B8000080C00F40D9
:100220003F000500FFF7EFFF00F00FF800F013F8B4
:1002300000F023FDFAE700F053FC20B100F063FC6E
:1002400008B100F04AFCFFF7EDFF00F029BE00F016
:1002500041BF01F067B801F0F6B800001F4801681F
:1002600001F00C010160016841F0040101604FF0F0
:100270004020002101674FF6FF12C2604161012159
:10028000416070474FF04020002141600167C1602C
:1002900041618160016170474FF040208068704784
:1002A0004FF0402189684FF00042814203D9081A7B
:1002B000904203D304E0401A904201D301207047DA
:1002C0000020704700B54FF0402189680B18184690
:1002D000FFF7E6FF0028FAD000BD0000A8C10F40DC
:1002E0007047704770470446AFF300802046FFF721
:1002F00030FF000000487047EC31001044332211F9
:10030000491E084000D001207047704710B50022F8
:1003100001E043B1521C835C8C5CA342F9D0D8B29B
:10032000E1B2401A10BD002010BD70B50024224675
:100330006FF02F060AE000BFA3F13005092D0BD89E
:1003400004EB840406EB44041C44521C835C002B25
:10035000F2D100200C6070BD012070BD10B50023EB
:10036000521E0A248B5478B93020521E88540EE055
:100370000346B0FBF4F004FB1033521E092B01D8E6
:10038000303300E037338B540AB10028F0D188189D
:1003900010BD08B56A464621F848FFF758FFF848EF
:1003A000FFF757FF6A464621F448FFF750FFF4492C
:1003B000F248FFF7ABFF08BDF0B51E4615460F46E5
:1003C000002420B1FFF7B1FF08B10C20F0BD692D6A
:1003D0000CD004213868FFF793FF78B1642D07D063
:1003E0000D24672D06D0682D06D027E00020F0BD33
:1003F000062423E0022421E003241FE03968B1F140
:10040000805F05D3DF4A8819904201D8012000E0BF
:100410000020B1F5005F05D33144B1F5002F01D8BC
:10042000012100E00021662D02D0672D04D005E0F7
:10043000084303D10E2401E000B904242046F0BD96
:10044000D14A1047602802D02038C0B2704700203F
:100450007047F0B50346002635460078FFF7F2FFF7
:100460000446401E2C284DD85B1C49E0032C27DB9A
:100470001878FFF7E7FF87005878FFF7E3FF47EAB0
:10048000101008705878FFF7DDFF07019878FFF724
:10049000D9FF47EA90004870D878FFF7D3FF0746A6
:1004A0009878FFF7CFFF47EA8010C0B288700F78C6
:1004B00091F801C030446744ED1C3E18C91C1DE092
:1004C000012C0CDB1878FFF7BDFF87005878FFF789
:1004D000B9FF47EA1010C0B208706D1C0644022C28
:1004E0000CDB5878FFF7AEFF07019878FFF7AAFFFB
:1004F00047EA9000C0B248706D1C06441B1DE41E04
:10050000002CB3DC30461560F0BD10B12030C0B215
:1005100070476020704770B505460026D0B2FFF7DF
:10052000F4FF01F8010B28E0032A05DB6B78AC78B7
:100530002878264418442AE0022A24D02B781C4626
:100540001E4428788008FFF7E0FF087028788007AD
:10055000800E00EB1310FFF7D8FF48701807800ECD
:1005600000EB9410FFF7D1FF887004F03F00FFF715
:10057000CCFFC870091DED1CD21E002AD4DC00205F
:100580000870304670BD6B7828781C4618440644C5
:10059000D7E7F0B5794D85B094356422A86801A9F4
:1005A000019BFFF709FF04000ED1686867226946C6
:1005B000019BFFF701FF0446042802D0022C02D061
:1005C00002E00E2400E00D24704871494068884222
:1005D00004D10098B0F1805F00D213240F2220468E
:1005E0002968FFF7BBFEFFF734FE002C42D1DDE99E
:1005F000007600252C463AE003AA46215F48FFF723
:1006000026FE002836D1039868B1641C02AA5B4814
:100610000099FFF71EFF05440099029801440091DC
:100620000199081A0190142C01D00198F8B9002002
:10063000039003AA46215148FFF709FE03990029B8
:10064000F7D0002816D104A94C48FFF76EFE049895
:10065000854204D14A48DDE900760A3803E048487B
:10066000CDE90076C01FFFF7F4FD00242546019870
:100670000028C1DC05B0F0BD2DE9FE433F4D00234D
:10068000943564226946A868FFF796FE040006D1F7
:100690006868662201A9009BFFF78EFE04460F22C0
:1006A0002968FFF75BFEFFF7D4FD002C37D1DDE9A9
:1006B000007800252E462FE02D2C00DD2D2422462B
:1006C0002E490198FFF727FF05442C48FFF7C1FD8D
:1006D000012824D10198761C204401900098001B29
:1006E0000090142E00D0B8B90F2224492846FFF7F5
:1006F00035FEFFF7AEFD02AA46212048FFF7A7FD11
:1007000000280CD11E491D480A39FFF7FFFD40B1F2
:10071000CDE9007800263546009C002CCCDCBDE8F5
:10072000FE83DDE900708046F4E738B51748134DC5
:100730000068943508B10F240CE000236622694656
:100740006868FFF739FE040004D1A86800785428CF
:100750000ED00C240F2220466968FFF7FFFDFFF73B
:1007600078FD002C03D1FFF78DFD0098804738BD40
:10077000009840F001000090ECE700002C300010E1
:10078000C018000000800010F11FFF1F0030001093
:100790007856341238B5F84C0023692269466068EF
:1007A000FFF70AFE48B90099A1F5B4425A3A03D1BD
:1007B000F24A0021116000E010200F226168FFF76B
:1007C000CDFDFFF746FD38BD70B5EB4D002305F1BB
:1007D00014066922311D6868FFF7EEFD05F1280453
:1007E000206070B900236922A4F10C01A868FFF70A
:1007F000E3FD206028B93220306021463046FFF703
:100800001FFE69680F222068FFF7A8FDBDE8704051
:10081000FFF71FBD2DE9F041D84FD74D3968686803
:1008200001290BD005F1140600236922311DFFF7C1
:10083000C3FD05F12804206020B114E00F22014619
:1008400010462BE0CC49002369221C31A868FFF731
:10085000B3FD206038B9C849002369222031E86817
:10086000FFF7AAFD2060C6497868884206D1706803
:10087000B0F5405F02D2132020600CE0206850B930
:1008800033203060BC494FF47A4028313061A1F107
:100890001400FFF7D5FD69680F222068FFF75EFDA1
:1008A000BDE8F041FFF7D5BC2DE9F041B34FB24EA2
:1008B0003968706801290BD006F1140400236922FD
:1008C000211DFFF779FD04F11405286020B10BE02C
:1008D0000F22014610463BE0A749002369221C3144
:1008E000B068FFF769FD2860A64A78681321904236
:1008F00003D04FEA3242904207D16068022802D109
:10090000A0681D280CD0296017E09D4A904207D1AD
:100910006068022804D1A0681D2801D0296014E075
:10092000286850B93420206093494FF47A40283128
:10093000E060A1F11400FFF783FD6068022804D194
:10094000A0681D2801D19048786071680F2228683E
:10095000FFF704FDBDE8F041FFF77BBC70B5864DA5
:10096000002305F114066922311D6868FFF724FD94
:1009700005F12804206070B900236922A4F10C015C
:10098000A868FFF719FD206028B93520306021469E
:100990003046FFF755FD69680F222068FFF7DEFC3F
:1009A000FFF757FC206808281ED174487449406836
:1009B000884206D07349884203D04FEA31418842C9
:1009C00002D100206060A06069680F226068FFF7B4
:1009D000C5FCFFF73EFC69680F22A068FFF7BEFC6C
:1009E000BDE87040FFF735BC70BD70B5624D0023A7
:1009F00005F114066922311D6868FFF7DDFC05F179
:100A000028042060B8B900236922A4F10C01A86869
:100A1000FFF7D2FC206070B900236922A4F108011D
:100A2000E868FFF7C9FC206028B93820306021460B
:100A30003046FFF705FD69680F222068FFF78EFC3E
:100A4000FFF707FC20680A2808D169680F22606850
:100A5000FFF784FCBDE87040FFF7FBBB70BD2DE9DC
:100A6000F0430746914600203A78079E0546044623
:100A700012B10022B61E28E00020BDE8F08300BFBE
:100A800000F1010C9C4522DC17F802C0BCF1200FDC
:100A900008D0B44206DA59F8208008F805C06D1C69
:100AA000641C11E007EB020C9CF801C0BCF1200FA4
:100AB00001D1B44208D159F820404FF0000C401C3D
:100AC00004F805C065466446521C8A42D8DD401CC5
:100AD000D3E762B6704772B6704742F20100004732
:100AE000254810B514303521016002214160816034
:100AF00000F11401FFF7A4FC1F482830006800280B
:100B000000D0012010BD21484069000401D501201A
:100B1000704700207047184910B51431362008601E
:100B20001431A1F11400FFF78BFC13482521283064
:100B30004068B1EB106F01D1012010BD002010BD45
:100B400070B50D4D05F11401286801F11404007809
:100B50004338152877D2DFE800F0808C838C1E8C18
:100B600086245C8C89358C7D8C1B8C8C218C0B00B5
:100B7000BDE870400DE50000C030001000300010EE
:100B800078563412214365874433221100C009206E
:100B9000BDE8704070E5BDE87040C6E5BDE8704056
:100BA000F8E5362008606749A1F11400FFF748FC1A
:100BB00069680F222068FFF7D1FBFFF74AFB6968DD
:100BC000606824E03A2008605E49A1F11400FFF754
:100BD00037FC69680F222068FFF7C0FBFFF739FB7D
:100BE00069680F226068FFF7B9FBFFF732FB69689D
:100BF0000F22A068FFF7B2FBFFF72BFB69680F22FB
:100C0000E068FFF7ABFBFFF724FB696820690F2260
:100C10001AE0372008604B49A1F11400FFF710FCDF
:100C200069680F222068FFF799FBFFF712FB207914
:100C30000F226968FFF792FBFFF70BFBA08869683A
:100C4000C0F30720E3E714E0FFF788FBBDE870403E
:100C5000FFF7FFBABDE87040B6E5BDE87040D9E5E2
:100C6000BDE8704020E6BDE8704077E6BDE8704022
:100C7000BBE60F2201206968E6E72DE9FC41324D11
:100C80000120334F28602F484FEA3748763800F16B
:100C90004E0420600F3060600F30A0600F30E060C5
:100CA0000F3020612948012600686860254801AAA4
:100CB0004621BC38FFF7CBFA002840D15FF07A011B
:100CC00054F82020401C05281170F9DB1D4A0F2024
:100CD000283A00900523A2F194000199FFF7BFFE86
:100CE0000028E3D02168097852291CD047291AD05E
:100CF0004D2918D00022572917D0432915D0002696
:100D0000144B6968994203D0B94201D0414501D1E1
:100D1000012A0CD0B94201D0414501D1012E06D0A3
:100D2000FFF70EFFC2E70122EAE70126E8E70F22FC
:100D300013206168FFF712FBFFF78BFAB6E7BDE8F7
:100D4000FC810000E830001000300010FC020000C0
:100D50002143658778563412F44A9268012A0ED0EE
:100D60004FF0A04240F480709062D16200201113D5
:100D7000536BDB0702D0401C8842F9D3704700F068
:100D800065BCEA4910B58968012913D040F4807127
:100D90004FF0A04081620121416200210213436BA8
:100DA000DB0702D0491C9142F9D300214162006B5C
:100DB00080B210BD00F01DFCFAE7DC4AD16831F8C2
:100DC000020BD160704710B50B46044606E000BF29
:100DD000FFF7F3FF9B1E24F8020B9BB2012BF7D801
:100DE000002B02D0FFF7E9FF207010BD10B50022E4
:100DF000835C8C5CA34201D0002010BD521C062AEB
:100E0000F6DB012010BD70B5C84D2878002817D03A
:100E1000C74C05F11E01A01DFFF7E8FF28B1A08C0B
:100E2000A988884203D0C3A006E0D0A004E0608C6B
:100E3000E988884204D0D8A000F074FC002070BD7E
:100E4000012070BDB94A116921F8020B1161704788
:100E500010B50446491C4FF6FE7001EA000304E099
:100E600034F8020BFFF7EEFF9B1E002BF8D110BDEC
:100E700010B500220BE0012910D00388801CDCB2E1
:100E8000C3F3072343EA0423891E1A4409B2002945
:100E9000F1DC02EB1240C04380B210BD0378EDE7F5
:100EA0002DE9F047A14FC84E00253D70306C40F051
:100EB000400030644FF4614000F0FFFBC3A000F03D
:100EC00031FCD048016841F080410160CF4CCE48F0
:100ED000A060FFF720FE50B10120B860206920F427
:100EE00070202061306C40F48070306405E0BD609B
:100EF000E06820F00F00401DE0604FF0A0444FF488
:100F00004F4020603820C4F8000164277F1EFDD1C7
:100F10004FF00208C4F800803020606040F2F250C8
:100F2000606143F20F7020611226E6607001C4F820
:100F300000014FF400410020FFF70EFF4FF480192D
:100F40000020FFF71EFF000402D57F1C4F45F7D39A
:100F500048F2180020620020401C4028FCD3206A80
:100F600020F40040206265620220FFF70AFF074676
:100F70000320FFF706FF4FF6F0710840A44940EA4E
:100F8000074088420DD14FF440510020FFF7E4FEA6
:100F900000270120FFF7F5FE800602D47F1C4F4595
:100FA000F7D300274FF480391020FFF7EAFEC1077E
:100FB00002D17F1C4F45F7D341070CD5616841F042
:100FC00001016160D4F8001141F48061C4F800119E
:100FD0001521A16000E0A660800701D5A56102E0AF
:100FE0004FF48070A06141F21F0020644EF21200A5
:100FF000606441F60C50A0644C480C211830854BBD
:1010000001701D2141708670E021C1701F210171A6
:1010100010214171804E8149002000BFC0EB0012B9
:1010200003EBC20701EBC002401CC2F8C850C2F873
:10103000CC50C2E900761928F0D3C4F808117748DB
:10104000C830C4F80C011820C4F81001C4F81851B5
:10105000734B0020C0EB001203EBC20601EBC00291
:10106000C2E9646501EB8002401CC2F8A851032864
:10107000F0D368482438AC34206766480C38606781
:10108000C4F87880E5672020C4F8540165498820B9
:101090000860091D4FF6FF700860606D40F00300A6
:1010A000606554F8AC0D40F0010020602048082134
:1010B00078300173457345218173C573D8218174DC
:1010C000F421C17405754575802181751121C175A3
:1010D000BDE8F0872DE9F05F91460E468046002777
:1010E000FFF7DAF8DFF844A04EF6602101444FF034
:1010F000A04BCAF814109FE038464B497F1C884229
:101100000DDD31480027416D490604D5C16D41F020
:101110004001C16503E0816D41F040018165DAF86D
:101120001400FFF7BDF800B180E085E00830001042
:10113000FC3000105061636B65742066726F6D2027
:10114000646966666572656E742044657374696E61
:101150006174696F6E20506F72743A2046696C74C6
:1011600065726564206F7574210A00004672616DB6
:10117000652066726F6D20646966666572656E745F
:10118000204D41433A2046696C7465726564206F56
:101190007574210A000000005061636B657420744F
:1011A0006F20646966666572656E7420536F757230
:1011B000636520506F72743A2046696C746572657D
:1011C00064206F7574210A0000C0092045746865A9
:1011D000726E6574205365636F6E6461727920422C
:1011E0006F6F746C6F616465723A205461726765E9
:1011F0007420696E206465627567206D6F64650A8E
:1012000000000000C4C00F400501155000C002409E
:10121000905C0020B4410010770000800040001076
:101220006C4D0010E40F0050400D0300B9A000F019
:1012300079FA0120BDE8F09FDBF818215846DBF869
:1012400014118A423FF458AFD0F81841BE4800EB61
:10125000C400D0F8C8100A0209D5BCA000F062FA98
:10126000641C192C00D10024CBF81841E4E7C1F329
:101270000A01C91E8DB20168CAF80C102946B74888
:10128000FFF7A1FD641C192C00D10024CBF81841F4
:10129000FFF7B9FD0028CFD0A5F12A00B04202DD4A
:1012A00006F12A0085B2AD49A5F12A022A3140464D
:1012B00000F05EFA002004E018F800100D290ED0AE
:1012C000401CB042F8D300BFC9F80000A4A000F051
:1012D00029FA3C2D07D9A4A000F024FA16E0002238
:1012E00008F80020F0E700252C460BE018F8040071
:1012F00000F035FA6D1C102D03D100259DA000F0E3
:1013000011FA641CD9F80000A042EFD89BA000F0AD
:1013100009FAFEF7C1FF4EF6602101440020CAF829
:10132000141087E72DE9F0478C4C002106467834ED
:101330006218705C82F82A00705C68B1491C46290A
:10134000F6DBDFF85082891C93A0A8F8021000F0A9
:10135000E9F900252F4611E060180D2200F82A2F28
:101360000A224270EDE7F05D00F0F9F96D1C102DD6
:1013700003D100257FA000F0D5F97F1CB8F802004A
:10138000801E8742EFDB7DA000F0CCF94FF0A04932
:10139000D9F828616C48714D00EBC600AD1DD0F83E
:1013A0009011C8F81010B8F8021047462A3141F0E1
:1013B0008041C0F894112868C5F87200A888A5F883
:1013C0007600D8F81800A867B8F81C00A5F87C00CB
:1013D000B8F802004FF000081C30C0F3072141EAC2
:1013E0000020208205F18C0069694160A9690160D3
:1013F0000C38A4F8188014218246FFF739FDC0F399
:10140000072C14215046FFF733FD4CEA00202083BF
:10141000A88BA084E88B6084788801460830C0F3EC
:10142000072242EA0020E084A4F828802A3105F14E
:101430007200FFF70DFD761C032E00D10026C9F8BF
:101440002861012044E630B5524C89B0002020705C
:1014500008AA01216846FFF73DFE0028F8D19DF853
:1014600000003F28F4D13D4DA88CA080688CE0801E
:101470004BA000F057F9A088000A00F05FF920792E
:1014800000F05CF948A000F04DF9E088000A00F097
:1014900055F9A07900F052F92FA000F043F9D5F8E2
:1014A0000600C4F81E006889608442A000F03AF982
:1014B000384D1E35687900F041F9287900F03EF981
:1014C000E87800F03BF9A87800F038F9687800F087
:1014D00035F9287800F032F91FA000F023F93948D7
:1014E000FFF720FF08AA0F216846FFF7F3FD0D2242
:1014F000344904A800F03CF904A96846FEF706FF49
:101500000028A5D12F48C01EFFF70CFF0120207036
:1015100009B030BD54696D6564206F7574202D204D
:10152000676F696E67206261636B20746F206C6FF8
:101530006F6B696E6720666F722068616E64736896
:10154000616B650A000000000040001052782043E3
:101550005243206572726F720A000000FC30001066
:1015600052783A20200000002E2E2E446174612E05
:101570002E2E00000D0A2020202020000D0A2D2DE7
:101580002D2D2D2D2D2D2D2D2D2D2D2D2D2D2D2D8B
:101590002D0D0A000830001054783A202000000079
:1015A000446573743A2000000A536F757263653A9C
:1015B000200000000A536F75726365204D41433A65
:1015C00020000000D0180000C1F12002904010B5AA
:1015D000354A4FF40074531508E0002801DA946589
:1015E00000E0D4659365D3654000491E0029F4D11D
:1015F00010BD70B52C4D0446286C40F40070286472
:1016000020214FF0FF30FFF7DFFF04210620FFF716
:10161000DBFF05210120FFF7D7FF05212046FFF75B
:10162000D3FF00F038F80024204669154FEA44043F
:10163000A965E9656A6D920501D544F00104401C75
:101640001028F3D300F027F8204670BD70B504468B
:1016500015480D46016C41F40071016420214FF0E2
:10166000FF30FFF7B1FF04210520FFF7ADFF052193
:101670000120FFF7A9FF05212046FFF7A5FF022162
:101680000846FFF7A1FF10212846FFF79DFFBDE8A0
:101690007040AFF300800448016C21F400710164D4
:1016A00041158165C165704700C009200A2801D233
:1016B000303000E03730C0B270472949B1FBF0F15B
:1016C0002848026822F0C0020260026842F040022C
:1016D00002602548832202730170090A0171017BAF
:1016E00021F080010173012101722048016841F05D
:1016F0005001016070471C48017DC90701D0007886
:1017000070474FF0FF30704717490A2804D10A7D0F
:101710009206FCD50D220A700A7D9206FCD5C0B255
:101720000870704710B504460023E05CFFF7ECFF3B
:10173000E05C002801D05B1CF7E710BD00B5034654
:101740000009FFF7B3FFFFF7DFFF03F00F00FFF71C
:10175000ADFFFFF7D9FF20205DF804EBD4E7D3E716
:1017600000093D00A8C10F4000C0004000C0024079
:10177000032A40F2308010F0030C00F0158011F8BD
:10178000013BBCF1020F624498BF11F801CB00F895
:10179000013B38BF11F8013BA2F1040298BF00F8E9
:1017A00001CB38BF00F8013B11F0030300F02580A6
:1017B000083AC0F0088051F8043B083A51F804CBCD
:1017C000A0E80810F5E7121D5CBF51F8043B40F893
:1017D000043BAFF30080D20724BF11F8013B11F89E
:1017E00001CB48BF11F8012B24BF00F8013B00F8E2
:1017F00001CB48BF00F8012B704710B5203AC0F06C
:101800000B80B1E81850203AA0E81850B1E8185001
:10181000A0E81850BFF4F5AF5FEA027C24BFB1E83E
:101820001850A0E8185044BF18C918C0BDE81040AF
:101830005FEA827C24BF51F8043B40F8043B08BFB8
:101840007047D20728BF31F8023B48BF11F8012B7F
:1018500028BF20F8023B48BF00F8012B70477546AF
:10186000FEF748FDAE4605006946534620F00700E6
:10187000854618B020B5FEF77FFCBDE820404FF04C
:1018800000064FF000074FF000084FF0000B21F06A
:101890000701AC46ACE8C009ACE8C009ACE8C00937
:1018A000ACE8C0098D46704701491820ABBEFEE781
:1018B0002600020070474F4B00524553454E4400EE
:1018C00053796E6368726F6E697A6564004F4B007E
:1018D00053796E6368726F6E697A65640000000008
:1018E00000190000003000102C0000000001000072
:1018F0002C1900002C300010240400001C010000F2
:1019000000000000000000000000000000000000D7
:1019100000000000000000000000000000000000C7
:0C192000000000000000000000000000BB
:04000005000000C532
:00000001FF
