:020000041A00E0
:10000000A83B0010B101001AB901001ABB01001A87
:10001000BD01001ABF01001AC101001A5A5A5A5AEA
:10002000CB01001ACB01001ACB01001AC301001A40
:10003000C501001ACB01001AC701001AC901001A34
:10004000CD01001ACD01001ACD01001ACB01001A12
:10005000CD01001AFB02001ACD01001ACD01001AD1
:10006000CD01001ACD01001ACD01001ACD01001AF0
:10007000CD01001ACD01001ACD01001ACD01001AE0
:10008000CD01001ACD01001ACD01001ACD01001AD0
:10009000CD01001ACD01001ACD01001ACD01001AC0
:1000A000CD01001ACD01001ACD01001ACD01001AB0
:1000B000CD01001ACD01001ACD01001ACD01001AA0
:1000C000CD01001ACD01001ACD01001ACD01001A90
:1000D000CD01001ACD01001ACD01001ACD01001A80
:1000E000CD01001ACD01001ACD01001ACD01001A70
:1000F000CB01001ACD01001ACD01001ACD01001A62
:10010000CB01001ACD01001ACD01001ACD01001A51
:10011000CD01001A00F002F800F03AF80AA090E8C9
:10012000000C82448344AAF10107DA4501D100F0B2
:100130002FF8AFF2090EBAE80F0013F0010F18BF45
:10014000FB1A43F001031847582D0000782D0000DA
:10015000103A24BF78C878C1FAD8520724BF30C8F3
:1001600030C144BF04680C607047000000230024C5
:1001700000250026103A28BF78C1FBD8520728BFB7
:1001800030C148BF0B6070471FB51FBD10B510BD13
:1001900000F0E8F81146FFF7F7FF02F011F900F060
:1001A00096F803B4FFF7F2FF03BC01F066F8000015
:1001B0000A4880470A480047FEE7FEE7FEE7FEE7F9
:1001C000FEE7FEE7FEE7FEE7FEE7FEE7FEE70000EC
:1001D00004480549034A054B704700000112001A04
:1001E0001501001AA8380010A83B0010A83800100C
:1001F000032A40F2308010F0030C00F0158011F853
:10020000013BBCF1020F624498BF11F801CB00F82A
:10021000013B38BF11F8013BA2F1040298BF00F87E
:1002200001CB38BF00F8013B11F0030300F06880F8
:10023000083AC0F0088051F8043B083A51F804CB62
:10024000A0E80810F5E7121D5CBF51F8043B40F828
:10025000043BAFF30080D20724BF11F8013B11F833
:1002600001CB48BF11F8012B24BF00F8013B00F877
:1002700001CB48BF00F8012B70474FF0000200B5DA
:10028000134694469646203922BFA0E80C50A0E8B9
:100290000C50B1F12001BFF4F7AF090728BFA0E867
:1002A0000C5048BF0CC05DF804EB890028BF40F833
:1002B000042B08BF704748BF20F8022B11F0804F75
:1002C00018BF00F8012B704770477047704710B592
:1002D0000446AFF300802046BDE81040FFF761BF41
:1002E000004870474438001010B500F035F900F0B0
:1002F000A3F800F0FBF810BD70477047443322119B
:1003000010B5203AC0F00B80B1E81850203AA0E8B0
:100310001850B1E81850A0E81850BFF4F5AF5FEAE4
:10032000027C24BFB1E81850A0E8185044BF18C997
:1003300018C0BDE810405FEA827C24BF51F8043B3E
:1003400040F8043B08BF7047D20728BF31F8023B92
:1003500048BF11F8012B28BF20F8023B48BF00F826
:10036000012B70477546FFF7BBFFAE460500694697
:10037000534620F00700854618B020B5FFF728FF48
:10038000BDE820404FF000064FF000074FF0000896
:100390004FF0000B21F00701AC46ACE8C009ACE817
:1003A000C009ACE8C009ACE8C0098D467047000040
:1003B00010B50F48FFF7A0FF42220521092000F0E9
:1003C000B7FCD2220521022000F0B2FC4122032119
:1003D000062000F0ADFC00F011F800BF05480068F1
:1003E00040F004000449C1F82C0100BF10BD00001A
:1003F00000400F402C3104400030044030B5002054
:1004000011E00A490A4C225C0A4C235C01F50054B5
:1004100054F8224001259D402C4301F5005545F834
:10042000224000BF401C0828EBD330BD00400F40E5
:10043000CC2B001AD42B001A70B52748274AB0FBE2
:10044000F2F1274A126822F4704242EA0132254B47
:10045000C3F82021224A121D126822F4704242EA97
:100460000132C3F8242100BF01220146062000F01A
:100470007FFC002411E01C4D05EB8405EB781A4D40
:1004800005EB8405AA78184D05EB84056978164DAF
:1004900015F8240000F052FA641C042CEBD3114828
:1004A000406820F00C000F4948600846406840F062
:1004B0000300486004220921104600F063FA00237B
:1004C00001221021052000F039FA022209211046EC
:1004D00000F058FA70BD00000095BA0A7037480164
:1004E0002031044000300440E42B001A10B547F2DC
:1004F0007770134908600223012211466F2000F033
:100500009DF81048006840F480300F49C1F82C0174
:10051000662000F051F800221146012000F030FB67
:100520000A4800F01FFB0A4800F040FB0948D0F8D9
:10053000000240F400200749C1F8000210BD00008D
:10054000006D08402C310440003004400C2E001A8D
:10055000802E001A0050004010B57C210D4800F09C
:10056000EFFB002004460DE00B4A02EB84025078BA
:10057000094A02EB84025188084A42F8201000BF61
:10058000601C0446042CEFD30621054800F0D8FB7C
:1005900010BD00000C2C001AFC2D001A006C084045
:1005A000F42B001A0348406C40F0010001494864F4
:1005B0007047000000000540B0F5A17F0ADD0A4940
:1005C000A0F2431251F8321041F00103064941F8FC
:1005D000323007E0054951F8301041F0010203497B
:1005E00041F830207047000000210540001105400F
:1005F00008B54FF47A7100910D49886920F0020026
:100600008969814201D00A49886120F001000949C5
:100610000968094A914201D340F004000449886105
:1006200000BF00994A1E00920029FAD108BD0000BF
:1006300000000540E02B001A002D310170B5044682
:10064000012009B140F002000AB140F00400022B81
:1006500001D140F02000B4F5A17F05DD044DA4F2E6
:10066000431645F8360002E0024D45F8340070BDEF
:10067000002105400011054010B502461C20002154
:1006800014E001EB41030F4C34F8133093420CDCBF
:1006900001EB410304EB43035B88934205DB01EB71
:1006A000410304EB4303187900E0491C1C2807D1DF
:1006B00001EB4103034C04EB43031B798342E0D17C
:1006C00010BD0000342B001A01461C2901DB11204B
:1006D0007047054850F8212002F0010008B11120B0
:1006E000F6E7C2F30460F3E75C00054070B504462A
:1006F0002046FFF7E9FF054600F002F870BD000054
:1007000070B504460025122C51D2DFE804F0090C24
:100710000E1620502326292C505030363C42484E8D
:100720004FF4004544E0244D42E02448006800F0C6
:100730000700042800D0224D3AE02048006800F06D
:100740000700042801D01E4D00E01E4D30E01E4879
:1007500005682DE01D4805682AE01D48056827E06A
:100760001B48456824E000F081F8054620E00021A0
:10077000204600F02FF805461AE00121204600F03F
:1007800029F8054614E00221204600F023F805462A
:100790000EE00321204600F01DF8054608E0042184
:1007A000204600F017F8054602E0002500E000BFF3
:1007B00000BF284670BD0000001BB7002C3104406C
:1007C00040787D0180F0FA02DC2B001AE02B001A41
:1007D000540000102DE9F04107460C46204600F079
:1007E0001DF80646204600F009F805463046FFF79A
:1007F00087FF691CB0FBF1F0BDE8F08101460448B9
:1008000050F8210003A2525C02EA900070470000F9
:1008100048000540030F0F0FFF0000000146064B84
:1008200003EB8100826C02F0010008B111207047D7
:10083000C2F30460FBE700000000054070B56620CD
:1008400000F050F8044607480068C0F3C265012D67
:1008500005D10548006800F4803000B164082046E6
:1008600070BD0000781405402C3104402DE9FE4F86
:100870001A48446CC4F30360FFF742FF074618A010
:10088000006800901548006C00F0010010B90020CD
:10089000BDE8FE8FC4F30748C4F30139C4F3012A4D
:1008A000C4F3C01BC4F38010029008F1010509F1E4
:1008B00001061DF80A000190BBF1000F01D102985A
:1008C00018B1B7FBF6F06843E2E701984000B5FBCA
:1008D000F0F0B7FBF6F14843DAE70000000005400E
:1008E000010204082DE9F0410446B4F5A17F05DDBD
:1008F0001048A4F2431150F8315002E00E4850F86D
:10090000345005F0010080B12046FFF7B5FE804667
:100910004046FFF7EBFE0646C5F3421008B9012733
:1009200000E00227B6FBF7F600E000263046BDE8FF
:10093000F0810000002105400011054070B504461B
:100940000E4E06EB8405E86D1C2C10DA112914D02C
:100950000B4D28400AB140F400600BB140F001009B
:1009600040EA0160054D5C3545F8240005E040F0A3
:100970000106024D5C3545F8246070BD000005405D
:10098000FEF7FFE030B50F4D05EB8004A36C521E5F
:10099000112910D00CA4245C0D4D45EA8404A34316
:1009A00043F4006444EA016444EA8205054C483497
:1009B00044F8205005E043F00105024C483444F867
:1009C000205030BD00000540030F0F0FFF00000056
:1009D0000100001F2DE9FF5F894617460098FFF7C9
:1009E0008FFE8046781C002832D0B7FBF8F44A46C8
:1009F00021464046039B00F0A5F80546641C4A4684
:100A000021464046039B00F09DF8064645B13EB99D
:100A1000641E2146009800F03DF804B0BDE8F09F48
:100A20002DB926B12146009800F034F8F5E77DB1E4
:100A300076B1781BF11B884205D9641E21460098C7
:100A400000F028F8E9E72146009800F023F8E4E7F1
:100A5000B9FBF8F40398B0FBF8FB4FF0000A0CE088
:100A60004A4621464046039B00F06CF8054605B116
:100A7000A2465C4500D301E0641CF1E700BFBAF177
:100A8000000F04D05146009800F004F8C5E700209C
:100A9000C3E700002DE9F84F80460E46FA2000908B
:100AA0004046FFF72DFE05464FF00009CA460027D5
:100AB0004FF0010B1F48446C7543A6F1010924F067
:100AC000F85444EA08641C4804401C48854213D288
:100AD00002E07F1C4FEA4B0B4FEA4B00684317497B
:100AE0008842F6D34FEA094040EA0A3040EA07203C
:100AF00040F04000044311E01148854209D24FEA1A
:100B0000094040EA0A3040EA072040F0C0000443B0
:100B100004E0FFF747FD0020BDE8F88F24F0010056
:100B20000449486400BF0098411E00910028FAD192
:100B30002846F1E7000005403DCC00FF005F4C096E
:100B400000D0121330B5044601FB04F0904204D3E8
:100B5000034DA84201D8984200D9002030BD0000C2
:100B60000095BA0A70B50446FFF768FE05462A46A6
:100B70002146024801F099F870BD00000050004085
:100B800010B50AB1012300E0002309B1012400E0FF
:100B9000002443EA0423044CA36008B1012300E0CD
:100BA0000023014C236010BD0050004070B5044686
:100BB000FFF744FE05462A462146024801F069F93E
:100BC00070BD00000050004010B5044601231A46D5
:100BD00019466420FFF732FD00BF162000F092F89E
:100BE00000BF00BF162000F071F80028FAD100BF46
:100BF0004FF48050005940F001014FF480500151F2
:100C000000BF00BF01220421204600F039F80D4941
:100C10004FF4805001510C4820600C486060C10ABC
:100C200041F218000151005940F0080141F218004A
:100C300001510749001F0151002141F21C000151DF
:100C400010BD00008001020000EC060001000080E1
:100C5000FFE7010021B1026842F40062026003E094
:100C6000026822F400620260704721B1026842F417
:100C70008042026003E0026822F480420260704712
:100C800010B5D30243EA8103014C236010BD00007C
:100C900050000010044A126842EA8112026102699F
:100CA00042F001020261704750000010064B1B68C1
:100CB00043EA811343F0020303614261036943F095
:100CC00001030361704700005000001010B5014699
:100CD0000B4B0846CA1701EBD262521103EB820399
:100CE0000A46C81701EBD0604011A1EB4014012067
:100CF000A0401C68204008B9012010BD0020FCE77E
:100D00005031054010B5094A0146C31700EBD363C3
:100D10005B1102EB8302C31700EBD3635B11A0EB03
:100D200043140123A340136010BD000000310540AF
:100D3000024B03EBC01343F82120704700600840CA
:100D400070B5024600200EE012F8203002EB80065B
:100D5000747802EB80067588044E06EBC31646F8DD
:100D6000245000BF401C8842EED370BD0060084094
:100D70002DE9F04106460D461746062E01D1FFF734
:100D800037FC0023012231460420FFF7D7FD1B4822
:100D900085420BD903461A4619493046FFF71AFE19
:100DA0000023012209210420FFF7C8FD2B462A4613
:100DB000144801683046FFF70DFEE7B1002418E043
:100DC000DFF844C00CEB840C9CF80330DFF838C02B
:100DD0000CEB840C9CF80220DFF82CC00CEB840C8C
:100DE0009CF80110DFF820C01CF82400FFF7A6FDD6
:100DF000641C0F2CE4D3BDE8F081000080778E06E0
:100E0000001BB700E02B001A8E2B001A0146084A7F
:100E1000914201D1A4200AE0064A914201D1A320C7
:100E200005E0054A914201D1852000E08420704709
:100E300000400C4000300C400050084070B50446A3
:100E40002046FFF7E3FF0546FFF7B6FB70BD000045
:100E500070B504461848006818490968884225DAC0
:100E600017481849096800EB4110006800F000407D
:100E7000E0B913481349096800EB41108568104830
:100E80001049096800EB41100068C0F30B002060B6
:100E90000A4801680B48006800F002FF0949086031
:100EA00005480068401C0449086002E000202060FA
:100EB0000025284670BD0000080000100C0000103E
:100EC000FC0000100400001070B504460D462248D6
:100ED000006800283FDD21482149096800EB4110E6
:100EE0008460C5F30B0040F480401C491C4A126822
:100EF00001EB421148601B480068401E1849096810
:100F000088420DD115481649096800EB4110406828
:100F100040F400401149124A126801EB4211486046
:100F20004FF000400D490E4A126801EB4211086073
:100F300009480068401E084908600A4801680848D6
:100F4000006800F0ADFE0649086000BF01210648B8
:100F5000816000BF00BF70BD08000010FC000010E1
:100F6000000000100C0000100010014010B51248E5
:100F7000006800281CDD11481149096800EB411088
:100F8000006800F0004098B90C480D49096800EB72
:100F9000411084680B4801680948006800F080FE31
:100FA0000749086004480068401E0349086000E0E3
:100FB0000024204610BD0000180000107C00001026
:100FC000140000101C00001070B504460D4629489E
:100FD00000682949096888424ADA28482849096886
:100FE00000EB41108460C5F30B002449244A1268C9
:100FF00001EB4211486023482049214A126801EB65
:10100000421108601C480068401E1D49096888425A
:101010000DD11A481A49096800EB4110006840F4E4
:1010200000101649164A126801EB42110860134875
:101030001349096800EB4110006840F000410F4877
:101040000F4A126800EB421001600A480068401C19
:1010500008490860084801680948006800F020FE57
:101060000749086000BF01210748416000BF00BF79
:1010700070BD0000180000101C0000107C00001063
:101080001000001000001030001001402DE9F04168
:101090000646884614461F464FEA48113046FFF779
:1010A000ECF879013046FFF7E8F80020274908609E
:1010B0002749086027480760274807602748C0F885
:1010C00000800020264908602649086026490860FB
:1010D00000250AE0002006EB45110860681C06EBBD
:1010E000401006EB4511C8606D1C4545F2DBA8F1C8
:1010F000010006EB4010C66000250FE0002004EB65
:1011000045110860681C04EB401004EB4511C860F1
:101110004FF4804004EB451148606D1CBD42EDDB8F
:10112000781E04EB4010C460781E04EB4010406849
:1011300040F40041781E04EB4010416000BF0B48B2
:101140000661C46000BFBDE8F0810000040000102B
:10115000000000100C000010080000101C0000101F
:1011600010000010140000101800001000100140C2
:1011700010B508241148FFF761FE07200F49C86029
:1011800000BF00BF0846406840F00100486000BF53
:101190008420FFF7A7FBC0080949086008460068DB
:1011A0004FF47A71B0FBF1F006490860044800681A
:1011B0000549B0FBF1F00549086010BD004008404A
:1011C000600000106400001040420F006800001032
:1011D00000BF01488068704700400840014602484F
:1011E0000068B1FBF0F070476400001010B5692092
:1011F000FFF778FB0149086010BD00005C0000109B
:1012000010B5034C03482060FFF76EF810BD0000D6
:1012100008ED00E00000001A0348406820F00100DB
:1012200001494860704700000040084010B5FFF7D2
:10123000CFFF0446FFF7D2FF10BD70B50446FFF79D
:10124000C7FF0646FFF7CAFF0546A54207D9281B78
:10125000B0F1004F01D2012070BD0020FCE7601BFF
:10126000B0F1004F01D30120F6E70020F4E710B5FC
:10127000FFF77EFFFFF7ACFF10BD00BF30BFFDE7FB
:1012800030B502460B46002400210EE0505C3028A9
:1012900008DB505C392805DC505C30380A2504FB3B
:1012A000050401E0012030BD491C505C0028EDD14F
:1012B0001C6000BFF7E7000010B533490023692226
:1012C0004868324901F08AF83149086008460068E8
:1012D000B0B92D490023692288682C49091D01F005
:1012E0007DF82B4908600846006848B92649002364
:1012F0006922C8682549083101F070F8244908605E
:101300002348006840B935202049091F086020495A
:101310001E48001F00F0B8FC1B4A51681C4A1068A8
:101320000F2200F08BFC044601F07EF9184800689B
:10133000082827D117480068174988420AD015485D
:1013400000681649884205D0124800684FEA3141CA
:10135000884203D100200E49486088600A4A5168DB
:101360000B4A50680F2200F069FC044601F05CF95A
:10137000054A5168064A90680F2200F05FFC044657
:1013800001F052F910BD000008380010203800109C
:10139000303800104C000010785634122143658715
:1013A00030B5042100205022034642EA0304084DD0
:1013B00005EBC11545F8204000BF00BF0548006897
:1013C00000F0010008B1012030BD0020FCE7000062
:1013D0000060084008610F4070B503461A460025BA
:1013E0000DE0012901D1147800E01488E0B2C4F3C3
:1013F000072646EA00200544921C881E01B20029F7
:10140000EFDC05EB1540C04380B270BD00B58DB078
:101410000020194908702BE018481949194A1A4B3D
:10142000CDE90032CDE90210184B0CAA012108A821
:1014300000F053FBE0B99DF820003F2818D1144874
:1014400001F0F2F80CAA0F2108A800F035FB0D22DC
:101450000F4904A8FEF7CCFE04A908A801F09AF9E8
:1014600030B90C4801F0E0F801200349087000E0B1
:10147000D2E700BF0DB000BD4400001040000010D6
:101480003C000010300000102C000010280000105C
:10149000082B001A152B001A10B5FFF767FD10BDB9
:1014A00010B52449002369224868234900F096FFBB
:1014B000224908600846006848B91E49002369228D
:1014C00088681D49091D00F089FF1C4908601B48F8
:1014D000006848B9174900236922C86816490831CD
:1014E00000F07CFF154908601448006840B93820B6
:1014F0001149091F086011490F48001F00F0C4FB83
:101500000C4A51680D4A10680F2200F097FB044600
:1015100001F08AF8094800680A2809D1054A51688B
:10152000064A50680F2200F089FB044601F07CF85F
:1015300010BD0000083800102038001030380010AE
:1015400030B504460B46002B02DA5842001230BD7B
:101550000848B4FBF0F101FB03F04FF47A75B0FBDF
:10156000F5F1FF31090A914201D9881AEFE700200D
:10157000EDE7000040420F0010B52F480068012839
:1015800009D12E480F224168104600F057FB04464F
:1015900001F04AF84FE029490023692248682849A8
:1015A00000F01CFF274908600846006848B9234935
:1015B0000023692288682249091D00F00FFF214994
:1015C00008602048006848B91C4900236922C8689F
:1015D0001B49083100F002FF1A4908601A480068E8
:1015E0001A49884208D11648001F406818498842A5
:1015F00002D21320134908601248006888B93320CA
:101600000F49091F0860134800684FF47A71B0FB56
:10161000F1F00B49091F08610A490948001F00F051
:1016200033FB064A5168074A10680F2200F006FB98
:10163000044600F0F9FF10BD480000100838001003
:1016400020380010303800104C000010785634124A
:101650000060001A5C0000100146602901D10020E2
:101660007047A1F12000C0B2FAE730B5024600256C
:10167000107860281BD15078202815D190786028E8
:1016800012D1D07820280FD11079A0F120040023A6
:1016900004E0581D105C203805445B1CA342F8DBB5
:1016A000201D0860284630BD00200860FBE70020B0
:1016B000086010782038F6E7014609B960207047C5
:1016C00001F12000C0B2FAE7FFF790FDFEF770FECF
:1016D00000F014FC03E0FFF799FE00F0A7FCFAE726
:1016E00010B549480068012809D148480F224168CF
:1016F000104600F0A3FA044600F096FF82E043494A
:10170000002369224868424900F068FE41490860A8
:1017100008460068B0B93D490023692288683C4901
:10172000091D00F05BFE3B4908600846006848B9A7
:10173000364900236922C86835490C3100F04EFE55
:1017400034490860344800683449884205D032483A
:1017500000684FEA3141884216D12D48001F406889
:10176000022804D12A48001F80680E281ED028486D
:10177000001F406820B92648001F80680E2815D039
:1017800013202449086011E0234800682449884256
:101790000CD11F48001F4068022807D11C48001FB9
:1017A00080680E2802D013201A4908601948006882
:1017B00088B934201649091F08601A4800684FF498
:1017C0007A71B0FBF1F01249091FC8601149104845
:1017D000001F00F059FA0E48001F4068022807D188
:1017E0000B48001F80680E2802D10F480A49086084
:1017F000064A5168074A10680F2200F01FFA044693
:1018000000F012FF10BD0000480000100838001062
:1018100020380010303800104C000010214365873C
:10182000785634125C0000104433221170B505461E
:101830005D4800680478A4F1430015287ED2DFE8F3
:1018400000F09AA69DA611A6A0176DA6A333A69791
:10185000A60EA6A614A60B0001F0CAF8A1E000F09F
:1018600073FE9EE000F0BAF99BE000F0DDFF98E027
:1018700036204E4908604E494C4800F005FA4A4A65
:1018800051684B4A10680F2200F0D8F9064600F064
:10189000CBFE454A5168464A50680F2200F0CEF907
:1018A000064600F0C1FE7CE03A204049086040490D
:1018B0003E4800F0E9F93C4A51683D4A10680F2261
:1018C00000F0BCF9064600F0AFFE374A5168384ACE
:1018D00050680F2200F0B2F9064600F0A5FE324A29
:1018E0005168334A90680F2200F0A8F9064600F0CC
:1018F0009BFE2D4A51682E4AD0680F2200F09EF9B7
:10190000064600F091FE284A5168294A10690F22C4
:1019100000F094F9064600F087FE42E037202349A4
:1019200008602349214800F0AFF91F4A5168204A56
:1019300010680F2200F082F9064600E027E000F070
:1019400073FE194A51681A4A10790F2200F076F98D
:10195000064600F069FE144A5168154A9288C2F39F
:1019600007200F2200F06AF9064600F05DFE18E03D
:1019700000F0A8FD15E0FFF7FFFD12E0FFF7B0FE55
:101980000FE0FFF799FC0CE0FFF78AFD09E006483D
:101990000F224168012000F051F9064600F044FE94
:1019A00000BF00BF70BD0000083800101C380010D8
:1019B0003038001010B50348406840F00104A047DB
:1019C00010BD00000040001A30B5014608782A4DCD
:1019D0002D78A84218D14878274D6D78A84213D1A8
:1019E0008878254DAD78A8420ED1C878224DED7883
:1019F000A84209D10879204D2D79A84204D148790F
:101A00001D4D6D79A84201D0002030BD1B480078E3
:101A100080B391F8220000024D8C40EA152084B278
:101A200091F8240000028D8C40EA152083B21448FE
:101A30000068844201D00020E7E712480068834232
:101A400001D00020E1E7002212E002F11A00085C58
:101A50000D4DAD5CA84201D00020D6E702F11E007A
:101A6000085C0A4DAD5CA84201D00020CDE7521CB5
:101A7000042AEADB0120C8E720000010440000101F
:101A8000280000102C0000103C0000104000001046
:101A90000146C1F3C112022A01D108207047012A70
:101AA00003D1C1F381200830F8E71AB9C1F38120CE
:101AB0000930F3E70020F1E77FB504460D461646EE
:101AC0000020009001900290034632462946039080
:101AD000204600F002F804B070BD2DE9FE4F8046AC
:101AE0000F4615469946DDE90CAB01200190FFF742
:101AF0009DFB4EF66021084400906AE002A8FFF7C3
:101B0000A7F90446002C5DD02046FFF75DFF0028B2
:101B100053D0207C0002218A40EA11201C38286022
:101B20002868B84200DD2F6004F12A0140462A6887
:101B3000FEF75EFB002608E018F806000D2803D12A
:101B4000002008F8060002E0761CBE42F4DB00BF6D
:101B50002E60BBF1000F06D0D4F80600CBF80000D1
:101B60006089ABF80400B9F1000F07D094F82200A7
:101B70000002618C40EA1120C9F80000BAF1000FA0
:101B800007D094F824000002A18C40EA1120CAF882
:101B900000000E9818B10E98D4F81A1001600F9832
:101BA00018B10F98D4F81E100160002001904FF476
:101BB000C0612046FFF788F90CE04FF4C061204671
:101BC000FFF782F90098FFF738FB10B10120019070
:101BD00000E093E700BF0198BDE8FE8F38B51548D7
:101BE000006808B9002400E00F243CB91249002322
:101BF00066224868694600F0F1FB044654B90E4875
:101C000080680078542804D1009840F001000090CA
:101C100000E00C2408480F224168204600F00EF82E
:101C2000054600F001FD1CB9FFF7F6FA0098804761
:101C300038BD0000480000100838001030B50346D9
:101C40000025501E02460D542BB93025501E024669
:101C50000D54881830BD11E0521E0A20B3FBF0F578
:101C600000FB1534092C03DC04F13000885402E039
:101C700004F1370088540A20B3FBF0F30AB1002BBB
:101C8000EAD18818E6E7000070B504460D4603481F
:101C9000294602682046904770BD000000014010B0
:101CA000401C884200DB002070472DE9F84F0446B5
:101CB0000D46914600261AE004EB461005F134016A
:101CC00001EB0611097905F1340202EB0612926864
:101CD0004FF4706303EA02121143C0F8041105F1D6
:101CE000340101EB0611C968C0F80011761C042EFE
:101CF000E2D36868A06201224846A968FFF720FC89
:101D0000206301224846E968FFF71AFC606301225C
:101D100048462969FFF714FCA06301224846696917
:101D2000FFF70EFCE06300224846A969FFF708FCB4
:101D3000206401224846E969FFF702FC6064012241
:101D40004846296AFFF7FCFBA06401224846696AFD
:101D5000FFF7F6FBE06401224846A96AFFF7F0FBB3
:101D6000206501224846E96AFFF7EAFB6065012227
:101D70004846296BFFF7E4FBA0650020009002E0D5
:101D80000098401C00900098B0F57A7FF8DB40F294
:101D9000831020620020009002E00098401C009018
:101DA0000098B0F57A7FF8DB40F203102062022041
:101DB00060620020009002E00098401C00900098B3
:101DC0005028F9DB002248462968FFF7B9FB0F309D
:101DD0004FEA101AC4F824A08320206200263FE0B6
:101DE00005F1340101EB0611C868FFF751FEC7B2D7
:101DF00005F1340000EB0610808900F4804010B13A
:101E0000B81CC7B201E0781CC7B205F1340000EB82
:101E10000610808900F4805060B905F1340000EBB1
:101E20000610808900F4606010B9781CC7B201E028
:101E3000B81CC7B205F1340000EB0610D0F80080E2
:101E4000B8F1000F0BD005F1340202EB06129168D5
:101E500001FA07F242EA0802106800BF00BF761CD0
:101E6000042EBDD30020E43444F8C40CE06940F4EF
:101E70000020E061E06B40F40020E063E06D40F49E
:101E80000020E065E06F40F40020E067E43CBDE83E
:101E9000F88F2DE9F04106460C461746207806EBF0
:101EA000401505F500756068286001223846A16874
:101EB000FFF746FB686000223846E168FFF740FB09
:101EC000A860012238462169FFF73AFBE860012249
:101ED00038466169FFF734FB286102223846A16960
:101EE000FFF72EFB686101223846E169FFF728FB06
:101EF000A861A5F50075BDE8F081000070B500246B
:101F00003D48FEF761FE3D49012000F0C7F90C2075
:101F10003B4908701D20487012208870E020C8706E
:101F20001F2008711020487100BF0846C0780006C5
:101F3000897840EA01403249497840EA0120304935
:101F4000097808432C4948642D4800792C4949797F
:101F500040EA01202849086400BF0423294A1946A1
:101F60002948FFF793F8002509E005EB4501274ACA
:101F700002EB41204FF4C061FEF7A6FF6D1C042D5B
:101F8000F3DB0020224908602249087000BF1A488C
:101F9000006840F00800184908601F48806940F454
:101FA00000511D48816100BF00BF1348006840F028
:101FB0000400114908601848806940F00201164881
:101FC000816100BFFFF753F913E000F0DFF804462A
:101FD00004F0040068B104F0080050B1C4F34011EB
:101FE0000548FEF737FEC4F300110348FEF73DFE37
:101FF00000E0EAE700BF70BD000001407D21001A4B
:1020000020000010FC0000107C0000107C19001063
:102010003800001044000010001001400246481E25
:10202000104008B1012070470020FCE72DE9FC4179
:1020300001204649086046484649086046484860CD
:10204000464888604648C860464808614648006877
:1020500046490860012777E0FFF71EFA01AA4FF40E
:10206000C8614348FFF728FD0546002D6AD10024CA
:1020700005E07A20374951F824100870641C052CBB
:10208000F7DB0F200523334A00903948019900F00F
:1020900094FB0446002C57D02E4800680078522844
:1020A00009D02C4800680078472804D029480068E7
:1020B00000784D2801D101260DE000262548006852
:1020C0000078572804D0234800680078432801D1BD
:1020D000012700E0002725480068264988420AD0E9
:1020E000224800682449884205D0204800684FEA09
:1020F000314188420BD1012E09D116480F22416887
:102100001320FFF79BFD804600F08EFA1CE0174875
:1021100000681949884205D0144800684FEA3141E7
:1021200088420BD1012F09D10A480F2241681320A0
:10213000FFF784FD804600F077FA05E02046FFF7C0
:1021400075FB01E0BDE8FC8186E700004800001057
:10215000BC37001008380010CB370010DA370010F9
:10216000E9370010F8370010FC02001A4C0000108C
:102170007C31001078563412214365874CF250317F
:10218000484300E0401E0028FCD1704710B51A48B3
:10219000006810B1012813D000BF10211748FEF7C6
:1021A00079FD1748006820F00400154908600846CA
:1021B000006840F00200086001200F49086016E046
:1021C00000BF0E48006900F0010078B90C480068B3
:1021D00020F002000A49086000BF0848406980B248
:1021E000044600F0A3F800200349086000BF00BFC8
:1021F0000348006810BD000074000010000001409A
:102200006C0000102DE9F04104460D460027FA2627
:1022100021460E48FEF73EFD12E000BF0B48006964
:1022200000F0010038B9002600BF0848406980B2BC
:102230002880012704E0761E0120054909688847A7
:10224000002EEADC3846BDE8F081000000000140C5
:10225000780000102DE9F04104460D460027FA26CB
:102260002A4621460B48FEF721FD0DE000BF094834
:10227000006900F0010028B1761E012006490968B6
:10228000884701E000260127002EEFDC3846BDE834
:10229000F08100000000014078000010F8B505460C
:1022A0000E461E48066000201D4908601D49086052
:1022B0001D4908604FF40041FFF7CCFF012801D011
:1022C0000020F8BD4FF4C87414E0012013490968D8
:1022D000884769460020FFF795FF012801D00020BC
:1022E000EFE7BDF8000000F4084010B94FF0FF34EC
:1022F00000E0641E002CE8DC0CB90020E1E74FF49C
:1023000080500090BDF800100020FFF7A3FF1DB122
:1023100020211720FFF79EFF0120D2E77800001050
:10232000740000106C0000107000001000F001013B
:1023300031B12149096841F008011F4A116005E0E7
:102340001D49096821F008011B4A116000F00401D1
:1023500031B11949096841F02001174A116005E0BF
:102360001549096821F02001134A116000F00201AB
:1023700031B11149096821F010010F4A116005E0DF
:102380000D49096841F010010B4A11600A490978AA
:1023900001F03801094A127802F03802914209D05E
:1023A00005490968054A11600349096841F00401BB
:1023B000014A1160704700006C00001070000010AE
:1023C00000F054FA38B1FEF7EBFF10B1FFF7F2FA64
:1023D00001E0FFF779F9FFF777F900002DE9F04FF9
:1023E00082460C4615461E464FF0000BBAF1000F10
:1023F00008D021465046FEF743FF074617B10C2090
:10240000BDE8F08F692D01D10020F9E70421206893
:10241000FFF704FE074677B1642D02D14FF0060B9B
:1024200009E04FF00D0B672D01D14FF0020B682D25
:1024300001D14FF0030BBBF1000F38D12068B0F190
:10244000805F07D3206830441A49884202D84FF091
:10245000010901E04FF0000917492068884207D3BD
:10246000206830441549884202D84FF001080DE039
:102470002068B0F1D85F07D3206830441049884203
:1024800002D84FF0010801E04FF00008662D07D197
:10249000B9F1000F04D1B8F1000F01D14FF00E0BCC
:1024A000672D04D1B9F1000F01D14FF0040B58464C
:1024B000A6E70000008000100040001A0000081A83
:1024C0000000081B10B51D490023692248681C49FB
:1024D000FFF784FF1B49086008460068B0B9174938
:1024E0000023692288681649091DFFF777FF1549FF
:1024F00008600846006848B9104900236922C86886
:102500000F490831FFF76AFF0E4908600D4800685F
:1025100040B932200A49091F08600A490848001FCB
:10252000FFF7B2FB054A5168064A10680F22FFF711
:1025300085FB044600F078F810BD00000838001054
:1025400020380010303800102DE9FE4F33490023A9
:102550006422886801A9FFF741FF04463CB92F496E
:102560004868662202A9019BFFF738FF04462B4802
:102570000F2201682046FFF761FB824600F054F805
:102580000CB1BDE8FE8F00250026DDF80880DDF8DF
:1025900004903DE001982D2801DD2D2700E0019FEA
:1025A0003A461F49029800F0DEF905441C4800F045
:1025B0003BF8012800D02EE0761C029838440290A7
:1025C0000198C01B0190142E01D0019800BB0F226E
:1025D00013492846FFF732FB824600F025F86A4689
:1025E0004FF4C8610E48FFF767FA044604B112E0E1
:1025F0000C490B4800F0CEF820B9DDF80490DDF866
:10260000088003E0CDF80490CDF80880002600256E
:1026100001980028BEDC00BF00BFB2E708380010F8
:102620007C310010292B001A2DE9F8430746FEF7EC
:1026300033FF5048006800EB40004F4901EB402455
:1026400004214C480068FFF72BFB4A49086008202A
:102650002073002060734520A0730020E073D82011
:10266000A074F420E0740020207560758020A075AF
:102670001120E07500250EE0795D05F12A00215456
:10268000785D38B90D2105F12A0021540A21401C3A
:10269000215403E06D1CB5F5C86FEDDB00BF05F1FB
:1026A000020808F12A063548016821608088A08068
:1026B00033480168C4F8061080886081A6F10E00D6
:1026C000C0F3072141EA002080B20090BDF800006D
:1026D00020822C480068C4F81E002B480068C4F80B
:1026E0001A002A480088C0F307202849097840EAE0
:1026F000012080B20090BDF80000A084244800882A
:10270000C0F307202249097840EA012080B20090F6
:10271000BDF800006084A6F12200C0F3072141EA61
:10272000002080B20090BDF80000E08400200090FE
:10273000BDF80000208500200090BDF80000208337
:10274000142104F10E00FEF747FEC0F307291421FF
:1027500004F10E00FEF740FE49EA002080B200902E
:10276000BDF80000208331462046FEF72DFC0120F5
:10277000BDE8F883380000107C0100103000001024
:10278000200000103C000010400000102800001045
:102790002C00001010B502460B46002100BF04E0DB
:1027A000505C08B9002010BD491C505C5C5CA04224
:1027B000F6D0505C5C5C001BF5E72DE9F043044665
:1027C0008C4615469846079F002200230026207855
:1027D00010B90020BDE8F083002121E0501C4045E5
:1027E00000DDF7E7605C20280AD0B81EB04207DDA4
:1027F000605C55F8229009F803005B1C761C0EE023
:10280000481C205C202802D1B81EB04207D100200D
:1028100055F8229009F80300521C00230026491C99
:102820006145DBDD501CD5E738B50E490023692230
:1028300048686946FFF7D2FD04464CB945F65A216F
:102840000098884203D100200749086000E0102466
:1028500004480F2241682046FFF7F0F90546FFF7CC
:10286000E3FE38BD083800104800001010B53520D0
:10287000084908600220486088600020C860064956
:102880000448FFF701FA0448006808B9002010BDA9
:102890000120FCE71C380010303800102DE9F84307
:1028A00004460D4691460027B84669462046FEF785
:1028B000DCFE064600980444002E4FDD641C4BE00D
:1028C000032E27DB2078FEF7C7FE82006078FEF734
:1028D000C3FE42EA201028706078FEF7BDFE0201B8
:1028E000A078FEF7B9FE42EAA0006870E078FEF733
:1028F000B3FE0246A078FEF7AFFE42EA8010A87051
:1029000008F103082878384469780844A9784718FA
:10291000ED1C1FE0012E0DDB2078FEF79DFE8200EE
:102920006078FEF799FE42EA2010287008F101084D
:1029300028780744022E0DDB6078FEF78DFE020139
:10294000A078FEF789FE42EAA000687008F101084D
:1029500068780744241DF61E002EB1DCC9F80080FB
:102960003846BDE8F883F0B503460C460025D0B2E2
:10297000FEF7A2FE2070641C33E0032A08DB5E78B9
:102980009F781878284459780844997845180CE0BD
:10299000022A06D15E785F7818782844597845185D
:1029A00003E01E781F781878054419788808FEF728
:1029B00083FE207019788907890E01EB1610FEF747
:1029C0007BFE60703107890E01EB9710FEF774FEF5
:1029D000A07007F03F00FEF76FFEE070241DDB1CC7
:1029E000D21E002AC9DC002020702846F0BD00005D
:1029F0002DE9F04385B03E498868642202A9029B14
:102A0000FFF7ECFC04466CB939494868672204A911
:102A1000029BFFF7E3FC0446042C00D10E24022C99
:102A200000D10D24334800683349884204D104980A
:102A3000B0F1805F00D213242D480F220168204698
:102A4000FFF7FCF88146FFF7EFFD14B105B0BDE8D4
:102A5000F08300250026049FDDF8088041E06A46E7
:102A60004FF4C8612548FFF727F800B13CE0009813
:102A700070B1761C01AA21480499FFF70FFF0544A5
:102A80000199049808440490DDE90110401A02906D
:102A9000142E01D0029820BB0020009006E06A4668
:102AA0004FF4C8611548FFF707F80446009800285E
:102AB000F5D004B118E003A91048FEF7E1FB039834
:102AC000854206D1DDF80880049F0D48FFF7ACFD74
:102AD00005E0CDF8088004970A48FFF7A5FD002619
:102AE000002502980028BADC00BF00BFAEE7000056
:102AF000083800104C000010785634127C31001059
:102B0000292B001A2C2B001A53796E6368726F6E92
:102B1000697A6564004F4B005A5A000053796E631E
:102B200068726F6E697A6564004F4B005245534579
:102B30004E440000000005000A00200024000900A7
:102B40004000400005006000A6000400E000E00036
:102B5000010000010001030043014301190063016A
:102B600063011300830183011200A301A30111007B
:102B7000C301C3011000E301E3010F0003020302DC
:102B80000E00230223020D00240224021C00000177
:102B90000100090901000A090100010701010D09ED
:102BA00001000E0901000F090100100901001109BF
:102BB000010012090100130901001411010019118B
:102BC00001001A1101001B11010000000606060693
:102BD0000604040418191A1B1C0C0D0E000000003A
:102BE000001BB70008030100070301000B0E0100E2
:102BF000030F01010303F3000304F3000305F300D3
:102C00000306F3000307F3000308F3000113F000C9
:102C10000001B6000112B3000114B3000111F3006A
:102C20000C01B3000110F700010FF3000000F200E7
:102C30000107F3000108F3000109F300010AF300A2
:102C4000010BF300010CF300010DF300010EF30082
:102C50000504F2000505F2000506F2000507F20082
:102C60000500F2000501F2000502F2000503F20082
:102C70000D02F2000D03F2000D04F2000D05F2004A
:102C80000D06F2000D07F2000D08F2000D09F2002A
:102C90000E05F3000E06F3000E07F3000E08F30016
:102CA0000E09F3000E0AF3000E0BF3000E0CF300F6
:102CB0000209F300020AF300020BF300020CF30016
:102CC000020DF3000100F2000101F2000102F20026
:102CD0000208F3000207F3000206F2000202F2000B
:102CE0000201F2000200F2000608F1000607F100FE
:102CF0000D10F2000D0FF2000E00F3000E01F300B4
:102D00000E02F3000E03F3000E04F3000A04F300B6
:102D10000104F3000606F1000D0DF2000D0AF200A9
:102D20000609F3000106F3000604F3000605F300AC
:102D3000060BF300060CF300060AF3000D00F20088
:102D40000E0DF3000103F3000104F3000606F10089
:102D50000105F3000106F3000D0A54000D0B5400A9
:102D60000D0C54000D0D54000D0E540009005000C0
:102D700009015000090250000F00F0000F01F4009B
:102D80000F02F2000F03F20004010500040202002A
:102D90000405020004060200040700000409020002
:102DA000040A0200070000000706030008030300EE
:102DB00008040300080503000806030008070300D1
:102DC0000B0002000B0102000B0202000B030200C9
:102DD0000B0402000B0502000B0602000300F200C8
:102DE0000600F4000702F2000602F3000701F200F9
:102DF0000601F30003021200030152000000F0007C
:102E00000001F0000002F0000003F00000093D00A6
:102E10000100000000120000002A0000004600002F
:102E200000FFFFFF00FBFFFF000C0000003C000064
:102E3000003C000000460000000C000000FEFFFF08
:102E400000000028030000003200000000550000D0
:102E50000000000000000000000000000000000072
:102E60000000000000000000000000000000000062
:102E70000000000000000000000000000000000052
:102E8000000000008200000000000000004100007F
:102E9000005A0000005A00000023000000FCFFFF61
:102EA000C02E001A000000107C0000005001001A23
:102EB0003C2F001A7C0000102C3B00006C01001A13
:102EC0000000000000000000000000000000000002
:102ED00000000000000000000000000000000000F2
:102EE00000000000000000000000000000000000E2
:102EF00000000000000000000000000000000000D2
:102F000000000000000000000000000000000000C1
:102F100000000000000000000000000000000000B1
:102F200000000000000000000000000000000000A1
:0C2F300000000000000000000000000095
:040000051A000115C7
:00000001FF
