:020000040000FA
:102000006002001045210000492100004B21000022
:102010004D2100004F210000512100000000000070
:10202000000000000000000000000000532100003C
:102030005521000000000000572100005921000038
:102040005B2100005B2100005B2100005B210000A0
:102050005B2100005B2100005B2100005B21000090
:102060005B2100005B2100005B2100005B21000080
:102070005B2100005B2100005B2100005B21000070
:102080005B2100005B2100005B2100005B21000060
:102090005B2100005B2100005B2100005B21000050
:1020A0005B2100005B2100005B2100005B21000040
:1020B0005B2100005B2100005B2100005B21000030
:1020C0005B21000000F002F800F02EF80AA090E872
:1020D000000C82448344AAF10107DA4501D100F0E3
:1020E00023F8AFF2090EBAE80F0013F0010F18BF82
:1020F000FB1A43F0010318471802000028020000F1
:102100000023002400250026103A28BF78C1FBD800
:10211000520728BF30C148BF0B6070471FB5AFF3EF
:1021200000801FBD10B510BD00F0B7F81146FFF7D5
:10213000F5FF00F021F800F0D5F8FFF7F3FF00F00D
:10214000DBF8000008480047FEE7FEE7FEE7FEE791
:10215000FEE7FEE7FEE7FEE7FEE7FEE70348044989
:10216000024A044B70470000C520000060000010C8
:102170006002001060000010002100203F4A126839
:1021800022F002023D4B803BC3F88020AA223B4B49
:102190000C331A6055221A600022384B1A60AA22AA
:1021A000364B0C331A6055221A602022334B803B89
:1021B000C3F8A02100BF324A1268C2F38012002A7D
:1021C000F9D001222D4B8C331A602E4A9303C3F8A9
:1021D0008420AA22294B0C331A6055221A6001224E
:1021E000264B1A60AA22254B0C331A6055221A601E
:1021F0000322224B803BC3F8042100BF1F4A083250
:102200001268C2F38062002AF8D003221B4B1A60C6
:10221000AA221A4B803BC3F88C205522174B0C3353
:102220001A6000BF154A08321268C2F34062002AE1
:10223000F8D04FF00072144BDA64144A126A42F07C
:102240008052124B1A6217E059B94FF080520F4B6F
:102250009A630121002000E0401C0D4A9042FBDB04
:102260000AE04FF08052094BDA630021002000E0C1
:10227000401C074A9042FBDBE6E7000080C00F40AD
:10228000A0C10F403F00050000C0024000C009206F
:10229000404B4C00704770477047754600F028F877
:1022A000AE4605006946534620F00700854618B043
:1022B00020B5FFF753FFBDE820404FF000064FF078
:1022C00000074FF000084FF0000B21F00701AC466B
:1022D000ACE8C009ACE8C009ACE8C009ACE8C0098A
:1022E0008D4670470446AFF300802046FFF725FF78
:1022F000004870470000001003494FF01800ABBEC3
:10230000704700000900000026000200704700002E
:1023100020230000000000106002000000210000E7
:04000005000020C512
:00000001FF
