S00B0000315F39382E733139E8
S113000000000420CD010000A501000063B500201C
S1130010AD010000B1010000B50100001842FBBFB2
S1130020000000000000000000000000B901000012
S1130030BD01000000000000C101000061B5002006
S11300403D020000450200004D0200005502000080
S11300505D020000650200006D02000075020000F0
S11300607D020000850200008D0200009502000060
S11300709D020000A5020000AD020000B5020000D0
S1130080BD020000C5020000CD020000D502000040
S1130090DD020000E5020000ED020000F5020000B0
S11300A0FD020000050300000D030000150300001D
S11300B01D030000250300002D030000350300008C
S11300C03D030000450300004D03000055030000FC
S11300D05D030000650300006D030000750300006C
S11300E07D030000850300008D03000095030000DC
S11300F09D030000A5030000AD030000950100204E
S1130100B5030000BD030000C5030000CD030000DB
S1130110D5030000DD030000E5030000ED0300004B
S1130120F5030000FD030000050400000D040000B9
S1130130150400001D040000250400002D04000027
S11301408805000000000020B4C000003CC6000088
S113015000000220300600003CC60000000004201D
S1130160000000003CC60000000000040000000085
S11301703CC60000E837104000000000B4C0002076
S11301800000000000080220749600000000042013
S1130190000000000000000400000000E8371040E8
S11301A000000000FEE700BFFEE700BFFEE700BF5F
S11301B0FEE700BFFEE700BFFEE700BFFEE700BFAB
S11301C0FEE700BFFEE700BFFEE700BF70B572B6F2
S11301D000F032F9164E174AB2420DD2D2E9004568
S11301E090680C320028F7D00023E158E95004331A
S11301F09842FAD8B242F1D30F498A4213D200246A
S11302000139891A02F1100321F007011944083257
S113021052E9025020B10023EC5004339842FBD839
S113022008328A42F4D162B600F046F9FEE700BF14
S11302307C01000040010000A401000008B5FFF7A4
S1130240C3FF08BD08B500F027F908BD08B5FFF7DE
S1130250BBFF08BD08B5FFF7B7FF08BD08B5FFF73A
S1130260B3FF08BD08B5FFF7AFFF08BD08B5FFF73A
S1130270ABFF08BD08B5FFF7A7FF08BD08B5FFF73A
S1130280A3FF08BD08B5FFF79FFF08BD08B500F040
S1130290FBF808BD08B500F05FF908BD08B5FFF725
S11302A093FF08BD08B500F047F908BD08B500F094
S11302B04BF908BD08B500F027F908BD08B500F0F2
S11302C033F908BD08B500F017F908BD08B500F00A
S11302D023F908BD08B500F0E7F808BD08B500F03B
S11302E0FBF808BD08B500F0EFF808BD08B5FFF746
S11302F06BFF08BD08B5FFF767FF08BD08B5FFF73A
S113030063FF08BD08B5FFF75FFF08BD08B5FFF739
S11303105BFF08BD08B5FFF757FF08BD08B5FFF739
S113032053FF08BD08B5FFF74FFF08BD08B5FFF739
S11303304BFF08BD08B5FFF747FF08BD08B5FFF739
S113034043FF08BD08B5FFF73FFF08BD08B5FFF739
S11303503BFF08BD08B5FFF737FF08BD08B500F03F
S11303600BF908BD08B500F0BFF808BD08B5FFF7E4
S11303702BFF08BD08B5FFF727FF08BD08B5FFF739
S113038023FF08BD08B5FFF71FFF08BD08B5FFF739
S11303901BFF08BD08B5FFF717FF08BD08B5FFF739
S11303A013FF08BD08B5FFF70FFF08BD08B5FFF739
S11303B00BFF08BD08B5FFF707FF08BD08B5FFF739
S11303C003FF08BD08B5FFF7FFFE08BD08B5FFF73A
S11303D0FBFE08BD08B5FFF7F7FE08BD08B5FFF73B
S11303E0F3FE08BD08B5FFF7EFFE08BD08B5FFF73B
S11303F0EBFE08BD08B5FFF7E7FE08BD08B5FFF73B
S1130400E3FE08BD08B500F0AFF808BD08B5FFF776
S1130410DBFE08BD08B5FFF7D7FE08BD08B5FFF73A
S1130420D3FE08BD08B5FFF7CFFE08BD08B5FFF73A
S1130430CBFE08BD704700BF38B54FF080410024A3
S113044078200F4B0F4DD3F8882042F47002C3F884
S11304508820D3F8882042F00F02C3F88820D3F80C
S11304608C2042F4406242F00302C3F88C209D6069
S1130470C1F80843C1F82002FFF7DCFF38BD00BF14
S113048000ED00E00000000001B40248844601BC15
S1130490604700BF0182002001B40248844601BCC9
S11304A0604700BFF587002001B40248844601BCC0
S11304B0604700BF25A2002001B40248844601BC65
S11304C0604700BF45B6002001B40248844601BC21
S11304D0604700BF55A2002001B40248844601BC15
S11304E0604700BF3DA2002001B40248844601BC1D
S11304F0604700BF2182002001B40248844601BC49
S1130500604700BFF5A1002001B40248844601BC45
S1130510604700BFC5A1002001B40248844601BC65
S1130520604700BF0DA2002001B40248844601BC0C
S1130530604700BFDDA1002001B40248844601BC2D
S1130540604700BF1982002001B40248844601BC00
S1130550604700BFADA1002001B40248844601BC3D
S1130560604700BF0982002001B40248844601BCF0
S1130570604700BF0188002001B40248844601BCE2
S10B0580604700BF1182002056
S1130588F7B50139054615291BD8DFE801F00B1A20
S11305981A1A1A1A1A1A2348838B939BA4AD1A1A87
S11305A81A1A6D730023564E0C21012033733371CC
S11305B801F034F8062006F10B0107F0E3FB0446CA
S11305C808B1002403E02846F17A00F005FC20462F
S11305D803B0F0BD002AF4D001234A4E1578484FE1
S11305E834783B733D712CB1294607F110000BF0A8
S11305F8DDFA0446444B1B780BB9337823B12946FA
S1130608424801F019FD0446414B1B78002BDED00B
S11306182946386A03B0BDE8F04000F0E9BE38481E
S1130628037B002BCDD01288B2F5A06F4FEA1223BA
S1130638C7D2344DD9B22C78D7B203445F7134B1E0
S11306483A461030019101F093F9044601992E4B72
S11306581B7813B92B78002BB9D03A462B4803B032
S1130668BDE8F04001F0E6BC002AAAD0244B1B796F
S11306781370A6E7002AA4D01388B3F5A06F4FEA35
S113068813203AD21E4923F0FF03014449790B434E
S1130698138096E7002A94D0114603B0BDE8F040D1
S11306A800F0FEBA002A8CD0114603B0BDE8F04031
S11306B800F0FEBA002A84D0114603B0BDE8F04029
S11306C800F002BB002A3FF47CAF114603B0BDE83A
S11306D8F04000F04BBB002A3FF473AF114603B05F
S11306E8BDE8F04000F05CBB002A3FF46AAF114655
S11306F803B0BDE8F0400BF009BA052467E700BF72
S1130708F04B02204D9E02204C9E02208C52022067
S11307184E9E0220014B186805F0ECBEF04B0220F7
S11307286022034B83F82F234FF400425A6070472A
S113073800E100E02DE9F04F40F2153085B007F0F4
S11307485FFB4FF480624E4CC4F88020BFF34F8F98
S1130758BFF36F8F4FF40066C4F88060BFF34F8F08
S1130768BFF36F8F1025C4F88450BFF34F8FBFF3C6
S11307786F8F4FF40057C4F88070BFF34F8FBFF3E7
S11307886F8F2023C4F88430BFF34F8FBFF36F8F6C
S11307984FF000083B493C48C1F80080C4F8802168
S11307A8C4F88061C4F88451C4F88071C4F88431F1
S11307B808F08EFC354808F08BFC354808F088FCB6
S11307C8344808F085FC344808F082FC09F0C6F87F
S11307D809F0C2F8314BC3F80080C3F8A08043F88D
S11307E8487C09F013F84FF08053C4F880314FF077
S11307F80063C4F880314FF40043C4F884314FF4E3
S113080880334FF48052C4F88431254B2548C3F80B
S1130818C860C3F8C82008F05BFC234808F058FCFB
S1130828224808F055FC224808F052FC214808F0F8
S11308384FFC214808F04CFC204808F049FC0E20E5
S113084808F046FC0F2008F043FC00F0E5FD4FF0EB
S113085880434FF410211A4AC3F828521160C3F890
S1130868485205F04DF805F08BF8164B10F48076D5
S113087818602BD014480AF0DFFF30BFFDE700BF33
S113088800E100E010E000E01A0001001B00010094
S1130898160001001500020016000200680200504C
S11308A800000240190001001100020010000200BB
S11308B8040002000500020007000200060002000E
S11308C850300A40EC4B0220D4BE0020A44DA54F62
S11308D880F02003C3F34013C0F3C01210F01F0FBD
S11308E82A703B7042EA03029F4900F0400300F07B
S11308F82D81003B18BF01230B700B78134303931E
S1130908B8D004F017FF01F013FA9849002007F053
S113091889FD00214FF0FF3007F0DAFD00220620A0
S1130928924905F0CBF84FF0000C914B914A03F82B
S113093801CB9342FBD12B78DFF86482002B00F0C3
S1130948098101268C4C236984F80CC0093323617E
S1130958A3681B685B6883F803C0D8F8003094E880
S1130968070083E8070098F808306269013388F8BB
S1130978083004F1180184F81AC080480BF029F9EA
S11309886469093497F800A095F800B0BAF1000F2B
S113099802D1BBF1000F36D04FF00C0E784B5FFA42
S11309A886FC1A6983F80CC022441A619A68DFF835
S11309B8F0911268526882F803C0D9F800200EFB3F
S11309C8062E93E807008EE8070099F808200132FC
S11309D889F80820994683F81AC0BBF1000F00F083
S11309E8BD80BAF1000F00F0B7800723654889F885
S11309F820302044D9F8142063490BF0EAF8D9F8D8
S1130A08143001361C44584B1B78002B44D04FF04B
S1130A180C095E4B5FFA86FC1A6983F80CC0224401
S1130A281A619A680CF1010E12685FFA8EFE526818
S1130A3882F803C082F80FE0D8F8002009FB0629E1
S1130A4893E8070089E80700194698F80820013256
S1130A5888F80820984683F81AC011F8180F421825
S1130A68415C82F802C00A4482F809E082F811C0A5
S1130A7882F812E013781A445378042BFAD14148C7
S1130A8882F802E02044D8F8142041490BF0A1F878
S1130A98D8F8143002361C442B7823B13D4A137B12
S1130AA843F001031373304B1A78984622B1394A3C
S1130AB8137B43F0020313733B7823B1354A137B4A
S1130AC843F0040313732F4AC4F30723D37000239A
S1130AD894701671135501348C2C1C4602D92E4877
S1130AE80AF0AAFE2D4E0620F47234733460346280
S1130AF82B4C3246214607F0CDF8002858D0294817
S1130B080AF09AFEDFF8A490274E2C7814B100F06E
S1130B183BFF044698F8003023B100F0C5FB0028D9
S1130B2818BF04463B78002B40F097802B78002BA5
S1130B3840F09380002C40F095800BF01AF80028C0
S1130B4840F0918000F0BCFC04468CE0B3FA83F3D7
S1130B585B09D1E6092415E7082347E7092345E794
S1130B684D9E02204C9E02204E9E02200024F4003A
S1130B780000104000401040F40302200900022045
S1130B882C040220000002204404022064040220F1
S1130B987C040220C0000220EABE0020F04B0220A0
S1130BA8E803022022BF0020A05202209C52022007
S1130BB82B78CBB132480AF03FFE0122402311467C
S1130BC8CDE9003306F1100008230AF0D4FF2D4BB9
S1130BD822681B7B304603EB430302EB83035A680A
S1130BE806F1100100F034FE3B780BB92B78C3B141
S1130BF825480AF021FE402304228421CDE900334C
S1130C082248082301F04EF9214B22681B7B1F4917
S1130C1803EB430302EB83035A68A1F29C6001F0DF
S1130C2859F998F8003093B11A480AF005FE1A48A1
S1130C380AF06EFF194B22681B7B174903EB430329
S1130C4802EB83035A68A1F1200000F003FAFFF7CE
S1130C5867FD306805F01EFF54E701F0EFF900283E
S1130C683FF468AF039CD9F800300133C9F8003069
S1130C78002C7FF44AAF33680133336045E700BF83
S1130C884CBF0020F403022076BF00208C520220BF
S1130C982C040220B4BF0020104C0220640402205B
S1130CA8024B00200B6012234B607047C0000220E7
S1130CB8087A20B9034B0B605B884B6070470520AA
S1130CC8704700BF000002207FB5214E0C463578DE
S1130CD8DDB9204B20491B68204AC3F30320085C74
S1130CE89075C3F3031003F00F03085CCB5C107614
S1130CF893760E21684604F0DBFB2B46184A98428B
S1130D080BD10123400010703370A07A60B9154BE1
S1130D1823600423636004B070BD1DF8035002EB24
S1130D2843018D700133EAE70F4B21891A899142F7
S1130D380CD109280AD81A685B6800B252F8202036
S1130D4853F82030226000206360E4E70520E2E7DE
S1130D584F9E0220EC4B0220D5BF00200002022047
S1130D68400202208001022028050220094B0A7A49
S1130D78187B904207D11A69074B002013440B6073
S1130D8809234B607047054B187B9042F3D005202C
S1130D98704700BFF4030220000002202C04022044
S1130DA8094A0B7A127B9A4205D1084B0B6023231C
S1130DB800204B607047064A127B9A4201D1054BCA
S1130DC8F4E70520704700BFF40302200001022065
S1130DD82C040220400102202DE9F04F0020402479
S1130DE84FF008084FF0100C04254FF002094FF09B
S1130DF8070A0126564B03F18B0E1F780FB1734572
S1130E0811D3544B1A78002A6DD1534B1B78002BFD
S1130E187BD1002A79D1514B1B78002B40F0888074
S1130E280020BDE8F08F5A78052A0CD102299A7857
S1130E3832D1862A07D8802A07D8042A1ED0052A40
S1130E4828D0012A14D03B44D7E7813A052AFAD896
S1130E580FF2040B5BF822F0F9080020C708002001
S1130E68C7080020F90800200F0900200309002002
S1130E789A715D711871E6E79E71FAE79E715A716D
S1130E88F8E783F806A0587183F804C0DBE783F811
S1130E980590EFE75971EDE7862AD4D8802A09D856
S1130EA8042A1BD0052A02D0012ACCD19D7158717D
S1130EB81C71C8E7813A052AC5D80FF2080B5BF8FC
S1130EC822F000BF2D090020C7080020C708002011
S1130ED82D0900202F090020610900209A71E6E7F6
S1130EE883F80680CFE700200424402501264FF428
S1130EF880671B4B022907BF5F801E715D801C71D0
S1130F080633002881D10120F4E70022042040247C
S1130F1801254FF48066134B022907BF5E801D71BB
S1130F285C8018710633002A7FF475AF0122F3E759
S1130F3810220D4B02295A800C4B1A4617BF402227
S1130F484FF400735A801A8104BF5380138167E7F2
S1130F58000002204D9E02204C9E02204E9E02203C
S1130F68FC05022008060220140602201A060220A4
S1130F7838B504460023D4F860520846C4F86032F1
S1130F884DB1064B2A4605211B8906F08DFD08B193
S1130F98C4F8605238BD2846FCE700BF1A06022090
S1130FA837B50190002007F037F9019902460E4839
S1130FB808F080FA044698B90C4B0D4A1D680A4893
S1130FC805F1240105F12003019108F0F5FA4FF425
S1130FD8007304460199044805F2992208F0E6F9D9
S1130FE8204603B030BD00BF00600840A452022070
S1130FF8750A002010B51C4641F246639A4203D094
S113100841F24B639A421BD1EFF3108172B6D4F8C4
S1131018703223B10022C4F87022C4F8742281F318
S1131028108823B1C4F86032002384F8783220464B
S11310382168FFF79DFF10B1012384F8643210BDC5
S113104841F247639A421CBF014B1A60F7E700BF9D
S1131058B052022010B5064C0A602060543008F0E3
S1131068C7F920685430FFF79BFFC0B210BD00BF1A
S1131078A45202202DE9F041854F4B1E06469046A6
S11310883C680B2B00F20081DFE813F00C00290008
S11310984D00FE00FE00FE00FE00FE0051005A0056
S11310A896000F00237B012B01D0012514E0D8F80A
S11310B8042072B1774BD8F800505988B2FBF1F389
S11310C801FB13231BB91A46052106F0C5FC002DA4
S11310D8EBD0002584F899562846BDE8F081237B97
S11310E8012BE2D194F87E30002BDED0D8E900320F
S11310F87AB90BB1C4F88032314604F12000FFF705
S113110837FF05460028E7D0012384F884320025F8
S1131118E2E7EFF3108172B6C4F88832C4F88C227F
S113112881F31088F3E7002580F86750D4E7072295
S1131138D8F8003064341C60D8F804301A60E6E744
S113114898F80C30012B04D1D8F8003064341C60B2
S1131158DDE7012384F87E3094F86A30073B18BF32
S1131168012384F85A3094F868309D1E6B426B4111
S113117884F8593094F86930012B03D0022B02D03B
S1131188002300E00323444A84F85830636E04F1D2
S11311982401934298BF6365404808F009FB3F481F
S11311A808F014F938685430FFF7FAFE0022D8F82A
S11311B80430C5B21A608FE7B8F80A2098F80A1004
S11311C802F0010284F8762042F2A102A4F86C200D
S11311D80022A4F86E2084F871200222B4F87C302E
S11311E888075ABF23F002039BB243F0020384F832
S11311F87A10C90758BF23F00103A4F87220B8F87D
S113120808204CBF43F001039BB2A4F87C3084F857
S113121874301B0A84F8702084F8753096F86730A7
S113122803BB0A230621304604F16C0206F014FCC1
S1131238054610B11A480AF0FFFA012386F8673008
S11312483B68187B94F87A3013F001030CD001281A
S11312587FF442AF84F87E000F2184F87F0000F009
S1131268BFF939E70125EBE701287FF435AF94F896
S11312787F20002A3FF430AF84F87F300F2184F8B0
S11312887E3000F0CBF927E7064B19600DE700BF65
S1131298A45202201A06022007AF2F00006008405B
S11312A8E6BF0020AC5202202DE9F0434C4B87B036
S11312B81C68257B012D40F08E8094F87E3003F065
S11312C8FF08002B00F0898094F8843253B100237E
S11312D8216A84F8843204F12000FFF749FE08B13A
S11312E884F8845294F8983203F0FF05002B38D020
S11312F8002594F89936002B2FD104F124010846CF
S1131308019108F047F8039038B3364B01995B888C
S113131804F29947984288BF0393039B3248B3F574
S1131328007F84BF4FF400730393039B04AA0593BF
S113133803AB049708F0B8F90646002848D1039B84
S11313485BB10122052184F89926206A3A4606F001
S113135883FB002841D084F89966284607B0BDE885
S1131368F083EFF3108372B6D4F8886246B3D4F8E6
S11313788C72C4F88852C4F88C5283F31088002EF7
S1131388B6D07B1E0333B3D8CDE90467EFF31089D5
S113139872B60123144884F8983204AA04F124018B
S11313A808F060F970B9EFF3108372B6C4F890626C
S11313B8C4F8947283F31088454689F3108898E733
S11313C83746DAE70023C4F8806284F89832F4E7F1
S11313D8064B1860C1E70025BFE74546BDE700BFD7
S11313E8A45202201A06022000600840A8520220D3
S11313F8012970B50C460BD1064E0146356805F136
S11314082000FFF7B5FD33681C7308B185F88442E2
S1131418002070BDA4520220034B0022C3E900221D
S11314289A601A731A617047B45202202DE9F04386
S11314380246A1B00B46EFF3108572B680216846C8
S11314480AF0C6F91D4AD2E90148002692F80CE0D0
S113145813686946B14611F801CBBCF1000F0AD1F3
S1131468B9F1000F00D0136006B1546085F31088F9
S113147821B0BDE8F083BEF1000F0DD0A3EB08073F
S1131488B7F5805F17D25F1CC3F30B031344F1460F
S113149883F814C03B46DEE75F1CC3F30B03134415
S11314A883F814C03B1BB3F5805F01D901340126CE
S11314B84FF00109EEE71F46ECE700BFB4520220E3
S11314C870B500F049F80028FBD1EFF3108572B627
S11314D8204CD4E90130267B2168002E14BF19461C
S11314E81846884203D385F31088207B70BDC0F367
S11314F80B00C1F30B0188422269B4BF091AC0F575
S113150880512EB902B9A36001260B442673636087
S11315180132226185F310880029E6D01430204472
S113152800F036F8002813DDEFF3108272B6236951
S1131538002B0BDDA16808446168884228BF00219C
S113154803F1FF332CBF2173A060236182F3108859
S11315580120CBE7B45202200B4B186810F08070BE
S113156811D00A4B186810F001000CD053F8800C05
S113157810F00100A3F180031FBF4FF06043186807
S1131588B0FA80F040097047FCED00E0800E00E0FE
S1131598104B1B6813F0807330B5024609D00E4B0C
S11315A81B6813F0010304D00C4B1B6813F00103F0
S11315B80BD1184608E0D05C207001338B421846E2
S11315C802DA2568002DF6D130BD00234FF06044BF
S11315D8F4E700BFFCED00E0800E00E0000E00E040
S11315E805290ED00B4B0F291B6803D103F488720D
S11315F8102A06D1DA060CD403F00F030F2B00D0FF
S11316083BB9012303FA01F1034B00F50A6043F8DF
S113161820107047EC4B022000C0084005290ED06A
S11316280B4B0F291B6803D103F48872102A06D1C7
S1131638DA060CD403F00F030F2B00D03BB90123B7
S113164803FA01F1034B00F5086043F820107047D2
S1131658EC4B022000C0084005290ED00B4B0F2983
S11316681B6803D103F48872102A06D1DA060CD455
S113167803F00F030F2B00D03BB9012303FA01F148
S1131688034B00F50C6043F820107047EC4B022024
S113169800C0084070B50026374D052200212846B1
S11316A8364B374C07F072FB6E71226802F488726D
S11316B8102A07D00F2201212846304B07F066FB79
S11316C885F82F602368DA0639D403F00F030F2B4B
S11316D801D0002B33D10C2201212748274B07F0D6
S11316E855FB0D220121254B234807F04FFB1022FF
S11316F80121224B204807F049FB112201211F4BED
S11317081D4807F043FB122201211C4B1A4807F01D
S11317183DFB082200211B4B174807F037FB00212B
S11317281548082280F82C10164B80F82D1080F8E4
S1131738301080F8311080F8321007F027FB0C21A4
S11317480120FFF76BFF0D210120FFF767FF20221F
S11317580D4B0F211A600120FFF760FF10210120B3
S1131768FFF75CFF11210120FFF758FFBDE8704027
S113177812210120FFF752BF00C0084028060220AA
S1131788EC4B02202606022000E208400023084A07
S11317981360084A1360084A1360084A1360084A29
S11317A81360084A13600122074B1A70704700BF80
S11317B8D4620220CC620220D0620220D8620220C5
S11317C8DC620220E06202202A06022010B572B60A
S11317D80D4C227802F0FF039AB10C4B0C4A19689D
S11317E8836802EB81220178C06805F079FD00B9AD
S11317F82070084A1368013303F00303136062B6C8
S113180810BD1846F5E700BF2A060220E062022050
S1131818B01B0220DC62022010B50A4C0A4A216877
S1131828836802EB81224178C06805F075FD40B9F0
S1131838064A1368013313602368013303F0030372
S1131848236010BDCC620220B00B0220D8620220B3
S1131858044BCA60186012B903480AF07DB9FFF74F
S113186895BF00BFE462022014C00020013930B4DF
S1131878082968D8DFE801F00530536767536767BC
S11318885D00334B186800285FD0037B002B5CD0C5
S1131898304B31491C68156801EB8424A5420C4679
S11318A807D1526801321FBF1968013101F00301E1
S11318B819602A4A19681268914208D01A68017C8A
S11318C8836904EB8222C06930BC05F009BD01229A
S11318D8234B1A7000202AE01D4B1868002834D0C6
S11318E8037B002B31D053681E49013305D013689C
S11318F81B78072B08D101230B700B78002BE9D137
S113190830BC1030FFF788BF174A1368013303F05F
S113191803031360154A1368013B1360EDE70C4B8E
S11319281B6893B11B7B002B0CBF0320052030BC24
S11319387047074B1B6843B11B7B33B10023052059
S1131948C2E90033F3E70120F1E70320EFE700BF22
S1131958E4620220E0620220B01B0220DC62022062
S11319682A060220589E0220D4620220D86202204D
S113197808B5044B1B7B8B4202D10AB902F0A4F9C7
S1131988002008BDF40302202C4B70B51C68002C01
S113199843D026792A4D002E43D02B6804F1100633
S11319A85BB9E37A3046022B0CBF4FF480634023C3
S11319B8A361FFF731FF01232B60224B1B7803F04F
S11319C8FF0443B1204B1A68204B1B689A4226D067
S11319D83046FFF7FBFE1E4B1E4D1A682B689A42D1
S11319E81BD005210020FFF737FE174B286819681C
S11319F8194B012403EB8121184B03EB802001F0E0
S1131A08BFF83046FFF7E2FE2B680521013303F0E7
S1131A18030300202B60FFF71FFE204670BD00243F
S1131A28D9E72C68002CF8D0FFF7B0FE0C21012070
S1131A382E603446FFF7F2FDEFE700BFE4620220B0
S1131A48C86202202A060220DC620220E062022028
S1131A58D4620220D0620220B01B0220B00B022004
S1131A68030700D470470548054B81681B68054A7D
S1131A780B440321136006F0BBBD00BF0090024075
S1131A885C9E0220609E02202DE9F84F374CDFF857
S1131A98EC9094F8008099F8005045FA08F515F090
S1131AA801055CD1324E83463068B8F1020F00F16B
S1131AB8010030600EBF284608F10100C0B2207052
S1131AC82C484FEA8824025500EB882ACAB28AF8BF
S1131AD801201B01C1F307228AF80220DBB2C1F3FB
S1131AE80742090E8AF8032006268AF8041040F2F1
S1131AF8A7278AF8053008E00135BD420AF8061020
S1131B0806F102060AF802301FD03BF81540584681
S1131B18A4B200F089FC230915F0010F06F10102B3
S1131B28E1B203F0F003E7D1711E1AF8010004F0E2
S1131B380F0201350243C4F30714BD420AF8012019
S1131B480AF8064006F10106DFD1012399F80020BE
S1131B5803FA08F3134389F80030BDE8F88F064AFE
S1131B68136801331360BDE8F88F00BF539E022049
S1131B78F06A0220F46A0220EC6A0220529E0220D3
S1131B882DE9F04F0446002706880588C6F30B069E
S1131B98C5F30B0500F24E5C34F8020BC0F30B00DE
S1131BA8864228BF0646854238BF0546A4450744F1
S1131BB8F2D1324CDFF8CC802068DFF8CCC098F83A
S1131BC800E0002848D14FEA8E204FF002090CF8B3
S1131BD800200CEB00025370C4F8009040F2F63970
S1131BE822680CEB000A330910445FFA81FB0AF8F7
S1131BF802B0844405F00F02C1F3072003F0F00398
S1131C088CF8010013435FFA87FAC1F30742C7F35C
S1131C180720F6B2090EC5F30715C7F307478CF872
S1131C2802208CF803108CF804A08CF805008CF8BA
S1131C3806708CF807608CF808308CF80950236813
S1131C480A33236023684B4504DD0D4B1A7862B1CF
S1131C5800232360BDE8F08F0CEB8E2090F80190F0
S1131C684FEA8E209945B0D1B8E7BEFA8EFE01221C
S1131C784FEA5E1E88F800E01A70E9E7E86A022075
S1131C88519E0220509E0220E862022070B51A4C30
S1131C9803462278194D22B92A78E2B91E22027025
S1131CA870BD2E78BEB9164D164B29784FF4806254
S1131CB803EB812109F08DFF01212B782278022B77
S1131CC801FA03F122EA010218BF013322700CBFA2
S1131CD82E702B7070BD0C4A0C4912781846B2FA53
S1131CE882F2520901EB82214FF4806209F071FFFC
S1131CF800232B7070BD00BF529E0220519E02200B
S1131D08549E0220F46A0220509E0220E8620220B7
S1131D180448054B81681B68044A0B44032113607B
S1131D2806F066BC009002405C9E0220609E022081
S1131D3830B54FF4837083B006F062F8032006F0E0
S1131D4881FA0546684606F049FC1E481E4CA0FB6D
S1131D580535AD0C69462046013D019506F0E0FBCA
S1131D6801204FF0FF316368184A23F001036360D0
S1131D786368107243F0020363606368144D23F0D0
S1131D8802036360204611605560032106F030FCAD
S1131D98204600220F4906F099FC63680E4D43F073
S1131DA80103636000F022FC00230C4A0C4C1370FE
S1131DB80C480D490D4A2B70237003600B70137087
S1131DC803B030BD83DE1B4300900240609E0220B6
S1131DD800000301BC050220539E0220529E0220EB
S1131DE8549E0220E86A0220509E0220519E02203E
S1131DF8014B9868704700BF00900240F02870B506
S1131E082ED0044625D8052828D80D4600F092FC83
S1131E1888BB1B4940F2A722B1FBF5F1002302FB62
S1131E2801F21848294602601748184D184A0370E9
S1131E3818482B701360184E184A194D0370204621
S1131E4833702B70147000F07BFC00F03FFC012011
S1131E5870BDFF2814BF0020102070BD002070BD85
S1131E6800F068FC08B9012070BD00F049FC00F0DE
S1131E78E5FC012070BD00F043FC00F0DFFCC8E77E
S1131E8840420F00709E0220539E0220549E02205E
S1131E98E86A0220509E0220529E02206C9E022074
S1131EA8519E022030B4029CB3F5806F28BF4FF4D2
S1131EB88063B4F5806F28BF4FF4806400254360C5
S1131EC8039B8460A342C5600170427038BF83607D
S1131ED830BC7047034BCA60186002B170470248AF
S1131EE809F03ABE1477022030BC0020013970B5DD
S1131EF808290FD8DFE801F0122B050E0E050E0E87
S1131F085800424B1B683BB11B7B002B0CBF0320C2
S1131F18052070BD012070BD032070BD3B4B1868BF
S1131F280028F9D0037B002BF6D03949394C0B68CB
S1131F38156804EB83239D4251D0374B0A681B680C
S1131F489A423DD10122354B00201A7070BD2F4BA7
S1131F5818680028E0D0037B002BDDD053680133D8
S1131F683BD013681B78002B44D101222C4B1A60F8
S1131F781B68002B3CD12B4C2B4A2168D0F8A43683
S1131F8802EB812290F89D16D0F8A80605F0C4F952
S1131F980028BED1254A136801331360236801332E
S1131FA803F00303236070BD184B1B68002BB3D0E8
S1131FB81B7B002BB0D000230520C2E9003370BD81
S1131FC80A68D0F8A43690F89C1604EB8222D0F85C
S1131FD8A806BDE8704005F083B9114BC8E75368FB
S1131FE80133AAD00B68013303F003030B60A4E7A1
S1131FF8002070BD0E4C0D492268094B013202F0D5
S1132008030222600A68013A0A60B1E714770220E1
S113201810770220B03B02200C7702202B06022006
S1132028F4760220FC760220B02B022008770220E6
S11320380477022000207047002070472DE9F04FF4
S11320489E4B83B01C68002C7FD026795EB99C4BCC
S11320581D68002D7CD19B4E3378002B6CD128460B
S113206803B0BDE8F08F964D2B68F3B9E37A964E2A
S1132078022B0CBF4FF4806340233168934AD4F891
S1132088A80602EB8122C4F8A43694F89D1605F03C
S113209843F940B98E4A1368013313603368013336
S11320A803F00303336001232B60DFF83C9299F8B3
S11320B8003003F0FF05ABB1DFF82882854BD8F870
S11320C800101A6891425ED072B699F80020002A6E
S11320D840F00E81D8F80030013303F00303C8F848
S11320E8003062B67C4B7D4F1A683B689A42B2D086
S11320F83968764ADFF8EC818B029B5CD8F80000DB
S1132108774D013B02EB81224FEA802B05EB802AB5
S11321181E2B3AD8DFE803F0756C9A393939393906
S11321283939393939393939393939393939393913
S113213839393939395B510000F0E6FB002818BFFA
S11321480546284603B0BDE8F08F25465D4E83E773
S1132158012461495C4A0E60604D5D48614916601E
S11321681E605C4A604B2E6006600E602046122199
S113217816601C70FFF752FA20460D213546FFF70A
S11321884DFA504E68E70025ACE7FF234D4E05F89D
S11321980B3072B699F80030002B7DD1D8F8003096
S11321A8013303F00303C8F8003062B601253B6825
S11321B82B4403F003033B604EE74C4B1B78002B86
S11321C840F0B480FF233F4E05F80B30E1E7474B5E
S11321D81B78002BF6D012210120FFF73DFA504658
S11321E8FFF754FD12210120FFF736FA354ED0E7E8
S11321F8344E3378002B40F08D80FF2305F80B30E4
S1132208C7E7304E3378002BF7D090785378D178DD
S113221803EB0023107903EB014303EB006000F0A8
S113222889FC0122034605F80B20010A4FEA134CE6
S113223810461A0E8AF802108AF801300D218AF81D
S113224803C08AF80420FFF7CBF9A2E71D4E3378C0
S1132258002BD2D0002301A8019300F071FC0322C3
S1132268019B05F80B20010A020C4FEA106E8AF84C
S113227802104FEA132C190C8AF803201A0E8AF854
S113228801008AF804E08AF805308AF806C08AF85A
S113229807108AF808207CE70E4AD4F8A436126896
S11322A894F89C16D4F8A80605EB822205F018F8D1
S11322B800287FF473AF89F800006FE714770220D1
S11322C8F87602204D9E0220FC760220B02B0220D4
S11322D80877022010770220047702200077022072
S11322E8B03B02200C7702202B0602204C9E0220D1
S11322F819681F4AD4F8A43602EB8122D4F8A80638
S113230894F89C1604F0ECFF00287FF4E3AE89F8F7
S11323180000DFE60D210120FFF79EF9504600F08A
S113232819FB0D210120FFF797F932E7D17893784B
S1132338107903EB0123517903EB004303EB0161AB
S11323485078FFF75BFD1F22034605F80B201E0C8F
S1132358000A1A0E8AF802008AF803601221012082
S11323688AF801308AF80420024EFFF739F910E799
S1132378B03B02204D9E02208AB1022B0FD00E4A98
S1132388126862B163B10D4B0D491B780D48172BC8
S113239808600FD000F2FE3040F2FE31104770475B
S11323A8064B07491B780848172B0860F7D0A0F29A
S11323B8FE30F1E7704700BFC88902202C060220CE
S11323C8C8810220CC810220CA85022002B9704744
S11323D840F24E5030B5104A10491468136883B05F
S11323E8013303F0010300FB04141360FFF700FD3D
S11323F801460B4B0B4D1B682046C91A5E222B78ED
S11324080191FFF7BDFB20469E2201992B7803B06A
S1132418BDE83040FFF738BB187702201C7702204C
S1132428709E02206C9E02200020704730B5154D26
S113243804462B7885B0FBB10822134B13491A7054
S11324480B6A134843F480730B6206F045FB0022C1
S113245810490F4806F080FB01210F4A0F4B0091E9
S1132468CDE901320E490F4B0F4A104806F078FBAC
S11324780F4B1C6005B030BD044806F095F90123E4
S11324882B70D9E7559E02202C0602200020084014
S1132498E4890220F91D0020A00B0220C0050220B7
S11324A8309E08401340FD03CC810220CC890220D1
S11324B8C889022038B5084C23685BB1074D084821
S11324C806F0E4FA2978074803F05AF9172200239A
S11324D82A70236038BD00BFC88902202C06022058
S11324E8E4890220002008401A4B1B6853B1F0B558
S11324F8194C83B02046194906F04CFB18B100204A
S113250803B0F0BDFEE7164E164D06F1100730462F
S11325182B46154A1549009706F0C4F93846124A5D
S1132528134905F2FE33009606F0BCF9114B204618
S11325381D6006F095FB0120237B1B0103F18043FA
S113254803F50223D3F8082442F00402C3F808244C
S113255803B0F0BDC8890220E4890220CC89022096
S1132568900B0220CC810220309E08401340FD03CA
S11325782340FD03C881022010B5084C40F2FE3206
S11325882046552109F027FB04F2FE3040F2FE32C2
S1132598BDE81040AA2109F01EBB00BFCC8102206F
S11325A80A4B1A680B466AB140F2FE3210B4084C62
S11325B8084924680978046007485DF8044B1A60E0
S11325C806F042B9026010460A607047C8890220C2
S11325D8C88102202C06022000200840024B1868FB
S11325E8003818BF01207047C8890220F0B52D4C67
S11325F891B02378002B4ED015222B492B4806F096
S11326086BFA00222A49294806F0A6FA4FF0010C71
S11326180024284B07AD93E8070085E807009DF8D8
S113262821209DF81D109DF81F305201224E42EAC8
S113263841029DF8201042EAC302204B06F110071C
S113264842EA011205A9CDF800C013430AA81C4A9E
S1132658019102971B49CDE90B44CDE90D440A9435
S11326688DF81440CDF816400F9406F079FA0AA9AB
S11326780E4806F08FFA38462946134B114A00963D
S113268806F0BCF9294630460D4B0E4A009706F071
S1132698B5F911B0F0BD044806F086F8012323709B
S11326A8AAE700BF559E022000200840B8810220F6
S11326B84D1E002084BC0020700B02200141A6029C
S11326C81C77022000030A406A7C022010B50A4CD9
S11326D8204606F0C5FA0120237B08491B0103F1B3
S11326E8804303F50223D3F8082442F00402C3F814
S11326F80824087010BD00BFB8810220569E02202D
S113270838B50A4C0025204606F0C0F90123217B80
S1132718A2684809283252F8204001F01F018B4072
S11327280349234342F820300D7038BDB881022094
S1132738569E0220014B1878704700BF569E02200F
S1132748F0B5012295B00C4605461021252005F068
S11327587DFB40F2111005F053FB4FF40022334B7C
S113276805A8C3F8C82006F0C9FB02220723802164
S113277801208DF81C2006918DF8153009938DF8E9
S1132788160005F0B7FCB0FBF4F39B08013B05A960
S11327982748089306F050FB254806F045FC2448D2
S11327A806F04AFC0BA806F02DFC032D3AD8DFE806
S11327B805F02D303602032201230C928DF82C30BB
S11327C80126072300271A4D31460BAA28460F93E2
S11327D88DF84C7006F0D4FB01A806F0C3FB28461C
S11327E801AA0821ADF8107001968DF8126006F060
S11327F897FB10490F9AB1FBF4F102FB01110E4B40
S11328081960FFF785FAEE6115B0F0BD02230C9349
S1132818D6E7002201230C928DF82C30D0E7002350
S11328280C93CDE703230C93CAE700BF00000240D2
S113283800000A4040420F005C9E02204FF0FF3225
S113284808B5064B1A60FFF763FA0022044BDA61F5
S11328581A6922F001021A6108BD00BF5C9E0220B9
S113286800000A4010B4054A054C13782468013363
S1132878DBB2137023465DF8044B1847579E0220B9
S1132888008A0220F8B5EFF3108672B6194B1A4D78
S11328981C682A68A41A032C0BD91A68DFF864C0C8
S11328A82F68DCF80040033AD71B3C442A60CCF874
S11328B800401C682A68A41A032C02D986F31088DD
S11328C8F8BD82271A681C6802F0030201341C60F0
S11328D80A4B95020A4CEF54247803EB8223E4B2A2
S11328E80A465C700146981C09F073F986F310884F
S11328F8F8BD00BFF8890220FC890220048A02205E
S1132908579E0220049A02200F4A104B12681B6833
S11329189A4214BF0120002000D07047002300B55C
S113292883B0684601A9CDE90033FFF739FE019B5E
S1132938984231BF0120064BD3F8040EC0F380102F
S113294803B05DF804FB00BFF8890220FC8902206B
S113295800900840F0B583B0EFF3108572B62D4BA4
S11329682D4E1A6833689A423FD8044685F3108876
S113297800250422294B02701B78857001334370AB
S1132988C5700571FFF72AFE10B9012003B0F0BD28
S1132998684601A9CDE90055FFF702FE009B002B0C
S11329A8F3D0019EB042F0D21D4F361A3A689642CF
S11329B8EBD939683A68B21A904298BF3E68C1F3B5
S11329C80B0298BF361842EA0632751A100A1944DF
S11329D8130CA270E0702A462371601D09F0F9F8FF
S11329E8681DC0F387003E60D0E733680D4903F0E3
S11329F803034FF4806201EB832109F0EAF885F3BD
S1132A0810880021FF203368054A013333601160C0
S1132A1803B0F0BDF8890220FC890220579E0220E9
S1132A28F4890220048A022070B54B1C86B05CD05D
S1132A380446002859D040F217400D4605F0E0F945
S1132A484FF080434FF48042C3F82422FFF7C6FDB9
S1132A58002855D12C4B2D481C60FFF7E7FC0320B8
S1132A6805F0DAFB019002A806F0C2FC0123284E07
S1132A78019A304602A90295ADF8103006F01AFD05
S1132A8860B300250021234A2348244B11600160C8
S1132A984FF480622248196009F09DF800214FF430
S1132AA88062204809F097F800214FF480621E489C
S1132AB809F091F800214FF480621C4809F08BF862
S1132AC8FFF75AFD01221A4B1A70FFF70DFD002873
S1132AD808BF4FF0FF35284606B070BDD6F8003E53
S1132AE843F40053C6F8003ECCE700224FF0FF350C
S1132AF8054B07481A6006F069FC284606B070BD05
S1132B08FFF7D8FCA6E700BF008A0220E5220020D0
S1132B1800900840F8890220FC890220F4890220E8
S1132B28048A0220048E02200492022004960220C1
S1132B38579E022001460148FFF776BF052300206F
S1132B4810B5044640F2174005F05AF94FF0804397
S1132B584FF480420320C3F8242205F05DFB0346AA
S1132B68034A0020A2FB03235B08236010BD00BFB7
S1132B78398EE338FF234FF001100B70704700BF04
S1132B882DE9F04F2DED028B04788BB084F0800290
S1132B981F2A20D90B4603F8014B80468A46009326
S1132BA8162C21D8DFE814F0FD00F200E200D90069
S1132BB83F0124018B0020007100C200B9002000ED
S1132BC82000200020002000C201A2006601560156
S1132BD87A0145002500FFF7CDFF044620460BB0D7
S1132BE8BDEC028BBDE8F08FFF234FF001140B708E
S1132BF8F4E7C04A1178022940F056824378917D5F
S1132C08D375994240F250820E2001F0C1FF01F0C1
S1132C18E1FD0023040A010C020E8AF803408AF835
S1132C280200B54C8AF804108AF805208AF80130A5
S1132C38D4E74678AF4808F102028675DEB100F1A0
S1132C48180C674664460025B11C203008EB0103C4
S1132C5812F8011B9A4204F8011B20F8025B0D4488
S1132C68F6D1A64B0CEB060117F8012BAD1AB942A5
S1132C7823F8025BF8D10023741C240444F00104F3
S1132C8804F101148AF80130A8E79A490A78012A5C
S1132C9800F06E85022A40F01F824278887DCA754A
S1132CA8904240F21982082001F072FFD8F802001D
S1132CB801F040FE0023924C8AF801308EE78D4DD6
S1132CC82E78012E00F0DB85022E00F06C850022A0
S1132CD803234A708A70CA7098F80420910740F157
S1132CE8FE8143F4802808F1011477E7D0F8012025
S1132CF8002A00F00582834B83491B68A1FB03402B
S1132D08B2EBD00FC0F0168601227A4B5A705A6083
S1132D1800237E4C8AF8013060E702F0E1FB0023CF
S1132D287B4C8AF802008AF8013057E7754A7948DB
S1132D3812687549A0FB0232920C0432A1FB0232DC
S1132D48B8F80130920803FB02F31A46013B002A43
S1132D58FBD1714C8AF8012040E70025654B6B4C88
S1132D681D7002F0C9FC8AF8015037E74478012C39
S1132D7840F2AB81022C40F0F6845E4B1C7002F0EA
S1132D88B1FC8AF801404FF0021427E74278002A80
S1132D9800F09081012A00F09381FF235E4C4B7070
S1132DA81CE74378881C042B00F26A81002B00F08E
S1132DB8A481023B022B00F27B87DFE803F00B02BD
S1132DC81200402102F074FBC3B203F102148AF822
S1132DD8013003E71A22514908F0FBFE504C1A232C
S1132DE8F5E705224F4908F0F4FE4F4C0523EEE7BA
S1132DF8404D431C06932B78012B079300F0508316
S1132E08022B00F081818278C61C3AB900F0BDBC5F
S1132E18DC0606D40136013A00F0B78433789D07FE
S1132E28F6D40536F7E7002098F80110314A1172F4
S1132E3898F8034098F8021041EA0421518198F85F
S1132E48051098F804302E4C43EA012393818AF83C
S1132E580100C3E6002098F80130264903F0030274
S1132E680132C3F380030A754B754FF002148AF8D4
S1132E780100B3E6407808F10201002800F0398126
S1132E88C41DE4080134240444F0010404F10114C9
S1132E9801F092FE00238AF801309FE600224A706E
S1132EA8427801F10209861C571E002A00F0D785D2
S1132EB80125A84616F8014B4A463146204600F03B
S1132EC821FF14F03F0303F107034FEAD30306BFBE
S1132ED8092208235A1C013F2106904444BF9944FF
S1132EE8ED187A1C1E44E5D1ACB244EA084404F156
S1132EF8011473E6089A022006000200389A022098
S1132F0802000600F8050220CDCCCCCC020001005A
S1132F180300010083DE1B430200030098BC002069
S1132F281C00020090BC002007000200B24898F878
S1132F380220836812F00106D0F804E0009398F8A0
S1132F480110D8F80330D0F800C005D00124CF0709
S1132F584CBFAA48AA48046012F0020705D004240A
S1132F688D074CBFA548A648046012F0040B04D092
S1132F78A44C480800F00200206055B2002D70DB14
S1132F88002B4ED04FF000089F484FF00509984297
S1132F9828BF1846984C9D4BC4F808801B68DFF876
S1132FA8A08202F020020192A8FB03239B0C00FBE1
S1132FB803F3974A013B63604FEA5118C4F8009041
S1132FC84B084FEA9109CC0926B1106800F00100BA
S1132FD8814219D127B11068C0F38000834213D10C
S1132FE8BBF1000F04D01068C0F3400081450BD139
S1132FF8019810B1B8F1000F06D1002D08DA106855
S1133008C0F3C040844203D07B480068C003DBD5CA
S11330180022794B1A60009A9A60C3F804E0C3F856
S113302800C07B4A7B4C156813681068116805F06A
S1133038010501F008010D435B08116803F0020360
S11330481268400000F004002B43890C034301F08C
S11330581001120B0B4302F0800213438AF801306B
S1133068BCE5C8094FF4005800F08F846A4CDFF8B7
S11330789091206820F400202060C9F800807FE740
S1133088FE2B00F0B084FF2B06D104230022CB7062
S1133098624C02238A709AE6F02B40F08C84132346
S11330A85F4C8B70012392E6FF234FF002148AF8D9
S11330B8013093E583785B4ADB4303F001035371E2
S11330C80023594C8AF8013088E50123574A1C46E5
S11330D8137002F0FDFA54E6FF23554C77E6B8F86E
S11330E80240A40404F5802444EA030808F1011406
S11330F874E54FF480704F4CCAE64FF0021466E64C
S1133108FF234D4C4B7069E5002098F80120A97DF8
S11331184A4C0AF1030391422070EA75039340F282
S1133128748498F8023008F103060293002B00F027
S1133138A685B346034606460190D94619F8017B8D
S113314807F0010808F10A02B907049240F1AE80B9
S1133158002E00F0B9809A42B5F80A8040F01F8129
S1133168FA0600F11C81CDF814B0AB4645469846E2
S113317807E0002D00F01A842278013D002A40F06F
S11331881584384609A901F00DFD0228F1D04346FB
S11331985D46DDF814B0012840F07985099A039951
S11331A8100A4870100C01F1040C0A708870120E91
S11331B8F806CA70CDF80CC000F18980CB46002E01
S11331C800F048810199227801310191002A40F0E8
S11331D8B884029A013A0292AFD1B0465E460A2BED
S11331E802D00A2001F0D4FC6D89B8F1000F47D051
S11331F80DF124092AE000BF10E000E000E20840D5
S113320880E2084080E10840C0C62D00F80502208D
S113321800E108400200070000E008400400020042
S11332280300020000C0084002000300089A0220BC
S1133238020006000200220002000100589E02203B
S113324883DE1B4315B32378013DFBB949460E20A1
S113325801F0A8FC0228F5D0012817D1039C099B8A
S11332689DF80450190A1A0C23701B0EE370231DD1
S11332786170A27003930BE045B12378013D2BB92B
S113328800210E2001F08EFC0228F5D09DF8045090
S1133298069B009AF61A039B8AF801509C1A44EA82
S11332A8064404F101148AF8020097E4002E40F061
S11332B88E80DBF80120B9060BF1050B099240F169
S11332C8AE8000262A617DE7FA0640F1C38004989F
S11332D8DBF8012098420BF105090792B5F80CB008
S11332E801D001F055FCB5F80A8009E0B8F1000FE7
S11332F800F0D480237808F1FF38002B40F0CE800A
S11333080021384601F04EFC0228EFD0012840F095
S1133318C580A8465D46DDF81CB00596B8F80A6075
S113332804E05EB32378013E002B34D1384609A962
S113333801F038FC02280246F3D001282BD1D8F832
S11333481030099A13409B4500F04A831DB1237835
S1133358013D002BE2D011204546DDF814804E468D
S1133368049B029A05E0CF0606D40136013A00F020
S1133378308331788F07F6D40536F7E74546DDF80C
S1133388148009992B690B4007999942E7D042F0B8
S11333981002D0B2E3E74546DDF81480F1E70A2BC2
S11333A876D00A2001F0F4FB464607E0002E00F030
S11333B8E3822378013E002B40F0E2820E2009A923
S11333C801F0F0FB0228F1D00A230026E3E60A2BD9
S11333D802D00A2001F0DCFBB5F80A8008EE107A66
S11333E8474605E0002F55D02378013F002B51D1E3
S11333F80E2009A901F0D6FB0228F3D0012818EE03
S1133408107A47D1099A0398110A02704170110C75
S1133418120EC270021D0A238170039249E70498B0
S1133428984201D001F0B4FB6E8907E0002E00F049
S1133438C7822378013E002B40F0C582384609A98B
S113344801F0B0FB0228F1D0012840F0BC8200262C
S1133458049BB7E60498984201D001F099FBB5F8AB
S11334680AB05E4607E0002E00F083822378013E0E
S1133478002B40F07E820021384601F093FB02289D
S1133488F1D00128064640F00684CB46049B99E611
S1133498464693E70A23B046049360E7B0465EE7DE
S11334A80022B24C90F802B0CB1C2270C61C0493C4
S11334B8BBF1000F00F0DE8310469046059202929D
S11334C8334613F8017B0393BB077CD5B8F1000F8F
S11334D829D007F01102012AB5F80A9000F01E81DC
S11334E8B0464E4607E0002E00F041822378013EA4
S11334F8002B40F010810E2009A901F0CFFF02280B
S1133508F1D046464FF0000801284FD1049A099B90
S1133518190A4FEA134C13701B0ED370131D517004
S113352882F802C0049317F010037CD0D6F8013057
S1133538F907019306F105030393AE8912D5B5F88B
S11335480A904B46B1461E4603E07EB32378013EFB
S113355863BB0021384601F0A1FF0228F5D00128F9
S11335684E4623D1B5F80A9009E0B9F1000F00F0EE
S1133578EB80237809F1FF39002B40F0E58009A995
S1133588384601F08BFF02280146EED0012840F0AE
S1133598DB80099A2B691340019A934200F0DF807B
S11335A81EB12378013E002BDCD01120039E05E0D8
S11335B8DF0606D40136BBF1010B1ED033789A0717
S11335C8F6D40536F7E7B8F1000F67D1D6F801301D
S11335D8B90606F10506099340F186804FF0000804
S11335E801202B61029A237801320292002B40F0C9
S11335F8A980BBF1010B7FF463AF012800F00982B5
S1133608C3B20793069B009AF61A049B9C1A029B62
S113361844EA06448AF80130079B04F101148AF845
S11336280230FFF7DBBAFA076E890BD5B8F1000F41
S113363827D0039E0593D5E7002EB7D02378013E03
S1133648002BB3D1384609A901F028FF0228F3D08A
S11336580128ABD1049F099B039E190A4FEA134C16
S11336683B701B0EFB70002305933B1D797087F894
S113367802C00493B6E7002E4DD02378013E002BF8
S113368894D10021384601F009FF0228F3D001281B
S11336988CD100238046039E0593A3E7B5F80A90CE
S11336A84B46B1461E4607E0002E3FF47FAF237811
S11336B8013E002B7FF47AAF0E2009A901F0EEFE3B
S11336C80228F1D001284E467FF470AF0498099B74
S11336D8190A4FEA134C03701B0EC370031D417083
S11336E880F802C0049371E7B5F80A8006E0B8F1DF
S11336F8000F27D0237808F1FF385BB9384609A9A9
S113370801F0CCFE0228F2D0012803D14FF00008C2
S1133718059067E703964FF0000847E74B46B14624
S11337281E4607E0002E3FF441AF2378013E002BEC
S11337387FF43CAF384609A901F0B0FE0228F1D065
S11337484E46E1E6039631E7099A2B691340019A3C
S113375893423FF42BAF41F01001C8B226E700238F
S1133768039E05933EE70024FFF70BBB589E0220F7
S1133778D0F8023009A90020099301F08FFE002334
S1133788BD4C8AF80130FFF729BA0023069A8AF853
S11337980130B41A240444F0020404F101148AF830
S11337A80230FFF71BBA00214278A87DB34C0AF116
S11337B8040390422170EA75019340F21A81B8F823
S11337C80290B9F1000F00F0188198F8047007F01E
S11337D8010202F10A031846059301F0D9F917F01A
S11337E8020340F0C58108F10502CDE903A602955C
S11337F8C24615469846CB460DF1240955F8042BC4
S1133808029B09925E8907E0002E00F0A7802378C6
S1133818013E002B40F0A2804946384601F0C2F927
S11338280228F1D0012840F03A82BBF1010B08F1DB
S11338380108E3D1059B47460A2BD046DDE9025A25
S113384802D00A2001F0A4F96D8903E045B1237878
S1133858013D2BB900210E2001F0A4F90228F5D06E
S11338680646FAB2C7F307238AF801208AF8023019
S11338788AF80360DDE900239B1AFFF72DBA0022BA
S11338887E4CB0F802B00B1D22700293BBF1000FFE
S113389800F0B780077917F0020940F0E480431D6F
S11338A8A84682461D46CDF8049003910DF12409DB
S11338B855F8042BB8F80A60099203E08EB323780C
S11338C8013E73BB4946384601F0E8FD0228F5D0AD
S11338D8012826D1019BBBF1010B03F101030193DC
S11338E8E6D14546D0466D89DDF80CA003E045B124
S11338F82378013D2BB900210E2001F0CFFD0228C9
S1133908F5D00646019BDAB2C3F30729029B8AF86D
S11339180120009A8AF802908AF803609B1AFFF73C
S1133928DBB9019BD0460646DDF80CA0DAB2C3F336
S11339380729EBE702EB5303013BB3FBF2F3002245
S11339484F4D032B6A7042D90133092B03D9A1FBCC
S113395803239B085A1E6A60FFF7DAB94346049E9C
S1133968D046DAB2DDF80CA0C3F307237CE7B046EF
S11339781CE64FF00008F2E40A23B0460493EEE490
S11339880A234FF000080493E9E44FF40024DFF815
S1133998FC903C48C9F80080A9F500790460D9F87E
S11339A800002043C9F80000FFF7EABA43465D4621
S11339B8B0460493D3E423464FF00214FFF707BA42
S11339C8B046D946CBE4D9464FF00008C7E40122F3
S11339D8C1E701283FF403AC9DF80450C0B257E492
S11339E84546059E51E50423274C8B700123FFF7B8
S11339F8EEB90E460B460A4636E74E464B464A464D
S1133A0832E75E46D9465A4680E7054608F102067B
S1133A183EE4B8F1000F00F099806D890DF1240996
S1133A2807E0002D00F0A2802378013D002B40F030
S1133A389D8049460E2001F031FD0228F1D001286D
S1133A4807907FF4DFAD0498099B190A1A0C0370D8
S1133A581B0EC370031D417082700493D2E54FF0AE
S1133A680214FFF7BBB8F80724D52B46B5F80A901B
S1133A784D46994614E000BF02000600589E0220F5
S1133A88089A022080E208400300020000E208408D
S1133A98002D00F0E0802378013D002B40F0D68013
S1133AA80021384601F0FAFC0228F1D001284D46DD
S1133AB840F0CC8000220BF1FF33CDF8048093460C
S1133AC8A8461D460496029E0DF12409CDF80CA0C3
S1133AD81DB917F0010F18BF0E272B46B8F80AA016
S1133AE855469A4603E00DB32378013DF3B9494698
S1133AF8384601F0D3FC0228F5D00128554615D1E3
S1133B08099B0436180A1A0C06F8043C06F8030C38
S1133B181B0E06F8022C06F8013C0BF1010B0AF106
S1133B28FF33002D00F081801D46D1E70296DDF8B1
S1133B3804800646DDF80CA05FFA8BF2CBF3072964
S1133B48E4E6B04601205E46029A12E4059B002B87
S1133B583FF458AD6D8903E045B12378013D2BB995
S1133B6800210E2001F09AFC0228F5D0079049E5BF
S1133B782B46B5F80AB05D469B4605E0002D62D099
S1133B882378013D002B5BD10021384601F00AF867
S1133B980228F3D001285D4675D1002209F1FF33CC
S1133BA8DDF804B0CDF808A00195C2461D4690463C
S1133BB80DF12409039675B3019B5E8903E0FEB1F8
S1133BC82378013EE3B94946384600F0EBFF022862
S1133BD8F5D0012843D1099B0BF1040B4FEA132CB0
S1133BE81A0C0BF8043C0BF803CC1B0E0BF8022C34
S1133BF80BF8013C08F101086B1E85B31D46DAE792
S1133C084346039ED046DAB2DDF808A0CDF804B0E6
S1133C18C3F3072328E6059B0A2B04D00A2000F0E7
S1133C28B7FF0E27C8E70E27C6E70296DDF804801B
S1133C38049EDDF80CA05FFA8BF2CBF3072965E646
S1133C4800231A4610E62B462A460DE64FF00009D3
S1133C5806464A465AE6A94606462A4656E64346CC
S1133C680646D046DAB2DDF808A0CDF804B0C3F3AE
S1133C780723F9E5CDF808B0CDF81CB0C2E40298E2
S1133C880546FFF705BB002306461A46ECE5B04691
S1133C980493FFF764BB4FF00008FFF760BB43468B
S1133CA80646D046DAB2DDF80CA0C3F30723DBE5F9
S1133CB81322034907F08DFF024C1323FFF787B83B
S1133CC8B4BC0020150002000021012030B4642493
S1133CD8094B0A4D1A680A4BA5FB02529882D20C6A
S1133CE8198019729975033A5C8130BC5A609981BC
S1133CF8196101F09BBC00BFF805022083DE1B4359
S1133D08089A02202DE9F04F85B00392042210F09E
S1133D183F0C08BF4FF0400C43064CBF2A4B2B4BBB
S1133D280191DFF8B0B01A60DFF8A0A000F08003BA
S1133D38DFF8A490DFF890800293604600250126FE
S1133D48019BACF1080C13F8014BC0F1080E019368
S1133D581F4B5F680EEB000360B33B46620002F042
S1133D680202CBF80020CAF800601A46013B002A78
S1133D78FBD13B46D9F80010C8F80060C9081A46B8
S1133D88013B002AFBD1CB010138DBB2604543EA91
S1133D9855054FEA5404DDD1029B1BB9BCF1000F51
S1133DA8CBD10DE0039B03F8015B0393BCF1000F37
S1133DB8C3D105E0029A1AB1039A25FA03F31370E2
S1133DC805B0BDE8F08F00BF00E2084080E208407B
S1133DD8089A022080E1084000E1084004220123F7
S1133DE8F0B44849484C0A602360004600460B601A
S1133DF8004600462360004600460B600046004625
S1133E0822602360004600460B600046004623609B
S1133E18004600460B600046004602273B4D3C4ADC
S1133E28EE7D176005EB4602128C42B12360004612
S1133E3800460B6000460046013AF7D1EE7DAB1907
S1133E481A7E013A12D00121314F2F4E2D4C4300D6
S1133E5803F002033B6031600046004621600046DF
S1133E680046013A4FEA5000F1D1EE7D05EB4605D4
S1133E782B8E002B3BD00122254C00FA02F122485C
S1133E8801F0020121600260004600461D490A60F3
S1133E98004600460225013B256007D00260004623
S1133EA800460A6000460046013BF7D1042001227F
S1133EB8144B154918600A60004600461A6000460B
S1133EC800460123104A1360004600460D490B6062
S1133ED800460046042010601360004600460B604C
S1133EE8004600460222F0BC094B1A6070470122C2
S1133EF80425044B064C904000F002001D60024962
S1133F082060D8E700E2084080E20840089A0220CE
S1133F1880E10840042301222DE9F041924C934E9C
S1133F282360326000460046226000460046336043
S1133F383260004600462260004600463260004671
S1133F480046226000460046894DEB7D3BB1326055
S1133F5800460046226000460046013BF7D1012492
S1133F68DFF814E2814B00F0020CCEF800C01C60AC
S1133F78004600467F4A7C4F16683C60004600466F
S1133F8820FA04F808F00208CEF800801C60004605
S1133F980046D2F800803C6000460046800800F0E5
S1133FA80200CEF800001C600046004610683C6021
S1133FB800460046E040B60800F0040006F0020699
S1133FC80643C8F3C0003043A04228D004223A6014
S1133FD81C60004600463C600046004601226349D6
S1133FE80A6000460046604C2260004600460423EE
S1133FF80B600A600046004622600046004602271D
S11340082D7A5D4E6B1E37603DB10A60004600464E
S1134018226000460046013BF7D2BDE8F081BCF1BE
S1134028000F44D096469C461F220024804606462C
S1134038CCF8006000460046DEF800303E600046DA
S11340480046DB0844EAC373013A4FEA5304EFD14C
S1134058AA7DEB7DD21A012A77D0CCF800800046DD
S11340680046DEF80030C7F80080C3F3C00C0046F1
S11340780046023A0AD001263C4B3B4F1E600046DC
S113408800463E6000460046013AF7D10427012263
S1134098354B364E1F603260004600461A600046B3
S11340A8004600299AD044EACC740C6096E71F2491
S11340B8804606469C460B685A0002F00202CEF877
S11340C80020CCF80060004600463E6000460046EA
S11340D8013C1A464FEA5303EED1AB7DE97D5B1AE6
S11340E8012B24D002F00202CEF80020CCF8008084
S11340F800460046C7F8008000460046023B0AD046
S113410801221A4C18492260004600460A600046FB
S11341180046013BF7D104240122134B13491C60C8
S11341280A60004600461A600046004656E7042125
S113413802F002023960CEF80020CCF800300046C4
S113414800463B600046004648E704233B60CCF841
S1134158002000460046DEF800303A60C3F3C00C85
S1134168004600469DE700BF00E2084080E20840A0
S1134178089A022000E1084080E108402DE9F04354
S1134188854E0427716801240B46844D844A2F60A8
S113419814601A46013B002AFBD101240B467F4ACE
S11341A814601A46013B002AFBD101240B467C4AC1
S11341B814601A46013B002AFBD101240B46774AB6
S11341C814601A46013B002AFBD1042501240B463E
S11341D8734A156014601A46013B002AFBD1012476
S11341E80B466E4A14601A46013B002AFBD101248F
S11341F80B466B4A14601A46013B002AFBD1012482
S11342080B46664A14601A46013B002AFBD1022277
S1134218F77D644B06EB4704248C1A60ACB1012586
S1134228A846DFF87CE1DFF874C10B46CEF80080BD
S11342381A46013B002AFBD10B46CCF800501A461B
S1134248013B002AFBD1013CEFD1F3191C7E013C50
S11342581ED00125A946DFF84C81DFF844E1DFF8D8
S11342683CC10B46420002F00202C8F80020CEF816
S113427800901A46013B002AFBD10B46CCF80050AB
S11342881A46013B002AFBD1013C4FEA5000E8D111
S113429806EB4706338E002B64D001240A46414DB1
S11342A8A04000F0020028603D4804601046013A2E
S11342B80028FBD101240A46384804601046013A14
S11342C80028FBD10220374A1060581E11D001245F
S11342D82746334E314D0B4637601A46013B002AB8
S11342E8FBD10B462C601A46013B002AFBD101384E
S11342F8F1D1042501200B46284C294A2560106079
S11343081A46013B002AFBD101200B46234A1060C0
S11343181A46013B002AFBD101200B46204A1060B3
S11343281A46013B002AFBD101200B461B4A1060A8
S11343381A46013B002AFBD1042401200B46184AE3
S1134348146010601A46013B002AFBD10122134B6A
S11343581A600B460139002BFBD10222114B1A605B
S1134368BDE8F083012404250A4600FA04F30B4847
S113437803F0020305600B4D2B60C0F88040134620
S1134388013A002BFBD101200B46044A10601A465F
S1134398013B002AFBD1BFE7089A022000E208404B
S11343A880E2084080E108402DE9F04FDFF8E4A2FC
S11343B80426DAF804400125234683B00191B14A62
S11343C8B1490E6015601A46013B002AFBD1012150
S11343D82346AD4A11601A46013B002AFBD1042545
S11343E801212346A74A156011601A46013B002A99
S11343F8FBD101212346A44A11601A46013B002A35
S1134408FBD1012123469F4A11601A46013B002A29
S1134418FBD1012123469C4A11601A46013B002A1C
S1134428FBD19AF817B05946BBF1000F13D00125F8
S11344382F46DFF850C2944E2346CCF800701A4633
S1134448013B002AFBD1234635601A46013B002A6A
S1134458FBD10139F0D101218A4B8C4D00F00202C5
S11344682A60196023461946013B0029FBD101261D
S11344782346874D84492D680E60ED081946013B93
S11344880029FBD101262346804F20FA06F101F0CA
S1134498020139607B49B54005F002050E601946F2
S11344A8013B0029FBD101272346794E764936681A
S11344B80F60C6F3C0061946013B0029FBD101274A
S11344C823468108714801F0020101606D490F60BB
S11344D81946013B0029FBD1012723466C486A4948
S11344E800680F60C0081946013B0029FBD1800011
S11344F800F0040028433043012853D00425012147
S11345082346614A1560C2F880101A46013B002A06
S1134518FBD1012123465C4A11601A46013B002A5B
S1134528FBD101212346574A11601A46013B002A50
S1134538FBD101212346544A11601A46013B002A43
S1134548FBD10425012123464E4A156011601A4601
S1134558013B002AFBD1012123464B4A11601A462C
S1134568013B002AFBD102259AF80830474A591E14
S113457815609BB101252F46DFF808C1424E23463A
S1134588CCF800701A46013B002AFBD1234635605B
S11345981A46013B002AFBD10139F0D2C0B203B05C
S11345A8BDE8F08F002A77D01F2681468046DFF8C1
S11345B8D4E0DFF8DCC0344F2346CEF800801A4636
S11345C8013B002AFBD12346DCF80050C7F80090D1
S11345D8ED081A46013B002AFBD141EAC571013EA8
S11345E84FEA5101E8D19AF81650A5EB0B05012DB5
S11345F800F0B98001262346224A16601A46013B78
S1134608002AFBD101272346214A1F4E126837602E
S1134618C2F3C0081A46013B002AFBD1023D13D05D
S11346280126B446DFF85CE0174F2346CEF800C0F5
S11346381A46013B002AFBD123463E601A46013B39
S1134648002AFBD1013DF0D1042601220D4B0E4D69
S11346582E601A6023461A46013B002AFBD1012525
S11346682346094A15601A46013B002AFBD1019BDF
S1134678002B3FF456AF41EAC8711960DAF80440D8
S11346884FE700BF80E2084000E2084080E10840AC
S113469800E10840089A02201F2584460746019B2A
S11346A8DFF824811968DFF824E1464E23464A00DE
S11346B802F00202C8F80020CEF800701A46013B46
S11346C8002AFBD12346C6F800C01A46013B002A3B
S11346D8FBD1013D4FEA510301D01946E6E79AF8A8
S11346E81620A2EB0B02012A54D001252346364E8C
S11346F801F00201316035490D601946013B00297A
S1134708FBD1012523462F490D601946013B002999
S1134718FBD1911E13D001252F46DFF8B0C0294ED6
S11347282346CCF800701A46013B002AFBD12346E5
S113473835601A46013B002AFBD10139F0D1042522
S11347480122224B1F490D601A6023461A46013B79
S1134758002AFBD1012123461A4A11601A46013B5B
S1134768002AFBD1DDE604272346164E174A376094
S113477815601A46013B002AFBD101262346144A38
S1134788104D12682E60C2F3C0081A46013B002A75
S1134798FBD16CE7042623460A4D01F002012E6082
S11347A8094E3160C5F880201A46013B002AFBD126
S11347B801212346034A11601A46013B002AFBD112
S11347C8AFE600BF00E2084080E1084080E208400C
S11347D800E1084053492DE9F0414C6804260120C2
S11347E82346514D514A2E6010601A46013B002A57
S11347F8FBD1012023464C4A10601A46013B002A8B
S1134808FBD1042501202346484A156010601A4646
S1134818013B002AFBD101202346434A10601A4673
S1134828013B002AFBD101202346404A10601A4666
S1134838013B002AFBD1012023463B4A106018465D
S1134848013B0028FBD1C97D91B10125AC46374F06
S1134858354E2346C7F800C01A46013B002AFBD14F
S1134868234635601A46013B002AFBD10139F0D1B1
S113487801261F25B046DFF8B4E0DFF8B4C02A4F9C
S11348882346CEF800801A46013B002AFBD1234672
S1134898DCF800103E60C9081A46013B002AFBD127
S11348A840EAC173013D4FEA5300E9D104260121CE
S11348B823461D4D1D4A2E6011601A46013B002AED
S11348C8FBD1012523461A49174A09681560C90806
S11348D81A46013B002AFBD101252246134B40EA24
S11348E8C1701D601146013A0029FBD101212246FD
S11348F80D4B19601146013A0029FBD10425012109
S113490822460A4B1D6019601146013A0029FBD161
S11349180122054B1A602246013C002AFBD1BDE85E
S1134928F08100BF089A022000E2084080E20840B3
S113493800E108402DE9F043DFF850920426D9F845
S1134948041001240B468E4D8E4A2E6014601A46BC
S1134958013B002AFBD101240B46894A14601A46FC
S1134968013B002AFBD1042501240B46854A156026
S113497814601A46013B002AFBD101240B46804AE5
S113498814601A46013B002AFBD101240B467D4AD8
S113499814601A46013B002AFBD101240B46784ACD
S11349A814601A46013B002AFBD199F81760344673
S11349B89EB10125A846DFF8CCE1714F0B46CEF82D
S11349C800801A46013B002AFBD10B463D601A467B
S11349D8013B002AFBD1013CF0D1002501240B4600
S11349E8694A1560C2F800411A46013B002AFBD106
S11349F801240B46624A14601A46013B002AFBD183
S1134A0801240B465F4A14601A46013B002AFBD175
S1134A1801240B465A4A14601A46013B002AFBD16A
S1134A2801240B46574A14601A46013B002AFBD15D
S1134A3801240B46524A14601A46013B002AFBD152
S1134A4801251F242F46DFF84081DFF838E1DFF81D
S1134A5830C10B46420002F00202C8F80020CEF82A
S1134A6800701A46013B002AFBD10B46CCF80050D3
S1134A781A46013B002AFBD1013C4FEA500301D0FE
S1134A881846E6E799F816309E1B012E60D00124DB
S1134A980B463D4A00F002001060C2F800411A4675
S1134AA8013B002AFBD101200B46354A10601A4607
S1134AB8013B002AFBD1B01E11D001242746314EF8
S1134AC82F4D0B4637601A46013B002AFBD10B4693
S1134AD82C601A46013B002AFBD10138F1D1042588
S1134AE801200B46264C274A256010601A46013BD4
S1134AF8002AFBD101200B46214A10601A46013BCB
S1134B08002AFBD101200B461E4A10601A46013BBD
S1134B18002AFBD101200B46194A10601A46013BB2
S1134B28002AFBD1042401200B46164A14601060A5
S1134B381A46013B002AFBD10122114B1A600B468D
S1134B480139002BFBD102220F4B1A60BDE8F08318
S1134B5804240B460A4A00F0020014600A4C206040
S1134B68C2F880601A46013B002AFBD101200B469B
S1134B78034A10601A46013B002AFBD1C2E700BF72
S1134B8800E2084080E2084080E10840089A0220D8
S1134B98034B5B780BB1FFF721B9FFF7EFBA00BFFE
S1134BA8089A0220034B5B780BB1FFF7B3B9FFF700
S1134BB8FBBB00BF089A022078B32DE9F043002517
S1134BC84FF0010E441EF14628464FF00408134BDB
S1134BD8DFF850C05E68124FDDB1013D3346C207AD
S1134BE84CBFC7F80080CCF80080CCF800901A4677
S1134BF8013B002AFBD13346C7F800E01A46013BC3
S1134C08002AFBD1013C631C4FEA5000E4D1BDE803
S1134C18F083072511F8010BE0E77047089A022092
S1134C2800E2084080E208402DE9F043012304270C
S1134C38944E954C3760236000460046934D2B6094
S1134C4800460046820032602360004600462B601E
S1134C580046004620FA03F24FEA820CC6F800C068
S1134C682360004600462B600046004620F0030CF3
S1134C78C6F800C02360004600462B600046004684
S1134C884FEAD00C02EB90024FEA8C0EC6F800E013
S1134C9802442360004600462B60004600466244F6
S1134CA8920032602360004600462B6000460046AE
S1134CB8002232602360004600462B60004600460E
S1134CC837602360004600462B60004600464FF0DC
S1134CD88052DFF8C0C122606D4EDCF80070327D6E
S1134CE827F00407CCF800703AB123600046004668
S1134CF82B6000460046013AF7D10123624C236039
S1134D08004600465F4F614DD7F800E02B6000462F
S1134D180046236000460046D7F800C02B600046D2
S1134D2800462360004600463A682B600046004669
S1134D3822F0030242EA9E024FEA9C0C42EA4C0229
S1134D489A425DD0022A1BD0042A19D020462C4648
S1134D58317D213103600046004623600046004649
S1134D680139F7D104214FF080534A4D2360016083
S1134D782B68444C0B432B60D0B22160BDE8F08310
S1134D88737D6BB183070BD5212301213E4D3F4C25
S1134D98296000460046216000460046013BF7D1E1
S1134DA8337D53B10121384D384C29600046004603
S1134DB8216000460046013BF7D104234FF0805799
S1134DC8324C314D334927602B600B68767D43F0B4
S1134DD804030B6076B110F002000BD121230121EA
S1134DE8284E30602960004600462160004600468F
S1134DF8013BF7D10421234BD0B21960BDE8F083FD
S1134E0810F0020C48D1337D43B1204602600046BD
S1134E1800462A6000460046013BF7D104234FF0C0
S1134E2880504FF0010E194C174D1A4A20602B6020
S1134E381368144F43F0040313600B68202271466F
S1134E489800386029600046004621600046004604
S1134E58013A9C444FEA5303F2D14FEA8C0038607C
S1134E68C5F800E000460046C4F800E000460046E5
S1134E78337A0120002B53D10422024B1A60BDE877
S1134E88F08300BF80E1084080E2084000E2084067
S1134E98089A022000E008404FF0000CA146104692
S1134EA8E6462024C9F80020004600463B682A60EC
S1134EB89B08004600464FEAC378013C9C4448EAF4
S1134EC85E0EEFD1C9F80000004600463B68286032
S1134ED8004600468CEA930C1CF0010F0CBF01201D
S1134EE8082009B1C1F800E0337D53B10122154C03
S1134EF815492260004600460A6000460046013B08
S1134F08F7D104214FF080540F4A0E4B14601960F6
S1134F18A2F5007213680B431360337A002BABD0ED
S1134F28002501220949074C0D60803122600046A2
S1134F3800460A6000460046013BF7D10422034BB1
S1134F481A609CE780E2084000E2084080E10840DB
S1134F582DE9F04FDFF874E20426DEF8042001247A
S1134F68134683B00191954D95492E600C601946FE
S1134F78013B0029FBD10124134692490C601946D0
S1134F88013B0029FBD1012413468C4985000D609F
S1134F98C1F800411946013B0029FBD101241346FD
S1134FA888490C601946013B0029FBD101251346A9
S1134FB8824920FA05F4A6000E60C1F8005119468A
S1134FC8013B0029FBD1012513467E490D60194692
S1134FD8013B0029FBD101251346784E20F003013B
S1134FE83160774904EB90040D601946013B0029B0
S1134FF8FBD10125134673490D601946013B00296D
S1135008FBD1012613466D49C508AF000F6004445F
S1135018C1F800611946013B0029FBD1012613465A
S113502868490E601946013B0029FBD10126134645
S11350386119624C8900216061490E601946013B7F
S11350480029FBD1012413465E490C601946013B33
S11350580029FBD101241346584D296058490C6096
S11350681946013B0029FBD10124134655490C601C
S11350781946013B0029FBD10425012413464F4955
S11350880D60C1F800411946013B0029FBD10124F8
S113509813464C490C601946013B0029FBD14FF0DB
S11350A88053474E484933600B689EF8144023F0F8
S11350B804030B60A4B101272546B846DFF804C1F0
S11350C81346C6F800801946013B0029FBD1134654
S11350D8CCF800701946013B0029FBD1013DEFD102
S11350E80125134636490D601946013B0029FBD1B9
S11350F801251346314E334936680D60B608194602
S1135108013B0029FBD1012513462D490D601946A1
S1135118013B0029FBD101271346284D29492D6855
S11351280F60AD081946013B0029FBD14FF0010C73
S11351381346234905FA0CF7C1F800C01946013B88
S11351480029FBD14FF0010C13461C491D4D096879
S1135158C5F800C01D46013B002DFBD121F0030317
S11351681E433E43012E00F08380022E30D0042ECD
S11351782ED001208446124F124D21341346C7F80D
S113518800C01946013B0029FBD113462860194683
S1135198013B0029FBD1013CF0D104224FF080549B
S11351A80848074B084904601A600B68034C13430A
S11351B8F0B20B60226003B0BDE8F08F80E10840D4
S11351C880E2084000E2084000E00840089A022013
S11351D89EF81580B8F1000F00F0C08010F0020AA4
S11351E816D001272125B946DFF8A4E2DFF89CC2CE
S11351F81346CEF800901946013B0029FBD113460B
S1135208CCF800701946013B0029FBD1013DEFD1D0
S1135218002C40F0A68004204FF080549B499C4BFE
S11352280C60A1F5007118600B6803430B60BAF1B8
S1135238000F16D101242120A446964B944F934D78
S1135248C3F800A01346C7F800C01946013B00295B
S1135258FBD113462C601946013B0029FBD10138C8
S1135268F0D104228B4BF0B21A6003B0BDE8F08F82
S113527810F0020040F09C8094B13746DFF810C269
S1135288824D1346CCF800701946013B0029FBD126
S113529813462E601946013B0029FBD1013CF0D18D
S11352A84FF0010C4FF080540423E1462025774F3A
S11352B8774E79493C6033600B68DFF8D88143F056
S11352C804030B60019B1C681346A100C8F8001076
S11352D8C6F800901946013B0029FBD11346C7F8CC
S11352E800C01946013B0029FBD1013D20444FEA87
S11352F85404E9D101241346664980000860C1F8C2
S113530800411946013B0029FBD101215F4B19607B
S11353181346013A002BFBD101209EF80810B9B1BD
S113532801250022AC465B4B594F584EDEF8044029
S11353381A602346C7F800C01A46013B002AFBD16D
S1135348234635601A46013B002AFBD10139F0D1C6
S11353580422504B1A6003B0BDE8F08F002C00F013
S113536888800125AE46DFF828C1484F1346CCF89B
S113537800E01946013B0029FBD113463D6019465C
S1135388013B0029FBD1013CF0D104244FF08055A6
S11353983E493F4B0D60A1F500711C600B68234327
S11353A80B60B8F1000F3FF45CAF00F0020A3EE76F
S11353B8AC46B3462027DFF8D8A0DFF8D890DFF84A
S11353C8CC801346CAF800B01946013B0029FBD12A
S11353D81346D9F80000C8F8006080081946013B54
S11353E80029FBD1C307013F054443EA5C0CE8D11B
S11353F801201346264908601946013B0029FBD1C0
S113540801202449214B0968186089081346013A88
S1135418002BFBD14D40019B15F0010F0CBF01205F
S113542808201BB1C3F800C09EF81440A4B101259C
S1135438AC46DEF80410164F144E0B46C7F800C0ED
S11354481A46013B002AFBD10B4635601A46013B3C
S1135458002AFBD1013CF0D104214FF080540B4ABF
S11354680B4B1460A2F50072196013680B431360A8
S113547853E704214FF08054054B0448064A04605E
S1135488196013680B431360EBE600BF00E20840A1
S113549880E2084080E1084000E00840034B5B7864
S11354A80BB1FFF7C1BBFFF753BD00BF089A022039
S11354B870B50C46084E094932680546944228BF1F
S11354C81446224606F085FB33682046A34284BF6F
S11354D800232B5570BD00BFE8050220D00502202B
S11354E84FF400502DE9F8434849494C1322D4F8A5
S11354F80890484BD4F8048027680860002146487F
S113550803F044FC002305222546444EA360336877
S11355184349A1FB03139B0C03EB83039B00013B4F
S1135528636022602B68DB03FCD5132200213D4B0A
S1135538394803F02BFC4FF40054002305223A4861
S113554837490460AB603368314CA1FB03139B0CEF
S1135558C3EB0313013B6B602A602368DD03FCD5AE
S11355684FF40051294A2B4B11602B481322002178
S113557803F00CFC00224FF4FA630520A2603168A2
S1135588274D234AA5FB0151890C03FB01F3013B79
S1135598636020601168C803FCD54FF4804500207F
S11355A80521214C25601A4C9060536011602368D2
S11355B8D903FCD5132200211A4B174803F0E6FB44
S11355C84FF40055002340F6B832052016490D6003
S11355D8A3603168124D0E4BA5FB0151890C02FBE7
S11355E801F2013A626020601A68D203FCD50022F5
S11355F84FF480411A60054AC3F808900120C3F8A3
S113560804801F601160BDE8F88300BF00E2084011
S113561810E000E0CC05022000C00840F805022094
S113562883DE1B43489A022080E2084000222DE9C9
S1135638F041234C234D244E11462B46204603F0BB
S1135648A5FB2B4620460222002103F09FFB20469F
S113565833461622002103F099FB1C4F2B462046A3
S11356681C22002103F092FB2B4620460122002134
S113567803F08CFB20463B461322002103F086FBF3
S11356883B4620460D22002103F080FB334620468A
S11356980322002103F07AFB33462046132200211B
S11356A803F074FB2B4620461C22002103F06EFBFA
S11356B82B462046BDE8F0410E22002103F066BBCC
S11356C800C00840C8050220489A0220CC050220E0
S11356D84FF0FF316FF00402014B19601A607047F4
S11356E880E008404FF0FF316FF00202014B19606F
S11356F81A60704780E0084038B504204FF08053A2
S113570802210125094C04F5085215601060136044
S113571820461160064B1322002103F037FB4FF497
S1135728005304F50A54236038BD00BF00C0084084
S1135738489A022010B5084CFBF7ACFF237803B154
S113574810BD00F059F91521044800F057F9012259
S1135758034B2270186010BD599E0220D005022008
S1135768E80502200021044B03F1170203F8011F86
S11357789342FBD103F018B84B9A022003F046B8C1
S11357880122F0B400264B0900F1280555F82340FE
S113579801F01F07BA40144345F82340503050F82D
S11357A82340034D224340F823206E54F0BC704735
S11357B84C9A022010B40A4C0023224602E001331A
S11357C8172B09D012F8011BD8B20029F7D10122EE
S11357D8E2545DF8044B704700205DF8044B7047B1
S11357E84C9A022010B5144684B00A466846054906
S11357F803F072F92146684603F0CCF9C0B204B04C
S113580810BD00BF002008401E289ABF024B53F861
S113581820000020704700BFC8BC0020F0B585B048
S11358289DF82C60022E4CD808462F49B50001EB90
S11358388604A46F002C47D114464A19D2F8A42030
S11358484FF0040C002A49D11A4604272944D1F8F8
S1135858B010DFF89CE004291EBF01F1FF352D02CA
S113586845F001030A9D08BF40F20123B5FBF1F599
S113587895FBF1F5BCF1040F16BF4FEA0C3C4FF44D
S1135888405C0CF4405C042F08BF4FF440471749B0
S113589805F1FF3501EA054518BFBF0345EA0305CD
S11358A80C9B18BFBFB245EA0C050293214600962B
S11358B845EA0703CDF804E003F052F9012005B0E6
S11358C8F0BD002005B0F0BD8C1894F884C051F8E0
S11358D822404A19D2F8A420002AB5D0CA1892F84E
S11358E8847051F82320B1E7C8BC00200000FF03EE
S11358F8EC050220012914BF00231023C36070475C
S113590870B51D4D1D4C2B4620460922002103F07D
S11359183DFA2B4620461B22012103F037FA2B4679
S113592820461C22012103F031FA2B4620461E2270
S1135938012103F02BFA2B4620460422012103F00F
S113594825FA2B4620460522012103F01FFA2B468F
S113595820460622012103F019FA2B46204612227A
S1135968002103F013FA2B462046BDE870401B22A1
S1135978002103F00BBA00BF649A022000C008405B
S1135988002282B01B4B0192597A019A42EA012201
S1135998019293F83B2001990A43019293F83C1031
S11359A8019A42EA4102019293F83E10019A42EAAE
S11359B88102019293F82410019A42EAC1020192E9
S11359C893F82510019A42EA0112019293F82610DD
S11359D8019A42EA41120192997C019A42EA81129F
S11359E80192DA7E019B43EAC2130193019802B043
S11359F8704700BF00C00840704700BFF0B599B0B9
S1135A08064609A80D4603F0EDF928B100231C4603
S1135A182046337019B0F0BD05A909A803F0FEF9B2
S1135A28044609A803F0ECF9002CEFD10DF1130397
S1135A380DF11B0013F8012F197A984282EA01022A
S1135A481A70F7D1124F01A918AB03EBE40212F84C
S1135A584B0C12F84C3C04F0070243EA00231341B0
S1135A6803F01F03FB5C0534412C01F8013BEBD127
S1135A780C2D86BF0D250E246C1C2A46304601A920
S1135A8806F0A7F800232046735519B0F0BD00BFEF
S1135A9884BD0020831E012B0CD9831F012B09D937
S1135AA8A0F10A03012B05D9034B022834BF184679
S1135AB8002070470048704700800340012801D83F
S1135AC80120704738B50146FFF7E4FF78B3002595
S1135AD8046BA1F10A0344F480440463046B012BAE
S1135AE844F400440463056018D9062916D0E2B1C9
S1135AF85378917814781B040269090201F47061DF
S1135B0803F470230B4322F00F1204F00F010B432C
S1135B1822F4706213430361002038BD4FF400215E
S1135B284FF4801341634363E1E7104638BD012015
S1135B3838BD00BF2DE9F0410D46164682B0074630
S1135B4801A81C46DDF8208003F044FE6A7DEB685A
S1135B5842F0100243446A757208EB604AD0A97D8A
S1135B68CA091346C1F3411082F001020130D2017F
S1135B7800F0030001F01F0142EA40120A43AA752B
S1135B8899000C3335F8132068F30A0225F813201A
S1135B989CB397F8FA310BB3AB7DC4F38A1444EA87
S1135BA8C82403F01F0344EA836444F00044D7F88C
S1135BB8D42142EAC6020A431460AB7D590703F0B4
S1135BC81F0204D502F01B0262F30403AB750198AB
S1135BD803F006FE002002B0BDE8F081AB7DC4F3FB
S1135BE88F1444EA084403F01F0344EA836444F02E
S1135BF80044DCE711461346C3E7BC68C9E700BFA5
S1135C082DE9F04307460C46904685B00BB18B7DD1
S1135C18DB09E1686268A58AA2EB010EC5F30A05EF
S1135C2875452A4628BF724603F10C0904EB490C52
S1135C389CF8016020686FF3C3068CF80160014486
S1135C489AB1880608F0010616D004EB490999F8B8
S1135C5801C020693F3525F03F054CF0080C03FBD3
S1135C68050589F801C076BB294697F8D93103B3ED
S1135C78012005B0BDE8F083D7F8D001C0684840DA
S1135C88800D80050028E0D197F8FA010028ECD0AF
S1135C98002EEAD17545E8D99CF8016020693F35A2
S1135CA825F03F0146F0080503FB01018CF801507B
S1135CB8DBE70B460092214642463846FFF73AFF97
S1135CC805B0BDE8F0832846039205F082FF294613
S1135CD8039ACAE7F0B50C4683B0074601A81646EE
S1135CE803F078FD637D13F008050BD072081CBF20
