:020000041000EA
:10000000B0130810D1000010D9000010DB00001060
:10001000DD000010DF000010E10000105A5A5A5AAB
:10002000000000000000000000000000E3000010DD
:10003000E500001000000000E7000010791A001031
:10004000EB000010EB000010EB000010EB000010C4
:10005000EB000010EB000010EB000010EB000010B4
:100060006F1D0010EB000010EB000010EB00001003
:10007000EB000010EB000010EB000010EB00001094
:10008000EB000010EB000010EB000010EB00001084
:10009000EB000010EB000010EB000010EB00001074
:1000A000EB000010EB000010EB000010EB00001064
:1000B000EB000010EB000010EB000010DFF80CD09C
:1000C00005F096FE00480047F31B0010B01308101F
:1000D0000648804706480047FEE7FEE7FEE7FEE7E2
:1000E000FEE7FEE7FEE7FEE7FEE7FEE7C9090010D0
:1000F000BD0000107046704730B51F24FD4D2C60C8
:10010000FD4CFE4DEC660024AC612C46646C44F062
:1001100001046C64FA4C6C6400BFF84C246C04F06D
:100120000104002CF9D0F74CF44DEC664FF47A71D1
:1001300000E0491E0029FCD1F34CF04D6C6400BF77
:10014000EE4C246C04F00104002CF9D0ED4CEB4D86
:10015000EC662C46246A44F001042C624FF4804083
:10016000142424B1012C05D0022C07D104E04FF057
:10017000FF3012E0E54810E0E5480EE0142108E009
:1001800080EA500404F00104C0F34D0545EA8430D0
:10019000491CB1F5004FF3D900BF00BF0B22182353
:1001A000540444EA83540443D44D6C6280200124F7
:1001B00024B1012C05D0022C09D105E04FF0FF300D
:1001C00018E040F2023015E040F2022012E0012176
:1001D0000CE080EA900484EAD00484EA101404F06D
:1001E0000104C0F3460545EAC410491CB1F5807FFF
:1001F000EFD900BF00BF0403C04DAC621020012442
:1002000024B1012C05D0022C07D104E04FF0FF30BF
:1002100012E0622010E042200EE0012108E080EAB6
:10022000900404F00104C0F3430545EA0410491C9E
:10023000B1F5007FF3D900BF00BFB04CA46A0443FE
:10024000AE4DAC62B34C2C6200BFAC4CE46904F020
:100250000104002CF9D0AB4C0834A84DAC64AE4C72
:10026000EC64A54C2C656C65A64C8434AC6530BD43
:100270002DE9F04704464FF47A70A8490968A0FBBD
:1002800001700146A64A0023384605F0C1FA002253
:10029000A0FB045701FB047100FB021104220023A0
:1002A000284605F0B5FA814600BFB9F10000A9F172
:1002B0000109FAD1BDE8F0872DE9F04385B00720A8
:1002C0009849086000BF9748001D006800F00100D1
:1002D0000028F8D0914800689349884203D2002052
:1002E0009249086003E047F2777090490860F22075
:1002F0008F4908608E498039C1F884008C490831E3
:100300000860F320091D0860091D0860091D0860C8
:10031000091D0860091D0860091D0860091D0860A5
:10032000091D0860091D0860091D0860091D086095
:10033000091D0860F2207E4980310860091D0860AF
:10034000091D08607A4998310860F320091D08608A
:10035000091D0860091D0860091D0860091D086065
:10036000091D0860091D0860F22072490860091D16
:100370000860091D0860091D0860091D0860091D45
:100380000860091D0860091D0860F1206949843171
:100390000860091D0860F320091D0860091D086038
:1003A000091D0860F120091D0860091D0860091D6C
:1003B0000860F320091D0860091D0860091D086018
:1003C000091D08605C490860F2205C490860091D4D
:1003D0000860091D0860091D0860091D0860091DE5
:1003E0000860091D0860091D0860091D0860091DD5
:1003F0000860091D0860091D0860091D0860091DC5
:100400000860091D0860091D0860091D0860F320C7
:100410004A4980310860091D0860091D0860091DEE
:100420000860091D0860091D0860091D0860091D94
:100430000860091D0860091D0860091D0860091D84
:100440000860091D0860091D0860091D0860091D74
:10045000086001203A4908600020886000242F4885
:100460000068384988422ED901244FF0000910E075
:100470004FEA890000F1805000684DF829003248A9
:1004800050F829104FEA890000F18050016009F10D
:100490000109B9F1050FEBD3BFF36F8F2722214973
:1004A00048312A482A4B98474FF0000908E05DF888
:1004B00029104FEA890000F18050016009F101091B
:1004C000B9F1050FF3D3F02022490860091D086037
:1004D000091D0860091D08608A2006490C3908605A
:1004E00000201749C1F8080201200249091D0860CF
:1004F0005A2131E00C520040000800010000054084
:10050000802027060008000980080E0603800100ED
:10051000030001001C080006040800030000081086
:1005200000CA9A3B3014054000B4C404006D084072
:10053000806008408062084010650840806608407E
:1005400000500040000E2707B46700102C31044013
:1005500001000010006C0840FA480268601CB2FB01
:10056000F0F0A1FB00500146F74A0023284605F0B1
:100570004FF9401CF549C1F80C020846D0F80002BA
:1005800040F40020F24908604FF48A40F1490860C5
:1005900040F2033001F1040108604FF00100EB4923
:1005A00088624FF01401E748026804F10100B2FBD1
:1005B000F0F0A1FB0051E44A4FF00003284605F09B
:1005C00027F9E24908632A21DE480268601CB2FB71
:1005D000F0F0A1FB0051DC4A0023284605F018F991
:1005E000DA4948633F21D7480268601CB2FBF0F04B
:1005F000A1FB0051D44A0023284605F009F9D3494C
:1006000088634621CF480268601CB2FBF0F0A1FB72
:100610000051CD4A0023284605F0FAF8CB49C863BB
:100620004621C8480268601CB2FBF0F0A1FB0051F3
:10063000C54A0023284605F0EBF8C44908641E218A
:10064000C0480268601CB2FBF0F0A1FB0051BE4A3A
:100650000023284605F0DCF8BC4948643F21B9482E
:100660000268601CB2FBF0F0A1FB00500146B64AE4
:100670000023284605F0CCF8B44988643F21B148EE
:100680000268601CB2FBF0F0A1FB00500146AE4ACC
:100690000023284605F0BCF8AC49C8643F21A948AE
:1006A0000268601CB2FBF0F0A1FB00500146A64AB4
:1006B0000023284605F0ACF8A44908650E21A1489E
:1006C0000268601CB2FBF0F0A1FB00519E4A0023BF
:1006D000284605F09DF89D4948651E219948026805
:1006E000601CB2FBF0F0A1FB00500146964A0023CB
:1006F000284605F08DF8954988656420FFF7B8FD18
:1007000040F28310914908620A20FFF7B1FD40F2E0
:1007100003108E4908620120FFF7AAFD40F2831002
:100720008A4908620120FFF7A3FDC82185480268B5
:10073000601CB2FBF0F0A1FB00700146824A00236E
:10074000384605F065F805461022002305F060F8EC
:10075000401C7E4948624FF00A00FFF789FD43F6CE
:10076000095178480268601CB2FBF0F0A1FB005010
:100770000146754A0023284605F04AF8074610222C
:10078000002305F045F8401C704948624FF00A000C
:10079000FFF76EFD83206D4908626F4800680A20EC
:1007A000FFF766FD0220694908620846D0F800019B
:1007B00040F40020C1F8000105B0BDE8F08330B579
:1007C00002466648406920F40000644D686140F2CA
:1007D000FF1000EB026068612846406940F40000A9
:1007E00068610BE05D484069C0F34D215B4840699A
:1007F000C0F3080311B90BB9002030BD5748406958
:1008000000F400000028EDD154484069C0F34D21A8
:1008100045F6BB3001FB00F42046EEE702464FF000
:10082000FF33112A44D2DFE802F00E090A0B0C4311
:1008300019232629434334373A3D400000BF00BF07
:1008400000BF104670474648406800F00A00022882
:1008500002D04FF0FF30F5E70020F3E73F48806912
:1008600000F0010010B14FF0FF30EBE70620E9E7A0
:100870003A48016A1EE03948016B1BE03748006CBA
:1008800000F0010010B13548406C00E00020014646
:1008900010E03248816C0DE03048C16C0AE02F480E
:1008A000016D07E02D48416D04E02C48816D01E0A9
:1008B0001846C7E700BF01F0010008B9C1F304639F
:1008C0001846BFE72DE9F04780464FF001090124A3
:1008D0000026474600BF112F5BD2DFE807F0090C66
:1008E0000E10125A144E4F505A5A161D242B470000
:1008F0004FF4004650E01B4E4EE01B4E4CE01A4EAB
:100900004AE0184E48E0174E46E01448806CC0F3A9
:100910008100401C44433FE01048C06CC0F381009C
:10092000401C444338E00D48006DC0F38100401C7A
:10093000444331E00948406DC0F38100401C44430A
:100940002AE000000000081000CA9A3B0050004056
:1009500000520040005100400020032800000540E4
:1009600000300440001BB70080F0FA022148806D7F
:10097000C0F38100401C44430EE00DE00CE005F0A4
:1009800075FA0546E8B209FB00F9C5F307204443B0
:1009900002E00020BDE8F08700BF1EB93846FFF72F
:1009A0003DFF0746002E96D006FB09F0B0FBF4F0A1
:1009B000F0E710B50F48C06EC0F304642046FFF79F
:1009C00081FF0D49086010BD10B54FF0E0200069AF
:1009D00020F003004FF0E021086108486FF3130096
:1009E00007490860FFF788FBFFF7E3FFFFF764FCA8
:1009F00010BD0000000005400000081000000010BD
:100A000008ED00E0F0B5074DD618C7014FF0040C13
:100A10000CFB0174E71704EB9777BF1045F82760CC
:100A2000F0BD00000060084010B50146102221B161
:100A3000012905D0022907D104E04FF0FF3010BD95
:100A40006220FCE74220FAE70B4608E082EA9200C7
:100A500000F00100C2F3430444EA00125B1C202BA7
:100A6000F4D91046EBE710B50246802122B1012AE5
:100A700005D0022A09D105E04FF0FF3010BD40F249
:100A80000230FBE740F20220F8E713460CE081EA6F
:100A9000910080EAD10080EA111000F00100C1F35A
:100AA000460444EAC0115B1CB3F5807FEFD90846C9
:100AB000E4E710B501464FF4804221B1012905D089
:100AC000022907D104E04FF0FF3010BDFE48FCE7DB
:100AD000FE48FAE70B4608E082EA520000F0010007
:100AE000C2F34D0444EA80325B1CB3F5004FF3D9E6
:100AF0001046EAE70146B1F5804F01D90120704761
:100B0000B1F5005F01D90220F9E7B1F5006F01D915
:100B10000420F4E7B1F5FA7F01D90820EFE73C297A
:100B200007D301F109004FF48062B2FBF0F08000BE
:100B3000E5E701F03C00001DE1E701463C2902D257
:100B40004808401C70471F20FCE72DE9FF4F9DB06F
:100B50000F462A9C1D9805F026F8CDE91A01384663
:100B600005F021F8CDE9180100201390401E0F90E8
:100B700000200E900D900C9000210A910B911F986F
:100B800005F037F80022D24BCDE9060105F044F814
:100B900009D31F9805F02DF80022CE4BCDE90601B0
:100BA00005F052F803D2012021B0BDE8F08F209863
:100BB00005F01FF80022C74BCDE9060105F02CF81F
:100BC00009D3209805F015F80022C34BCDE90601A2
:100BD00005F03AF801D20220E6E7C0491D988842A4
:100BE00001D20320E0E7BE491D98B1EB102F01D2DE
:100BF0000420D9E7BB48874201D20520D4E7BA4890
:100C0000874201D90620CFE7B848874201D90120A1
:100C10000CE04FF04040B649DDE9182304F054FFE2
:100C2000CDE9060104F0CCFF20F0010008900898FF
:100C3000402801D9402008904FF04040AD49DDE9FF
:100C4000182304F041FFAC4AA24BDB1ECDE904019E
:100C500004F021FECDE9060104F0B2FF09900998E5
:100C600008B901200990DDF82080E7E00022A34BBD
:100C7000DDE91A0104F028FF9F4A964BDB1ECDE9FF
:100C8000040104F008FECDE9060104F099FF139079
:100C9000BBE0139804F087FF02460B46CDE906013E
:100CA000DDE91A0104F010FFCDE9160100204FF034
:100CB0008041DDE9162304F095FECDE904014046AC
:100CC00004F071FFCDE90001DDE9182304F08AFE8C
:100CD000CDE90201DDE9042304F0F6FECDE90601C9
:100CE00004F06EFF4000129086E0129804F05BFF63
:100CF000CDE90601DDE9162304F074FE05460E4633
:100D00004FF040427A4B2846314604F09DFF00D216
:100D100077E0B8F1010F02D1284631460AE040469B
:100D200004F041FF02460B46CDE906012846314654
:100D300004F0CAFE81468A4648465146DDE918233A
:100D400004F0C2FECDE914011F9804F052FFCDE972
:100D50000601DDE9142304F05FFF42D8209804F077
:100D600048FFCDE90601DDE9142304F06DFF38D812
:100D70000022574B4846514604F08DFDCDE906014F
:100D800004F01EFF11901198874202D21198C01BE7
:100D900001E01198381A1090DDE90F10884212D343
:100DA000DDE90F1088421CD10E99139888420AD3AE
:100DB0000E991398884214D128463146DDE90A235A
:100DC00004F02AFF0DD210980F9013980E901298ED
:100DD0000D90CDF83080CDE90A561198B84200D177
:100DE00036E048465146DDE9182304F02DFF00D2D5
:100DF00007E01298801C12901298B0F5803F7FF6A1
:100E000074AF00BF1398401C139034491D98B0FB79
:100E1000F1F0FF2803D81D98B0FBF1F001E04FF48A
:100E2000807013998842BFF434AFB8F1020F01D932
:100E3000012000E00020401CA8EB00080998804534
:100E4000BFF414AF0F98401C08B90720ACE600BFF0
:100E50000E9804F0A8FE02460B46CDE90601DDE936
:100E60001A0104F031FECDE916010D9804F09BFE45
:100E7000CDE90601DDE9162304F0B4FD05460E4672
:100E80000C9804F090FE02460B46CDE90601284678
:100E9000314604F019FE81468A460D994808FFF74D
:100EA00029FE82050D994808FFF747FE42EA404BAC
:100EB0000D994808FFF7FDFD4BEA000BC4F808B098
:100EC0000C9801281FD11BE00380010003000100E2
:100ED0000000E03F0000F03F0000F83FA086010066
:100EE00080D1F008AB9041008055C820C02A641022
:100EF0002A64C0412A64B041E90B21E7A3E1A14182
:100F00004FF0000B04E00C994808FFF78DFD834675
:100F10000E98012801D1002002E00E98FFF7A3FDF2
:100F20004BEA0030E0600C98012801D1082000E075
:100F300000200E99012901D1042100E0002108437D
:100F400046F21001084420600D984108B4F81100E1
:100F500061F30E0004F11001A4F811000E98207442
:100F60000C98012800D101E00C984008618A60F3D8
:100F7000CB1161820022F74B2846314604F08BFCEE
:100F8000CDE9060104F01CFE60610022F14B4846E9
:100F9000514604F080FCCDE9060104F011FEA06189
:100FA000A069C01BE06148465146DDE91A2304F000
:100FB0008BFDC4E908010020F6E570B5E64D6D68CB
:100FC00005F002055DB1E44D6D6805F0080585F09A
:100FD000080525B14FF40045E04E356002E00025DC
:100FE000DE4E3560DE4D2D6A05F0020585F0020506
:100FF0004DB1DB4DED6905F0010525B1D94D2D68E9
:10100000D64EF56102E00025D44EF561D44D2D6B2E
:1010100005F0020585F002054DB1D14DED6A05F0F0
:10102000010525B1D04D2D68CC4E356202E000257A
:10103000CA4E3562CA4D6D6C05F0020585F0020599
:10104000A5B1C74D2D6C05F001057DB1C44D6D6C8A
:10105000C5F30362C14D55F82250C14E766CC6F3FC
:101060000746761C7543BD4E756202E00025BB4EF7
:1010700075620C2020E0BD4D35F91010B84D4C596B
:1010800004F0020585F002058DB1B54D4D59C5F34B
:101090000362B34D4D5BC5F387035B1CAF4D55F841
:1010A0002250B5FBF3F5AD4E46F8205003E0002585
:1010B000AA4E46F82050401C1028DCD970BD30B52F
:1010C0000346102B01DD032030BD07292FDB252926
:1010D0002DDCC3EB031000EB4000A54D2844405C21
:1010E00018B3A24830F91320501C58B1102909DC5C
:1010F000072907DB9A481058C0F30360884201D1E2
:101100000120E1E7994830F91120501C08B902206C
:10111000DAE79348145824F07064C01440EA03607E
:1011200004438F4814500020CEE70320CCE7022070
:10113000CAE72DE9F04104460F46F4B95FB186488D
:10114000406820F00C00844948600846406840F040
:10115000030048600AE08048406820F003007E49B0
:1011600048600846406840F008004860002600E0FB
:10117000761C80488642FBDB64E0022C06D1032308
:10118000102200210C20FFF73DFC5BE0032C06D170
:101190000023102213210120FFF734FC52E0042C1D
:1011A00050D0052C4ED0062C14D137B96C4880692C
:1011B00040F001006A49886105E06948806920F0D3
:1011C000010067498861002600E0761C6948864274
:1011D000FBDB37E0654830F91450681C10B9022079
:1011E000BDE8F08137B95E48285840F001005C49FD
:1011F000685027E05A48285820F0010058496850A4
:10120000072C06D100BF5648C06900F00100002835
:10121000F9D0082C06D100BF5148C06A00F0010087
:101220000028F9D0092C0DD100BF4D48006C00F00A
:1012300001000028F9D04A48006C00F0010008B90C
:1012400000BFFEE70020CBE7F0B5024600240025F2
:10125000002301264248406CC0F303673F4850F822
:1012600027105143541E3E48406CDFF80CC100EA81
:101270000C00DFF8ECC0CCF84400404881421AD2A0
:1012800001E05B1C760070004843DFF8F0C0604569
:10129000F7D3200440EA053040EA032040F0400044
:1012A000DFF8BCC0DCF844C040EA0C00DFF8B0C096
:1012B000CCF8440016E03248814211D2200440EAC2
:1012C000053040EA032040F0C000DFF894C0DCF8AD
:1012D00044C040EA0C00DFF888C0CCF8440001E0CC
:1012E0000420F0BD0020FCE701462648814206D2DA
:1012F0001B48806920F00400194A90610BE02248E5
:10130000814206D21648806940F00400144A906178
:1013100001E005207047114881610020FAE710B50F
:101320001A48FFF7E1FF01210620FFF702FF09211C
:101330000620FFF7C4FE0620FFF786FF01210920E3
:10134000FFF7F7FE15210920FFF7B9FEFFF735FE7D
:10135000002010BD0000E03F0030044004000810F1
:1013600000000540480008104C000810C867001035
:101370002268001040420F003DCC00FF005F4C0986
:1013800000D01213C0E1E40040787D01001BB700DB
:101390000146A1F1110014284DD2DFE800F04B1EE8
:1013A0004C2319144C4C4C0F0A4C4C46413C3732E0
:1013B0002D28FE48406800F001007047FB48406857
:1013C000C0F34000F9E7F9484068C0F38000F4E753
:1013D000F6484068C0F3C000EFE7F4484068C0F347
:1013E000C010EAE7F1484068C0F30020E5E7F048A4
:1013F0004068C0F34000E0E7ED484068C0F380007B
:10140000DBE7EB484068C0F3C000D6E7E848406837
:10141000C0F30010D1E7E6484068C0F34010CCE7C5
:10142000E3484068C0F38010C7E7E1484068C0F374
:10143000C010C2E700E000BF00BF0020BDE770B5EC
:1014400004460D46262C03DB002C01DC042070BD75
:10145000002D7DD104EB8400D64901EB400040888B
:1014600050B304EB840001EB40004088D2490844AB
:10147000007900F00100F8B104EB8400CD4901EBE4
:1014800040004088CC49405820F0010004EB840122
:10149000C84A02EB41014988C74A885000BF04EBA3
:1014A0008400C44901EB40004088C34908440079E6
:1014B00000F001000028F2D104EB8400BD4911F8CE
:1014C00010002D280FD004EB8401BA4A12F8110045
:1014D000FFF75EFF38B904EB8401B64A12F8110039
:1014E0000021FFF726FE04EB8400B24901EB400027
:1014F000C08850B304EB840001EB4000C088AE49C3
:101500000844007900F00100F8B104EB8400A94917
:1015100001EB4000C088A849405820F0010004EBCE
:101520008401A44A02EB4101C988A34A885000BF44
:1015300004EB84009F4901EB4000C0889E490844A9
:10154000007900F001000028F2D104EB840000E0F3
:1015500019E0984901EB400000792D2812D004EBE6
:101560008401944A02EB41010879FFF711FF00283A
:1015700008D104EB84018F4A02EB41010879002174
:10158000FFF7D7FD9CE004EB84008A4911F81000B6
:101590002D2813D004EB840011F81000874931F98D
:1015A00010008549405C00F0010038B104EB840173
:1015B000804A12F811000121FFF7BBFD04EB840003
:1015C0007C4901EB4000408850B304EB840001EB00
:1015D0004000408878490844007900F00100F8B9DB
:1015E00004EB8400734901EB400040887249405885
:1015F00040F0010004EB84016E4A02EB410149888E
:101600006D4A885000BF04EB84006A4901EB40003A
:10161000408869490844007900F001000028F2D0B0
:1016200004EB8400634901EB400000792D2815D0BC
:1016300004EB840001EB40000079604931F91000AF
:101640005D49405C00F0010040B104EB8401594A5F
:1016500002EB410108790121FFF76BFD04EB8400E7
:10166000544901EB4000C08850B304EB840001EB07
:101670004000C08850490844007900F00100F8B9E2
:1016800004EB84004B4901EB4000C0884A494058B4
:1016900040F0010004EB8401464A02EB4101C98895
:1016A000454A885000BF04EB8400424901EB4000EA
:1016B000C08841490844007900F001000028F2D0B8
:1016C00004EB84003B4901EB4000007A48B104EB95
:1016D0008401384A02EB4101087A2946FFF7AFFE40
:1016E000B5E60020B3E60146262903DB002901DC2C
:1016F0000420704701EB81002E4B03EB4000007982
:101700002D282FD001EB810003EB400000792B4BFB
:1017100033F91000284BC058C0F3036201EB81007D
:10172000244B03EB40000079244B33F91000224B8B
:10173000C05C00F0010008B10020DAE701EB810095
:101740001C4B03EB4000C08878B301EB810003EB36
:101750004000C088184B1844007900F0010020BBFD
:101760000020C6E701EB8100124B13F81000134B69
:1017700033F91000104BC05C00F0010008B10020EC
:10178000B7E701EB81000B4B13F810000B4B33F95B
:101790001000094BC058C0F3036201EB8100054BF8
:1017A00003EB4000408800B10AE016E0001005405D
:1017B00000200540206B001000000540C8670010A5
:1017C00001EB810003EB40004088784B184400791E
:1017D00000F0010008B900208BE7754850F822009E
:1017E00087E710B502460C460C2A14DB102A12DCDF
:1017F000704830F91210481C08B9022010BD6B481F
:101800000B5823F47F73601EC0B243EA800367481D
:101810000B500020F2E70220F0E72DE9F0418CB0F8
:1018200006460D461746984600206349086002A800
:1018300043463A46294600903046FFF786F904466B
:101840002CB1072C03D204200CB0BDE8F081072C8A
:1018500001D10620F8E758480560544904984862C9
:1018600005988862029808620020EDE72DE9F041B2
:101870008CB006460D461746984600204F49086032
:1018800002A843463A46294600903046FFF75DF9E4
:1018900004462CB1072C03D204200CB0BDE8F08123
:1018A000072C01D10620F8E7444805603F49049819
:1018B000486305988863029840F40050086300204C
:1018C000EBE7F0B504460D46164640F2FF114FF423
:1018D000000040EA04600843DFF8D0C0CCF81400F0
:1018E00000BF3248406900F400000028F9D100230D
:1018F00000E05B1C42F210708342FADB2B48406927
:10190000C0F34D2212B94FF0FF30F0BDB2F5007FA9
:1019100008D326484069C0F3080040F2FF1CACEB36
:1019200000011FE000BF491E4FF4000040EA0460C0
:101930000843DFF878C0CCF8140000BF1B484069AA
:1019400000F400000028F9D1002300E05B1C42F203
:1019500010708342FADB15484069C0F34D27974267
:10196000E1D0491C2A6031600020CEE7FFB5054672
:101970000C4616461F46102D01DC102C02DD0420FB
:1019800004B0F0BD01AA03A92846FFF79AFF6A46F2
:1019900002A92046FFF795FF00990398484330605D
:1019A000DDE90101484338600020E9E70000054017
:1019B00004000810C8670010480008104C00081008
:1019C00010B53AB1294B53F820300B43274C44F85B
:1019D000203006E0254B53F820308B43234C44F84D
:1019E000203010BD224A42F820107047204A803231
:1019F00042F82010704701461E4850F821007047F9
:101A000070B504460D461646324629462046FFF775
:101A1000D7FF70BD10B503460C4621461846FFF7A8
:101A2000E1FF10BD10B503460C4621461846FFF7EE
:101A3000DDFF10BD00B502461046FFF7DCFF00BD1C
:101A400010B54AB1094B803353F820300B43074C93
:101A5000803444F8203008E0044B803353F82030C1
:101A60008B43024C803444F8203010BD00600F409E
:101A700000620F4000610F4010B503F0BFF85E48F0
:101A80000068401C5C490860FA2815D100200860F5
:101A90005A48006840B14FF480710020FFF7A2FF60
:101AA00000205649086007E04FF480710020FFF7DE
:101AB0009DFF01205149086010BD70B504460D46D8
:101AC0002A462146012000F08FF970BD70B504460A
:101AD0000D46164632462946204600F085F970BD6F
:101AE0002DE9F04107460C461546072F32D2DFE8B4
:101AF00007F004310D10192B2200002603E0A05D31
:101B000000F034FA761CAE42F9DB23E001F038F83D
:101B100020E0002D05DD207801F09CF9207803F00D
:101B20000BF817E02946204601F097F92946204690
:101B300002F03CFF0EE02946204601F0B9F92946A3
:101B4000204602F0E8FF05E02A4621463846FFF726
:101B5000BDFF00BF00BFBDE8F081FEF735FFFFF716
:101B6000DEFB00F0FBF900F058F900F0F3FFAFF2F4
:101B70008F0000F036F9AFF2BD01AFF2AF0000F018
:101B8000FAFFAFF2C90001F0CEFD002310220121BF
:101B90000846FEF737FF012211020020FFF710FF71
:101BA0001749B1F1807F00D31DE021F07F40401E36
:101BB0004FF0E022506150170722002807DA530740
:101BC0001D0E104B00F00F04241F1D5503E053079A
:101BD0001C0E0D4B1C5400BF00204FF0E022906102
:101BE0000720106100BF01F0A1FD01E000F0DDFF62
:101BF000FCE7FFF7B2FF0000540008105000081087
:101C00004019010018ED00E000E400E070B5054661
:101C10000E461446012C0CD0022C0BD0042C0DD1F6
:101C2000B848006808B1002070BD0120B5490860BF
:101C300004E000BF0020B349086000BF00BF224697
:101C400031462846B04B1B689847EDE710B504466F
:101C5000002010BD10B50446002010BD2DE9F04154
:101C600007460C4615462646022D14D0032D02D0F9
:101C7000042D29D103E00020A449086024E0F17B71
:101C8000A348006800684023D0F848C0A148026813
:101C90003846E04718E0F17B9D4800680068436CD7
:101CA0009C480268384698479B48006858B1994953
:101CB00009684A7897490968087896490968891C2B
:101CC000954B1B68984700BF00BF0020BDE8F0811E
:101CD0002DE9F04190B007460C4615461E464FF0E0
:101CE0000008382102A803F0CBFD01208DF8100078
:101CF0002120ADF8000000208DF8020087480190F7
:101D000014B16079032804D04FF0FF3010B0BDE863
:101D1000F08128680290306803900594804807900D
:101D20008048089080480C900D90CDF818D07848E5
:101D30000068006902A942683846904780467549A4
:101D40000298086002984030029003984030039057
:101D5000764902980860029840300290039840301B
:101D6000039002982860039830604046CEE710B593
:101D7000674800680068C1686D480068884710BD02
:101D80002DE9F04106460F46144600BF5F48006843
:101D90000028FBD13E2C00DD3E24FF2C00DDFF247B
:101DA000624800680670614909684C70002505E0CA
:101DB000795D5E480268A81C11546D1CA542F7DBD2
:101DC0000120524908605248006800684023D0F85A
:101DD00050C056488121026855480068E047BDE878
:101DE000F0814D49086070472DE9F04780460F4665
:101DF00015463E2600240CE0281BB04201D3B14614
:101E000001E0A5EB040939194A464046FFF7B8FF3F
:101E10003444AC42F0D3BDE8F087F0B59DB0002665
:101E20000123402203210620FEF7ECFD12210720AA
:101E3000FFF745F901211220FFF77BF907203D4903
:101E400008603D48406820F020003B4948603B481E
:101E500000682F49086044210CA803F011FD3848A0
:101E60000C904FF000500D9000140E9002208DF851
:101E70003C00182101A803F091F84027002406E057
:101E800001A8005D07EB44012E4A5054641C182C35
:101E9000F6DB2D4807902B4808902C480A902C48D8
:101EA00009902C480B901A48006800680CAA07A9F2
:101EB00043681F489847064616BB1D4805681249E7
:101EC000A86D08602448A8650EAB0DAA2049093109
:101ED00017480068FFF7FCFE06468EB9082001216E
:101EE00081404209920002F1E022C2F8001100BFD5
:101EF000074800680068012182680D480068904723
:101F00001DB0F0BD40010810440108103C0108104C
:101F1000300108103801081058000810C06C00107B
:101F20004D1C0010551C00105D1C001034010810E1
:101F30002C01081000180540003004401C0140101E
:101F400000600040B2000810E46C00105C00081053
:101F500088000810F86C00100D1C0010334834493C
:101F600008600846006833490860704710B50446A9
:101F70002F480068047002F047FE2F4908802C4863
:101F80000068401C2A4908602C49884202D1274831
:101F900027490860264800682649096888420DD10B
:101FA00001202749086023480068401C2149086037
:101FB0002249884202D11D481E49086010BD2049AF
:101FC000086800211E4A116070471B48008870474E
:101FD00072B6164816490860084600681549086038
:101FE00062B6704713480168114802688A4201D0FE
:101FF000012070470020FCE730B501460D4803681A
:102000000B480468A34201D1002030BD0948026892
:102010000068401C074D2860084DA84202D10348C3
:10202000044D2860107808700120EEE73C0308108A
:10203000480108104C0108105401081094050810BC
:10204000500108100FB410B59AB0F7480068B0B14D
:102050001DA819906846199A1C9903F02BFF044695
:1020600000201990F148006820B121466846EF4AE7
:102070001268904720461AB010BC5DF814FB00208F
:10208000F9E7FEB503460C460FF2A43C9CE8C010ED
:102090008DE8C01021461D4600BF491C0A2695FB4D
:1020A000F6F50F1B561EB74200DB01E0002DF4D100
:1020B00000BF00260E70084600BF491EA14200D294
:1020C00012E00A26B3FBF6F706FB17361DF806608A
:1020D0000E700E78302E01D1067806B908460A2611
:1020E000B3FBF6F3002BE8D100BFFEBD2DE9F041B4
:1020F00007464FF00008002500BFD04850F83500D3
:10210000B84215D1CD4800EBC5004668CC4C03E081
:1021100016F8010B04F8010B30780028F8D10D20D7
:1021200004F8010B0A2004F8010BC548A4EB0008D1
:102130006D1CC24800EBC50040680028DDD1B8F135
:10214000000F08D0BF48006828B14246BC490020B3
:10215000BC4B1B689847BDE8F0812DE9F04105466E
:102160000C4695F800800027B7480068B8B10026F3
:1021700003E0A85DB2498855761CA642F9DB0D2024
:10218000AF4908550A21AE4A601C1154AD48006899
:1021900028B1A21CAA490020AA4B1B689847012C11
:1021A00004DD6878202801D16D1C641E00BFA7489B
:1021B00010F83700404508D1611EA44800EBC70065
:1021C0004268681C9047BDE8F0817F1C9F4800EB87
:1021D000C70040680028EAD10120FFF787FF00BF51
:1021E000F1E710B500209A49086001F0BEFD70B912
:1021F00001F0BEFD0446002C22DA4FF4A8722146FD
:1022000094A0FFF71FFF0120FFF770FF10BD02F041
:1022100079FB0446002C13DA40F25B119AA0FFF719
:1022200011FF01F0A5FD0446002C09DA40F25F120F
:10223000214688A0FFF706FF0120FFF757FFE5E7DB
:102240003F207F4908707F48006820B101220020AC
:102250007C4B1B68984700BFD8E72DE9F047044640
:102260000F461346D3F8009000252246A4460026C8
:10227000A84647E01078202802D0107800283DD1E9
:1022800094453BD2614628E00878202801D00878A0
:1022900000B921E0087830280BDB0878392808DC01
:1022A00006EB860046000878303806444FF00108F7
:1022B00011E00878412803D100264FF001080AE018
:1022C0000878542803D101264FF0010803E00020CC
:1022D0001860BDE8F08700BF491C9142D4D3B8F123
:1022E000000F07D028466D1C47F8206000264D459A
:1022F00000D108E04FF0000802F1010C107800B99D
:1023000001E0521CB6E700BF1D600120E1E77CB58B
:1023100005460C460120009000204D490860052C20
:1023200003D00C20FFF7E2FE7CBD6A4601A92846D7
:10233000FFF793FF18B90C20FFF7D8FEF4E745F636
:102340005A210198884202D01020FFF7CFFE0020CA
:10235000FFF7CCFE01203E49086000BFE4E770B5FE
:1023600004460D460020FFF7C1FE70BD70B586B073
:1023700005460E460420019001AA02A92846FFF74F
:102380006CFF20B90C20FFF7B1FE06B070BD0198BC
:10239000042802D00C20FFF7A9FE0598012815D1CA
:1023A00048A0FFF74FFE01F0E0FC002811D101F03A
:1023B000DFFC0446002C0CDA40F2B712214625A0BF
:1023C000FFF740FE0120FFF791FEDEE748A0FFF790
:1023D00039FE53A0DDE902230499FFF733FE02A87A
:1023E00007C802F0ACFC01205A4908600020FFF742
:1023F0007DFE00BFC9E770B504460D46012D03D030
:102400000120FFF773FE70BD2078302803D1002033
:102410000D49086002E001200B4908600020FFF729
:1024200065FE00BFEFE700006006081064010810B9
:102430003031323334353637383930002C02081019
:10244000F905081060010810680108108C010810D7
:10245000700108105357442028636F6E66696775D2
:1024600072652920696E7465726E616C2065727286
:102470006F7220636F646520307825382E386C5871
:1024800020282564290A00004661696C656420746F
:102490006F2068616C7420636F72652C20617373A8
:1024A000756D696E67206E6F7420616C7265616412
:1024B0007920636F6E66696775726564202825648C
:1024C000290A000053574420696E697420726571AF
:1024D00075657374656420696E20706173737468C8
:1024E000726F75676820636F6D6D616E640A0000BE
:1024F00053574420696E6974206E6F742072657141
:1025000075657374656420696E2070617373746897
:10251000726F75676820636F6D6D616E640A00008D
:102520002564206D61696C626F78657320757369CD
:102530006E672052414D206C6F63732030782538D0
:102540002E386C5820616E6420307825382E386C17
:10255000580A0000E80208103EB504460D46022065
:1025600000906A4601A92046FFF777FE18B90C20B3
:10257000FFF7BCFD3EBD0098022802D00C20FFF7FB
:10258000B5FD0298B0F5806F02DD0C20FFF7AEFDBF
:10259000FC4901980860FC4902980860FB48FC4926
:1025A00008600020FB490860FB4908600120FB49E6
:1025B00008600020FFF79AFD00BFDBE73EB5044648
:1025C0000D46022000906A4601A92046FFF745FE0D
:1025D00018B90C20FFF78AFD3EBD0098022802D0F2
:1025E0000C20FFF783FD0298B0F5806F02DD0C2010
:1025F000FFF77CFD0020FFF779FDE24901980860B4
:10260000E14902980860E148E14908600020E14999
:1026100008600220E149086000BFDDE770B50546AB
:102620000E463146284602F063FD04461CB12046A2
:10263000FFF75CFD70BD2046FFF758FD00BFF9E7CE
:1026400070B505460E46D648006810B90F20FFF752
:102650004DFDD44831464268284602F071FD0446DB
:102660001CB12046FFF742FD70BD2046FFF73EFD3E
:1026700000BFF9E72DE9FE43074688460220009097
:102680006A4601A93846FFF7E8FD20B90C20FFF79C
:102690002DFDBDE8FE830098022802D00C20FFF734
:1026A00025FD019D029E32462946BFA0FFF7CAFCC8
:1026B0003146284602F070F904463CB12146C4A0D8
:1026C000FFF7C0FC0120FFF711FDE2E70020FFF754
:1026D0000DFD00BFDDE7FEB506460F460220009067
:1026E0006A4601A93046FFF7B8FD18B90C20FFF77C
:1026F000FDFCFEBD0098022802D00C20FFF7F6FC7E
:10270000019DA748006810B90F20FFF7EFFC29468C
:10271000B9A0FFF797FC284601F084F80446002C86
:1027200007DA2146C0A0FFF78DFC0120FFF7DEFC91
:10273000DFE700BFDDE770B505460E469848006844
:1027400010B90F20FFF7D2FC964831464268284660
:1027500002F024FD04461CB12046FFF7C7FC70BD03
:102760002046FFF7C3FC00BFF9E770B504460D46ED
:10277000B748006828B12A4621460020B44B1B68A0
:10278000984770BD70B5054604218048FFF7EDFFFE
:1027900084488168284602F0E1FF04461CB12046C7
:1027A000FFF7A4FC70BD2046FFF7A0FC00BFF9E7CF
:1027B000FEB505460E4601A800907A4802AB3146A8
:1027C0008268284602F06FFE04461CB12046FFF7DF
:1027D0008DFCFEBD2046FFF789FC9DF8080080B9FE
:1027E0007048806867490860042067490860674846
:1027F000674908600020674908600220674908604F
:1028000019E09DF80800012815D1664880685D49E7
:10281000086004205C4908605C485D49086000204D
:102820005C4908608B485C4908608B4901980860E6
:1028300001205A49086000BFCBE770B505460E4637
:102840005748006810B90F20FFF750FC5548314633
:102850004268284602F0E1FC04461CB12046FFF71E
:1028600045FC70BD2046FFF741FC00BFF9E770B59D
:1028700006463546794C03E015F8010B04F8010BC8
:1028800028780028F8D10D2004F8010B0A2004F85C
:10289000010B6F48006830B17048221A01460020D1
:1028A0006B4B1B68984770BDF0B585B005460E466A
:1028B0006B4601AA3146284602F0DDFC044634B1DD
:1028C000082C04D02046FFF711FC05B0F0BD2046CF
:1028D000FFF70CFC082C0FD10B2202A90198FFF77F
:1028E000D0FB0746FFF7C3FF0B2202A90098FFF7B2
:1028F000C8FB0746FFF7BBFF00BFE6E7F0B585B0B2
:1029000005460E466A463146284602F0E4FC044677
:1029100024B12046FFF7EAFB05B0F0BD2046FFF7E3
:10292000E5FB102201A90098FFF7ABFB0746FFF774
:102930009EFF00BFF0E7F0B585B005460E466B463A
:1029400001AA3146284602F0EAFC044624B120469A
:10295000FFF7CCFB05B0F0BD2046FFF7C7FB0B220D
:1029600002A90198FFF78DFB0746FFF780FF0B22B6
:1029700002A90098FFF785FB0746FFF778FF00BF25
:10298000E8E7000078010810740108106C070810CF
:102990007C01081080010810880108106C010810E3
:1029A000700108106006081053657474696E672022
:1029B00072656720617420307825382E386C582075
:1029C000746F20307825382E386C580A00000000CB
:1029D0004661696C656420746F2077726974652044
:1029E000746F207265672E20526573756C74203D7C
:1029F0002025640A000000005374617274696E67D8
:102A000020657865637574696F6E2066726F6D20DE
:102A100076656374207461626C652061742030781F
:102A200025382E386C580A00535744206578656362
:102A300075746520696E7465726E616C2065727262
:102A40006F7220307825382E386C580A000000004C
:102A5000600108108527001084010810F90508108E
:102A60002DE9FF4105460E466A463146284602F0EA
:102A70007FFC044634B10A2C04D02046FFF736FB15
:102A8000BDE8FF812046FFF731FB0A2C07D10B225E
:102A900001A90098FFF7F5FA0746FFF7E8FE00BF27
:102AA000EEE7F0B587B005460E466A463146284641
:102AB00002F089FC044624B12046FFF717FB07B05B
:102AC000F0BD2046FFF712FB0B2204A90098FFF788
:102AD000D8FA0746FFF7CBFE0B2204A90198FFF7AF
:102AE000D0FA0746FFF7C3FE0B2204A90298FFF7AE
:102AF000C8FA0746FFF7BBFE0B2204A90398FFF7AD
:102B0000C0FA0746FFF7B3FE00BFD8E72DE9FF4143
:102B100005460E4603AA3146284602F07EFC0446CE
:102B200024B12046FFF7E2FABDE8FF812046FFF717
:102B3000DDFA0B2269460398FFF7A3FA0746FFF771
:102B400096FE00BFF0E7DB48DB4908600020DB4968
:102B50000860704710B5FFF7F6FF0120D8490860FC
:102B60000020D8490860D8490860D849086042F672
:102B7000E060486010BDD64A1060D64A11607047C8
:102B800008B51B200090D448006830B10121684688
:102B900002F0FFF80020D0490860FFF719FAFFF7AC
:102BA000D2FF0020C749086008BD2DE9F047FFF7B4
:102BB0000CFA0746FFF703FA48B1C8A0FFF742FA3C
:102BC000FFF706FAFFF7BFFF0020BE490860FFF7D6
:102BD00009FA002874D0C048006818B3B548B6494F
:102BE00008600020B54908600EE0B3480068FFF7B0
:102BF00003FA48B1B0480068401CAF490860AF48CC
:102C00000068401CAD490860FFF7ECF90028ECD1E2
:102C1000AA480068002804DDA8480168A54802F019
:102C2000B8F8C8E0A1E0A7480068002863D1A2482E
:102C30000068FFF7E1F90028F4D0A0480068401CC4
:102C40009E4908609C48006800783F2808D10846E3
:102C50000068012804D1FFF7C4FAFFF774FF84E08D
:102C60009548006800781B2808D19448006801281E
:102C700004D1FFF7ADF9FFF766FF76E08E480068F4
:102C800000780A281DD18D480068022819DB8A487F
:102C9000006810F8010C0D2813D10020864909683E
:102CA00001F8010C85480068811E8248FFF755FA3B
:102CB000FFF749FF83480068002856D0BDE8F08739
:102CC00059E07E48006864280FD10020794981F8D6
:102CD00064007A4801687748FFF73FFAFFF733FF4F
:102CE00078480068002840D0E8E773480068401C36
:102CF0007149086039E073480068012835D17E4881
:102D00000068FFF779F980B37B480068401C7A4976
:102D100008607A480068401C7849086008460068E6
:102D200077490968884204D074480068B0F5806F1C
:102D30001BD17448026871480168734801F0E6FDD0
:102D40000546002D06DA294670A0FFF77BF9012021
:102D5000FFF7CCF97848006820B1784800687649D8
:102D600009688847002057490860FFF73BF90028A9
:102D70007FF459AF1FE042F21071394488B201F07C
:102D800046FFC0B14F48006830B94E48006890B95E
:102D90004A48006800280EDD01F036FF81464B46A8
:102DA0003A464848016866A0FFF74CF9FFF7CBFEAA
:102DB00000204449086043480068022833D10024B9
:102DC0002AE04F480068001BB0F5806F02D34FF433
:102DD000806602E04A480068061B4A4800680219FB
:102DE0003146494801F0B4FD0546002D09DA29466F
:102DF00061A0FFF727F90120FFF778F9FFF7E8F85E
:102E000008E03348006828B132463F490020304B83
:102E10001B68984704F58064394800688442D0D321
:102E20000020284908602C48006888B108E028483C
:102E3000006828B142465B490020254B1B68984733
:102E40004FF48071574801F0F9FEB0F10008EEDC54
:102E500000BF33E71D4908607047382900DA704722
:102E60002722125C13062622125C43EA0243252223
:102E7000125C43EA022290F824301A43134B5A6042
:102E80001A46526812B942F6E0625A603722125C62
:102E900013063622125C43EA02433522125C43EAEF
:102EA000022290F834301A43084B9A6000BFD6E7EC
:102EB0007047000094050810580108105C010810C4
:102EC000680108106C0108107001081060060810F5
:102ED0006001081064010810E8020810526563657B
:102EE00069766520627566666572206F76657266C2
:102EF0006C6F770A000000007C0108108001081048
:102F000074010810780108106C070810535744200A
:102F1000636F707920746F2072616D20696E7465C3
:102F2000726E616C206572726F7220307825382E57
:102F3000386C580A0000000088010810840108104D
:102F400052782074696D656F75742C206D6F64659F
:102F50002025642C206C6173743D2564206D732CD6
:102F6000206E6F773D2564206D732C20656D707425
:102F7000793D25640A00000053574420726561645E
:102F8000206D656D6F727920696E7465726E616C0B
:102F9000206572726F7220307825382E386C580A8E
:102FA000000000006C0608100FB410B59AB0FC4881
:102FB000406AB0B11DA819906846199A1C9902F090
:102FC00079FF044600201990F648006820B1214698
:102FD0006846F44A1268904720461AB010BC5DF863
:102FE00014FB0020F9E710B520210520FEF7FEFCB8
:102FF00040210520FEF7F6FC01F006FEE8490968CD
:10300000441800BFA0B201F002FE0028FAD010BDA3
:1030100010B520210520FEF7E5FC40210520FEF734
:10302000E5FC01F0F1FDDE494968441800BFA0B29B
:1030300001F0EDFD0028FAD010BD10B500230822E4
:1030400006210120FDF7DEFC012251021046FEF7A9
:10305000B7FC4FF480710120FEF7C4FC10BD10B521
:103060004FF480710120FEF7C1FC0023502206219D
:103070000120FDF7C7FC00224FF400710120FEF78C
:103080009FFC10BD00BF011EA0F10100FBD17047E5
:1030900010B504460FE00120FFF7F4FF4FF4805114
:1030A0000020FEF79FFC0220FFF7ECFF4FF4805159
:1030B0000020FEF79BFC201EA4F10104EBD110BD03
:1030C00010B504464FF400710120FEF78FFC204636
:1030D000FFF7DEFF4FF47A70FFF7D4FF10BD10B595
:1030E0004FF400710120FEF77DFC3720FFF7D0FF81
:1030F00010BD70B504460D46002612E004F0010034
:1031000028B14FF400710120FEF76CFC04E04FF48D
:1031100000710120FEF76AFC64080120FFF7B8FF88
:10312000761CAE42EAD370BD2DE9F04707460E4645
:1031300090464FF000090024FFF77FFF4FF4007125
:103140000120FEF74FFC0120FFF7A2FF37B14FF43B
:1031500000710120FEF746FC641C04E04FF400718E
:103160000120FEF743FC0120FFF792FFB8F1000FAA
:1031700006D04FF400710120FEF734FC641C04E01B
:103180004FF400710120FEF731FC0120FFF780FFB2
:1031900006F0010030B14FF400710120FEF722FC6F
:1031A000641C04E04FF400710120FEF71FFC0120B5
:1031B000FFF76EFF06F0020030B14FF400710120FE
:1031C000FEF710FC641C04E04FF400710120FEF7D0
:1031D0000DFC0120FFF75CFF04F0010028B14FF463
:1031E00000710120FEF7FEFB04E04FF400710120A6
:1031F000FEF7FCFB0120FFF74BFF4FF400710120AD
:10320000FEF7F4FB0120FFF743FF4FF400710120AC
:10321000FEF7E8FB0120FFF73BFFFFF720FF01204F
:10322000FFF736FF0120FEF7E6FBC0F34025012043
:10323000FFF72EFF0120FEF7DEFBC0F3402000EB7E
:1032400045050120FFF724FF0120FEF7D4FBC0F362
:10325000402000EB45050120FFF71AFF022D02D1A7
:103260006FF0630908E0012D02D16FF0640903E0FB
:10327000042D01D06FF065094846BDE8F0872DE9BF
:10328000F04780468946144600260027002249461A
:103290004046FFF749FF0746002F02DA3846BDE8EF
:1032A000F0870120FFF7F4FEFFF7C7FE0026002598
:1032B00013E004F0010030B14FF400710120FEF77B
:1032C00091FB761C04E04FF400710120FEF78EFBA9
:1032D00064080120FFF7DCFE6D1C202DE9D306F009
:1032E000010028B14FF400710120FEF77BFB04E0E0
:1032F0004FF400710120FEF779FB0120FFF7C8FEB3
:103300000A20FFF7DDFEFFF7AAFE0020C7E72DE940
:10331000F04781468A46154600270026B04601221E
:1033200051464846FFF700FF8046B8F1000F02DA29
:103330004046BDE8F087002600240DE00120FEF79E
:103340005AFBC0F3402018B10120A0400743761C6F
:103350000120FFF79DFE641C202CEFD30120FEF717
:103360004AFBC0F3402000B1761C4FF400710120ED
:10337000FEF73CFBFFF761FE0A210020FFF7B9FED4
:103380004FF47A70FFF77EFE05B12F6006F0010062
:1033900008B16FF06608FFF762FE4046C9E700001B
:1033A0006C0B0810DC0208102DE9F04105460F46B1
:1033B0000026052D03D16FF06700BDE8F0810024E1
:1033C00014E04CB106F1650020B91E210020FFF782
:1033D000EBFF01E03046F0E7A9083A460020FFF78E
:1033E0004EFF0646002E00DB02E0641C032CE8D3EF
:1033F00000BF3046E1E72DE9F04105460F460026C3
:10340000052D03D16FF06700BDE8F081002414E0C2
:103410004CB106F1650020B91E210020FFF7C4FF62
:1034200001E03046F0E7A9083A460020FFF76FFFB9
:103430000646002E00DB02E0641C032CE8D300BF2C
:103440003046E1E7F8B506460C4617460025002051
:103450000090009866F31F6000902109009861F3C6
:103460000710009008200099FFF79EFF054605F120
:10347000650018B91E210020FFF796FF002D01DA24
:103480002846F8BD3A46C4F381010120FFF7F7FE54
:1034900005462846F5E7F8B505460C4616460027CA
:1034A00000200090009865F31F60009021090098AB
:1034B00061F30710009008200099FFF775FF074699
:1034C0003246C4F381010120FFF721FF074632464F
:1034D00003210020FFF71BFF07463846F8BD70B5F3
:1034E00004460D46002624F0030422460421F84831
:1034F0000078FFF7A7FF0646002E01DA304670BDC0
:103500002A460C21F2480078FFF79CFF0646304619
:10351000F5E7F8B504460D46002624F003042246DC
:103520000421EB480078FFF78DFF0646002E01DAF4
:103530003046F8BD6A460C21E5480078FFF7ABFF3E
:10354000064605B12E600098F3E72DE9F0410446E8
:103550000F469046002524F0030422460421DC484F
:103560000078FFF76FFF0546002D02DA2846BDE818
:10357000F08100260CE03A463F1D0C21D44800782B
:10358000FFF789FF0546002D00DA03E0241D761CB5
:103590004645F0D300BF2846E9E770B5054600264A
:1035A0000021CC48FFF7B5FF04464FF6FE700440FB
:1035B00025B124F00804C848044302E0C648401E70
:1035C00004432146C348FFF78AFF0646304670BDD4
:1035D00070B501F019FB0546C049BE48E438FFF755
:1035E0007EFF044600BF0021BA48FFF792FF044661
:1035F000BB490989294488B201F009FB10B16FF079
:10360000630070BD04F000700028ECD00020F8E7E3
:1036100010B50024B049AF48FFF761FF0446002C05
:1036200001DA204610BD2046FCE710B50024AA4967
:10363000091DA848FFF753FF0446002C01DA204675
:1036400010BD2046FCE770B5002401F0DDFA064607
:10365000A1490A319F48FFF742FF0446002C01DAD6
:10366000204670BD00BF00219A48FFF752FF054673
:103670009B490989314488B201F0C9FA10B16FF051
:103680006300EEE705F40030B0F5003FEBD12046D3
:10369000E7E738B569468F48FFF73BFF04460098D7
:1036A000002801DA002038BD04F4003008B1012000
:1036B000F9E70020F7E710B501F0A6FA044609E0A3
:1036C00087490989214488B201F0A1FA10B16FF04D
:1036D000630010BDFFF7DDFF0028F1D00020F8E700
:1036E00070B504460D46002629467A480830FFF793
:1036F000F6FE064644F480317648001DFFF7EFFEE3
:103700000646304670BD70B504460D4621467148E8
:10371000001DFFF7E4FE29466E480830FFF7F9FE6A
:103720000646304670BD6F490860704710B50023EB
:10373000102206210120FDF765F900231022052142
:103740000120FDF75FF90023102211210120FDF770
:1037500059F90423102205210220FDF753F904230F
:10376000102206210220FDF74DF9002310220B2123
:103770000220FDF747F90423102203210220FDF760
:1037800041F9012211021046FEF71AF90122110334
:103790000020FEF715F9012220210520FEF710F97F
:1037A000012240210520FEF70BF9012251021046AB
:1037B000FEF706F90122D1021046FEF701F90122B7
:1037C00008210520FEF7FCF80020474908604FF467
:1037D00000610120FEF706F908210520FEF702F935
:1037E000FFF716FC03203E49086048604FF4FA607A
:1037F00088603E48C8603D48283008613B48183022
:1038000048613B4888613B48C86104200862002049
:103810008862C862086301204863002088630864E6
:10382000486210BDF8B50446FFF70DFF0090009800
:10383000002807DA40F2F5322FA00099FFF7B4FB19
:103840000098F8BD012123480C30FFF748FE009096
:103850000098002807DA40F2FD322FA00099FFF708
:10386000A3FB0098EDE7FFF7B3FE00900098002857
:103870000EDA40F2044231A00099FFF795FB184898
:1038800040F20542816836A0FFF78EFB0098D8E72A
:10389000FFF711FF00900098002806DA40F20E4171
:1038A00039A0FFF781FB0098CBE74FF08071094802
:1038B0000C30FFF714FE00900098002876DA40F2F2
:1038C000164215A00099FFF76FFB0098B9E76DE06D
:1038D000E4020810F0ED00E001005FA00400FA052A
:1038E0006C0B0810DC020810E0020810080000024F
:1038F00004020003FC0100024661696C65642074E7
:103900006F2068616C7420636F7265202D202564C0
:1039100020282564290A00004661696C65642074CA
:103920006F2077726974652044454D4352202D20E5
:10393000256420282564290A00000000436F726571
:1039400020646562756720726573657420666169BD
:103950006C6564202D20256420282564290A000038
:103960005265736574206469646E277420686170A1
:1039700070656E2077697468696E202564206D73A8
:1039800020282564290A00004661696C656420745A
:103990006F207761697420666F7220636F72652093
:1039A00068616C7420282564290A00006946204655
:1039B000FFF7AFFD06460098002808DA40F21E43E4
:1039C0002146F5A0009AFFF7EFFA009839E7314653
:1039D000FCA0FFF7E9FA31460D20FFF781FE0090C9
:1039E0000098002807DA40F22542FDA00099FFF771
:1039F000DBFA009825E76946201DFFF78AFD05469A
:103A00000098002808DA40F22D43211DE2A0009A18
:103A1000FFF7CAFA009814E72946F8A0FFF7C4FA9E
:103A200029460F20FFF75CFE00900098002807DA77
:103A300040F23442F8A00099FFF7B6FA009800E788
:103A4000FCA0FFF7B1FA0020FE490860FFF7E0FD97
:103A500000900098002807DA40F26142FAA000992D
:103A6000FFF7A2FA0098ECE60098EAE62DE9FC4799
:103A700007468846002001900090FFF71CFE019049
:103A80000198002808DA4FF49061AFF20410FFF7B4
:103A90008BFA0198BDE8FC8701A91020FFF733FEDF
:103AA00006460198002806DA4FF49161EFA0FFF76F
:103AB0007BFA0198EEE706F01F00032807D140F2D9
:103AC0008D41F1A0FFF770FA6FF06400E2E7F9486A
:103AD000C1691120FFF704FE01900198002808DA5F
:103AE000F44840F29542C169F3A0FFF75DFA0198EE
:103AF000D0E7F048C568002411E000212846FFF710
:103B0000EEFC01900198002807DA4FF494622946F0
:103B1000F3A0FFF749FA0198BCE72D1D641C052CA2
:103B2000EBDBE4480569002419E034B94FF0FF31BC
:103B30002846FFF7D4FC019004E000212846FFF757
:103B4000CEFC01900198002807DA40F2AF422946E6
:103B5000E3A0FFF729FA01989CE72D1D641C052CB2
:103B6000E3DBD448C568002412E057F82410284647
:103B7000FFF7B5FC01900198002807DA40F2BC423B
:103B80002946D7A0FFF710FA019883E72D1D641C82
:103B9000052CEADBC748C1680020FFF7A1FD0190B2
:103BA0000198002808DAC34840F2C642C168D6A08E
:103BB000FFF7FAF901986DE7BE4801690120FFF7A8
:103BC0008FFD01900198002808DABA4840F2CC42F3
:103BD0000169D6A0FFF7E8F901985BE7B5484069AD
:103BE000411C0E20FFF77CFD01900198002809DAA6
:103BF000B0484069411C40F2D442D5A0FFF7D4F947
:103C0000019847E7AB494869DA49FFF768FC01903A
:103C10000198002808DAA74840F2DD424169D6A0A1
:103C2000FFF7C2F9019835E7A2488069B0B1A14811
:103C30008169DCA0FFF7B8F99E4881690F20FFF782
:103C40004FFD01900198002833DA9A4840F2F7427C
:103C50008169DEA0FFF7A8F901981BE79548816A02
:103C6000E3A0FFF7A1F99349886A01A9FFF751FC86
:103C700005460198002808DA8E4840F20552816A0C
:103C8000E9A0FFF791F9019804E72946C5A0FFF7DD
:103C90008BF929460F20FFF723FD0190019800289A
:103CA00007DA40F211522946C8A0FFF77DF90198C2
:103CB000F0E6FFF7ADFC01900198002806DA40F22B
:103CC0001A51E3A0FFF770F90198E3E6FFF7F3FC60
:103CD00001900198002812DA40F22251AFF25830D8
:103CE000FFF762F9FFF7AFFC69460F20FFF70BFD06
:103CF00081464946DDA0FFF757F90198CAE66D48AD
:103D00000569002412E001A92846FFF702FC48F8E3
:103D100024000198002807DA40F232522946DCA03C
:103D2000FFF742F90198B5E62D1D641C052CEADB6E
:103D30000198AFE610B58AB0142105A801F0A0FDE6
:103D40001421684601F09CFD31200590694605A8C4
:103D5000FFF78CFE0446002C05DA2146D4A0FFF7BD
:103D600023F90AB010BD00BFFBE736480068704772
:103D7000FEB50020029000254FF400610120FDF700
:103D800035FE08210520FDF731FED4A0FFF70CF920
:103D9000FFF729F9AEE100004661696C65642074A3
:103DA0006F20726561642061646472657373203092
:103DB0007825382E386C58202D202564202825643D
:103DC000290A00004C6F6164696E672053502077A8
:103DD00069746820307825382E386C580A00000045
:103DE0004661696C656420746F207365742053505C
:103DF000202D20256420282564290A004C6F616449
:103E0000696E6720504320776974682030782538C0
:103E10002E386C580A0000004661696C6564207495
:103E20006F20736574205043202D202564202825A1
:103E300064290A00526573756D696E6720636F723D
:103E4000650A0000E00208104661696C6564207430
:103E50006F20726573756D6520636F7265202D200C
:103E6000256420282564290A000000004661696C49
:103E7000656420746F20726561642050535220285D
:103E80002564290A00000000436F726520697320D1
:103E9000696E20686172642D6661756C742C206394
:103EA000616E277420757365204941502028256470
:103EB000290A00006C0B08104661696C6564207467
:103EC0006F207365742074686520535020746F20D0
:103ED000307825382E386C5820282564290A0000AF
:103EE0004661696C656420746F207772697465201F
:103EF000746F206C6F6320307825382E386C582012
:103F0000282564290A0000004661696C65642074F4
:103F10006F2073657420523020746F2030782538FC
:103F20002E386C5820282564290A00004661696CE7
:103F3000656420746F2073657420523120746F2083
:103F4000307825382E386C5820282564290A00003E
:103F50004661696C656420746F20736574204C52EF
:103F600020746F20307825382E386C58202825642E
:103F7000290A0000AABEAABE4661696C6564207465
:103F80006F2073657420307825382E386C58207473
:103F90006F20307842454141424541412028256407
:103FA000290A00005573696E672049415020656EEB
:103FB0007472792061646472657373206F66203057
:103FC0007825382E386C580A000000004661696C6C
:103FD000656420746F2073657420504320746F20D3
:103FE000307825382E386C5820282564290A00009E
:103FF00052656164696E672049415020656E747234
:104000007920616464726573732066726F6D2074C9
:1040100061626C6520656E747279206174203078FD
:1040200025382E386C580A004661696C6564207426
:104030006F20726420524F4D206472762074626C3F
:1040400020307825382E386C5820282564290A001D
:104050004661696C656420746F20726573756D6567
:1040600020636F726520282564290A00466F7263F9
:10407000656420636F72652068616C742E20504304
:10408000203D20307825382E386C580A000000007A
:104090004661696C656420746F20726561642030CC
:1040A0007825382E386C5820282564290A0000000D
:1040B0005357442049415020696E697420636D64F0
:1040C00020696E7465726E616C206572726F722009
:1040D000307825382E386C580A000000417373651B
:1040E0007274696E6720746172676574207265739B
:1040F00065740A00E2A0FEF757FFFEF789FF002073
:10410000E64908604FF400610120FDF76BFC0821CF
:104110000520FDF767FC4FF480510020FDF766FC99
:104120004FF480510020FDF75DFC4FF480510020DA
:10413000FDF75CFC4FF480510020FDF753FCFEF7C7
:104140007CFFFEF7CCFF10214EF29E70FEF7D1FFF0
:10415000FEF7C5FF0C210020FEF7CBFF01AA0021CE
:104160000846FFF7D4F802900298002805DACCA0A0
:104170000299FEF719FF0298FEBD1E220021084693
:10418000FFF77DF802900298002805DACBA002998B
:10419000FEF70AFF0298EFE7CF4A01210020FFF760
:1041A0006EF802900298002805DACCA00299FEF77A
:1041B000FBFE0298E0E70020CF49087022E06A4643
:1041C000FC21CD480078FFF766F90290029800289C
:1041D00009DA40F2B253C8480178C8A0029AFEF743
:1041E000E3FE0298C8E7C4480178CDA0009AFEF724
:1041F000DBFE009808B1012508E0BF480078401CAC
:10420000BD490870BC4800780228D8DB00BF3DB922
:1042100040F2BE51C7A0FEF7C7FE6FF06500ABE7E6
:10422000B5480178CEA0FEF7BFFED24A0021B248C1
:104230000078FFF707F902900298002805DACEA06F
:104240000299FEF7B1FE029896E70120FFF7A5F963
:1042500002900298002805DACEA00299FEF7A4FE8B
:10426000029889E70121D348FFF739F902900298B3
:10427000002805DAD0A00299FEF796FE02987BE7A7
:10428000FFF7A6F90290029800280ADAD2A0029954
:10429000FEF78AFED8488168D8A0FEF785FE02980E
:1042A0006AE7FFF708FA02900298002804DADCA017
:1042B000FEF77AFE02985FE74FF08071BD48FFF786
:1042C0000EF902900298002805DADEA00299FEF7A6
:1042D0006BFE029850E702A90F20FFF714FA06467A
:1042E0003146E0A0FEF760FEC348406B002879D05D
:1042F00002A90F20FFF707FA06463146D9A0FEF7BC
:1043000053FEBD48006C002823D0BB48016CDEA0E2
:10431000FEF74AFEB848016CE748FFF7E0F8029064
:104320000298002805DAE5A00299FEF73DFE029802
:1043300022E740F60601E0480830FFF7D0F8029087
:104340000298002829DAE6A00299FEF72DFE0298CD
:1043500012E7A948016AEBA0FEF726FEA648016A0B
:10436000D548FFF7BCF802900298002805DAD3A0E0
:104370000299FEF719FE0298FEE640F60501CE48C6
:104380000830FFF7ACF802900298002805DAD4A0B4
:104390000299FEF709FE0298EEE60021C648001DCC
:1043A000FFF79DF802900298002805DAE1A0029933
:1043B000FEF7FAFD0298DFE6FFF76BF918B1E6A009
:1043C000FEF7F2FD02E0E9A0FEF7EEFDFFF720F9AF
:1043D00002900298002806DAEAA00299FEF7E4FDAE
:1043E0000298C9E62EE0FFF754F918B1EDA0FEF7E8
:1043F000DBFD02E0F0A0FEF7D7FDFFF75CF90290CD
:104400000298002804DAF2A0FEF7CEFD0298B3E687
:1044100002A90F20FFF777F9064677483246016A6E
:10442000F4A0FEF7C1FD0021A3480830FFF757F8BC
:1044300002900298002805DAF9A00299FEF7B4FD6F
:10444000029899E600215B48FFF749F8029002982C
:10445000002805DAFBA00299FEF7A6FD02988BE67C
:104460006548C1691120FFF73BF9029002980028C6
:1044700005DAFCA00299FEF797FD02987CE605E2BA
:104480004465617373657274696E672074617267E5
:1044900065742072657365740A000000E0020810FC
:1044A000535744207265736574206661696C656456
:1044B000202D202564202831290A0000535744204C
:1044C0007265736574206661696C6564202D2025B2
:1044D00064202832290A000001000050535744206C
:1044E0007265736574206661696C6564202D202592
:1044F00064202833290A0000E40208104661696C30
:10450000656420746F2072656164204150256420C9
:104510004944202D20256420282564290A00000014
:1045200041502564204944203D20307825382E38DC
:104530006C580A004661696C656420746F20666976
:104540006E6420636F7265206F6E20616E20616300
:104550006365737320706F727420282564290A00C4
:104560005573696E6720636F7265206F6E204150CE
:1045700025640A00120000235357442072657365B6
:1045800074206661696C6564202D202564202834C0
:10459000290A0000436F72652064656275672065B3
:1045A0006E61626C65206661696C6564202D2025F2
:1045B000640A0000FCED00E04661696C65642074EB
:1045C0006F2077726974652044454D4352202D2039
:1045D0002564202831290A00436F726520646562D2
:1045E0007567207265736574206661696C65642007
:1045F0002D2025640A0000006C0B081052657365BD
:1046000074206469646E27742068617070656E2020
:1046100077697468696E202564206D730A00000054
:104620004661696C656420746F20776169742066E7
:104630006F7220636F72652068616C742028332963
:104640000A0000004661696C656420746F2077720F
:104650006974652044454D4352202D20256420284F
:1046600032290A00526573657420696E746F206286
:104670006F6F74726F6D2E205043203D203078256F
:10468000382E386C580A000053657474696E6720C0
:1046900077722077746368706E7420666F7220532F
:1046A00059534D454D52454D415020307825382EB7
:1046B000386C580A00000000201000E04661696C68
:1046C000656420746F207772697465204457545F65
:1046D000434F4D5030202D202564202831290A00D9
:1046E0004661696C656420746F2077726974652017
:1046F0004457545F46554E4330202D2025642028D2
:1047000031290A0053657474696E672072642077DA
:10471000746368706E7420666F722072657365745E
:1047200020766563746F7220307825382E386C5887
:104730000A0000004661696C656420746F2077721E
:10474000697465204457545F4D41534B30202D20F0
:104750002564202831290A00436F7265206973207F
:1047600068616C746564202831290A00436F7265A2
:10477000206973206E6F742068616C7465642028F2
:1047800031290A00436F7265206465627567207283
:104790006573756D65206661696C6564202D2025E3
:1047A000640A0000436F72652069732068616C744D
:1047B0006564202832290A00436F726520697320DE
:1047C0006E6F742068616C746564202832290A0059
:1047D0004661696C656420746F2077616974206636
:1047E0006F7220636F72652068616C7420283429B1
:1047F0000A0000004869742072642077746368704E
:104800006E7420617420307825382E386C582E2034
:104810005043203D20307825382E386C580A00004F
:104820004661696C656420746F20777269746520D5
:104830004457545F46554E4330202D202564202890
:1048400032290A004661696C656420746F207772B2
:104850006974652044454D4352202D20256420284D
:1048600033290A00436F726520646562756720779B
:104870007269746520726567697374657220666118
:10488000696C6564202D2025640A000069460020BB
:10489000FEF7B1FD02900298002805DAA8A002995F
:1048A000FEF782FB029867E4ACA00099FEF77CFB60
:1048B00002A91020FEF727FF04460298002805DA17
:1048C000ABA00299FEF770FB029855E404F01F00BC
:1048D000032805D1ACA0FEF767FB6FF064004BE442
:1048E000B5A0FEF761FBBC48806B20B1BBA0FEF712
:1048F0005BFBFFF71FFA029810B90120BE49086060
:10490000029839E410B5FEF79EFE10BD2DE9F04780
:1049100080460C469146E11704EB91718910A4EB97
:10492000810119B16FF00100BDE8F087474600250D
:1049300009E002CF09EB0500FEF7D1FD0646002E87
:1049400000DA02E02D1DA542F3DB00BF3046EBE7A5
:104950002DE9F04105460C461646E11704EB91712E
:104960008910A4EB810119B16FF00100BDE8F0815D
:104970002746E01704EB9070821029463046FEF778
:10498000E4FDF3E738B505460C4669462846FEF7D0
:10499000C0FD2060009838BD70B504460D4629461C
:1049A0002046FEF79CFD0646304670BD3C2900DAE5
:1049B0007047C2781206837842EA0342437842EA9B
:1049C000032203781A43844B1A60C2791306827952
:1049D00043EA0243427943EA022203791A437E4BB7
:1049E0005A60C27A1306827A43EA0243427A43EA61
:1049F0000222037A1A43784B9A60C27B1306827BA9
:104A000043EA0243427B43EA0222037B1A43724B8E
:104A1000DA60C27C1306827C43EA0243427C43EAAA
:104A20000222037C1A436C4B1A61C27D1306827DFD
:104A300043EA0243427D43EA0222037D1A43664B66
:104A40005A61C27E1306827E43EA0243427E43EAF3
:104A50000222037E1A43604B9A61C27F1306827F53
:104A600043EA0243427F43EA0222037F1A435A4B3E
:104A7000DA612322125C13062222125C43EA02430B
:104A80002122125C43EA022290F820301A43524B52
:104A90001A622B22125C13062A22125C43EA02439A
:104AA0002922125C43EA022290F828301A434A4B2A
:104AB0009A622F22125C13062E22125C43EA0243F2
:104AC0002D22125C43EA022290F82C301A43424B0A
:104AD0005A633322125C13063222125C43EA024309
:104AE0003122125C43EA022290F830301A433A4BEA
:104AF0009A633722125C13063622125C43EA0243A1
:104B00003522125C43EA022290F834301A43324BC9
:104B1000DA6300BF4CE7042900D07047C278120660
:104B2000837842EA0342437842EA032203781A4335
:104B3000294B1A6400BFF0E727494862704700001C
:104B40004944434F44452072656164206661696C45
:104B50006564202D2025640A000000004944434F6D
:104B600044453A20307825382E386C580A00000029
:104B70005053522072656164206661696C656420DF
:104B80002D2025640A00000043616E277420696EA1
:104B90006974616C697A6520535744202D20636FD6
:104BA000726520697320696E20686172642D666188
:104BB000756C740A0000000053574420636F6E66E2
:104BC000696775726174696F6E207375636365657B
:104BD0006465640A000000006C0B081043616C6C93
:104BE000696E672049415020696E697420636F6D5A
:104BF0006D616E640A000000E00208100E48008833
:104C0000401C0D49088070470B48008870470146DA
:104C1000094802888A4207DB501AB0F5004F01DAD2
:104C2000012070470020FCE7881AB0F5004F01DB37
:104C30000120F6E70020F4E7E60208102DE9F84F1E
:104C40008246894669468F480068FFF79BFE074603
:104C500037B139468CA0FDF7F5F90020BDE8F88F93
:104C60000098012801D00020F8E7694685480068CF
:104C7000001DFFF787FE07462FB1394682A0FDF7DA
:104C8000E1F90020EAE7009C002C32DD4C4500DD14
:104C90004C4626463046F11706EB91718910A6EB7B
:104CA00081010E4455464FF0000820E0754909681F
:104CB000083101EB08006946FFF764FE07462FB193
:104CC000394671A0FDF7BEF90020C7E7009805F846
:104CD000010B0098000A05F8010B0098000C05F87C
:104CE000010B0098000E05F8010B08F10408B0450F
:104CF000DCDB002163480068FFF74EFE07462FB15A
:104D000039466BA0FDF79EF90020A7E75D480068D3
:104D100000F5CC705B490860084600686E49096878
:104D2000401A4FF4CC71B0FBF1F06C49096888422D
:104D300003D3694800685349086020468EE7F0B500
:104D4000C1B004460D4616466548046062480560D9
:104D50006248066062480068624908605E48006810
:104D60004849086060A0FDF76DF9002707E04FF49F
:104D7000807101A8FFF762FF00B904E07F1C57486B
:104D800000688742F3D300BF60A0FDF75BF941B034
:104D9000F0BD2DE9F04707460C46B4F5C87F01DDAC
:104DA0004FF4C87400214F480068FFF7F5FD054631
:104DB00035B129463EA0FDF745F90020BDE8F08752
:104DC000214648480068001DFFF7E6FD05462DB165
:104DD000294637A0FDF736F90020EFE72046E11716
:104DE00004EB91718910A4EB81010C444FF0080889
:104DF00000261FE0F01C385C0106B01C385C01EB9B
:104E00000041701C385C01EB0020B95D00EB01092A
:104E10003449096801EB08004946FFF7BDFD054626
:104E20002DB1294622A0FDF70DF90020C6E708F1B3
:104E30000408361DA642DDDB01212A480068FFF781
:104E4000ABFD05462DB1294619A0FDF7FBF8002062
:104E5000B4E72448006800F5CC7022490860084691
:104E600000681F490968401A4FF4CC71B0FBF1F09B
:104E70001A490968884203D319480068194908602B
:104E800001209BE7FC0208104661696C6564207490
:104E90006F20726561642066726F6D2052414D2EE5
:104EA00020526573756C74203D2025640A00000053
:104EB0004661696C656420746F207772697465203F
:104EC000746F2052414D2E20526573756C74203DD5
:104ED0002025640A00000000F0020810F402081007
:104EE000EC020810F8020810466C757368696E676A
:104EF0002052414D206D61696C626F786573206F3F
:104F00006E207461726765740A000000466C7573E8
:104F10006820636F6D706C657465640A0000000042
:104F20002DE9F04F1646DDE909454FF0000C6246C9
:104F3000634615E0B75C00F0FF0C8CEA070CDFF865
:104F4000EC8008EBCC0CDCE900894FEA102C4CEA31
:104F5000016C88EA0C0089EA1121521C43F100031C
:104F6000171B73EB0507E5D3BDE8F08F70B504465A
:104F70000D46049E194600BFB4FBF2F002FB104040
:104F8000285C01F8010BB4FBF2F4C81AB04200D15E
:104F900001E0002CF0D100BFC81A70BD2DE9F04728
:104FA0008CB0054688462E462148D0F800A02148FE
:104FB000006805901F48406806901E48806807906A
:104FC0001C48C06808901021002005AACDE90010F7
:104FD0000146FFF7A5FFCDE90201002402E0002011
:104FE0002855641C4445FADB00271AE00A2002A970
:104FF0000090C85909AB3C220F49FFF7B7FF814623
:1050000000240BE009A8005D06F8010B701B404569
:1050100003D130460CB0BDE8F087641C4C45F1DB91
:105020003F1D082FE2DB3046F4E70000086D00105A
:105030000001401000500440000308102DE9F04723
:1050400004460F461346D3F8009000252246A44696
:105050000026A84647E01078202802D010780028C3
:105060003DD194453BD2614628E00878202801D004
:10507000087800B921E0087830280BDB0878392857
:1050800008DC06EB860046000878303806444FF00E
:10509000010811E00878412803D100264FF00108EB
:1050A0000AE00878542803D101264FF0010803E0F4
:1050B00000201860BDE8F08700BF491C9142D4D39E
:1050C000B8F1000F07D028466D1C47F82060002675
:1050D0004D4500D108E04FF0000802F1010C1078B6
:1050E00000B901E0521CB6E700BF1D600120E1E7F6
:1050F00070B58CB005460E4604200B90142106A80E
:1051000000F0BEFB142101A800F0BAFB0BAA07A90E
:105110002846FFF793FF10B90C200CB070BD322069
:10512000069001A906A8FEF7A1FC0446002C05DAAA
:105130002146F8A0FCF786FF0120EEE70198ECE796
:10514000F0B58DB006460F46154604200C90182188
:1051500006A800F095FB1821684600F091FB0CAA08
:1051600007A93046FFF76AFF10B90C200DB0F0BD5B
:1051700006A90C98401C41F820503320069069463F
:1051800006A8FEF773FC0446002C05DA2146EBA0C6
:10519000FCF758FF0120E9E70098E7E7F0B58DB08C
:1051A00006460F46154604200C90182106A800F06C
:1051B00067FB1821684600F063FB0CAA07A930467C
:1051C000FFF73CFF10B90C200DB0F0BD0C98032880
:1051D0000DD106A80C9950F8211006AA0C98401C75
:1051E00042F8201006A80C9940F8215004E006A9C6
:1051F0000C98401C41F8205034200690694606A8BF
:10520000FEF734FC0446002C05DA2146D6A0FCF754
:1052100019FF0120D8E70098D6E7F0B58DB0064613
:105220000F46154604200C90182106A800F028FB14
:105230001821684600F024FB0CAA07A93046FFF7A6
:10524000FDFE10B90C200DB0F0BD06A90C98401C55
:1052500041F820503B200690694606A8FEF706FC60
:105260000446002C05DA2146CAA0FCF7EBFE01201B
:10527000E9E70098E7E72DE9F0418CB0074688465A
:1052800015461E4604200B90142106A800F0F8FADB
:10529000142101A800F0F4FA0BAA07A93846FFF779
:1052A000CDFE18B90C200CB0BDE8F0813520069079
:1052B00001A906A8FEF7DAFB0446002C05DA214610
:1052C000BFA0FCF7BFFE0120EDE70298286003981D
:1052D00030600198E7E7F0B58BB007460D461646FB
:1052E000142106A800F0CCFA142101A800F0C8FA95
:1052F00015B101200BB0F0BD3620069001A906A81B
:10530000FEF7B4FB0446002C05DA2146B7A0FCF7F3
:1053100099FE0120EEE7029830600198EAE72DE956
:10532000F0418AB080460D4616461F46142105A856
:1053300000F0A6FA1421684600F0A2FA1DB101207F
:105340000AB0BDE8F08137200590694605A8FEF750
:105350008DFB0446002C05DA2146AFA0FCF772FE57
:105360000120EDE701983060029838600098E7E787
:10537000F0B58BB006460F46154604200A9014215E
:1053800005A800F07DFA1421684600F079FA0AAA0F
:1053900006A93046FFF752FE10B90C200BB0F0BD45
:1053A00038200590694605A8FEF760FB0446002CEE
:1053B00005DA2146A4A0FCF745FE0120EEE701989E
:1053C00028600098EAE7F0B58BB007460E46144611
:1053D000142106A800F054FA142101A800F050FA94
:1053E00016B101200BB0F0BD3A20069001A906A825
:1053F000FEF73CFB0546002D05DA29469CA0FCF78C
:1054000021FE0120EEE70298206003986060049876
:10541000A0600598E0600198E4E72DE9F0438DB0C5
:1054200080468946164604200C90142107A800F0F7
:1054300027FA142102A800F023FA0CAA6946404674
:10544000FFF7FCFD18B90C200DB0BDE8F0830C98F7
:10545000012812D13C2007900020089002A907A83B
:10546000FEF704FB0446002C05DA21468AA0FCF76F
:10547000E9FD0120E8E70298E6E70C98022801D050
:105480000C20E1E7009D0198471905F0030008B1E1
:105490000D20D9E707F0030008B10620D4E700206B
:1054A000306000BFD0E72DE9F0438FB080468946D9
:1054B00017461E46169C02200E9000200C900D9060
:1054C000182106A800F0DCF91821684600F0D8F988
:1054D0000EAA0CA94046FFF7B1FD30B979A0FCF740
:1054E000B1FD0C200FB0BDE8F0830E98022805D066
:1054F0007CA00E99FCF7A6FD0C20F3E70D98206028
:105500002068072805DD7DA02168FCF79BFD0C20A5
:10551000E8E7FFE0535744207072657020736374AE
:10552000727320696E7465726E616C206572726F41
:105530007220307825382E386C580A005357442092
:105540006370792072616D20666C61736820696E8A
:105550007465726E616C206572726F72203078258E
:10556000382E386C580A0000535744206572617316
:105570006520736563746F727320696E7465726EF3
:10558000616C206572726F7220307825382E386C0D
:10559000580A00005357442065726173652070619A
:1055A00067657320696E7465726E616C20657272D6
:1055B0006F7220307825382E386C580A00000000B1
:1055C00053574420626C616E6B20636865636B2087
:1055D000696E7465726E616C206572726F722030D4
:1055E0007825382E386C580A0000000053574420A4
:1055F00072656164207061727420696420696E74E0
:1056000065726E616C206572726F72203078253819
:105610002E386C580A0000005357442072656164AC
:1056200020626F6F74726F6D2076657220696E7480
:1056300065726E616C206572726F722030782538E9
:105640002E386C580A00000053574420636F6D7069
:1056500061726520696E7465726E616C206572722C
:105660006F7220307825382E386C580A0000000000
:1056700053574420726561642075696420696E74B3
:1056800065726E616C206572726F72203078253899
:105690002E386C580A00000053574420736574205C
:1056A000666C736820626E6B20696E7465726E61E1
:1056B0006C206572726F7220307825382E386C58E5
:1056C0000A0000004661696C656420746F20706197
:1056D000727365204641494D20636F6D6D616E6444
:1056E0000A0000004E756D204641494D20706172E0
:1056F000616D73203D2025640A0000004641494D3C
:105700002070616765206E756D626572203D202591
:10571000640A00000C98A8B95020069020680790F1
:105720000897694606A8FEF7A1F90546002D05DA97
:1057300029461BA0FCF786FC0120D3E60020307030
:105740000098CFE60C98012802D130700020C9E6FD
:105750001DA00C99FCF776FC0C20C3E6F0B58DB0CB
:1057600004460D46182107A800F08AF8182101A860
:1057700000F086F8E7B2512007900897099501A933
:1057800007A8FEF773F90646002E06DA314616A082
:10579000FCF758FC01200DB0F0BD0198FBE70000BC
:1057A0005357442072656164204641494D20696E1B
:1057B0007465726E616C206572726F72203078252C
:1057C000382E386C580A0000556E6B6E6F776E205D
:1057D0004641494D206F7065726174696F6E202774
:1057E0002564270A0000000053574420777269742B
:1057F00065204641494D20696E7465726E616C206A
:105800006572726F7220307825382E386C580A0015
:105810002DE9F05F0546002092469B4688460646E5
:10582000814640241BE0284641464746224600F078
:1058300048FA53465A46C01A914110D311461846A9
:10584000224600F02FFA2D1A67EB01084F46224638
:105850000120002100F026FA17EB00094E41201E1E
:10586000A4F10104DFDC484631462A464346BDE840
:10587000F09FD2B201E000F8012B491EFBD2704725
:105880000022F6E710B513460A4604461946FFF70C
:10589000F0FF204610BD2DE9FE4F804681EA03004F
:1058A000C00F0C46009021F0004123F00045B8EBFA
:1058B0000200A94105D24046214690461C460B46AF
:1058C000024623F00040104347D0270DC7F30A00DB
:1058D000C3F30A510290401A019040286BDAC3F3D7
:1058E000130040F4801B0098924620B10023D2EBB5
:1058F000030A63EB0B0B01985946C0F14002504676
:1059000000F0D0F906460D4650465946019A00F07F
:10591000E8F910EB08006141002487EA115284EA9B
:10592000E7731A4340D0009A62B3019A012A4FEA02
:10593000075215DC001B61EB02014FF0004202EA46
:105940000752CDE90042001C41F5801132462B463A
:1059500000F0E8F903B0BDE8F08F40462146F9E7D2
:10596000001B61EB0201001C41F5801300185B4134
:105970002018A2F5001747EB030140EAD570B619CD
:105980006D4111E06D084FEA360645EAC0754FEAF1
:105990000752001B61EB0201001C41F58011490810
:1059A0004FEA30000019514132462B4603B0BDE8A2
:1059B000F04F00F0A8B90098012240000023D0EB7E
:1059C000020263EBE073009821464FEAE074B8EB03
:1059D000000061EB0401E9E783F000435BE781F03D
:1059E000004158E72DE9FE4F81EA030404F000442A
:1059F00021F0004100944FF0000B23F0004350EAE7
:105A000001045ED052EA03045BD0C3F30A54C1F32D
:105A10000A552C44A4F2F3340194A0FB0254C1F3C0
:105A2000130141F48011C3F3130343F4801301FB0A
:105A3000024400FB034E840A970A44EA815447EA71
:105A40008357A4FB076802958D0A05FB07854FEA7B
:105A5000932C04FB0C542705029D4FEA065847EA95
:105A60001637B5EB08056EEB070C870E920E47EA6A
:105A7000811742EA8312A7FB0201B6EB0B0164EB2C
:105A800000042B0D43EA0C335E1844EB1C50DA463D
:105A90005146E7FB0201C5F313044FEA0B3343EA17
:105AA00014534FEA0432019C43EA0603A4F10C04A8
:105AB0000294009CCDE900B400F034F903B0BDE8D5
:105AC000F08F00200146F9E72DE9F04D81EA03044B
:105AD00004F0004B21F0004514464FF0000A23F07B
